:020000040000FA
:1000000030160010ED010000F5010000F7010000BE
:1000100000000000000000000000000000000000E0
:10002000000000000000000000000000F9010000D6
:100030000000000000000000FB010000B5250000EA
:10004000FF010000FF010000FF010000FF010000B0
:10005000FF010000FF010000FF010000FF010000A0
:10006000FF010000FF010000FF010000FF01000090
:10007000FF010000FF010000FF010000191C00004B
:100080005926000085260000FF010000FF01000046
:10009000FF010000B5260000FF010000FF01000085
:1000A000491A0000FF010000FF010000FF010000ED
:1000B000D11D0000291D0000FF010000FF0100000C
:1000C00000F002F800F066F812A030C808382418D2
:1000D0002D18AC4201D100F05DF80FCCA246AB4622
:1000E0000CA730CF2D1B083F3F197C427F1E544484
:1000F0002D090426F441641EAC4201D300F04AF8F5
:100100000126334200D0FB1A3343984754465D46DC
:10011000DFE70000D8580000F8580000103A02D37A
:1001200078C878C1FAD8520701D330C830C101D598
:1001300004680C6070470000704700000023002432
:1001400000250026103A01D378C1FBD8520700D30E
:1001500030C100D50B60704710B5642902D100F0A2
:100160005FF910BD782902D100F090F910BD002090
:1001700010BD1FB50098019901F003FA01F00CFBC6
:1001800004000020002105F0E7F9401C60601FBD5D
:1001900010B510BD01F04BFB1146FFF7EAFF03F06D
:1001A0000FF901F063FB03B4FFF7F2FF03BC02F0A9
:1001B000C5FA000070B505460C46164602E00FCCA5
:1001C0000FC5103E102EFAD2082E02D303CC03C561
:1001D000083E042E07D301CC01C5361F03E0217869
:1001E0002970641C6D1C761EF9D270BD07488047CB
:1001F00007480047FEE7FEE7FEE7FEE7FEE7FEE70B
:1002000004480549054A064B70470000F9250000DF
:10021000C1000000300A001030160010301000102D
:100220003010001070B5064601F08AF905683046B6
:100230000B30C408E400B44201D8002070BD6868E7
:100240002A46002818D00168A14211D30B46214646
:1002500008318B4208D3436801194B6003681B1BAC
:100260000B605160046001E041685160001D70BD89
:10027000024640680028E6D12146284601F06CF984
:100280000028DCD170BD70B50446051F01F058F997
:100290000068002C1AD0446801E020466468002CF5
:1002A00001D0AC42F9D301680A18AA4204D12A68E5
:1002B00005468918016000E0456028684119A1429F
:1002C00005D16168696021684018286070BD6C6064
:1002D00070BD10B5202A04DB0146203A9140002071
:1002E00010BD914020239C1A0346E34019439040DF
:1002F00010BD10B502F0CAFB10BD7047FFFFFFFF35
:10030000F8B50D460646041F01F01AF90268002DE3
:1003100009D0002E0CD028460B30C108C900A942D4
:100320000AD20020F8BD3046FFF7ADFF0020F8BD2F
:100330002846FFF777FFF8BD23688B4208D35A1A87
:10034000082A25D3601804C02160FFF79CFF1FE036
:10035000506801E002464068002801D0A042F9D36D
:100360001F19874216D10768DB198B4212D35D1A19
:10037000082D0AD3456863185D6025680068281851
:10038000401A18602160536002E0236040685060AA
:10039000201DF8BD2846FFF745FF050007D0314670
:1003A0002268121FFFF706FF201DFFF76CFF28468B
:1003B000F8BD00000FB4054910B503AA029801F07A
:1003C0006BF910BC08BC04B01847000030040010E2
:1003D00070B5044685690068C10601D5302600E085
:1003E0002026C00707D070BD62683046A1689047DC
:1003F000206A401C20626D1EF6D570BD70B50446A3
:1004000085690078C00707D170BD6268A1682020A7
:100410009047206A401C20626D1EF6D570BD00001A
:10042000F7B5002575291068009914A611D0C046AB
:10043000C046002802DA404211A608E00099096887
:100440008A0701D50FA602E0490704D50EA60125AB
:1004500001E0C046C046009F0024243704E001F0BC
:1004600082F930313955641C0028F8D12B463246C8
:100470002146009801F0B8F8FEBD00000000000021
:100480002D0000002B0000002000000070B5044685
:100490000D4621461068C046C0462188090502D590
:1004A0000F4A7A4402E00E4A7A440E322346002173
:1004B000243305E006070009360F965D5E54491C9B
:1004C0000028F7D120780023000705D5702D03D030
:1004D000002901D002231132204601F085F870BDB9
:1004E000EA520000F3B50446002081B020622046A5
:1004F000E168884700287DD0252802D06268A1687D
:1005000083E0454F00257F442046E1688847202846
:10051000064608DB312E06D2B819203800780028AC
:1005200001D00543F0E7A80701D50420854300204A
:10053000E0610746A0612A2E0AD0304605F005F892
:10054000002827D0B8000019303E0090866119E0DD
:100550000298BA00121902C8916102902046E1681F
:100560008847012F064617D1E06900281FDA2020AE
:1005700085431CE000980A2180694843009980194E
:10058000303888612046E1688847064604F0DDFF80
:100590000028EFD1012F0AD02E2E08D12046E16885
:1005A00088470646202005437F1C022FC3DBA06935
:1005B000002803DA4042A06101200543E80701D08A
:1005C00010208543002E24D030464138192803D806
:1005D0000120C00205432036204625603146029A9C
:1005E0001546FFF7B9FD00280CD0012807D0ED1DF6
:1005F000E80800E00DE0C0000830029077E72D1D0C
:10060000029574E762683046A1689047206A401CF2
:100610006CE7206AFEBD0000AE520000F7B50F4641
:100620000026009C2578641C002D05D000F080FF7A
:100630000068405DC007F5D12B2D02D02D2D18D0BC
:10064000641E3946029A204601F03AF8002F04D081
:100650003968A14201D1009939607105022400294D
:100660000BDA4042002803DD00F06EFF0460A007B3
:10067000FEBD012080020643E3E70028F8DA00F01F
:1006800063FF04600048FEBDFFFFFF7F10B5024915
:1006900002F0FCF910BD00003004001010B5044653
:1006A00003E002F0F3F9401C08D020780549641CEF
:1006B0000028F6D10A2002F0E9F910BD0020C0435D
:1006C00010BD000030040010034670B502460B4315
:1006D0009B070FD10E4CE60100E008C208C91D1BA4
:1006E0009D433542F9D0D9B21170521C00290DD06A
:1006F0001B0AF8E70B78491C1370521C002B05D01D
:100700000B78491C1370521C002BF3D170BD0000F4
:100710000101010130B5441C03E00178401C0029AF
:100720000DD08107F9D10B4BDD0104C8D11A9143DB
:100730002940FAD0001B0A0603D0C01E30BD001BA2
:1007400030BD0A0401D0801E30BD0902FCD0401E1D
:1007500030BD000001010101F8B5042A2CD3830744
:1007600012D00B78491C0370401C521E83070BD01B
:100770000B78491C0370401C521E830704D00B7871
:10078000491C0370401C521E8B079B0F05D0C91AD1
:10079000DF002023DE1B08C90AE0FFF70BFDF8BDD0
:1007A0001D4608C9FD401C46B4402C4310C0121F12
:1007B000042AF5D2F308C91A521EF0D40B78491C4A
:1007C0000370401C521EEAD40B78491C0370401C75
:1007D000012AE4D409780170F8BD01E004C0091FC2
:1007E0000429FBD28B0701D50280801CC90700D0E9
:1007F0000270704700290BD0C30702D00270401C62
:10080000491E022904D3830702D50280801C891E59
:10081000E3E70022EEE70022DFE700000022030901
:100820008B422CD3030A8B4211D300239C464EE00B
:1008300003460B433CD4002243088B4231D30309C7
:100840008B421CD3030A8B4201D394463FE0C30979
:100850008B4201D3CB01C01A524183098B4201D391
:100860008B01C01A524143098B4201D34B01C01A7C
:10087000524103098B4201D30B01C01A5241C308F4
:100880008B4201D3CB00C01A524183088B4201D363
:100890008B00C01A524143088B4201D34B00C01A4F
:1008A0005241411A00D201465241104670475DE064
:1008B000CA0F00D04942031000D3404253409C4627
:1008C000002203098B422DD3030A8B4212D38901E4
:1008D000FC2212BA030A8B420CD3890192118B427B
:1008E00008D3890192118B4204D389013AD0921125
:1008F00000E08909C3098B4201D3CB01C01A5241E0
:1009000083098B4201D38B01C01A524143098B42A8
:1009100001D34B01C01A524103098B4201D30B0191
:10092000C01A5241C3088B4201D3CB00C01A5241B6
:1009300083088B4201D38B00C01A5241D9D243089D
:100940008B4201D34B00C01A5241411A00D20146DA
:100950005241104663465B1001D34042002B00D544
:100960004942704763465B1000D3404201B50549D8
:10097000002802DC491C084000E00846C046C0468A
:1009800002BD00BFFFFFFF7F704770477047000048
:10099000F0B50C46871A9C410D46861A9D4103D23C
:1009A000C01BA141D21963410D0D1F0DC94EEC1B97
:1009B000AE435CD07F057F0D0026002F51D02D0562
:1009C000AC46A943DD020123ED0A1B051D4320238C
:1009D0001B1B24D41746E740381871412F46E740C7
:1009E000CC199D402818314661410C0D27D1614436
:1009F0009A4013D50023401C594152000ED14008A3
:100A0000400001224B005205D34207D30520400786
:100A1000C14201D5B04900E0B0493046F0BD6B009D
:100A2000002A00D001229A181F23203C1B1B01D54D
:100A3000002302E0E540281871410C0DD7D00124B5
:100A400024050919C407CD0740084908E40F2843C5
:100A50006144002CD5D00024401C61419A40D0D183
:100A6000CDE76A05520DD9D1C90FC907D5E79C4D0D
:100A70004E00002801D0012400E0002434195F005A
:100A8000002A01D0012600E00026BE19954FAC4295
:100A90000CD8AE420AD8B44206D001256D05EC420E
:100AA000BCD010461946F0BD9942FCD00020394612
:100AB000F0BDF0B51FB40C460F46811A9F41254684
:100AC000861A9D4106D20125ED076F40401ABC41B0
:100AD00052187B41210D1E0D8D1BAC467D4D8D4363
:100AE0007ED075056D0D7CD00D05AE46AC431B0365
:100AF0001B0B794D52429D41202366469B1B14D30C
:100B00001746F740381800260090744160462F467B
:100B10000741E41900989D402818664116D4714693
:100B200071189A4025D5012320E093182A466A417E
:100B30005200002B00D0521C1E23203E9B1B002B7A
:100B400061DD3541EE1728186641E8D50018764179
:100B50005B1C9A4000D3401C4B05F3181524E3405E
:100B600010D3002B52D071467118D30FC01802D386
:100B7000491C05B0F0BD0123DB079A42F9D14008BA
:100B80004000F6E701225205B21801D1002853D0E7
:100B90000123CC0ADB029943891E002A08D1020CEA
:100BA00003D0020C0004103902E002460020203974
:100BB0000023550B05D112020823550B01D1520118
:100BC0000D23550C01D112011B1DD50C01D1920032
:100BD0009B1C150D01D152005B1C2025EE1A01E073
:100BE0002CE022E00546F54015439840CA1AE1077B
:100BF00069181305C918002ABBDA03204007081832
:100C0000C10FC9070FE071466118B2E7F10740084C
:100C10000843711071444A000CD001235B059A42CD
:100C2000A7D2C90FC9070020A3E74905490D26D15E
:100C3000002001E00028F4D100219AE7284D660049
:100C4000002801D0012100E0002171185F00002A76
:100C500001D0012600E00026BE19224FA94210D87B
:100C6000AE420ED8B14208D001256D05E94206D04A
:100C70001946A802414010467BE79C4201D021461C
:100C800077E70020394674E710B50C465C4005D57F
:100C90000124E4076340FFF70CFF10BDFFF778FE67
:100CA00010BD30B40C465C4004D50124E407634019
:100CB00030BC6DE630BCFCE670B50124E407614051
:100CC0000D465D4002D4FFF763FE70BD6340FFF741
:100CD000F0FE70BDFF0700000000F0FF0000F07F95
:100CE0000000E0FF0000F87FF0B5F94D0C091E0987
:100CF0002C402E402F468BB0A7437DD0B543FCD06F
:100D0000002E7AD0002CFCD00D465D40ED0F25431F
:100D1000AC1BFF25AD0464190894C502440DC9023B
:100D20002143500DDC0204430120C007014304436A
:100D3000D2020191200C110C00958C46010423462F
:100D40008B430A9161460904E24D8A430991010AE5
:100D50007D4449198039097805464D4301266D18AF
:100D6000F605751B6943C90C640B891C4C43641858
:100D7000B5012C1B250C2E04B4434C434D43210CD0
:100D8000691889090591009DE90701D00121C9076A
:100D900004912C4601996708CD072F434C08059D07
:100DA000E10B4D432D0C29466646754302950D46D1
:100DB00045432E46029D7D1BB44100950D465D4383
:100DC00001942C0C2F040D465543AE462D0C3D438B
:100DD000029503947546049C2D04641B049406D26A
:100DE000029C039D641C002675410395029401AC8E
:100DF00070CC009F7D1B01E03EE162E1B44109043B
:100E00000095079101940599A4086143090C0C46CB
:100E10004443650BE7040C4666467443A646640BE0
:100E20003C43039502947446049DE4042C1B0494F3
:100E300006D2029C039D641C002675410395029412
:100E400001AC70CC009F7D1BB44101940C465C4307
:100E50000095650FE7000C465443A646640F3C43DB
:100E6000039502947446049DE4002C1B049406D25E
:100E7000029C039D641C002675410395029401ACFD
:100E800070CC009F7D1BB441AE09AF06049DC90024
:100E9000AD092F43049DA406AD060495079D344378
:100EA00069180791059DE10B4D432D0C29466646B7
:100EB000754302950D4645432E46029D7D1BB44168
:100EC00000950D465D4301942C0C2F040D465543AF
:100ED000AE462D0C3D43029503947546049C2D04AB
:100EE000641B049406D2029C039D641C0026754179
:100EF0000395029401AC70CC009F7D1BB44101941A
:100F00008C050694079C890A611800950791019C3D
:100F10000599A4086143090C0D464543680BEF048D
:100F20000D46644665436C0B3C43049FED047D1BFA
:100F3000AC4602D20025641C6841009E019D371B0F
:100F400085410846584301950C46460FC500544359
:100F5000600F28436546E4002C1B02D20025401C8C
:100F60006E41019D3F1AB5412846BD0980062843C0
:100F70008446A009BF064E020699A40676180743C8
:100F8000079D002068410A99079019430020099B9A
:100F900000906046FF1913434041E20F64003A435A
:100FA000A4460446D71A8C41A04203D901200090E0
:100FB00020463A46C70F941840416246D20F22435A
:100FC000644664000494009CBE466400D71AA4469C
:100FD000044602978C417746002F01D1A04204D9E4
:100FE0006046401C8446029A2046C40FA6469418C8
:100FF0004041049A0546D20F224364466400D31A46
:101000008D417146002901D1A84202D928461A46CD
:10101000641C10430122002800D016436102002006
:10102000079B891904465C410223002C02DB491806
:1010300013466441089DCE0A2D145D194B056705C2
:10104000E10A2C050D1908993E43C9076940002B98
:1010500008D0934006D30022761C5141002B01D1C9
:10106000760876001C4A002D43DB154241D0AA4386
:101070003FD030460BB0F0BD06180D464D41174C21
:101080007642AC411AD395181C465C41134A6D4216
:10109000A24113D3012252054C00D4420AD15C0074
:1010A000D4420BD04B4002D592021143E2E74900F3
:1010B0004908DFE75940C90FC90718E0002008496F
:1010C000D8E7054801420DD10342F7D0F2E700000E
:1010D0000000FF07754A00000000F07F0000E0FFFD
:1010E0000000F87F114859400143C01241400020E0
:1010F000C0E70123089A9B069A4205DC03225207A7
:101100008918C90FC907B5E7052252078918074A88
:101110001143D2125140ADE770B515461C46024648
:101120000B4628462146FFF7DFFD70BDFFFFFF7F1E
:1011300030B50346CA02400D1043164D164C0A1531
:1011400002D02043002A06DBAA1A002A12DDD04072
:10115000FF2A0BDC30BD5205520D01D14000400882
:10116000AA1A07D4D0404042FF2A01DD002030BD3A
:101170000028FCDD4A00002B01D0012000E0002007
:10118000101801225205D042F0D8C817C043604061
:1011900030BD00001E040000000000800346CA02AB
:1011A000400D10B510430A1504D00124E407204374
:1011B000002A05DB0A4CA21A04D4D040FF2A00DD25
:1011C000002010BD4A00002B01D0012000E00020CB
:1011D000101801225205D042F2D8C817C04310BDE2
:1011E0001E0400001F22030C02D10F22000402D0B3
:1011F000030E03D004E00020014670470002083AC5
:10120000030F01D10001121F830F01D18000921E34
:10121000002801DB4000521E120551184205C01281
:10122000411810467047C10FC90700D04042012243
:1012300092071143D6E701218907D3E7F0B58B4C1C
:101240000F09254689B0BD437BD01D092646AE4314
:10125000FAD00E465E402740F60F3E43254071D03F
:1012600024012142FBD0FF24AD19A4042D1B0395BA
:1012700001252D05DB02DB0AC9022B43C90A2943DC
:101280001E010901040F130F050121431701880BEB
:10129000820391432D098C46A90B1E438A03954373
:1012A000B30B9A0396433F09BA0B9403A7430296E4
:1012B0002E467E430497B6464E19D7190C46019622
:1012C000544305977E43371B7646BF1B3601B6460F
:1012D000BE0B361900967646BC043719009C01D324
:1012E000641C00946400002F01D001263443029E48
:1012F000049F754366467E430496760034196E005B
:1013000034190094029C019E1C196643751BAE465D
:10131000069465464519059C05956C4359437546E9
:101320000891691A0191049E01465143A41B04913E
:10133000611A009C0791E10605D061090122114361
:1013400002E072E06EE06109089D00272C0A2D067C
:101350006918049D7C412A0A2D066918019D624185
:10136000AC0DAD026D185441079A910D92025519BA
:101370006141029A644658435443069B059A5A4376
:10138000121A131B9A0E9B015B187A41010B000580
:10139000C3185141220A200644195A419A4200D2E8
:1013A000491C01204002814203D315230226F64343
:1013B00002E014230326F6432020C51AA94017464D
:1013C000AF40DA400A4320460399D8400914731805
:1013D00019055118039A3843D2075140AC4009D03F
:1013E0000122944006D30022401C5141002C01D11F
:1013F000400840001E4A934212D3012203989206ED
:10140000904207DB0520400709181A480143C01223
:10141000414004E0032040070818C10FC90700201D
:1014200009B0F0BD0020F107FAE705180C464C4161
:1014300011486D42A04115D394181A465A410E48DE
:10144000644290410ED301204A004005824209D3F4
:101450005A00824206D35940C90F084AC9070020E2
:101460001143DDE700200649DAE700000000FF072E
:10147000FE070000FFFFFF7F0000E0FF0000F07F9D
:101480000000F87F10B501469E240002CA15A3078C
:10149000002A02D01843002A04DBA21A002A0CDD1D
:1014A000D04010BD1206120E01D140004008A21A11
:1014B00003D4D04040420028F3DDFF22480012064A
:1014C000904201D9002010BDC817C043584010BD3C
:1014D0001F22030C02D10F2200041CD0030E01D1E5
:1014E0000002083A030F01D10001121F830F01D13E
:1014F0008000921E002801DB4000521ED2055118C8
:10150000021251181922904004D3491C002801D11D
:101510004908490008467047C10FC90700D040423A
:10152000012292071143D3E701218907D0E7000088
:1015300010B500F031F9001D10BD00BF1D400000C6
:101540000048704778010010004870477001001093
:10155000704770477047704738B504460A46002008
:101560006946C046C046002805D00246204600997C
:1015700000F016F9012038BD10B5012000F051F936
:1015800010BDF8B5C046C046054600200C460C20EC
:10159000C0460646A819A0420DD932466946002029
:1015A000C046C046070001D100F03BF90098A042B8
:1015B00000D00546C419FFF7C3FFF61D07460560B6
:1015C000F008C0004619284600F008F8B44204D0DC
:1015D00031463868A21B00F0E3F8F8BD0021016035
:1015E000416070470C207047FFB504460D4681B03E
:1015F000243000902168880604D51022E0699143C8
:10160000216000E00120A84201DD471B00E0002727
:101610000498A1697A191018081AA0612078C006E8
:1016200002D42046FEF7D4FE002608E00398626844
:10163000A168805D9047206A401C761C2062049857
:101640008642F3DB2078C0060AD52046FEF7C0FEAE
:1016500006E06268A16830209047206A401C206242
:1016600038467F1E0028F4DC07E000986268A16815
:10167000405D9047206A401C206228466D1E00286D
:10168000F3DC2046FEF7BAFE2078000602D50220E1
:1016900005B0F0BD0120FBE7084B70B50D467B445B
:1016A00000F09DF80446284601F09CF9002802D07D
:1016B0000020C04370BD204670BD0000EB13000049
:1016C000F7B5154682B00027029C2078641C01976C
:1016D000302802D0002D15D015E020780127641C99
:1016E000782804D0582802D0002D09D00BE0002D16
:1016F00001D0102D07D1207800271025641C02E0AE
:10170000082500E00A250026009610E00099012730
:101710006943081829467143020C80B200908E1864
:101720003804864201D3012001902078641C2946A8
:1017300000F068F80028E9DA0398002805D0002FA7
:1017400001D0641E00E0029C04600198002806D0CD
:10175000FFF7FAFE02210160C81E05B0F0BD009936
:1017600030040843F9E701468008081A02091018F6
:10177000020A1018020C1018C00882001218520039
:10178000891A01E0401C0A390A29FBD2704700007F
:101790000048704770010010004870479001001029
:1017A00010B50346406801E003464068002801D0B8
:1017B0008842F9D31868C3188B4206D0CB1CD808CE
:1017C000C000001D411A521A0146081D0A60FEF7AA
:1017D0005AFD10BD01694A1C02610878704700B5C6
:1017E0008FB002910021059105490193794403913D
:1017F000114604906846FEF775FE0FB000BD00006C
:10180000E5FFFFFF3A2800D23038202302469A43F2
:10181000412A01D310463738884201D30020C04303
:10182000704710B500F030F800F028F810BD75468C
:10183000FFF7AEFFAE46050069465346C008C0003C
:10184000854618B020B5FEF7DBFC60BCB646002626
:101850000027C0C5C0C5C0C5C0C5C0C5C0C5C0C5BE
:10186000C0C5403D490849008D46704710B5044643
:10187000C046C0462046FEF796FC10BD10B50028B5
:1018800001D000F05BFF10BD10B5012805D000218C
:1018900003A000F065F8012010BD09A1F8E70000E1
:1018A00053494752544D454D3A204F7574206F6649
:1018B0002068656170206D656D6F727900000000B1
:1018C0003A2048656170206D656D6F727920636F95
:1018D0007272757074656400024670B50A439207AF
:1018E0002AD11E4DEE0104C808C9541B944334404C
:1018F00017D0D0B2D9B2401A2106014310D190B20C
:1019000099B2401A210401430AD110021902000AB7
:10191000090A401A2102014302D1100E190E401A81
:1019200070BD9A42DFD010BA19BA884201D901209D
:1019300070BD0020C04370BD02780B78401C491C6C
:10194000002A09D09A4207D102780B78401C491C22
:10195000002A01D09A42EFD0D01A70BD01010101D6
:1019600070B505460C460A2000E06D1C00F0E7FE4D
:10197000002D06D028780028F7D102E0641C00F082
:10198000DEFE002C02D020780028F7D10A2000F0DB
:10199000D6FE70BD70B5044616480168102291430A
:1019A00001600120420314498B6813438B600022BD
:1019B000424B202A04D09D180026AE60121DF8E785
:1019C0000E4A02239360D3601361536153629062A5
:1019D0001060D0620A4800680968FEF71FFF2146C0
:1019E000FEF71CFF0002FF21C9434018324908607E
:1019F00070BDC04638820440788004406C4004408A
:101A00006401001010B52C490A68FF239A430A604C
:101A1000072800D900200122130682400C681443D5
:101A20001C430C6082000B461033D0580028FCD5B4
:101A3000072212060B6893430B60410001D500207A
:101A400010BD0004800D10BDB0B51B48016B0A0429
:101A5000120E12D0194A53685B1C536002461032B2
:101A60000023082B1ED0090AD940C90701D01168EC
:101A700000E00021121D5B1CF3E7CA031AD50F4AD0
:101A80000832034610330024082C0BD00D46E540E5
:101A9000ED0703D01D682D04AD0D1560121D1B1D33
:101AA000641CF1E70721090602688A4302600348C3
:101AB00001210160B0BDC04600C00140D00100104E
:101AC000F8B5974E32217160010C01D1070B01E08E
:101AD000C70B0E37B760F760341D354618350D4A11
:101AE000204629469047B069002801D00120F8BD62
:101AF000F74934207060B760F7603078002800D074
:101B0000F4480A463061204629469047B069411E94
:101B10008841F8BDF11FFF1F10B50021074AA82911
:101B200008D05358834203D853189C68844202D883
:101B30000831F4E7FEE7187910BDC04650580000A0
:101B4000F8B56D4C0020A06060600120850720265C
:101B50002E6006202061084F2069062809D12068E0
:101B6000401C2060B84202D203F0DCFCF4E70B20FA
:101B70002061AE612069F8BDFF0F0000B0B51849C3
:101B80000A68022313430B60CA6F20231343CB67F9
:101B90003F21CB43134A1168194011601468012199
:101BA0000C43146054681C40546053680B435360EA
:101BB0008B076C249C614C021568254315605568A1
:101BC00025435560D2225A611A61022801D1A02012
:101BD000D860C803044A1060402018600846B0BDB1
:101BE000048004403040044000E100E070B501246E
:101BF000A507102028600820A861064E2868C006A6
:101C000006D5002E03D003F08DFC761EF6E70024E7
:101C1000204670BDFE0F000010B5374900220A6053
:101C2000012080074368DBB2083B0324E3410A2B11
:101C300028D8C0467B441B795B009F4405120726C9
:101C4000290E231B1D3F34004A600BE0CA68012A9D
:101C500022D110220260072215E010220260092220
:101C600011E08A604A68531C4B608918097E8160C4
:101C700028213AE0042136E00422026008220A61A9
:101C8000826110BD0A220A612EE0FFF7AFFF10BD8E
:101C90004A68CB689A4222D24A68531C4B60891822
:101CA000097E816020E082688B685C1C8C60CB18A8
:101CB00028241A550C220A61102114E082688B68CE
:101CC0005C1C8C60CB1828241A558A6849698A42A2
:101CD000014601D30146183104220A6004E04A6932
:101CE000002A04D0202101600821816110BD10224A
:101CF00002600C22C7E7C046F801001073480121BA
:101D00000170084800220267416742674167426FDD
:101D1000D207FCD081670221017000207047C046C5
:101D2000B80200100080044070B5274C2068504D68
:101D30000007264E1BD5E88E002818D12D20E886F6
:101D40003068000713D4A86B401C010E00D000209F
:101D5000A8633420295C002901D1E96B29640022A1
:101D60002A54EA86EA630120192102F0AFFC2068B8
:101D700040071CD54620295A002918D12D21295267
:101D80003168490713D4A96C491C0A0E00D0002100
:101D9000A96444216A5C002A01D1EA6C2A65002208
:101DA0002A526A54EA640120192102F08FFCA068CB
:101DB00008210143A16000BF00BFA06804210143C6
:101DC000A16000BF00BF70BD14800250FC3F0250F4
:101DD00070B5264C2068264DC007264E1AD0E88ADA
:101DE000002817D12D20E8823068C00712D1A869D9
:101DF000401C010E00D00020A861287D002801D1E0
:101E0000E86928620022EA82EA612A750120192124
:101E100002F05CFC206840071BD5E88C002818D134
:101E20002D20E8843068400713D4A86A401C010EB6
:101E300000D00020A8622420295C002901D1E96A91
:101E4000296300222A54EA84EA620120192102F05F
:101E50003DFCA06801210143A16000BF00BFA06854
:101E600004210143A16000BF00BF70BD1480035076
:101E7000E8020010FC3F0350F8B500910546134CF2
:101E800032206060280C01D1280B01E0E80B0E30F5
:101E9000A060E060261D274618370D4A30463946B7
:101EA00090470120400233216160A5600099E16004
:101EB00020612078002800D006486061304639460D
:101EC000034A9047A069411E8841F8BDB80200103E
:101ED000F11FFF1FE02E0000B0B500221C4B8A420C
:101EE0000ED000241C605C6814252540042DFAD116
:101EF0005C686407FCD51C680470521C401CEEE74B
:101F0000B0BDC04670B50C4605460F4E307800286F
:101F100002D10EA0FEF7C2FB0120307000200C4958
:101F2000A0420FD04A6812231340022BFAD12A781C
:101F30000A604A6814231340042BFAD10A68401C33
:101F40006D1CEDE770BDC046D10300100D00000010
:101F50000800044001207047B0B53B24204600F043
:101F6000D1F8FE210140204600F0DFFA012420468E
:101F700000F0C8F80421204600F0D7FAA548022155
:101F800001607D21C900416104600168C907FCD17D
:101F90003B25284600F0B6F804432846214600F0C9
:101FA000C4FA3C2000F0AEF804460548406B804778
:101FB00060B2002801D4604200E0E04340B2B0BD0E
:101FC000005900000349884201D3002000E00120AD
:101FD000C001704740DD4A1FF44800787047C04692
:101FE00000207047FEB53249086000F0CDF80924A2
:101FF000304E2046B04702900620B047019007209F
:10200000B04700900820B04707460021204600F066
:102010008CFA3B252846B0470146402421432846F8
:1020200000F083FA3B2000F06DF88006FAD42248D5
:1020300000F0FAF83B25284600F064F804432846EF
:10204000214600F072FA3B2000F05CF88006FAD4DA
:102050000920029900F069FA019800040099090228
:102060000818C019FFF7E7F800247C4B2246FFF759
:10207000E5F8FFF793F800F0D7F8204600F012F9E2
:102080002F20C4430D4D0020002C0AD000F0F6F89C
:1020900029193120085C3222895C00F046FAE41CE0
:1020A000F1E700F0EBF8022000F0FCF8FEBDC046BE
:1020B000CC0300100521000000A1BC33A059000092
:1020C000B0B514460D4600F0D9F8284600F0ACF83B
:1020D000052000F0E7F84F48022101607D21C9008A
:1020E0004161012505600168C907FCD100F045F890
:1020F000A04200DD002500F05BF92846B0BDC046D7
:10210000002070471CB501AC00212170012221463E
:1021100000F002F820781CBDFEB500920191124A31
:10212000116880230293994311603A4C022525607F
:102130007D218E006661012727602168C907FCD1D7
:102140007F21084003F0F6F90098019901F0E5FCC1
:102150002560666127602068C007FCD102490868D5
:10216000029A10430860FEBDFC3F005080B50A464D
:1021700001460020FFF7D0FF80BD80B51120FFF79A
:10218000C1FF4008404280BDB0B50D49086820221B
:10219000904308601F48022303607D24E4004461EB
:1021A000012404600568ED07FCD10D6815430D603E
:1021B00003600449416104600168C907FCD1B0BDF6
:1021C000FC3F015070170000B0B50C46054600F00A
:1021D000F4F8601EC1B2352000F0A7F92846214668
:1021E00000F0D6F90224204600F05CF8E7480460CD
:1021F000FF21AA314161012101600168C907FCD1B9
:10220000032000F04FF83F20FFF77CFF0007FAD5CE
:10221000B0BDC0460480014002490A78824200D025
:1022200008707047D0030010B0B5BB494860FFF795
:1022300002F80022BA4BFEF757FDFEF7AFFF044647
:10224000000CC1B20620B54DA847200AC1B2072034
:10225000A847E1B20820A847B0BDC04680844E40E0
:1022600010B50C4600F00AF8AB48807F002800D07B
:1022700010BD3220214600F058F910BD10B5A64916
:102280004A7882420CD04870002000F00BF80124FC
:102290002046FFF737FF7F210140204600F045F937
:1022A00010BDC046B0B50446002806D00020FFF798
:1022B000B3FF032C05D1012004E00120FFF7ACFFA0
:1022C00002E00020FEF719F801252846FFF71AFF63
:1022D000F82101402143284600F027F9B0BD80B520
:1022E0000520FFF7DFFF80BDF0B585B01D460093E8
:1022F00014460E460191FFF7C1FF874884610661CD
:10230000014608310F9A8A760E9A4A760D9E0E760D
:102310000C990391C1770B990491817745610A9DCE
:1023200085832046FEF787FF02460B460020029079
:102330007C49FEF7D9FCFEF7FBFE0446010A0220A9
:10234000764FB847E1B20320B8470198FFF7E4FBA6
:1023500001461220B8470098FFF7DEFB0146132024
:10236000B847290A2520B847E9B22620B8473224C1
:102370002046039D2946B84720462946B84702997A
:102380000498002801D17F20C143701E8641350189
:102390000D4330242046FFF7B5FE6F21014029434D
:1023A000C9B22046B84705B0F0BDC046D4030010FE
:1023B00080B50020FFF776FF80BD80B50120FFF7D4
:1023C00071FF80BDF0B587B0029303920E46FFF710
:1023D00055FF0920FFF796FE4D20FFF793FE0546B7
:1023E0004D484068FFF7EEFD40B2119900911099F9
:1023F00001910F9906910E9905910D9904910C9CEC
:10240000002808D4F11731430E2900DB0E210846BD
:1024100071300E461EE00720112E03DCF8210D401E
:102420002D1D00E005432840072808D1052E00DCBB
:102430000526142E00D3142631460B3107E0022E58
:1024400000DC0226112E00D3112631460E310F205A
:10245000C0430843C1B20920304FB8474D20294638
:10246000B8472D4A009850621046083001994176CD
:102470000699017605989077049890839461039D5E
:10248000D5600298106116720A263046FFF73AFEB0
:10249000402101433046B8472846FEF7CCFE0025D0
:1024A0001F4B2A46FEF720FCFEF742FE0646010AB5
:1024B0000420B847F1B20520B8472046FEF7BBFE1E
:1024C00002460B4617492846FEF70EFCFEF730FE83
:1024D0000446010A0220B847E1B20320B847049C31
:1024E000210A2520B847E1B22620B84705980028E0
:1024F00001D17F20C5430699481E81410E012E431C
:1025000030242046FFF7FEFD6F2101403143C9B260
:102510002046B84707B0F0BDD40300102B250000BB
:1025200080844E4080847E417047E0B501AB1970D5
:102530000122194600F002F88CBD0000FEB50192A0
:102540000291F94A11688027B94311600F4C0221AA
:10255000009121607D218E00666101252560216842
:10256000C907FCD1384302F0E5FF0198029902F057
:10257000E5FF00982060666125602068C007FCD1F7
:10258000E949086838430860FEBDC0460480014040
:1025900080B50A4601460020FFF7D0FF80BD00004D
:1025A000034908604868C006FCD40868C0B2704798
:1025B0000800044010B50F4C2069411C2161092816
:1025C0000FDB0020206100F0C7FE00F019FB00F0D7
:1025D0003BFF00F007F902F06FFA6068401C00D280
:1025E0006060E068411CE160632802DB002020702D
:1025F000E06010BD60030010B0B512480022826395
:102600000121C163C263C163C36BDB07FCD0232319
:1026100003600D4B1C688025AC431C604368DB07DE
:10262000FCD003238366C166C266C166C26ED20750
:10263000FCD00167054A82670548016005481321FF
:102640000160B0BD08800440388204405F00010092
:10265000988004405081044009480168C90705D0AA
:102660000121016012490A68521C0A600168C9060A
:1026700005D5102101600E484168491C4160704732
:1026800000C0004009480168C90705D00121016068
:1026900007498A68521C8A600168C90605D510215D
:1026A00001600348C168491CC160704700000140D7
:1026B0003002001010B501225005084908600F488B
:1026C000036807488178074C63542823838002708D
:1026D000802901D8491C817010BDC04680E200E00D
:1026E000B0020010A409001004494A695206FCD542
:1026F00008604A695206FCD57047C0460080004019
:102700000648011F03220A600121016000220260C5
:1027100001600168C907FCD0002070477480044044
:10272000BFF34F8F034804490160BFF34F8F00BFD1
:10273000FDE7C0460CED00E00400FA05FEE780B5B9
:10274000FFF7D2FF80BD0000F8B50446234E307875
:1027500008280DD82178A51C0022214F914208D0CD
:10276000A3189B785B01FB189B69521C002BF5D0CA
:10277000F8BD411C31707178491C71700095262597
:10278000454329462631B068FDF7BAFD3146267823
:1027900046558860451900206870608C6884A08C5C
:1027A000A884AC1C204600993246FDF7D5FFA878D6
:1027B000400106213954698C7D22D20051433818DA
:1027C000AB8C534301614361002ED1D0207840018E
:1027D00038188561641C761EF6E7C0464003001079
:1027E0008805001010B51648C288D349002A06D0C3
:1027F0000B6880241C430C60511EC18010BD0289EF
:10280000002A06D00B688024A3430B60511E01816F
:1028100010BD0278002A0DD04388C3800B68802445
:1028200023430B60838803810B68A3430B60511E15
:10283000017010BD086880229043086010BDC0463A
:1028400074030010B0B50023094A0C060ED00478BA
:1028500063400824250606D05D08DB0700D05540FC
:102860002B46641EF6E7491E401CEEE798B2B0BD49
:1028700001A0000070B5CA484378924A2B492C4801
:10288000022B13D0012B24D12A4B1C681825254379
:102890001D600C6804231C430C600D6880242543D4
:1028A0000D6005682026B54316460BE00B6804242E
:1028B000A3430B600C6880231C430C600568202434
:1028C00025439C4E056035682543356014681C43DC
:1028D00014600122130204689C4304600B680824FE
:1028E000A3430B60036814490B4003601020C443EA
:1028F000124B186820401860114805682540056093
:102900002024E4430568254005601D6825401D60BE
:1029100003680B400360910203688B430360D1029C
:1029200002688A43026070BDFC3F00500080005086
:1029300000800150A0400440FFFDFFFF00800350D5
:102940000080025070470000B0B507200403204605
:1029500000F028F8132000017D2189002C4D295218
:102960001F21C943002904D06A1803231354491CAA
:10297000F8E701200002002129504D229200A950C1
:10298000AA222A70281841608160C1602720C000F7
:1029900028181421FDF73FFF2046294601F004FACC
:1029A000B0BDC04610B507210C03A04219D1FFF7F6
:1029B000A5F900BF00BF00BF00BF00BF72B6204630
:1029C000FFF77EF800BF62B6FFF79AFE15200201FE
:1029D00000BF00BF00BF00BF00BF0D482146FDF78C
:1029E000E9FB10BD0020C0437047000010B58149CD
:1029F00009780022064BFF2A06D0044618184078B2
:102A0000521C8842F7D100E0FF24E0B210BDC0465E
:102A100038040010F8B5774D2C7B20202C542878F2
:102A200024216854A87AA877002C06D02046FFF706
:102A3000DDFFFF2802D0044600E0AC7828202C54AB
:102A40002B20082100902954AA7D2A23EA542A6BBE
:102A5000134608336B63134609332C790A3C00266E
:102A6000F7B2BC420CD95F1E6B632846CDB23F78EB
:102A700057550546491C009829545B1C761CEFE706
:102A8000002001210A4601F0AFF9F8BD80B5FFF73B
:102A90002BFE80BD01200002264909680140484202
:102AA000484108490968090700D4801CB9490968E8
:102AB000890700D4001DAA490968490600D40830D6
:102AC000C0B27047FC3F0050032804D8000173498E
:102AD00008181430704700207047C046012040029B
:102AE00014490968014048424841AA4A1168C90688
:102AF00000D4801C9A490B68DB0600D4001D0B68CB
:102B00009B0600D408301268920601D410221043AC
:102B10000A68920501D4202210430A68520501D4A4
:102B2000402210430968090501D480210843C0B23E
:102B30007047C046FC3F0150FC3F025080B501F099
:102B4000B7FE1B4800780149087080BD34040010AE
:102B500080B5042001F072FE1548007880BDC046A3
:102B6000004870479809001080B50D484078022849
:102B700005D0012813D1102001F06EFE80BDFFF7B3
:102B8000EBF9FEF750FB0022064BFEF77DF8064AF4
:102B9000064BFEF7A9F8FEF7CBFA0549888080BD01
:102BA000820300100050724030B844000018CC3F3F
:102BB00058020010784880887047C04670B50446B7
:102BC0000C4EB078317C81420DD0F07DA0420AD805
:102BD000B57A284600F0ACFB002805D0307D00F027
:102BE000A7FB002800D070BD03480449C1810570CF
:102BF000F47570BD840300100000001030750000F3
:102C000070B5DC48C1694C1CC461C16A4B1CC3620D
:102C1000C16B4A1CC263C16C491CC164C58A002DCA
:102C200001D06D1EC582C58C002D01D06D1EC584DE
:102C3000C58E002D01D06D1EC5864625465B002E33
:102C400001D0761E46530568002D01D06D1E05602B
:102C5000066AC94D7619B44203D9012404750024CB
:102C60000462046B6419A34204D924230124C454CC
:102C700000230363036C5B199A4204D934220123B5
:102C8000835400220264026D5219914204D94421F6
:102C9000012242540021016570BDC046E8020010C7
:102CA00070B50F22D343164A002B07D0D41828251D
:102CB00000266655382566555B1CF5E70123D36071
:102CC000516118431076FEF73BFF70BDB0B5182474
:102CD0000B4B282C03D000251D55641CF9E7541C10
:102CE000DC6000245C611876E0B2904205D2C01826
:102CF0000D784576641C491CF6E7FEF721FFB0BD50
:102D0000F801001010B5A648016802220A430260CB
:102D1000074900220A6203680124234303600A6012
:102D2000A002044A1368034313600C6610BDC0463A
:102D3000084004400080005099490A6880200243FE
:102D40000A6098490A6882430A60064A022393800F
:102D5000012353801E2313700A6802430A607047E0
:102D6000FC3F02507403001080B5814801680822BE
:102D70001143016007480168114301604B200002C4
:102D800000F070FA19204001034988800020887003
:102D9000088080BDFC3F0350B0020010F8B500F081
:102DA000E7FF0720040315200201744D2846214641
:102DB000FDF700FA7D2086001F20C7432B78AA2B41
:102DC0001BD000932046FFF7EDFD132000012E528B
:102DD0003946002904D06A1803231354491CF8E724
:102DE0004D20800000212950AA2028702720C000F3
:102DF00028181421FDF70FFD009B13200001295A0C
:102E0000002902D0264A91420BD32E5209E0E9193B
:102E10000A5C002A01D00B2A02D3091803220A7087
:102E20007F1C002FF3D1FF200430295C1D480029AE
:102E300008D00121090200226A50691849688142BC
:102E400005D808E0412189006958814209D941210A
:102E5000890000226A502121C9006958814205D8A1
:102E600008E02121C9006958814211D92121C900F6
:102E700000226A50432189006958814203D94320C6
:102E80008000002129503D49204600F08DFFF8BD0B
:102E90004321890069588142F1D8AA2BF3D1F6E782
:102EA000E9030000FFFFFF00B548016840220A4324
:102EB00002607047F8B50125EA4300922C4801688A
:102EC000114001600421CE430268324002600823B1
:102ED000DF43334A14683C40146014683440146083
:102EE00054683C4054605468344054604468009FC7
:102EF0003C40446044683440446094681C4394609F
:102F000094680C43946084682C43846084680C4308
:102F1000846014691C43146113690B4313610269D3
:102F20002A43026102690A4302616807E8490860AE
:102F3000280708600F4E3446143440212046FDF720
:102F40006AFC4420355434203554257435750A48BC
:102F500029020A4A5358B36151184A688C68C968F3
:102F6000B262B463B16409C632607460B160F8BD26
:102F700000800350E8020010E093040038040010C1
:102F80000120000206490A6802430A6005490A68EE
:102F900002430A604B204001034948807047C04605
:102FA00000800250FC3F02507E030010B0B5FFF7D6
:102FB000A9FE0024204601F03FFB012081020A4DBA
:102FC0002846FDF728FCE04308498861C86100F005
:102FD0003BFA1C352020002805D02C60291F0C60EE
:102FE0002035401EF7E7B0BD8805001040030010F3
:102FF000F0B587B0B34801687D22D400224618326C
:103000000A430260924800685E49FDF707FC3849B0
:103010008860081FFF22026004200861354D28786F
:10302000002805D101202870334A1278D2074CD1EC
:1030300000F0ACF801206870FFF71CFC2F4E002454
:10304000748002F0EDF9FFF779FD70882C49884211
:103050004AD002206870FFF70DFC2A48016800245E
:103060002046884718274B20C501009501970294F8
:103070000394049405942348C6690E21224A234BE5
:103080002046B047402000971E4F019402900394C1
:1030900004940594BE691E4B20461C492A46B0473D
:1030A0000D201F21FFF741FA2820FFF72BF82D28CC
:1030B00019D1FFF7EFFC1749414317480818F96881
:1030C00088470220FFF7EEF80EE00022E1235B00C4
:1030D0009A42ADD002230B604C6108600B68DB079D
:1030E000FCD1521CF2E7E443204607B0F0BDC046D5
:1030F000048001408203001088090010580200106B
:10310000634400000059000030750000F0490200DF
:1031100084D3020090D00300C0CA8936B0B5FFF74F
:10312000DDFC8B4C2070FFF7B5FC60702178FF2927
:1031300002D1FFF709FC607804490025044A8A603F
:10314000CD6000F0B7FCE570B0BDC04600000010D7
:10315000983AE80310B50124A0025A490A680243CC
:103160000A603B4800680749FDF758FB0649C860FC
:10317000FF200860042048612046FEF7FFFC10BDD8
:103180008080044040420F0000800140B0B51F49DC
:1031900008680122104308601D480346F933CC6FCC
:1031A0001C43CC671B490A601F21CB431A494C6959
:1031B0001C404C614C6914434C614C6918252543F3
:1031C0004D618C691C408C618B6913438B618A69EA
:1031D000082313438B614A6E03239A434A664B6E5E
:1031E000022213434B660B680724A3430B600B6852
:1031F00013430B60094908600A610020072802D8C0
:103200008B68401CFAE74A60B0BDC04604800440A9
:1032100007070000948004404C4004400000044034
:1032200080B50B4800680B49FDF7F8FA401E010E07
:103230000DD10949094A5060094803680B40032130
:10324000890759180160002090600720106080BD38
:1032500064010010DE260000FFFFFF0010E000E028
:1032600020ED00E0B0B50146144802688023134306
:103270000360026840239A430260114802680124F7
:103280002243026042682243426020030D4A1368D1
:10329000034313600C4D8320E8600C48FDF7BEFA31
:1032A000010AC9B26960C0B228600320E8606C609E
:1032B0000620A860600506490860B0BD0080015086
:1032C000A44004408080044000800040C0C62D001F
:1032D00000E100E00120C1030F4AD36D0B43D36529
:1032E0003F2111600D490A6840239A430A600C4A45
:1032F0000021116050605368DB07FCD090600948E2
:10330000016009480949416003210160AA218160E7
:10331000552181607047C0462480044038820440B3
:10332000D0800440280A001000400040FFFF3F000A
:1033300010B50146064802780020064B0446FF2CD3
:1033400005D059184978641C9142F8D1012010BD6C
:103350008403001038040010B0B516490888401CDA
:10336000088082B21448632A04D814498F31026855
:103370000A4006E093084A2B05D801210902026899
:103380000A430260B0BD4B239D00036864350B4CBB
:10339000AA4203D28F3423400360B0BD01252D0221
:1033A0002B43036048880019904201DA002008800E
:1033B000B0BDC0467E030010FC3F025070FEFFFF10
:1033C000FFF772FDFFF7F2FD11480168114A116025
:1033D0001F210160FFF77EFFFFF7D2FDFFF7ACFC76
:1033E000FFF7C2FCFFF7DAFCFFF764FDFFF718FFF9
:1033F000FFF7B0FE01F078F900F09AFA01F0BAFB9D
:1034000001F070FB01F0E8FBFFF79CFAF4E7C0461F
:10341000308004408809001070B50446103400263E
:103420003546202E09D0A05BFEF77EF801462846DF
:1034300002F0A8F80546B61CF3E77B20C105284634
:1034400002F0E6F870BD0000F0B58BB0132000016B
:10345000BA49085A0290BA4A90690A90D06909900C
:10346000106904905368507801907D20C00003904B
:103470000024B44E2546202C00D14AE16101705C45
:10348000062800D925E177184000C0467844808896
:103490004000874406004F0012001E0165006E00C8
:1034A0002900B869002800D013E10120A04083431F
:1034B0005360B98800295AD1C3E00120A0400342DB
:1034C00000D006E13969002900D1C7E01E46491E37
:1034D0003A89039B534339617B6105433346002A94
:1034E00000D1E8E0974E39E0079308953869002845
:1034F00074D0401E386162000592032000263146D8
:10350000FCF7E7FE0690099F8F43012528463146C8
:10351000059AFCF7DEFE0F430A99069A9143014390
:10352000874A0A9191610997D761A5400898284375
:1035300005466FE00120A040034203D079780029BE
:1035400000D1C6E0B978002900D1C2E03A69002A6A
:1035500079D0511E3961029979610543F14AB8E089
:103560003869002859D0401E38610120A040054329
:10357000AFE008950125A5402B4307935360F969F7
:1035800016464A68F868824210D262000120002183
:10359000FCF79FFE099A0A430A9901430A913046B3
:1035A000B1610992F261089E2E4312E00320387047
:1035B000521E4A6062000021FCF78BFE099A8A4382
:1035C0000A9981430A913046B1610992F261089EDD
:1035D000AE433546079BD44E02467AE0620003268E
:1035E000002530462946FCF774FE099A8A430A9959
:1035F0008143CC480A9181610992C2610120A040B7
:103600000899814308917969002932D0481E786170
:10361000C44A089D079BC44E5BE017466200032026
:1036200000211E46FCF755FE3346BF4E099A8A43D9
:103630000A9981430A91B9610992FA613A460120D7
:10364000A040854345E0049A024238D0491EB97033
:103650000906B44A34D10343536031E085437869A5
:10366000002802D0401E786133D1F888039948437E
:103670002EE0BD803E70B9690029C9D04A78531C3C
:103680004B700A78DBB29342A64E24D2CA189278C5
:10369000520106233746A44EB354079B03437B6075
:1036A000488C039D6843B2181061888C6843506150
:1036B000089D3A460DE003439A4A5360ABE7994AA6
:1036C00085437869002802D0401E786101D1B8880E
:1036D0003861641CCFE6881C511E934EA94206DD5A
:1036E000425D5201B218002393616D1CF6E7002081
:1036F000B861019A521E8B494A70110603D001929B
:10370000089D079B2AE7874A10700190089D079B38
:10371000DFE70498A84202D15088002805D1284646
:10372000144600F089FF224660881561401C81B272
:10373000142900D9002050800BB0F0BD38040010CF
:103740004003001088050010F0B593B00346112027
:103750000101734802914018018C0191476A714838
:103760008469C5697D200390C0000B9000216E4ADA
:103770000E4610910C93402E00D1C0E00F965E5C77
:10378000032E0D9104D1129411950E970F9E49E0CE
:1037900053189869002805D0129411950E970F9E22
:1037A0000C9B3FE056543A460127109887400592FB
:1037B0000697BA434D20870059480E92C2510C9883
:1037C0004118487858708A880A939A800B988242E8
:1037D000049202D90B98888002460892099103202E
:1037E00000210F9AFCF775FD0A462946079291437E
:1037F000234683434B4A129393611191D161042E66
:103800007BD8B20002A39A580C9B0F9E9746C046E5
:103810003B380000933800006D3800002538000068
:10382000CD3800000D992031B61C1098401C109026
:103830003D4A0E9F129C119D9DE708980028F1D0EB
:103840000698059C04433648C451012000213246A5
:10385000FCF73FFD0C9B119A0A4312990143314832
:10386000129181611192C2610E94DBE704430798C3
:1038700005432C488461C5610999C8880A9AD0809B
:10388000098911810399C90041431161129411956D
:10389000C8E70A9A9078002809D104981061019825
:1038A00050611F48109940180299405C90700220A6
:1038B00000213246FCF70DFD119A0A43129901438B
:1038C0001848129181611192C26169E701200021BB
:1038D0003246FCF7FEFC0C9B119A0A4312990143F5
:1038E0001048129181611192C2610998C0880A9AA8
:1038F000D0800E494843106194E70C9B46E7094885
:10390000C068B84208D007200003054C214600F0EB
:103910004BFA4D20800027580248C76013B0F0BD15
:1039200038040010400300108805001060EA000011
:10393000B0B5044C207801256840A06001F0F2FD8C
:103940002570B0BD60030010404800210170704731
:10395000F8B50C46054600260F4F002F19D000F091
:103960007DF8442000F09EF800F094F8FF2804D081
:10397000064600F087F87F1CEFE7002D03D02846AD
:10398000214600F08BF800F07DF8304801210170ED
:10399000FF26F0B2F8BDC046F0D8FFFF80B500208A
:1039A0000146FFF7D5FF80BDF8B51C461546064613
:1039B000002906D0254F3878002802D1FFF7EEFF06
:1039C000F9E700F04BF8304600F06CF82846214645
:1039D00000F064F800F056F81C4800210170F8BDB2
:1039E000B0B50C46054600F039F82846214600F0EF
:1039F0005DF800F047F8154800210170B0BDC046E1
:103A0000B0B51C461546FFF7EBFF28462146FFF7E9
:103A10009FFFB0BDF8B51C4615460646002906D0E6
:103A20000A4F3878002802D1FFF7B8FFF9E700F015
:103A300015F8304600F036F82846214600F036F8F2
:103A400000F020F8014800210170F8BD3504001095
:103A50000F48016804220A43026070470C4801685D
:103A60008022914301607047094801680422914314
:103A70000160704702480168202008407047C04636
:103A8000FC3F01500248016880220A4302607047EF
:103A9000FC3F005080B500F03BF880BD80B500F0E1
:103AA0003CF880BD80B501F045FD80BD80B501F0DA
:103AB00045FD80BD10B512494978022905D001297C
:103AC0001CD1402101F0D2FC10BD0E4C4443FEF746
:103AD00074FC0D4820180D4CE16888470420FEF75F
:103AE000E1FBA048022101606921890041610121B7
:103AF00001600168C907FCD1606B804710BDC046FA
:103B00008203001090D00300C0CA8936005900001B
:103B100080B5FF20FEF744FD80BD80B50246084613
:103B20001146FEF7D9F980BD0A48016801220A4012
:103B30000068400802210140881807490A685208B5
:103B400004231340C0180968490008220A4080185D
:103B50007047C046FC3F0350FC3F025010B5014681
:103B600000010A4B1A18D069146AA04200D82046F6
:103B7000074CA04207D81432890059184968891C9B
:103B800052688A4200D2002010BDC046E8020010F0
:103B9000E0930400F0B597B00446807801252946EB
:103BA000814060788000494E3058EA0383588B4347
:103BB000835007A84021FCF72EFE01F0B3FC60788B
:103BC000800031580494A07800220192404C414B6F
:103BD000414E644F03952A468240081919460368EE
:103BE0001A4203D1761C491EF9D155E001F09AFC26
:103BF00002200290386039487861039A3A60386848
:103C0000C007FCD107A80199435C0021082924D0F2
:103C1000059106930499487880002C4A105805595C
:103C20008C7801F07FFC039A029838602C48786108
:103C30003A60E540E80703D00020069B059903E0C1
:103C4000104605998840069B0343214C3868C007FD
:103C5000FCD17F200340491CD8E707A801994354B1
:103C600004998878824049788900184B59580B1973
:103C70001C68224202D0761CFAD30AE0019A521C38
:103C80000192412A039D124C124B134EA3D14120A5
:103C900001E00198401C019001F044FC07A8007865
:103CA000002808D00198C0B2FCF7BCFA07A9FCF7BD
:103CB0000BFD002104E00120FCF7B4FA0021C94308
:103CC000049A9060084617B0F0BDC046DC59000069
:103CD000FC3F0000A08601006079FEFFD1040000D7
:103CE00041030000FEB502A900274F7024220A708C
:103CF0004500022628463246FEF7E8FFF9430C2825
:103D00002ED10191174C26607D20C00060610120FA
:103D100020602068C007FCD106212846FEF7C0FFBE
:103D20000828F0D0104D28786978AA7800F020FD96
:103D3000002814D028786978000240180B4CE080E5
:103D4000E87829796A7900F013FD0028019907D0F5
:103D5000E878297900024018A080394600E00199EE
:103D60000846FEBD048001402002001098090010A2
:103D700010B50A4C3A206060201D21461C31084ACB
:103D80009047E069002801D0012010BD2346203370
:103D90000FCB044C0FC4002010BDC046B802001069
:103DA000F11FFF1FBC030010B0B50C4607210D0327
:103DB000A84217D1FDF7A2FF00BF00BF00BF00BFA0
:103DC00000BF72B62846FDF77BFE00BF284621469D
:103DD000FEF752F862B6FEF793FC00BF00BF00BFCB
:103DE00000BF00BFB0BD0000F0B587B00D4606466D
:103DF000002A2AD12A21CB484654602E04D1002122
:103E000081770178FE220CE03346613B0178002285
:103E1000032B144600D30C468477032B01D20122D6
:103E2000D2432423C154202142542B21082242543E
:103E3000FC213140602901D0817801E00121C94392
:103E400028228154016B083141633446603CFEF7FF
:103E500021FE042C049500D2D1E0062E039000D15F
:103E6000F2E0102E00D175E1152E00D1ECE0212EEC
:103E700000D1F1E0222E00D113E1232E00D131E157
:103E8000432E00D08BE22B27A649C85D0A6BA64BB8
:103E9000DC781454441CE4B25D881555841CE4B2EB
:103EA0001D682D0A1555C41CE4B21B681355031D6B
:103EB000DCB20B463833DD781555441DE4B24D8F26
:103EC0001555841DE4B28D6B2D0A1555C41DE4B241
:103ED0008D6B155504460834E4B2DD79155504465A
:103EE0000934E4B2CD8F155504460A34E4B2CD6BE3
:103EF0002D0A155504460B34E4B2CD6B1555044616
:103F00000C34E4B2DD7A155504460D34E4B25D8913
:103F1000155504460E34E4B20D6C2D0A15550446B1
:103F20000F34E4B20D6C155504461034E4B2DD7B59
:103F3000155504461134E4B2DB8913550346123398
:103F4000DBB24C6C240AD45403461433DCB24D6CFF
:103F5000764B1E78165504461334E4B215550446C4
:103F60001534E4B25D78155504461634E4B29D78F4
:103F7000155504461734E4B2DB781355034618335D
:103F8000DBB26B4C2468D45403461933DBB2CC78D3
:103F9000D45403461A33DBB28C78D45403461B3313
:103FA000DBB2644C6579D55403461C33DBB224790B
:103FB000D45403461D33DBB2CC7DD45403461E33A8
:103FC000DBB25D4C2478D45403461F33DBB24C780B
:103FD000D45403462033DBB2584C2478D4540346DF
:103FE0002133DBB2564C30346579D5540346223345
:103FF000DBB22479D45403462333CB55D2E1514864
:104000000078022803D15048C168504888472B20C7
:10401000444906900F5C0A6B4D6B08790A380024FE
:10402000E6B2B0420CD96E1C4E633B46FFB22D780F
:10403000D5555B1C1F46069D4B55641C3546EFE766
:10404000102003903B46ADE12B2036490A5C0B6BF8
:104050008C7D9C54531C22E02B2032490690085C36
:104060000A6B3B49097805921154461C00253848D3
:104070008468EFB22046FCF74DFBB842F0B208D995
:10408000E15D059A1154761C0698F9490E546D1C91
:10409000EDE70021059A1154731C0698F4490B545E
:1040A00080E12B20F2490C5C0A6BF44B1D7815550E
:1040B000631C0B54002D05D1CD6A6D78DEB2955589
:1040C000A31C0B540024EE4DEC4E3678B44200D3C2
:1040D00068E12E5D1F46DBB2D6543B467B1C0B5479
:1040E000641CF1E7FEF73CFD2B21E14A535C457A65
:1040F000146BE5545D1CEDB2867A66559D1CEDB2DD
:10410000C6796655DD1CEDB2867966551D1DEDB28A
:10411000467966555D1DEDB2007960559B1D53547F
:1041200040E1C046840300106403001049580000B9
:10413000880900105802001000000010340400101C
:10414000700200108303001000590000C0D3C6366F
:104150008C0900100020CB4FB84704460120B84717
:1041600005460220B847019003200590B84707464E
:10417000FFF7DAFC06902B200290BD4A165C200C5B
:10418000136B9855200A711CC9B25854B01CC0B2A8
:104190001C54F01CC0B2BC4CE1881954301DC0B294
:1041A0006168090A1954701DC0B26168195430461B
:1041B0000830C0B21D54280AF11DC9B25854280C49
:1041C000B11DC9B2585430460930C0B2E18A195401
:1041D00030460A30C0B26169090A195430460B30C2
:1041E000C0B26169195430460E30C0B201991954F9
:1041F000080A0D4631460D31C9B25854280C3146D3
:104200000C31C9B2585430460F30C0B2E18C195449
:1042100030461030C0B2616A090A19543046113074
:10422000C0B2616A195430461430C0B21F54380A03
:1042300031461331C9B25854380C31461231C9B223
:10424000585430461530C0B2E18E195430461630FD
:10425000C0B2616B090A195430461730C0B2616BA5
:10426000195430461830C0B2D1781954304619303C
:10427000C0B29178195430461A30C0B283494C7993
:104280001C5430461B30C0B20979195430461C30DA
:10429000C0B2D17D195430461D30C0B27C49097876
:1042A000195430461E30C0B27A4CE1791954304668
:1042B0001F30C0B2A179195430462030C0B26179A4
:1042C000195430462130C0B2217919543046223079
:1042D000C0B2E178195430462330C0B2A1781954E5
:1042E00030462430C0B26178195430462530C0B20F
:1042F0002178195430462630C0B2674CA18889080D
:104300001954A0888001A1898905890E08183146B1
:104310002731C9B25854A0890001A18A8905090F23
:10432000081831462831C9B25854607F05990840B1
:10433000A18A8900401831462931C9B25854304603
:104340002A30C0B2217F195430462B30C0B2A18C24
:1043500089081954A08C8001A18D8905890E08183F
:1043600031462C31C9B25854A08D0001A18E890567
:10437000090F081831462D31C9B258543420205C39
:1043800031462F31C9B2069C5C5431462E31C9B238
:1043900080005854334630330298135402E02B20E7
:1043A00033490B5C981C324E3077356B2870307A6D
:1043B0006870B07FA8702020305CE8702420305CEA
:1043C00028712820305C68712A20305CA871DCB22A
:1043D000284621461F46FEF735FA2855010A781C63
:1043E000C2B2A954401CC2B28021402AF8D32B216A
:1043F000705401F097F8049802280BD1002529A4E5
:10440000307F85421BD2306B415D2046FBF7D2FFE7
:104410006D1CF5E717480078022814D0012821D137
:10442000327F316B039801F038F8184C00200146B8
:10443000024600F027FAA0788006F7D512E00A209D
:10444000FCF724F911E0154802210160144941618B
:10445000012101600168C907FCD1317F306B064A38
:10446000926A90477078FFF725FB07B0F0BDC04611
:10447000840300108303001000590000B2020010F2
:10448000A40900105D3B0000FC020010580200105F
:10449000000000105803001070020010048001405A
:1044A000204E00002530325800000000F0B585B0E5
:1044B0000446807801252946814060788000584A6A
:1044C0001058EB03C2580A430193C250626803922A
:1044D000544BC2580A43C25001F024F8524E0220F5
:1044E0000490306051487061029535603068C007B3
:1044F000FCD101F017F8A078029B19468140607842
:104500008000474A1058474D42598A434251049807
:1045100030604748706133603068C007FCD1A078D4
:1045200019468140607880003D4A10583D4D4259FF
:104530000A434251049830603E48706133603068ED
:10454000C007FCD100273D46072F26D0A17818468A
:10455000884003990978F940C90708D06178890033
:104560002F4A51582F4BCA588243CA5008E06178ED
:1045700089002B4A51582B4BCA580243CA506D1C14
:1045800000F0D0FF049830602A487061029B3360CD
:104590003068C007FCD17F1CD6E7A1781846884058
:1045A000E90707D1617889001D4A51581D4D4A59C4
:1045B000824306E061788900194A5158194D4A59D9
:1045C00002434A51049830601A4870613360306881
:1045D000C007FCD1A0781946814060788000104A5D
:1045E0001058104D42598A43425104983060114886
:1045F000706133603068C007FCD10399481C49786A
:10460000002903908BD1A078834060788000044912
:104610000858019A81589943815005B0F0BDC046B1
:10462000DC590000FC3F000004800140E02E000047
:104630008A20000041030000F8B5009029490B686A
:10464000012293430B6000BF00BF00BF00BF1F23C8
:1046500013480E685DB2002D1ED40225AE430E60D5
:10466000DEB2009FF74017407E4297023E4000BFF7
:1046700000BF00BF00BF0468BC43A419046000BFB2
:1046800000BF00BF00BF0C682C430C6000BF00BF20
:1046900000BF00BF5B1EDCE716430E60F8BDC046DE
:1046A000FC3F005080B507494A78824208D0042870
:1046B00000D90020487040000349085AFEF7D2FD97
:1046C00080BDC046B0020010D0590000044B9A8053
:1046D000598018700348016880220A4302607047BD
:1046E00074030010FC3F0250F0B5FFB0FFB083B080
:1046F0004D2080000E49085800211C4A0B46202BF3
:104700000ED00124250201AE755255180027AF6165
:1047100075180646DE402640AE8020315B1CEEE771
:1047200001A8FFF711F87FB07FB003B0F0BDC0461D
:1047300038040010B0B50C460B494968C140C907A0
:1047400000D0B0BD21784001084A11541518E07816
:10475000E870FEF7B9F9E8610028F2D04068E16836
:104760000818E860B0BDC04640030010880500107E
:1047700010B5C0430023072B08D8440040B20028DE
:1047800001D53120444020465B1CF4E7484000211D
:10479000072908D8430040B2002801D53120434002
:1047A0001846491CF4E7C0B2811A4842484110BD7E
:1047B00080B577494870342008700220FFF710F95F
:1047C00080BDC04670B50546714E2878002821D0BE
:1047D0000424102821D86D1C31460246002A05D039
:1047E0002B780B706D1C491C521EF7E700223146D6
:1047F0001346FFF705F9FF280ED1FFF73BF9002814
:10480000E3D100200146024600F03CF8B07D0007ED
:10481000DBD502E0002400E00224204670BDC04643
:1048200010B55B4C607015202070022021460246B6
:104830002346FFF7E5F82088208210BD10B5024618
:1048400050200021524C2346FFF7AEF820882082EA
:104850006088608210BDC04610B54D4C6070142059
:1048600020700320062221462346FFF7C9F820883E
:1048700040BA2082608840BA6082A08840BAA08294
:1048800010BDC04610B5424CE270A170607020208F
:1048900020700420082221462346FFF7B1F8208823
:1048A000208260886082A088A082E088E08210BDBB
:1048B00010B5374C01202070082221462346FFF70F
:1048C0009FF820782074E0782075E0882083A08805
:1048D00040BAE082A078617809020818608210BDB1
:1048E00080B50B46024677200021FFF75DF880BDBA
:1048F00070B5FFF7ADF8104C022525600F486061D8
:10490000012626602068C007FCD1FFF7ADF82560BE
:104910000B48606126602068C007FCD1FFF7B2F841
:1049200025607D20C000606126602068C007FCD142
:10493000FFF70AF870BDC046048001407017000000
:10494000581B0000B0B5124C059DE571049DA57182
:1049500063712271A170607032202070100AE070C3
:1049600008202146FFF73CF8B0BDC04610B5084B03
:1049700000249C715C711A71997058703120187004
:10498000100AD87007201946FFF72AF810BDC04654
:104990004802001080B50B46024666200021FFF752
:1049A00039F880BDFCB50090861C002301248B42A1
:1049B00014D05800009A1518019627468F4208D245
:1049C00030882A88824201D928803280B61C7F1C18
:1049D000F4E7019EB61C641C5B1CE8E7FCBD00000C
:1049E00010B50178052936D87944097949008F44F2
:1049F0000222121A0A2A0B218170002242702748D3
:104A00009923036029E00321817001224270234829
:104A10009923C36121E00122827042701F489921CD
:104A20008160114619E002218170012242701B4809
:104A30009923C36011E00021817001224270174860
:104A40009923436009E004218170012242701348D8
:104A50009823036201E042788178012003468B406D
:104A600091000F4A5158C2038C581C438C500D4A78
:104A70008C581C438C5080020B490A6802430A6020
:104A80000A4800680A49FBF7C9FE0A49C860FF20C6
:104A9000086004204861002010BDC04674400440F6
:104AA000DC590000FC3F00008080044064010010DD
:104AB00040420F000080014009488188002905D04C
:104AC000491E81808AB25142514100E001210029F2
:104AD00004D00178012901D1022101707047C0463C
:104AE000B0020010F8B5DA48006800283AD01E4835
:104AF000FCF750FF1D4D2878082801D300202870AE
:104B000000F0E4FC4020FBF78DFB2E78F1006918E3
:104B100088600024402C0AD0F0B2FCF773FF0146F5
:104B20002E78F000281880680153A41CF2E7202199
:104B3000FFF738FFF0B2C0002F18BC682046FEF720
:104B40006BFC696800F064FDFCF79CFCB8812046B2
:104B5000FBF799FBB889800A02D00C3704483880EB
:104B6000701C2870F8BDC046C027090068020010FC
:104B7000FF030000F8B515480168002900D0F8BD12
:104B80001349016001210A0212498D58836A846920
:104B9000A5420ED18E187768856B9F420AD1B66800
:104BA000AE4207D14326B6008E59876CBE42E6D08E
:104BB00000E0856B8C508A18806C53609560D060E3
:104BC00007200003FFF7F0F8F8BDC046E802001028
:104BD000E093040038040010F0B59BB09C480068D6
:104BE000002855D0FDF77AFF9A4C2070FDF752FF50
:104BF0006070994D2889002802D0401E288100E06D
:104C00000020A989002901D0491EA98169890029AC
:104C100002D0491E698100E00021EA89002A01D002
:104C2000521EEA8100040ED1FEF7E2F9002802D0FC
:104C30006420288101E0FEF771FA14201E2104226D
:104C4000FFF744FD6989080403D1FDF78DFF834810
:104C500068816078217E814203D12078617E814223
:104C600007D001201E210022FFF730FD6078FEF7FB
:104C700021FFE889002803D0A0782978814203D158
:104C8000FF2028700020E07560782076207860761C
:104C900000F09AFB0646002855D04020FBF7C2FAE8
:104CA0006C49086300F09EFB00F094FB0220694C05
:104CB000256B2F782771402F00D9B6E0092F00D837
:104CC000B3E01090B81EC1B22846FDF7BBFDE9194C
:104CD0008A1E1278491E0B78697821725E4C604FEB
:104CE00027815C4C2F460837E7621B029A1892B264
:104CF000904200D099E0AA78A272EB7823732879C9
:104D000020746F792775AD79A575002E57D053485B
:104D100051498881002501201E2132220F90FFF782
:104D2000D5FCA77D38462038072860D9384690380A
:104D3000042800D881E038466038042800D3A9E070
:104D400000223846D0E24748007802281ED00128C9
:104D500071D14548006880066DD4002001460246A6
:104D6000FFF790FD414CA078C00664D54020FBF7CA
:104D700059FA384D2863FDF7EBFEA8760020FFF7BF
:104D80004FFD296B2078FFF7ABFD16E03E20FDF7C5
:104D9000B9F904463F20FDF7B5F9A1074BD5400707
:104DA00049D540242046FBF73DFA2A4D2863214689
:104DB000FDF7DCF9FDF7E1F9A876012077E7257822
:104DC000AF422FD1BB4200D075E0002A02D1A070C3
:104DD000A27EE270204CA278A070637861701D4CB6
:104DE00042404B401343D8B24542454193E740000F
:104DF000784480884000874471013D022F015A01A8
:104E00000700070060023F010F988002FBF70AFAD3
:104E1000064620203146002850D003220A70203157
:104E2000401EF8E7A07EFDF7C9FE6078FEF742FE5F
:104E3000206BFBF728FA1BB0F0BD40007844808857
:104E4000400087441500F500AF02D4003F00C04683
:104E500068030010840300100000001070170000A9
:104E6000983A000083030010FC3F015058020010E4
:104E7000E06A0578062000221099FEF7B5FF002DA4
:104E8000D6D1F9484068FDF78DFDFDF787FFFEF7A5
:104E900045F9CDE7102F00D179E2402F7AD0432F8A
:104EA00000D09EE0432000221099FEF79DFF0A20CB
:104EB0000321052273E2FDF7ADFDB9E7242F6FD082
:104EC00004206EE0E06A0178CA070BD0417809043B
:104ED000827812025118C27889180F9A1202E34B95
:104EE000995001788A070BD541780904827812021B
:104EF0005118C278891841229200DC4B99500178F0
:104F00004A070BD541780904827812025118C278F9
:104F100089182122D200D54B995001780A070BD568
:104F200041780904827812025118C2788918432204
:104F30009200CE4B99500178CA0706D00F9909020A
:104F4000CA4A5158CA4A516001788A0706D5412198
:104F50008900C64A5158C64A516101784A0706D5A8
:104F60002121C900C14A5158C14A5162017808073C
:104F700005D543208000BD490858BD494863062037
:104F800000221099FEF730FF07200003B749FEF713
:104F90000BFF4DE701201E213222FFF797FB69E04E
:104FA0000220E16A0A785201B054B0180F9D457092
:104FB0008A784B781B029A18C2800A79C97809024C
:104FC000891801813046FEF7BFFB3046FBF75BF9DD
:104FD000102000221099FEF707FF142029462A46C8
:104FE000DDE103201E213222FFF770FB63E1E06A5E
:104FF000417802781202531813210901F14A5352E1
:105000001F23DB43002BBAD01D462035C678360659
:1050100007793F04BE1947793F02F6198779F619D7
:10502000EE40F50702D0D51886786E545B1CE9E790
:10503000E06A0178E34E711840784870062000223B
:105040001099FEF7D1FE002D00D0F1E6AA203070B5
:105050000720000331469AE701251E213222284607
:10506000FFF734FB002E00D042E1D24880890028AF
:1050700000D13DE1062036E1E16A08784A7811ABBB
:105080005A8418708A789A84C91C0022904205D0EC
:105090008B5C11ADAD18AB70521CF7E711A8002561
:1050A0004570FDF751FB102010992A461DE1FDF7D0
:1050B00057FDE16A4A1CE2620A78427249788172BD
:1050C0000846FEF70FFE002800D140E1152000221F
:1050D0001099FEF789FEFEF73DF8A9E6002D00D0F5
:1050E00000E1002E04D1B3488089002800D0F9E007
:1050F0000F988002FBF796F80D90E06A01460C319C
:105100000B9101460B310A9101460A310991014682
:1051100009310891014608310791C11D0691811D91
:105120000591411D0491011D0391C11C0291811C37
:1051300001910C90401C009000231A4692B2332A31
:1051400000D91DE10C98815C8D099BB20E935F0123
:105150000D98C555C7198D06ED0F7D700098805CC0
:1051600005460F9B1D402126BD554507AD0F202646
:10517000BD55C906890DC0080818B8800198805C23
:105180000299895C0D07ED0F4126BD558D06AD0FC7
:105190004026BD550002401880B28009B8844807F7
:1051A000800D03998D5C6908401844217852049859
:1051B000815C4806C00F6126B855E807800FCD090D
:1051C0004019602578550598855CA807C00F812691
:1051D000B8552807800F8026B8558806800D290904
:1051E0004018642178520698805C0799895CCE0645
:1051F000F60FA123FE544B069B0FA026BB55EB07D1
:105200009B0D40001818CB09C0188423F852089849
:10521000805C03230340C0257B550907890D800866
:105220000818A42178520998805CC109C123F95457
:105230000A99895C4B07DB0FE1257B55CB069B0F59
:10524000E0257B554006800D4B09C018C423F85259
:105250000E9B0B98805C8907890D0818E421785211
:105260000D3208336AE7C046000000103804001011
:10527000FC020010E66A3078514D28707078401CAE
:10528000FAF7D0FF6860A868FAF7FDFFB11C0020AC
:105290007278904204D20A5C6B681A54401CF7E79B
:1052A000696800260E542846FFF79AFB002850D064
:1052B0006868FAF7E8FF152015E02020FAF7B2FF3A
:1052C000054605202870E16A08784A78EA70CA78AD
:1052D000897809028918E9602946FFF72BFA2846E0
:1052E000FAF7D1FF102000221099FEF77DFD9FE50F
:1052F000E06A017840184078FFF7D4F92E49086831
:105300000827384308602D4E332D09D8E06A01780C
:105310008D4205D8405D3146FAF7EBFF6D1CF3E78F
:10532000254D2868B843286000F054F800F0FAF8DA
:10533000FDF740FC0028FBD1222000221099FEF747
:1053400053FD00F047F828683843286070E52320B3
:10535000C9E71B4D2846FFF7A9F82846FEF71AFCB7
:10536000401C01D1A86806706868FAF78CFF2120FC
:1053700000221099FEF738FD01201E2132220EE096
:105380000D9D2846FEF7E0F92846FAF77CFF10202D
:1053900000221099FEF728FD142001210A46FFF78C
:1053A00095F945E5062000221099FEF71DFDFDF751
:1053B000B7F9C04600000010FC3F03503004001055
:1053C0008C0900103804001013480078811E4842F0
:1053D000484170471048002181700170192109016E
:1053E00081807047F8B5044600200B4D0B4EC7B2C4
:1053F000A878401E87420DDAF15D68460170F11908
:105400004978417000211022FBF708F92070B81C80
:10541000641CECE7F8BDC046B0020010A4090010FF
:1054200080B500F011F8074800680068FFF7CAF976
:10543000002800D080BD002001460246FFF722FA76
:1054400080BDC0466801001080B5FFF751FA0548DD
:105450000221016004494161012101600168C9071D
:10546000FCD180BD04800140102700007CB50C46B3
:1054700006460025284629462A46FFF703FA022059
:10548000FFF7CEF90820032100910190304629460C
:1054900022462B46FFF756FA7CBD70B514460E46E1
:1054A00005460320FFF784F9002001460246FFF776
:1054B000E9F90120FFF7B4F920463146FFF76AFA0F
:1054C000802128462246FFF751FA70BD70B5402072
:1054D000FAF7A8FE114D28640024402C07D00720BD
:1054E000FCF790FA0146286C0153A41CF5E7202133
:1054F000FFF758FA2C6C2046FDF78EFFFBF7C2FF32
:105500004426A8532046FAF7BEFEA85BFCF70CF829
:10551000034900F07DF8686070BDC0466802001065
:10552000CF76A93A0248AA2101605521016070474F
:105530000840004080B5FDF733F880BD80B50246D5
:1055400008461146FCF7DEFC80BD30380A2801D23F
:10555000012070470020704710B500290AD0087854
:10556000002807D005487844FCF7B6F9002801D098
:10557000002010BD0248784410BD0000A6040000C1
:105580009E04000070B50125ED0704004C4020D4B6
:10559000441A01D2001B0919C60D4B00F2B2FF2AB2
:1055A00029D01B0E2CD000020C0228432C43D31A06
:1055B000DC40051910D2280A02D3401C6D0611D018
:1055C000761EF6058019FF2A00DA70BDC00DC005F1
:1055D00070BD694000F07AF801200543C541521CB6
:1055E000761CE8E764089C40C90161408900E7D166
:1055F0000124A043E4E71B0E440200D0034870BD21
:10560000002AFCD1C00FC00770BD00BF0000C07FE2
:1056100070B5420064414B005C41120E39D01B0E44
:1056200038D0FF2A3CD0FF2B3AD0D2187F3A400224
:105630004902400A490A4518ED0106004E43000A96
:10564000090A48430104731A4019190C4318990FA9
:1056500004D05B08012149075B1A521CD80904D306
:10566000401CF50301D19D0607D0FF2A08D2D505BD
:1056700006D0E4072043401970BD0125A843F4E794
:10568000002A01DCE00770BD2402FF202043C00592
:1056900070BD1B0EFF2A03D0FF2B01D0E00770BDA9
:1056A000FF2636064500B54206D84D00B54203D860
:1056B000D218FF2A00D0E7E7004870BD0000C07F85
:1056C00070B50125ED0704004C4022D4441A02D2E3
:1056D0006C40001B0919C60D4B00F2B2FF2A4BD0DB
:1056E0001B0E50D000020C02A8432C43D31ADC40FE
:1056F000051B05D5AD0019D36D08761E521E37D097
:10570000F605280A01D2801970BD70416D0603D0DC
:1057100070BD6940FFF73CFF9C40090261404900B1
:1057200001D0401E70BD0124A04370BD6D081DD086
:1057300001202B0C01D12D0410302B0E01D12D0294
:1057400008302B0F01D12D01001DAB0F01D1AD0091
:10575000801CEB0F01D16D00401C361A121A6D002F
:10576000680AF5054019012A02DB70BD002070BDF2
:10577000C036300AC00770BD1B0E440201D1FF2B9A
:1057800000D1024870BD002AF0D070BD0000C07F7B
:105790003031323334353637383941424344454667
:1057A0004030580030313233343536373839616261
:1057B0006364656640307800040000080000000063
:1057C00000000002000100001080807F7E7D7C7B55
:1057D0007A7978777676757473727171706F6E6E90
:1057E0006D6C6C6B6A6A6968686766666564646339
:1057F0006362616160605F5F5E5E5D5D5C5C5B5BC0
:105800005A5A59595858575756565555555454532E
:105810005352525251515050504F4F4F4E4E4D4D8A
:105820004D4C4C4C4B4B4B4A4A4A494949484848D5
:105830004747474746464645454544444444434315
:105840004343424242424141414430313100000031
:10585000280A0000170000001C0C00000F000000C8
:105860003C0F00000700000050140000160000006C
:105870009C1800000E000000781E000006000000CA
:10588000A028000015000000D43000000D0000002A
:10589000F03C000005000000405100001400000032
:1058A000A86100000C000000447A00000400000021
:1058B000E4A200001300000050C300000B00000031
:1058C00024F40000030000008545010012000000E0
:1058D000A08601000A00000048E801000200000064
:1058E0002C8B020011000000400D03000900000095
:1058F00090D0030001000000E093040000000000CD
:10590000E51F0000D91F00007D22000029220000B1
:10591000C120000001210000E9220000C523000091
:10592000551F0000E11F0000C9210000B123000045
:10593000BB230000DF220000292500007B2100009E
:105940002B250000052100003D2500001921000045
:1059500061220000100000100040030000F0000071
:105960000000000000000000000000000000000037
:105970000000000000000000000000000000000027
:105980000000000000000000000000000000000017
:105990000000000000000000000000000000000007
:1059A000000C23000A49001A01000D18000ED20055
:1059B0001FAA00240700271100282D0029D4003039
:1059C0008800324000353F003B020040000041307B
:1059D000004B8025C0126009B00400000000005098
:1059E000000001500000025000000350205B000046
:1059F00000000010700100001C010000905C00001D
:105A000070010010C01400003C01000010010000F3
:105A100043000000F8FFFFFF00404040404040408E
:105A20004040414141414140404040404040404071
:105A30004040404040404040400502020202020215
:105A40000202020202020202022020202020202064
:105A50002020200202020202020290909090909078
:105A60001010101010101010101010101010101036
:105A700010101010020202020202888888888888AA
:105A80000808080808080808080808080808080896
:105A9000080808080202020240000000000000009E
:105AA00000000000000000000000000000000000F6
:105AB00000000000000000000000000000000000E6
:105AC00000000000000000000000000000000000D6
:105AD00000000000000000000000000000000000C6
