:020000040000FA
:1000000000160010D9010000E1010000E30100002A
:1000100000000000000000000000000000000000E0
:10002000000000000000000000000000E5010000EA
:100030000000000000000000E7010000A124000013
:10004000EB010000EB010000EB010000EB01000000
:10005000EB010000EB010000EB010000EB010000F0
:10006000EB010000EB010000EB010000EB010000E0
:10007000EB010000EB010000EB0100005D1B000044
:100080004525000071250000EB010000EB01000098
:10009000EB010000A1250000EB010000EB010000D6
:1000A0008D190000EB010000EB010000EB010000E6
:1000B0001D1D00006D1C0000EB010000EB010000A5
:1000C00000F002F800F05DF812A030C808382418DB
:1000D0002D18AC4201D100F054F80FCCA246AB462B
:1000E0000CA730CF2D1B083F3F197C427F1E544484
:1000F0002D090426F441641EAC4201D300F041F8FE
:100100000126334200D0FB1A3343984754465D46DC
:10011000DFE70000745300009453000070470000B4
:100120000023002400250026103A01D378C1FBD813
:10013000520700D330C100D50B60704710B5642959
:1001400002D100F05DF910BD752902D100F058F917
:1001500010BD782902D100F089F910BD002010BD32
:100160001FB50098019901F0EEF801F0F7F90400CD
:100170000020002104F044FF401C60601FBD10B54A
:1001800010BD01F087FA1146FFF7EAFF03F01AF8F5
:1001900001F09FFA03B4FFF7F2FF03BC02F044FA48
:1001A00070B505460C46164602E00FCC0FC5103E52
:1001B000102EFAD2082E02D303CC03C5083E042E1B
:1001C00007D301CC01C5361F03E021782970641CD8
:1001D0006D1C761EF9D270BD07488047074800475E
:1001E000FEE7FEE7FEE7FEE7FEE7FEE70448054917
:1001F000054A064B70470000E5240000C1000000DE
:10020000000A00100016001000100010001000106E
:1002100070B5064601F076F8056830460B30C40824
:10022000E400B44201D8002070BD68682A46002866
:1002300018D00168A14211D30B46214608318B42E8
:1002400008D3436801194B6003681B1B0B605160A6
:10025000046001E041685160001D70BD02464068C5
:100260000028E6D12146284601F058F80028DCD1C4
:1002700070BD70B50446051F01F044F80068002CFD
:100280001AD0446801E020466468002C01D0AC42DA
:10029000F9D301680A18AA4204D12A6805468918C8
:1002A000016000E0456028684119A14205D16168FC
:1002B000696021684018286070BD6C6070BD10B521
:1002C000202A04DB0146203A9140002010BD9140D5
:1002D00020239C1A0346E3401943904010BD0000C0
:1002E0000FB4054910B503AA029801F0B7F810BC85
:1002F00008BC04B0184700004C050010FFFFFFFFCA
:10030000F8B50D460646041F00F0FCFF0268002DFC
:1003100009D0002E0CD028460B30C108C900A942D4
:100320000AD20020F8BD3046FFF7A3FF0020F8BD39
:100330002846FFF76DFFF8BD23688B4208D35A1A91
:10034000082A25D3601804C02160FFF792FF1FE040
:10035000506801E002464068002801D0A042F9D36D
:100360001F19874216D10768DB198B4212D35D1A19
:10037000082D0AD3456863185D6025680068281851
:10038000401A18602160536002E0236040685060AA
:10039000201DF8BD2846FFF73BFF050007D031467A
:1003A0002268121FFFF7FCFE201DFFF762FF2846A0
:1003B000F8BD70B5044685690068C10601D53026D0
:1003C00000E02026C00707D070BD62683046A168F3
:1003D0009047206A401C20626D1EF6D570BD70B536
:1003E000044685690078C00707D170BD6268A168BE
:1003F00020209047206A401C20626D1EF6D570BDFB
:10040000F7B5002575291068009914A611D0C046CB
:10041000C046002802DA404211A608E000990968A7
:100420008A0701D50FA602E0490704D50EA60125CB
:1004300001E0C046C046009F0024243704E001F0DC
:1004400074F830313955641C0028F8D12B463246F7
:100450002146009800F0AAFFFEBD00000000000049
:100460002D0000002B0000002000000070B50446A5
:100470000D4621461068C046C0462188090502D5B0
:100480000F4A7A4402E00E4A7A440E322346002193
:10049000243305E006070009360F965D5E54491CBB
:1004A0000028F7D120780023000705D5702D03D050
:1004B000002901D002231132204600F077FF70BDE1
:1004C000664D0000F3B50446002081B0206220464E
:1004D000E168884700287DD0252802D06268A1689D
:1004E00083E0454F00257F442046E1688847202867
:1004F000064608DB312E06D2B819203800780028CD
:1005000001D00543F0E7A80701D50420854300206A
:10051000E0610746A0612A2E0AD0304604F068FD4B
:10052000002827D0B8000019303E0090866119E0FD
:100530000298BA00121902C8916102902046E1683F
:100540008847012F064617D1E06900281FDA2020CE
:1005500085431CE000980A2180694843009980196E
:10056000303888612046E1688847064604F040FD3F
:100570000028EFD1012F0AD02E2E08D12046E168A5
:1005800088470646202005437F1C022FC3DBA06955
:10059000002803DA4042A06101200543E80701D0AA
:1005A00010208543002E24D030464138192803D826
:1005B0000120C00205432036204625603146029ABC
:1005C0001546FFF7BBFD00280CD0012807D0ED1D14
:1005D000E80800E00DE0C0000830029077E72D1D2C
:1005E000029574E762683046A1689047206A401C13
:1005F0006CE7206AFEBD00002A4D0000F7B50F46EB
:100600000026009C2578641C002D05D000F072FEA9
:100610000068405DC007F5D12B2D02D02D2D18D0DC
:10062000641E3946029A204600F02CFF002F04D0A9
:100630003968A14201D1009939607105022400296D
:100640000BDA4042002803DD00F060FE0460A007E2
:10065000FEBD012080020643E3E70028F8DA00F03F
:1006600055FE04600048FEBDFFFFFF7F10B502F09D
:1006700079F910BD10B5024902F074F910BD0000FF
:100680004C050010034670B502460B439B070FD183
:100690000E4CE60100E008C208C91D1B9D4335420F
:1006A000F9D0D9B21170521C00290DD01B0AF8E7FD
:1006B0000B78491C1370521C002B05D00B78491C79
:1006C0001370521C002BF3D170BD00000101010119
:1006D00030B5441C03E00178401C00290DD081078F
:1006E000F9D10B4BDD0104C8D11A91432940FAD04E
:1006F000001B0A0603D0C01E30BD001B30BD0A041B
:1007000001D0801E30BD0902FCD0401E30BD00006B
:1007100001010101F8B5042A2CD3830712D00B780C
:10072000491C0370401C521E83070BD00B78491CD8
:100730000370401C521E830704D00B78491C0370C1
:10074000401C521E8B079B0F05D0C91ADF002023C7
:10075000DE1B08C90AE0FFF723FDF8BD1D4608C9E6
:10076000FD401C46B4402C4310C0121F042AF5D291
:10077000F308C91A521EF0D40B78491C0370401CB0
:10078000521EEAD40B78491C0370401C012AE4D4A1
:1007900009780170F8BD01E004C0091F0429FBD2EB
:1007A0008B0701D50280801CC90700D002707047FA
:1007B00000290BD0C30702D00270401C491E022939
:1007C00004D3830702D50280801C891EE3E7002240
:1007D000EEE70022DFE70000002203098B422CD362
:1007E000030A8B4211D300239C464EE003460B4381
:1007F0003CD4002243088B4231D303098B421CD3E3
:10080000030A8B4201D394463FE0C3098B4201D3D4
:10081000CB01C01A524183098B4201D38B01C01A0C
:10082000524143098B4201D34B01C01A5241030983
:100830008B4201D30B01C01A5241C3088B4201D332
:10084000CB00C01A524183088B4201D38B00C01ADF
:10085000524143088B4201D34B00C01A5241411A06
:1008600000D201465241104670475DE0CA0F00D0E9
:100870004942031000D3404253409C4600220309E2
:100880008B422DD3030A8B4212D38901FC2212BA68
:10089000030A8B420CD3890192118B4208D3890140
:1008A00092118B4204D389013AD0921100E0890958
:1008B000C3098B4201D3CB01C01A524183098B4239
:1008C00001D38B01C01A524143098B4201D34B0122
:1008D000C01A524103098B4201D30B01C01A524185
:1008E000C3088B4201D3CB00C01A524183088B420C
:1008F00001D38B00C01A5241D9D243088B4201D395
:100900004B00C01A5241411A00D2014652411046D2
:1009100063465B1001D34042002B00D5494270472B
:1009200063465B1000D3404201B50549002802DC54
:10093000491C084000E00846C046C04602BD00BF52
:10094000FFFFFF7F7047704770470000F0B5F94D1B
:100950000C091E092C402E402F468BB0A7437DD09A
:10096000B543FCD0002E7AD0002CFCD00D465D4063
:10097000ED0F2543AC1BFF25AD0464190894C50297
:10098000440DC9022143500DDC0204430120C0077D
:1009900001430443D2020191200C110C00958C46B6
:1009A000010423468B430A9161460904E24D8A43C0
:1009B0000991010A7D4449198039097805464D435A
:1009C00001266D18F605751B6943C90C640B891C5B
:1009D0004C436418B5012C1B250C2E04B4434C4326
:1009E0004D43210C691889090591009DE90701D043
:1009F0000121C90704912C4601996708CD072F43AF
:100A00004C08059DE10B4D432D0C29466646754368
:100A100002950D4645432E46029D7D1BB44100952F
:100A20000D465D4301942C0C2F040D465543AE46F4
:100A30002D0C3D43029503947546049C2D04641BC4
:100A4000049406D2029C039D641C00267541039504
:100A5000029401AC70CC009F7D1B01E03EE162E19D
:100A6000B44109040095079101940599A4086143D4
:100A7000090C0C464443650BE7040C466646744378
:100A8000A646640B3C43039502947446049DE4041B
:100A90002C1B049406D2029C039D641C0026754105
:100AA0000395029401AC70CC009F7D1BB44101946E
:100AB0000C465C430095650FE7000C465443A64680
:100AC000640F3C43039502947446049DE4002C1B80
:100AD000049406D2029C039D641C00267541039574
:100AE000029401AC70CC009F7D1BB441AE09AF06EF
:100AF000049DC900AD092F43049DA406AD060495CD
:100B0000079D344369180791059DE10B4D432D0C5A
:100B100029466646754302950D4645432E46029D7D
:100B20007D1BB44100950D465D4301942C0C2F04B0
:100B30000D465543AE462D0C3D4302950394754634
:100B4000049C2D04641B049406D2029C039D641C27
:100B5000002675410395029401AC70CC009F7D1B6B
:100B6000B44101948C050694079C890A611800958C
:100B70000791019C0599A4086143090C0D46454362
:100B8000680BEF040D46644665436C0B3C43049FC1
:100B9000ED047D1BAC4602D20025641C6841009E1A
:100BA000019D371B85410846584301950C46460F69
:100BB000C5005443600F28436546E4002C1B02D255
:100BC0000025401C6E41019D3F1AB5412846BD09D4
:100BD000800628438446A009BF064E020699A40653
:100BE00076180743079D002068410A99079019432A
:100BF0000020099B00906046FF1913434041E20F1B
:100C000064003A43A4460446D71A8C41A04203D953
:100C10000120009020463A46C70F94184041624692
:100C2000D20F2243644664000494009CBE466400D4
:100C3000D71AA446044602978C417746002F01D16B
:100C4000A04204D96046401C8446029A2046C40F44
:100C5000A64694184041049A0546D20F22436446A2
:100C60006400D31A8D417146002901D1A84202D9EE
:100C700028461A46641C10430122002800D016435F
:100C800061020020079B891904465C410223002C65
:100C900002DB491813466441089DCE0A2D145D19E4
:100CA0004B056705E10A2C050D1908993E43C90754
:100CB0006940002B08D0934006D30022761C514196
:100CC000002B01D1760876001C4A002D43DB15422B
:100CD00041D0AA433FD030460BB0F0BD06180D46B8
:100CE0004D41174C7642AC411AD395181C465C41D5
:100CF000134A6D42A24113D3012252054C00D44243
:100D00000AD15C00D4420BD04B4002D59202114371
:100D1000E2E749004908DFE75940C90FC90718E071
:100D200000200849D8E7054801420DD10342F7D019
:100D3000F2E700000000FF076D4800000000F07FB0
:100D40000000E0FF0000F87F114859400143C01245
:100D500041400020C0E70123089A9B069A4205DC27
:100D6000032252078918C90FC907B5E705225207A0
:100D70008918074A1143D2125140ADE770B51546A4
:100D80001C4602460B4628462146FFF7DFFD70BD94
:100D9000FFFFFF7F30B50346CA02400D1043164DDA
:100DA000164C0A1502D02043002A06DBAA1A002A94
:100DB00012DDD040FF2A0BDC30BD5205520D01D1AF
:100DC00040004008AA1A07D4D0404042FF2A01DD63
:100DD000002030BD0028FCDD4A00002B01D001209E
:100DE00000E00020101801225205D042F0D8C817A8
:100DF000C043604030BD00001E04000000000080C1
:100E00000346CA02400D10B510430A1504D0012450
:100E1000E4072043002A05DB0A4CA21A04D4D04080
:100E2000FF2A00DD002010BD4A00002B01D0012068
:100E300000E00020101801225205D042F2D8C81755
:100E4000C04310BD1E0400001F22030C02D10F225C
:100E5000000402D0030E03D004E0002001467047D6
:100E60000002083A030F01D10001121F830F01D1C4
:100E70008000921E002801DB4000521E120551180E
:100E80004205C012411810467047C10FC90700D073
:100E90004042012292071143D6E701218907D3E797
:100EA000F0B58B4C0F09254689B0BD437BD01D0999
:100EB0002646AE43FAD00E465E402740F60F3E432C
:100EC000254071D024012142FBD0FF24AD19A40498
:100ED0002D1B039501252D05DB02DB0AC9022B43DF
:100EE000C90A29431E010901040F130F05012143FB
:100EF0001701880B820391432D098C46A90B1E43D1
:100F00008A039543B30B9A0396433F09BA0B9403A4
:100F1000A74302962E467E430497B6464E19D7192C
:100F20000C460196544305977E43371B7646BF1BFC
:100F30003601B646BE0B361900967646BC04371904
:100F4000009C01D3641C00946400002F01D0012692
:100F50003443029E049F754366467E4304967600A2
:100F600034196E0034190094029C019E1C196643CA
:100F7000751BAE46069465464519059C05956C4360
:100F8000594375460891691A0191049E01465143DF
:100F9000A41B0491611A009C0791E10605D0610928
:100FA0000122114302E072E06EE06109089D002712
:100FB0002C0A2D066918049D7C412A0A2D06691801
:100FC000019D6241AC0DAD026D185441079A910D1F
:100FD000920255196141029A644658435443069B54
:100FE000059A5A43121A131B9A0E9B015B187A41F9
:100FF000010B0005C3185141220A200644195A4129
:101000009A4200D2491C01204002814203D3152399
:101010000226F64302E014230326F6432020C51AD5
:10102000A9401746AF40DA400A4320460399D8400A
:101030000914731819055118039A3843D2075140FF
:10104000AC4009D00122944006D30022401C5141FB
:10105000002C01D1400840001E4A934212D30122C5
:1010600003989206904207DB0520400709181A48AA
:101070000143C012414004E0032040070818C10F9B
:10108000C907002009B0F0BD0020F107FAE70518F4
:101090000C464C4111486D42A04115D394181A4694
:1010A0005A410E48644290410ED301204A00400547
:1010B000824209D35A00824206D35940C90F084AD6
:1010C000C90700201143DDE700200649DAE70000E8
:1010D0000000FF07FE070000FFFFFF7F0000E0FFAA
:1010E0000000F07F0000F87FF0B5FF252D04C60951
:1010F000C209FF2704462E400137CB093E43484032
:101100002A402B400746002A6BD0002B69D0AA4208
:1011100067D0AB4265D0002800DA32460125ED05E4
:1011200029432C4309022002090AD21A4B0C7F24BE
:10113000E31A434C000A7C44E35C7D242404121926
:1011400014145B00A218884201D3521C00E0400036
:1011500049420C465C4324115C43DB016415E318EF
:10116000040A5C43C502200D0C4644436419250A59
:101170005D432303EC0C0D46654300030019EB1897
:101180004C42A34201D35B18401CD4052018002B0D
:1011900007D05B00C91804D3401C002901D14008C6
:1011A00040003F2189048A4209D3002A08DC110645
:1011B000090F04D0032149074018C00FC007F0BD34
:1011C00001224100120689187F2252069142F6D26E
:1011D00005214907C84201D59010F0BDFF20C00588
:1011E000F0BD002F00DA32461648AA4207D2AB42C1
:1011F00005D21902090E17D0F80FC007F0BDFF2560
:1012000063002D06AB42F9D84900A942F6D8AB429B
:1012100001D1A942F2D0A94201D1002101E061002F
:101220004908D0050843F0BD1102090EFBD0FF208C
:101230000243D005F0BD0A460146104654E70000BF
:101240006B4100000000C07F10B501469E240002E3
:10125000CA15A307002A02D01843002A04DBA21AE9
:10126000002A0CDDD04010BD1206120E01D1400044
:101270004008A21A03D4D04040420028F3DDFF22E8
:1012800048001206904201D9002010BDC817C04383
:10129000584010BD1F22030C02D10F2200041CD0A5
:1012A000030E01D10002083A030F01D10001121F01
:1012B000830F01D18000921E002801DB4000521EE6
:1012C000D2055118021251181922904004D3491C1A
:1012D000002801D14908490008467047C10FC907D5
:1012E00000D04042012292071143D3E70121890730
:1012F000D0E7000010B500F031F9001D10BD00BFAF
:10130000013D000000487047A802001000487047E7
:10131000A0020010704770477047704738B5044608
:101320000A4600206946C046C046002805D002464D
:101330002046009900F016F9012038BD10B50120B3
:1013400000F051F910BDF8B5C046C0460546002072
:101350000C460C20C0460646A819A0420DD93246BC
:1013600069460020C046C046070001D100F03BF9A5
:101370000098A04200D00546C419FFF7C3FFF61D30
:1013800007460560F008C0004619284600F008F836
:10139000B44204D031463868A21B00F0E3F8F8BD2F
:1013A00000210160416070470C207047FFB5044682
:1013B0000D4681B0243000902168880604D51022A3
:1013C000E0699143216000E00120A84201DD471B54
:1013D00000E000270498A1697A191018081AA06182
:1013E0002078C00602D42046FEF7E3FF002608E07E
:1013F00003986268A168805D9047206A401C761C53
:10140000206204988642F3DB2078C0060AD5204685
:10141000FEF7CFFF06E06268A16830209047206A9F
:10142000401C206238467F1E0028F4DC07E000984C
:101430006268A168405D9047206A401C206228468F
:101440006D1E0028F3DC2046FEF7C9FF2078000659
:1014500002D5022005B0F0BD0120FBE7084B70B5B6
:101460000D467B4400F09DF80446284601F0FCF947
:10147000002802D00020C04370BD204670BD00008F
:10148000FF140000F7B5154682B00027029C2078B3
:10149000641C0197302802D0002D15D015E020786B
:1014A0000127641C782804D0582802D0002D09D0C8
:1014B0000BE0002D01D0102D07D12078002710253A
:1014C000641C02E0082500E00A250026009610E0D2
:1014D000009901276943081829467143020C80B21C
:1014E00000908E183804864201D3012001902078A4
:1014F000641C294600F068F80028E9DA03980028FF
:1015000005D0002F01D0641E00E0029C0460019809
:10151000002806D0FFF7FAFE02210160C81E05B0C0
:10152000F0BD009930040843F9E701468008081A25
:1015300002091018020A1018020C1018C0088200C4
:1015400012185200891A01E0401C0A390A29FBD2FC
:101550007047000000487047A00200100048704724
:10156000C002001010B50346406801E00346406821
:10157000002801D08842F9D31868C3188B4206D0DE
:10158000CB1CD808C000001D411A521A0146081D84
:101590000A60FEF76EFE10BD01694A1C0261087800
:1015A000704700B58FB00291002105910549019364
:1015B00079440391114604906846FEF783FF0FB00B
:1015C00000BD0000E5FFFFFF3A2800D2303820239D
:1015D00002469A43412A01D310463738884201D344
:1015E0000020C043704710B500F082F800F079F891
:1015F00010BD0000F8B5264C4E00069DA6420AD844
:10160000A64201D1002806D15E00A64203D8A64218
:101610000AD1002A08D00D242404254233D02946BB
:10162000002000F0D1F8F8BD0C461C4311D49942BB
:1016300007D0C81A02D3EFF30080F8BDEFF30080A3
:10164000F8BD801A02D3EFF30080F8BDEFF30080FD
:10165000F8BD09242407E5008B4207D0581A02D3AD
:10166000EFF3008006E0EFF3008007E0101A03D3E9
:10167000EFF30080A04303E0EFF30080A043284392
:1016800080F30088F8BD009500F0B6F8F8BD0000C2
:101690000000E0FF7546FFF75DFFAE4605006946B6
:1016A0005346C008C000854618B020B5FEF79EFD21
:1016B00060BCB64600260027C0C5C0C5C0C5C0C5B1
:1016C000C0C5C0C5C0C5C0C5403D490849008D461C
:1016D000704710B50446C046C0462046FEF75AFD86
:1016E00010BD10B5002801D000F09EFF10BD000015
:1016F00010B5012805D0002103A000F087F80120D3
:1017000010BD09A1F8E7000053494752544D454D1B
:101710003A204F7574206F662068656170206D6592
:101720006D6F7279000000003A2048656170206D8D
:10173000656D6F727920636F727275707465640085
:10174000024670B50A4392072AD11E4DEE0104C825
:1017500008C9541B9443344017D0D0B2D9B2401AB0
:101760002106014310D190B299B2401A21040143DD
:101770000AD110021902000A090A401A2102014383
:1017800002D1100E190E401A70BD9A42DFD010BA65
:1017900019BA884201D9012070BD0020C04370BD34
:1017A00002780B78401C491C002A09D09A4207D1C4
:1017B00002780B78401C491C002A01D09A42EFD0D5
:1017C000D01A70BD01010101C80212D54803400FB3
:1017D000002804D0C803C043012188407047EFF3BC
:1017E00000800001000903210907084380F30088F5
:1017F000704700207047000010B500200249029A8F
:1018000000F01EF810BD00000000F87F70B505461E
:101810000C460A2000E06D1C00F007FF002D06D0EA
:1018200028780028F7D102E0641C00F0FEFE002CAE
:1018300002D020780028F7D10A2000F0F6FE70BD13
:1018400010B50C461107090F092904D00A290AD03E
:1018500008290CD104E011460820FFF7B5FF06E087
:10186000510606D501E0510601D50120C0072146E9
:1018700010BDD10607D501010909CC084907000EA2
:101880000006044309E0410F20024907000A014312
:10189000200E00061D22D14101430846E7E730B57E
:1018A0008C180278401C13071B0F01D10378401CD1
:1018B000120906D10278401C03E00578401C0D7027
:1018C000491C5B1EF9D101E00B70491C521EFBD173
:1018D000A142E6D3002030BDB0B516480168102201
:1018E000914301600120420313498B6813438B60CD
:1018F0000022434B202A04D09C180025A560121D0D
:10190000F8E70E4A02239360D36013615361536278
:1019100090621060D0620A4800680968FEF75CFFB8
:101920000849FEF759FF0002FF21C9434018334917
:101930000860B0BD38820440788004406C400440A8
:1019400078010010009F240010B52C490A68FF237D
:101950009A430A60072800D900200122130682401A
:101960000C6814431C430C6082000B461033D058A3
:101970000028FCD5072212060B6893430B60410038
:1019800001D5002010BD0004800D10BDB0B51B486E
:10199000016B0A04120E12D0194A53685B1C536083
:1019A000024610320023082B1ED0090AD940C9076D
:1019B00001D0116800E00021121D5B1CF3E7CA038F
:1019C0001AD50F4A0832034610330024082C0BD0D6
:1019D0000D46E540ED0703D01D682D04AD0D1560E3
:1019E000121D1B1D641CF1E70721090602688A43CA
:1019F0000260034801210160B0BDC04600C0014043
:101A000004040010F8B5974E32217160010C01D129
:101A1000070B01E0C70B0E37B760F760341D354682
:101A200018350D4A204629469047B069002801D054
:101A30000120F8BD084934207060B760F760307845
:101A4000002800D0F8480A463061204629469047D1
:101A5000B069411E8841F8BDF11FFF1F10B500217C
:101A6000074AA82908D05358834203D853189C68C2
:101A7000844202D80831F4E7FEE7187910BDC04669
:101A8000EC520000F8B56D4C0020A06060600120B1
:101A9000850720262E6006202061084F2069062831
:101AA00009D12068401C2060B84202D203F082FABB
:101AB000F4E70B202061AE612069F8BDFF0F000044
:101AC000B0B518490A68022313430B60CA6F20237C
:101AD0001343CB673F21CB43134A11681940116070
:101AE000146801210C43146054681C40546053680E
:101AF0000B4353608B076C249C614C021568254393
:101B00001560556825435560D2225A611A61022832
:101B100001D1A020D860C803044A1060402018609A
:101B20000846B0BD048004403040044000E100E0BD
:101B300070B50124A507102028600820A861064E72
:101B40002868C00606D5002E03D003F033FA761EAF
:101B5000F6E70024204670BDFE0F000010B537499F
:101B600000220A60012080074368DBB2083B03249F
:101B7000E3410A2B28D8C0467B441B795B009F4475
:101B800005120726290E231B1D3F34004A600BE077
:101B9000CA68012A22D110220260072215E0102211
:101BA0000260092211E08A604A68531C4B60891860
:101BB000097E816028213AE0042136E00422026097
:101BC00008220A61826110BD0A220A612EE0FFF735
:101BD000AFFF10BD4A68CB689A4222D24A68531CB4
:101BE0004B608918097E816020E082688B685C1CEC
:101BF0008C60CB1828241A550C220A61102114E09D
:101C000082688B685C1C8C60CB1828241A558A6803
:101C100049698A42014601D30146183104220A600B
:101C200004E04A69002A04D0202101600821816172
:101C300010BD102202600C22C7E7C0464404001009
:101C40007748012101700848002202674167426716
:101C50004167426FD207FCD08167022101700020EA
:101C60007047C046C003001000800440F8B5294CFE
:101C70002068544D0007284E1DD5688F00281AD1C2
:101C80002D2068873068000715D43820295C00298A
:101C900001D1696CA964E96B0A68531C00221F0E0C
:101CA000174600D11F460F602A546A876A640120D4
:101CB000192102F00BFB206840071ED54E20295A3F
:101CC00000291AD12D2129523168490715D44C21F8
:101CD0006A5C002A01D1AA6DEA652B6D1A68561C50
:101CE0000022370E174600D137461F602A526A5429
:101CF000AA650120192102F0E9FAA0680821014330
:101D0000A16000BF00BFA06804210143A16000BF23
:101D100000BFF8BD14800250FC3F025070B5284C43
:101D20002068284DC007284E1CD0688A002819D189
:101D30002D2068823068C00714D1287C002801D18A
:101D4000E869286268690168491C00220B0E134685
:101D500000D10B4603606A82EA612A7401201921CE
:101D600002F0B4FA206840071DD5E88C00281AD18B
:101D70002D20E8843068400715D42420295C0029F0
:101D800001D1296B6963A96A0A68531C00221E0EDF
:101D9000164600D11E460E602A54EA842A630120AA
:101DA000192102F093FAA06801210143A16000BF4C
:101DB00000BFA06804210143A16000BF00BF70BD47
:101DC0001480035040030010FC3F0350F8B500910D
:101DD0000546134C32206060280C01D1280B01E02D
:101DE000E80B0E30A060E060261D274618370D4A2C
:101DF0003046394690470120400233216160A5609A
:101E00000099E16020612078002800D006486061D8
:101E100030463946034A9047A069411E8841F8BDC3
:101E2000C0030010F11FFF1FE02E0000F0B50022DC
:101E3000D3430E4D194C8A4216D0002626606668A0
:101E400014273740042F03D06D1E6E1CF7D31D4698
:101E50006668760703D46D1E6E1CF9D31D4626688E
:101E60000670521C401CE6E7F0BDC046FFFFFF00B5
:101E7000B0B50022094B8A420FD05C68122525407C
:101E8000022DFAD104781C605C6814252540042DCD
:101E9000FAD11C68521C401CEDE7B0BD080004409C
:101EA000012070470349884201D3002000E001204F
:101EB000C001704740DD4A1FBA4800787047C046ED
:101EC00000207047F0B585B03849086000F0D2F8BE
:101ED0000925374C2846A04701900620A0470490CA
:101EE0000720A04703900820A04706460027284661
:101EF000394600F09AFA3B252846A0470146402083
:101F000002900143284600F090FA049800040399D7
:101F1000090208188019FEF7C0FF904B3A46FEF7F9
:101F2000BFFFFEF76DFF0646C8243B2000F068F8AF
:101F3000800603D5641E2006F7D11CE01D4800F082
:101F4000F3F83B24204600F05BF802990143204659
:101F500000F06BFAC8243B2000F052F8800603D54D
:101F6000641E2006F7D106E00920019900F05DFA11
:101F7000304600F0D9F8002000F016F92F20C443B5
:101F80000D4D0020002C0AD000F0F8F8291931205E
:101F9000085C3222895C00F048FAE41CF1E700F0AA
:101FA000EDF8022000F000F905B0F0BDE8040010E3
:101FB0000120000000A1BC333C540000B0B5144621
:101FC0000D4600F0DBF8284600F0AEF8052000F0E2
:101FD000EBF84F48022101607D21C90041610125D4
:101FE00005600168C907FCD100F03DF8A04200DDA2
:101FF000002500F05DF92846B0BDC04600207047BE
:102000001CB501AC002121700122214600F002F82C
:1020100020781CBDF8B515460C460E4E3168802759
:10202000B94331603A4902220A604B2292004A6168
:1020300001220A600A68D207FCD17F21084002F021
:10204000C1FF2846214601F01EFC3068384330604D
:10205000F8BDC046FC3F005080B50A46014600204E
:10206000FFF7D8FF80BD80B51120FFF7C9FF4008FA
:1020700080BD0000B0B50D4908682022904308607B
:102080002348022303607D24E400446101240460AA
:102090000568ED07FCD10D6815430D600360044928
:1020A000416104600168C907FCD1B0BDFC3F01502B
:1020B00070170000FEB50291009000F0FEF8EE4FA0
:1020C00002243C607D2080000190786101253D6004
:1020D0003868C007FCD1029E701EC1B2352000F0E6
:1020E000A4F90098314600F0C9F9204600F05CF8E8
:1020F0003C60019878613D603868C007FCD10320DE
:1021000000F052F83F20FFF77BFF0007FAD5FEBD35
:10211000048001407047000002490A78824200D0E2
:1021200008707047EC040010B0B5BB494860FEF77A
:10213000B4FE0022BA4BFEF709FCFEF761FE04462E
:10214000000CC1B20620B54DA847200AC1B2072035
:10215000A847E1B20820A847B0BDC04680844E40E1
:1021600010B50C4600F00AF8AB48807F002800D07C
:1021700010BD3220214600F058F910BD10B5A64917
:102180004A7882420CD04870002000F00DF80124FB
:102190002046FFF735FF7F210140204600F045F93A
:1021A00010BDC046F0040010B0B50446002806D0AB
:1021B0000020FFF7B1FF032C05D1012004E001202E
:1021C000FFF7AAFF02E00020FFF7A4FF0125284641
:1021D000FFF716FFF82101402143284600F025F9BA
:1021E000B0BD80B50520FFF7DFFF80BDF0B585B03D
:1021F0001D46009314460E460191FFF7BFFF864827
:1022000084610661014608310F9A8A760E9A4A76F1
:102210000D9E0E760C990391C1770B9904918177ED
:1022200045610A9D85832046FEF737FE02460B4630
:10223000002002907B49FEF789FBFEF7ABFD0446C8
:10224000010A0220754FB847E1B20320B847019850
:10225000FFF704FC01461220B8470098FFF7FEFB89
:1022600001461320B847290A2520B847E9B226209D
:10227000B84732242046039D2946B84720462946C0
:10228000B84702990498002801D17F20C143701EED
:10229000864135010D4330242046FFF7B1FE6F2102
:1022A00001402943C9B22046B84705B0F0BDC04639
:1022B00080B50020FFF778FF80BD80B50120FFF7D3
:1022C00073FF80BDF0B587B0029303920E46FFF70F
:1022D00055FF0920FFF794FE4D20FFF791FE0546BC
:1022E0004D484068FFF7DEFD40B21199009110990A
:1022F00001910F9906910E9905910D9904910C9CED
:10230000002808D4F11731430E2900DB0E210846BE
:1023100071300E461EE00720112E03DCF8210D401F
:102320002D1D00E005432840072808D1052E00DCBC
:102330000526142E00D3142631460B3107E0022E59
:1023400000DC0226112E00D3112631460E310F205B
:10235000C0430843C1B20920304FB8474D20294639
:10236000B8472D4A009850621046083001994176CE
:102370000699017605989077049890839461039D5F
:10238000D5600298106116720A263046FFF738FEB3
:10239000402101433046B8472846FEF77EFD002520
:1023A0001F4B2A46FEF7D2FAFEF7F4FC0646010A56
:1023B0000420B847F1B20520B8472046FEF76DFD6E
:1023C00002460B4617492846FEF7C0FAFEF7E2FC24
:1023D0000446010A0220B847E1B20320B847049C32
:1023E000210A2520B847E1B22620B84705980028E1
:1023F00001D17F20C5430699481E81410E012E431D
:1024000030242046FFF7FCFD6F2101403143C9B263
:102410002046B84707B0F0BDF00400102B240000A0
:1024200080844E4080847E417047E0B501AB1970D6
:102430000122194600F002F88CBD0000F8B51546DF
:102440000C46F34E31688027B94331600A490222B5
:102450000A604B2292004A6101220A600A68D20790
:10246000FCD1384302F0AEFD2846214602F0AEFD15
:10247000306838433060F8BD0480014080B50A46BA
:1024800001460020FFF7DAFF80BD00000349086025
:102490004868C006FCD40868C0B270470800044011
:1024A00010B50F4C2069411C216109280FDB002069
:1024B000206100F057FE00F003FB00F0C5FE00F0C5
:1024C00005F902F0E1F86068401C00D26060E06845
:1024D000411CE160632802DB00202070E06010BD39
:1024E000F0030010B0B51248002282630121C163DD
:1024F000C263C163C36BDB07FCD0232303600D4BB6
:102500001C688025AC431C604368DB07FCD00323B8
:102510008366C166C266C166C26ED207FCD001671F
:10252000054A826705480160054813210160B0BD76
:1025300008800440388204405F0001009880044015
:102540005081044009480168C90705D00121016094
:1025500012490A68521C0A600168C90605D5102193
:1025600001600E484168491C4160704700C000404E
:1025700009480168C90705D00121016007498A6837
:10258000521C8A600168C90605D510210160034804
:10259000C168491CC1607047000001402C04001054
:1025A00010B501225005084908600F480368074824
:1025B0008178074C6354282383800270802901D8D6
:1025C000491C817010BDC04680E200E01403001079
:1025D0007809001004494A695206FCD508604A6926
:1025E0005206FCD57047C046008000400648011FD7
:1025F00003220A600121016000220260016001687B
:10260000C907FCD00020704774800440BFF34F8F8F
:10261000034804490160BFF34F8F00BFFDE7C04688
:102620000CED00E00400FA05FEE780B5FFF7D2FFED
:1026300080BD0000F8B50446234E307808280DD838
:102640002178A51C0022874F914208D0A3189B78BF
:102650005B01FB189B69521C002BF5D0F8BD411C97
:1026600031707178491C71700095262545432946C3
:102670002631B068FDF744FE31462678465588601D
:10268000451900206870608C6884A08CA884AC1CFC
:10269000204600993246FEF73DF8A8784001062111
:1026A0003954698C7D22D20051433818AB8C534386
:1026B00001614361002ED1D0207840013818856136
:1026C000641C761EF6E7C0462003001010B51648BD
:1026D0000288D049002A06D00B6880241C430C6075
:1026E000511E018010BD4288002A06D00B6880244C
:1026F000A3430B60511E418010BD0279002A0ED009
:10270000C28802800A6880231A430A6002894280D4
:102710000A689A430A600179491E017110BD086870
:1027200080229043086010BD06030010B0B500235E
:10273000094A0C060ED0047863400824250606D00A
:102740005D08DB0700D055402B46641EF6E7491EA6
:10275000401CEEE798B2B0BD01A0000070B5B548CE
:1027600083788E4A2B492C48022B13D0012B24D17D
:102770002A4B1C68182525431D600C6804231C4344
:102780000C600D68802425430D6005682026B54344
:1027900016460BE00B680424A3430B600C688023EF
:1027A0001C430C60056820242543994E056035685C
:1027B0002543356014681C43146001221302046829
:1027C0009C4304600B680824A3430B60036814490E
:1027D0000B4003601020C443124B1868204018605F
:1027E00011480568254005602024E443056825401C
:1027F00005601D6825401D6003680B400360910261
:1028000003688B430360D10202688A43026070BD93
:10281000FC3F00500080005000800150A040044068
:10282000FFFDFFFF008003500080025070B5FFB035
:10283000FFB082B0202000210A4A00280BD00123DB
:102840001B026C466352631800249C8053189C61E1
:102850002031401EF1E7684600F076FE7FB07FB081
:1028600002B070BD5C0500100020C043704700003E
:1028700010B5044600F0A0F88F49896C0022FF2AA9
:1028800005D023460C5D521C8442F8D100E0FF23A2
:10289000D8B210BDFEB5884D287824216854287A16
:1028A000282400902855A8792627E8552220285C5E
:1028B000019000F081F82C216854285D002808D090
:1028C000FFF7D6FF30216854FF2815D1285D6854E2
:1028D00012E0E87F30216854287D34216854287E36
:1028E00038216854287F3C216854A87F3E216854D1
:1028F0004020285A44216852A87C32216854EC5D5B
:10290000002C01D00D2000E007203F2102916854E7
:102910006A6D1318AB650E27FF43002C00D1BF1D55
:102920002C783C190027FEB2B4420CD95E1CAE656F
:102930002946C5B21B7853550D46401C0299685470
:102940007F1C3346EFE701200099002901D00146A2
:1029500000E00221019A002A00D10146002001F086
:1029600047F9FEBD80B5FFF735FE80BD01200002AE
:102970002749096801404842484108490968090750
:1029800000D4801CB0490968890700D4001DA24901
:102990000968490600D40830C0B27047FC3F0050B7
:1029A000B4487047032805D814214143E74840182C
:1029B0001030704700207047012040021449096818
:1029C000014048424841A04A1168C90600D4801C11
:1029D00091490B68DB0600D4001D0B689B0600D4F0
:1029E00008301268920601D4102210430A6892053A
:1029F00001D4202210430A68520501D4402210431A
:102A00000968090501D480210843C0B27047C04657
:102A1000FC3F0150FC3F025080B501F03FFD0248F1
:102A200000780449487080BDB00300100148401C84
:102A30007047C0460003001000487047600900104E
:102A4000004870476C090010804882788188002A0D
:102A500001D0084601E00020C043002900D008460C
:102A60007047C04610B5144CE07F217B81420BD0EB
:102A7000A079FE2808D000F061FB002805D0207C5A
:102A800000F05CFB002800D010BDFFF7CFFF4178BD
:102A9000022906D00129F7D18178C2789142F3D377
:102AA00003E08178C2789142EED84E22034BA352C4
:102AB000C170A179017110BD7C04001060EA0000B2
:102AC00070B5A248C1694C1CC461016B4B1C036307
:102AD000416C4A1C4264816D491C8165458A002D08
:102AE00001D06D1E4582C58C002D01D06D1EC584A0
:102AF000458F002D01D06D1E45874E25465B002E6B
:102B000001D0761E4653066A114D7619B44203D998
:102B10000124047400240462446B6419A34204D9A0
:102B200024230124C45400234363836C5B199A4219
:102B300004D938220123835400228264C26D5219C1
:102B4000914204D94C21012242540021C16570BD3B
:102B5000E093040070B50F22D343164A002B07D030
:102B6000D418282500266655382566555B1CF5E7E0
:102B70000123D360516118431076FEF783FF70BDC7
:102B8000B0B518240B4B282C03D000251D55641C10
:102B9000F9E7541CDC6000245C611876E0B29042D6
:102BA00005D2C0180D784576641C491CF6E7FEF77F
:102BB00069FFB0BD4404001010B5694801680222E5
:102BC0000A430260074900220A6203680124234382
:102BD00003600A60A002044A1368034313600C6692
:102BE00010BDC046084004400080005080B5FEF78C
:102BF00073FE02F0AFF980BD80B5594801688022AC
:102C00001143016004480168914301601E200121C5
:102C1000022201F05BFB80BDFC3F025080B54A48B8
:102C200001680822114301600748016811430160EF
:102C30004B20000200F01CFA192040010349888053
:102C400000208870088080BDFC3F035014030010F2
:102C500010B500F093FF072004032078AA2801D0C4
:102C600000F0A8FF4720820002482146FDF798FAAD
:102C700010BDC0467C010010C448016840220A43D0
:102C800002607047FEB50124E6430296FFF788FE16
:102C900005462D490A6832400A600422D7430B6872
:102CA0003B400B6008200190C0432D4B1E6806403E
:102CB0001E601E683E401E605E6806405E6058688A
:102CC000384058604868029E304048604868384044
:102CD00048609868019E30439860986810439860F7
:102CE000886820438860886810438860186930438A
:102CF0001861186910431861086920430861086960
:102D0000104308616007F5490860200708604C20FF
:102D10000E490C5438200C542846183008652846B3
:102D20001430C86328461030886228460C30486149
:102D30000846103004750C74AA692C460C3419CC62
:102D400019C10A60FEBDC046008003504003001058
:102D50000120000202490A6802430A607047C04627
:102D600000800250B0B5FFF727FF0024204601F095
:102D700061FA012081020A4D2846FDF72AFDE04351
:102D800008498861C86100F05FFA1C3520200028DE
:102D900005D02C60291F0C602035401EF7E7B0BD20
:102DA0005C05001020030010F0B589B07D20C6003E
:102DB00034461834FFF7F4FD0890C54801682143F4
:102DC0000160A64800687249FDF706FD514FB860E2
:102DD000381FFF2107910160042038614E4D28788B
:102DE000002805D1012028704C490978C9077AD1FB
:102DF00000F0D2F80124AC70FFF7B0FC4848002581
:102E0000458002F051F8FFF707FE454840884549E4
:102E100088427CD00220404DA870079929710899FA
:102E200089780029294600D004464C70FFF796FCAB
:102E30003D4C21680025284688472820FFF7E0F808
:102E40002D2860D1059504950395029518210691CA
:102E50000191364A0092E06907900E21344B2846D2
:102E6000079CA04740200699009101950290039588
:102E7000049505952C4884692E4B28462C492B4AED
:102E8000A0470D201F21FFF7D0FA0898807800286E
:102E900008D04B242046FFF7B3F810210143204609
:102EA000FFF7C3FAFFF762FD02243C607E61012157
:102EB000089139603968C907FCD11F4E4643FFF7B6
:102EC000FCF91E4830181849C96888470420FFF7E4
:102ED0006BF93C6069208000786108983860386838
:102EE000C007FCD113E06921890000221E318A420B
:102EF00000D17DE702233B607E6138603B68DB07E1
:102F0000FCD1521CF3E7044845708570ED43284618
:102F100009B0F0BD04800140000300105C090010FE
:102F2000B0030010634400009C53000050C3000035
:102F300060610200B030010090D00300C0CA893641
:102F400010B5FFF72DFD0446FFF710FD8449034A35
:102F50001C348C64CA6400F07FFC10BDB80B000008
:102F600010B50124A0025A490A6802430A603B488E
:102F700000680749FDF730FC0649C860FF2008607B
:102F8000042048612046FEF79BFD10BD8080044070
:102F900040420F0000800140B0B51F49086801227F
:102FA000104308601D480346F933CC6F1C43CC67BF
:102FB0001B490A601F21CB431A494C691C404C61D4
:102FC0004C6914434C614C69182525434D618C694B
:102FD0001C408C618B6913438B618A6908231343FE
:102FE0008B614A6E03239A434A664B6E0222134357
:102FF0004B660B680724A3430B600B6813430B60FD
:10300000094908600A610020072802D88B68401C23
:10301000FAE74A60B0BDC0460480044007070000DC
:10302000948004404C4004400000044080B50B48AC
:1030300000680B49FDF7D0FB401E010E0DD1094978
:10304000094A5060094803680B4003218907591851
:103050000160002090600720106080BD78010010A2
:10306000DE260000FFFFFF0010E000E020ED00E0A2
:10307000B0B5014614480268802313430360026818
:1030800040239A43026011480268012422430260EF
:1030900042682243426020030D4A136803431360D1
:1030A0000C4D8320E8600C48FDF796FB010AC9B27D
:1030B0006960C0B228600320E8606C600620A860E8
:1030C000600506490860B0BD00800150A44004407E
:1030D0008080044000800040C0C62D0000E100E078
:1030E0000120C1030F4AD36D0B43D3653F2111600B
:1030F0000D490A6840239A430A600C4A0021116076
:1031000050605368DB07FCD09060094801600948B3
:103110000949416003210160AA2181605521816034
:103120007047C0462480044038820440D080044068
:10313000FC09001000400040FFFF7F0010B504466E
:10314000FFF73AFC01460648826C00200346FF2B3D
:1031500004D0145D5B1C8C42F9D1012010BDC04627
:103160007C040010B0B514490888401C088082B265
:103170001248312A04D812492B3102680A4005E06E
:10318000F92A05D80121090202680A430260B0BD8C
:10319000036895080A4C4A2D03D82B34234003605A
:1031A000B0BD01252D022B430360488800199042D1
:1031B00001DA00200880B0BD10030010FC3F02506F
:1031C000D4FEFFFFFFF758FDFFF7CCFD0F48016865
:1031D0000F4A11601F210160FFF782FFFFF7B8FD62
:1031E000FFF70AFDFFF71AFDFFF732FDFFF74AFD73
:1031F000FFF71CFFFFF7B4FE01F080F800F06CFA57
:1032000001F058FA01F092FAF8E7C0463080044025
:103210005C09001070B504460C3400263546182EA3
:1032200009D0A05BFEF762F80146284601F030FFA6
:103230000546B61CF3E703492846FDF755FFFEF7A0
:1032400003F870BD00004041F0B58BB07D20C00098
:103250000390FFF7A5FB0290B94A90690990D069E5
:103260000890106904905368507801900024B54F7D
:103270002646202C00D14DE16101785C062800D95A
:1032800028E17D184000C04678448088400087448B
:1032900006004F001200210166006F002900A86996
:1032A000002800D016E10120A04083435360A98884
:1032B00000295BD1C6E00120A040034200D009E113
:1032C0002969002900D1CAE01F46491E2A89039BAB
:1032D000534329616B6106433B46002A00D1EBE072
:1032E000FB4F3AE007930A962869002876D0401EE3
:1032F000286162000592032000273946FCF7DFFFB2
:103300000690089D8D43012630463946059AFCF704
:10331000D6FF0D430999069A91430143EB4A09915F
:1033200091610895D561A6400A983043064671E040
:103330000120A040034203D06978002900D1C9E0F0
:10334000A978002900D1C5E02A69002A7CD0511E45
:1033500029610299898869610643DC4ABAE02869D3
:1033600000285AD0401E28610120A0400643B1E049
:103370000A960126A640334307935360E868E9693B
:1033800017464A681368834210D262000120002168
:10339000FCF795FF089A0A430999014309913846B9
:1033A000B9610892FA610A9F374312E0032028703E
:1033B000121F4A6062000021FCF781FF089A8A43CD
:1033C0000999814309913846B9610892FA610A9FC7
:1033D000B7433E46079BBE4F02467BE06200032791
:1033E000002638463146FCF76AFF089A8A43099955
:1033F0008143B648099181610892C2610120A040D1
:103400000A9981430A916969002933D0481E68618D
:10341000AE4A0A9E079BAE4F5CE00A9616466200D3
:10342000032000211D46FCF74AFF2B46089A8A43D9
:10343000099981430991B1610892F26132460A9E6D
:103440000120A040864345E0049A024238D0491E3C
:10345000A97009069D4A34D10343536031E0864385
:103460006869002802D0401E686133D1E88803995A
:1034700048432EE0AE802F70A9690029C8D04A7851
:10348000531C4B700A78DBB29342904F24D2CA1877
:103490009278520106233E468D4FBB54079D05434B
:1034A0007560488C039B5843BA181061888C584348
:1034B0002B4650610A9E50E70343844A5360AAE7B3
:1034C000824A86436869002802D0401E686101D1A3
:1034D000A8882861641CCCE6881C511E7C4FB14230
:1034E00006DD825D5201BA1800239361761CF6E76F
:1034F0000020A861019A521E74494A70110603D037
:1035000001920A9E079B28E7704A107001900A9E5C
:10351000079BDFE70498B04202D15088002805D10C
:103520003046144600F086FE224660881661401C34
:1035300081B2142900D9002050800BB0F0BDC046E4
:10354000200300105C050010F0B58FB00C907D20BA
:103550000190C0000990FFF723FA0B905B48866941
:10356000C76900231A460E93402A00D1A1E03C46C9
:1035700035460C98C65C032E0D9204D05449CF18E2
:10358000B869002802D02E46274639E0CE540C9860
:103590000A93C118487878708B880897BB800127F8
:1035A0000E9887400B98806803900497B8430B9F50
:1035B000B86009988342029301D9099B8B800693D6
:1035C000079103200021FCF77AFE274605918F43DF
:1035D0002B4683433D4A19469361D761042E65D833
:1035E000B20002A39A580A9B0E4697460F36000077
:1035F00059360000373600000136000087360000DB
:1036000020330D9A921C0E98401C0E90ACE7069841
:103610000028F5D00498039901430B98816001209C
:1036200000210D9AFCF74BFE0A9B0F4306432748E7
:103630008661C761E4E70543059804432348856133
:10364000C4610799C888089AD080098911810199B5
:10365000C9004143116196E7089A9078002806D185
:103660000B99C87890708888029911615061022086
:1036700000210D9AFCF723FE0F4306431348866191
:10368000C7610A9BBCE7012000210D9AFCF717FED9
:103690000A9B0F4306430D488661C7610798C0889F
:1036A000089AD0800B4948431061A9E70A9B0E464F
:1036B000A6E70648C0680B9CA168884202D000F0CB
:1036C00079FAA0680149C8600FB0F0BD200300106E
:1036D0005C05001060EA00000348017801220270D6
:1036E000514081607047C046F003001040480021FF
:1036F00001707047F8B50C46054600260F4F002FA5
:1037000019D000F07DF8442000F09EF800F094F805
:10371000FF2804D0064600F087F87F1CEFE7002D55
:1037200003D02846214600F08BF800F07DF83048A1
:1037300001210170FF26F0B2F8BDC046F0D8FFFFAE
:1037400080B500200146FFF7D5FF80BDF8B51C46C7
:1037500015460646002906D0254F3878002802D1A4
:10376000FFF7EEFFF9E700F04BF8304600F06CF899
:103770002846214600F064F800F056F81C48002165
:103780000170F8BDB0B50C46054600F039F8284682
:10379000214600F05DF800F047F81548002101705F
:1037A000B0BDC046B0B51C461546FFF7EBFF284636
:1037B0002146FFF79FFFB0BDF8B51C4615460646EB
:1037C000002906D00A4F3878002802D1FFF7B8FF49
:1037D000F9E700F015F8304600F036F828462146A3
:1037E00000F036F800F020F8014800210170F8BD23
:1037F000580500100F48016804220A430260704710
:103800000C480168802291430160704709480168B3
:10381000042291430160704702480168202008405B
:103820007047C046FC3F01500248016880220A43AD
:1038300002607047FC3F005080B500F01FF880BD6B
:1038400080B500F020F880BD80B501F0BBFB80BDE5
:1038500080B501F0BBFB80BD80B51849897802298D
:1038600005D0012906D1402101F044FB80BD02486A
:10387000406B804780BDC0469C53000080B5FF2050
:10388000FEF704FE80BD80B5024608461146FEF7ED
:10389000CDFA80BD10B5094CA078012804D00228CB
:1038A00009D1FEF7E0FB04E0042000F0D3FD04485A
:1038B0000078E07000E0E078C0B210BD00030010B6
:1038C000B0030010F8B505463020FCF7A1FC044613
:1038D0000026302E05D02846FEF736F8A053B61C39
:1038E000F7E7204600F054FE2046FFF793FC05461C
:1038F0001048C0C82046FCF7BCFC2846FDF7CDFAAE
:1039000002460B4630463946FDF7CAFA07460E46D0
:103910000024094D22462B4601F05FFB002800D110
:103920003C46002800D1354620462946FDF732FAAC
:10393000F8BDC0465005001000F88F400A480168E5
:1039400001220A4000684008022101408818074906
:103950000A68520804231340C01809684900082265
:103960000A4080187047C046FC3F0350FC3F02509D
:1039700010B5014614204843094B1A18D069146A3F
:10398000A04200D82046074CA04207D81032890038
:103990005958891C526812688A4200D2002010BD12
:1039A00040030010E0930400F0B595B0494CA078B6
:1039B00001252946814060788000474E3058EA034F
:1039C00083588B43835005A84021FCF702FF01F088
:1039D000F1FA607880003158A078002200923F4CC4
:1039E0003F4B404F624E02952A46824008191946C5
:1039F00003681A4203D17F1C491EF9D155E001F03A
:103A0000D9FA02200190306037487061029A326022
:103A10003068C007FCD105A80099435C0021082943
:103A200024D0039104932B49487880002A4A1058E7
:103A300005598C7801F0BEFA029A019830602B4843
:103A400070613260E540E80703D00020049B0399D1
:103A500003E0104603998840049B03431F4C3068E1
:103A6000C007FCD17F200340491CD8E705A8009976
:103A7000435418498878824049788900164B595830
:103A80000B191C68224202D07F1CFAD30AE0009A6C
:103A9000521C0092412A029D104C114B114FA3D190
:103AA000412001E00098401C009001F083FA0024BE
:103AB00005A80078002809D00098C0B2FCF7A8FB40
:103AC0000449886005A9FCF7DDFD00E0E4432046D9
:103AD00015B0F0BD6009001078540000FC3F0000F4
:103AE000A08601006079FEFFD104000041030000C0
:103AF000FEB502A900274F7024220A704500022655
:103B000028463246FFF73CF8F9430C282ED10191A4
:103B1000174C26607D20C000606101202060206875
:103B2000C007FCD106212846FFF714F80828F0D07A
:103B3000104D28786978AA7800F026FC002814D067
:103B400028786978000240180B4CE080E8782979E1
:103B50006A7900F019FC0028019907D0E8782979E2
:103B600000024018A080394600E001990846FEBDD9
:103B7000048001406C0400106C09001010B50A4C60
:103B80003A206060201D21461C31084A9047E069B8
:103B9000002801D0012010BD234620330FCB044C58
:103BA0000FC4002010BDC046C0030010F11FFF1F4E
:103BB000D804001010B5FEF743F800BF00BF00BFE7
:103BC00000BF00BF72B6072004032046FDF71AFFAE
:103BD00000BF06492046FEF7F9F862B6FEF706FD7B
:103BE00000BF00BF00BF00BF00BF10BD7C010010C0
:103BF000F0B58DB00A910446FEF718FF0646FEF7B1
:103C0000B5FE0890FEF7D8FE002C0796099046D026
:103C10000746FEF7EBFF2C20BE4D2F5428203946D7
:103C200000270C902F542620295432202C54E87F52
:103C30003021685438216854B07834216854F078C1
:103C40003C21685430793E2168540620FFF73AFE43
:103C5000442168523F260D200246A855686D014652
:103C60000D31A965012C00D156E1062C0ED0312C66
:103C700000D122E1202C6FD0222C14D0292C44D04A
:103C8000302C2FD01546152C00D084E1A14A917C10
:103C900041732321515C81730F2595557BE13F20B2
:103CA000FC490D5C77E1FEF7CBFEFA4DA95D437A46
:103CB0006A6D53544B1CDBB2847AD4548B1CDBB238
:103CC000C479D454CB1CDBB28479D4540B1DDBB241
:103CD0004479D4544B1DDBB20079D054881DA855CB
:103CE000054658E1EC4A13780B700E25E9498D55CD
:103CF000EA499F4200D34EE1CB5DECB203556D1C07
:103D0000E44B9D557F1C1378F3E7FEF795FE0446C0
:103D1000E0498A5D00784D6DA854571CA0680028C2
:103D200013D00C92FCF7D4FCF9B268540C998F1C98
:103D3000C0B20021814208D2A268525CFBB2EA54B0
:103D40007F1CD44A9755491CF4E7F8B20021295446
:103D50007D1CD04885551EE1CE48006D00780B9043
:103D6000FFF7ECFD06900024CD4D2046A8470090BB
:103D70000120A84701900220A84702900320A847ED
:103D800004900420A84703900520A8470590042C20
:103D900030D00B98E040C0072AD0E5B22846FFF7A4
:103DA000E7FD0C943446BB4E315D726D030C5354E9
:103DB0004B1CDBB2070AD7548B1CDBB2D054C81C97
:103DC00030552846FEF7EEFD315D726D43685B8825
:103DD00053544B1CDBB245682D682D0AD5548B1CFF
:103DE000DBB240680068D054C81C305526460C9C95
:103DF000641CCCE7A74CA55D606DAA49CA79425501
:103E00006A1CD2B28B798354AA1CD2B24B798354E8
:103E1000EA1CD2B20B7983542A1DD2B2CB788354D8
:103E20006A1DD2B28B788354AA1DD2B24B788354C8
:103E30002A460832D2B20978009FBB088354EA1D93
:103E4000D2B28154B901019B9A05920E51182A46AB
:103E50000932D2B281541901029B9A05120F5118EE
:103E60002A460A32D2B281549900049B9A05920FD5
:103E700051182A460B32D2B2815429460C31C9B2AC
:103E8000435429460D31C9B2039B9A084254990103
:103E9000059B9A05920E51182A460E32D2B28154D1
:103EA00029460F31C9B21A01425429461031C9B20C
:103EB000069A42541135A5556DE0FEF771FD75491E
:103EC0008A5D4378496D8B54531CDBB28478CC54A3
:103ED000931CDBB2C478CC54D31CDBB24479CC54F1
:103EE000131DDBB20479CC54551D0C3000220C2A72
:103EF00000D12EE783185B88ECB20B5583581B0A60
:103F00006C1CE4B20B558358AC1CE4B20B55121D6B
:103F1000ED1CECE77C04001001462031624A126877
:103F20000274130AC373130C8373120E4273594F36
:103F3000FA6D0275130AC374130C8374120E427463
:103F40003A6E0276130AC375130C8375120E42750E
:103F50007A6E0277130AC376130C8376120E4276BA
:103F6000BA6E524B1C784C705C788C709C78CC701C
:103F7000DB780B710A70130AC377130C8377120E68
:103F800042774B480068089A8A7148710798007810
:103F9000C8710C9DBD55A81C24273E4EF055746D6C
:103FA0000C902070307960702620305CA070282042
:103FB000305CE0702C20305C20713020305C60710F
:103FC0003220305CA071307AB179002902D1099990
:103FD000884201D0002810D13420305CE0713820B4
:103FE000305C20723C20305C60723E20305CA072FD
:103FF0004420305A2073000AE0720B95EDB220463F
:104000002946FEF793FB6055000A0B99491CC9B27B
:1040100060543F200C99315400F0CCFF0A980228DC
:104020000FD1002527A4F05D854206D2706D415D59
:104030002046FCF755F96D1CF5E70A20FCF71AFB42
:1040400026E00798407802281AD001281DD11A4886
:104050000221016019494161012101600168C9071C
:10406000FCD1F25D716D089800F05BFF144C0020EC
:104070000146024600F0FCF9A0788006F7D504E07E
:10408000F15D706D0B4A926A90470898FFF7E4FB68
:104090000DB0F0BD7C04001016030010780900106C
:1040A000C538000038030010F4030010E55200008A
:1040B0005C0900109C5300000480014010270000A0
:1040C000B00300102530325800000000FEB5524BFE
:1040D0009878012529468140587880004F4A105829
:1040E000EC0302590A43009402515A6801924C4E63
:1040F00082590A43825100F05DFF4A4C022002902F
:1041000020604948606125602068C007FCD100F04C
:1041100051FF414988782A468240497889003F4BBF
:1041200059588B5993438B51029A22603F4A6261DE
:1041300025602268D207FCD12A4682408859104364
:104140008851029820603A48606125602068C00765
:10415000FCD100273E46304B072F25D099782846C2
:10416000884001990978F940C90708D05978890031
:104170002A4A51582A4BCA588243CA5008E05978F3
:104180008900264A5158264BCA580243CA50761C09
:1041900000F010FF029820602548606125602068CB
:1041A000C007FCD17F1CD6E798782A468240F107E9
:1041B00007D159788900194B5958194E8B59934397
:1041C00006E059788900154B5958154E8B59134301
:1041D0008B51029B2360164B636125608E19009BF7
:1041E000CB182768FF07FCD1376897433760029EDA
:1041F00026600F4E66612560D2432668F607FCD123
:10420000019F7E1C7F78002F0196054E94D118687F
:1042100010401860FEBDC0466009001078540000D0
:10422000FC3F000004800140E02E00008A200000D6
:1042300041030000F8B500902F490B680122934319
:104240000B6000BF00BF00BF00BF1F2313480E68F4
:104250005DB2002D1ED40225AE430E60DEB2009F7B
:10426000F74017407E4297023E4000BF00BF00BFAC
:1042700000BF0468BC43A419046000BF00BF00BFB6
:1042800000BF0C682C430C6000BF00BF00BF00BF24
:104290005B1EDCE716430E60F8BDC046FC3F0050D5
:1042A00010B508494A780024824209D0042801D96F
:1042B000E44305E0487040000349085AFEF7D8FE81
:1042C000204610BD140300106C54000070B5164653
:1042D0000D460446FEF764FB4078002808D00548E8
:1042E0000681C58004710448016880220A43026087
:1042F00070BDC04606030010FC3F0250F0B5FFB091
:10430000FFB083B0FEF74CFB806800211D4A0B46CE
:10431000202B0ED00124250201AE7552551800271E
:10432000AF6175180646DE402640AE8020315B1C2A
:10433000EEE701A8FFF708F97FB07FB003B0F0BD4A
:10434000014948807047C04610030010B0B50C46C4
:104350000B494968C140C90700D0B0BD2178400170
:10436000084A11541518E078E870FEF71BFBE86165
:104370000028F2D0E168406800680818E860B0BD25
:10438000200300105C05001010B5C0430023072B6C
:1043900008D8440040B2002801D5312044402046CE
:1043A0005B1CF4E748400021072908D8430040B2CD
:1043B000002801D5312043401846491CF4E7C0B21B
:1043C000811A4842484110BD80B56C49487034207C
:1043D00008700220FFF7D6F980BDC04670B50546CB
:1043E000664E2878002821D00424102821D86D1C7E
:1043F00031460246002A05D02B780B706D1C491CF3
:10440000521EF7E7002231461346FFF7CBF9FF288B
:104410000ED1FFF701FA0028E3D100200146024641
:1044200000F026F8B07D0007DBD502E0002400E0B4
:104430000224204670BDC04610B5504C6070152057
:1044400020700220214602462346FFF7ABF9208860
:10445000208210BD10B5024650200021474C234653
:10446000FFF774F9208820826088608210BDC04602
:1044700010B5424CE270A1706070202020700420C2
:10448000082221462346FFF78DF920882082608884
:104490006082A088A082E088E08210BD10B5374C11
:1044A00001202070082221462346FFF77BF920785F
:1044B0002074E0782075E0882083A08840BAE082EC
:1044C000A078617809020818608210BD80B50B469B
:1044D000024677200021FFF739F980BD70B5FFF75C
:1044E00089F9104C022525600F486061012626607D
:1044F0002068C007FCD1FFF789F925600B4860618F
:1045000026602068C007FCD1FFF78EF925607D206A
:10451000C000606126602068C007FCD1FFF7E6F8A4
:1045200070BDC0460480014070170000581B000099
:10453000B0B5124C059DE571049DA57163712271A2
:10454000A170607032202070100AE07008202146AF
:10455000FFF718F9B0BDC04610B5084B00249C7198
:104560005C711A719970587031201870100AD870E7
:1045700007201946FFF706F910BDC046A00300103A
:1045800080B50B46024666200021FFF715F980BD75
:10459000F0B5811C0022182A11D05300C3180C4614
:1045A0001546162D08D827881E88BE4201D91F80BF
:1045B00026806D1CA41CF4E7891C521CEBE7F0BD9F
:1045C000F8B50020284C217805294BD80090C0462A
:1045D0007944097949008F4402180D13081E2349B4
:1045E00099220A600B2200211AE020499922CA610F
:1045F000032214E01D4999228A6001210A460FE036
:104600001A499922CA60022209E0184999224A608F
:104610000121024604E0154998220A620422012180
:1046200001231D4695408E00114FBE59DF03F059FE
:104630002843F051A27061700E483158294331501F
:1046400098020D490A6802430A600C4800680C4948
:10465000FCF7C2F80B49C860FF20086004204861DD
:104660000098F8BDC043F8BD6009001074400440D4
:1046700078540000FC3F0000808004407801001066
:1046800040420F000080014009488188002905D080
:10469000491E81808AB25142514100E00121002926
:1046A00004D00178012901D1022101707047C04670
:1046B0001403001010B51C4C6069A16900688842A1
:1046C0000ED1A06AE16A0068884209D1E06B216CD2
:1046D0000068884204D1206D616D0068884204D072
:1046E0000020FFF745F9002800D010BD0120FFF79A
:1046F0003FF90028F9D10220FFF73AF90028F4D158
:104700000320FFF735F90028EFD1FFF753FA60696E
:104710000068A061A06A0068E062E06B0068206445
:10472000206D0068606510BD40030010F0B59DB0BD
:10473000FEF77CF90446FEF733F90F9095480068C0
:1047400000283FD0FEF738F91190FEF70FF91290CC
:1047500000F030FC4C21904D685A0028109402D093
:10476000401E685200E000204E24295B002901D041
:10477000491E2953000409D17D20C000FFF7E0FD48
:10478000FEF712FB0028FBD1FEF7DAFB21262027DB
:10479000E85D1299884203D1A85D1199884207D03B
:1047A00001201E210022FFF791FD1298FFF754F817
:1047B000285B0028109C01D1FF20E0701198A855BB
:1047C0001298E85500F044FB0646002838D0222015
:1047D000714C012121544020FBF71AFD606500F067
:1047E00045FB00F03BFB02206B4F7C6D25783D7054
:1047F000402D00D9EAE0082D00D8E7E01290A81E6D
:10480000C1B22046FDF792FF61198A1E1278491E37
:10481000097863783B710902891889B2884200D00F
:10482000D4E04C205D493952A178B971E0783872F2
:1048300022793A7362793A74002947D00D2146E013
:104840002120554D285C002827D06078022827D0E9
:10485000012800D0C1E052480068800600D5BCE0C5
:104860000024204621462246FFF702FE4D4FB8782D
:10487000C00600D4B1E04020FBF7CAFCC4708470CD
:10488000447004706865FFF705F82046FFF7D4FD13
:10489000696D3878FFF71AFE16E0FDF7C7FF9CE058
:1048A0003F20FDF7ADFB1421084200D195E04024E4
:1048B0002046FBF7ADFC0021C17081704170017092
:1048C00068652146FDF7C8FB01208DE707216118C7
:1048D000A2793965BA74002E02D02121795C07E0F3
:1048E000FEF7D8FF2120385C397C81426CD1387AC0
:1048F000FF2815D0884213D000280ED1786DC179D9
:104900003975017A3976417A3977817AB977017BBD
:10491000C07A0002401840217852FDF7BBFF59E0F1
:104920003D7BB879002800D1FD771F484678457057
:10493000047819490F79077003210520119110900F
:104940000246FFF7C3FC1548FFF7FAFC6E407C40B7
:10495000114F3443E6B2701E8641BD7C2846203894
:10496000112840D84000C0467844808840008744E1
:1049700062019C0083001D001D006B007E015C0035
:10498000630264013E003E003E003E003E003E00E9
:104990009601A601F80300107C040010B80B00007B
:1049A000FC3F0150B0030010000000100126B002CF
:1049B000FBF72EFC044620202146119A00280ED039
:1049C0000A702031401EF9E7FEF74CF82020385CD1
:1049D000FEF742FF786DFBF74CFC1DB0F0BD232DB8
:1049E0000BD004200AE0012D01D1012063E1032056
:1049F0001E213222FFF76AFC5CE10220396D4A7801
:104A00005201A054A0184670CA788B781B029A18DD
:104A1000C2804A7909790902891801812046FEF786
:104A200093FD2046FBF725FC05E1B86C396D4A780B
:104A30000978425406201299FFF7DAF8002EC9D0FF
:104A4000786DFBF716FCDBE1396D48788A7813AB9B
:104A50005A841870CA789A84091D0022904205D0A1
:104A60008B5C13ACA418A370521CF7E713A80021A9
:104A70004170FDF7DFFDDEE0FDF7E2FF396D4A1C16
:104A80003A650A784272497881720846FFF730F831
:104A9000002800D11FE1232001213954152012994B
:104AA000FFF7A6F8FEF75CFA94E7002E00D1C2E00B
:104AB00001200E908002FBF7ABFB1090386D014691
:104AC0000E310D9101460D310C9101460C310B91C7
:104AD00001460B310A9101460A310991014609311B
:104AE0000891014608310791C11D0691811D05916C
:104AF000411D0491011D0391C11C02910F90801C66
:104B0000019000210C460F9842780D235343A4B224
:104B10009C4200D3DDE00198035D9A0989B24E0101
:104B20001098825582199E06F60F56700298065DFF
:104B300037460E980740212017547007800F202712
:104B4000D055D806800DF308C01890800398005DFA
:104B5000049B1B5D1E07F60F4127D6559E06B60F18
:104B60004027D6550002C01880B2800990845807AB
:104B7000800D059B1E5D7308C0184423D052069813
:104B8000035D5806C00F6127D055F007800FDE097E
:104B90008019602690550798065DB007C00F8127E1
:104BA000D0553007800F8027D0559806800D3309E7
:104BB000C0186423D0520898005D099B1B5DDF0676
:104BC000FF0FA12557555D06AD0FA027D5559D4F69
:104BD000F507AD0D40002818DD0940198425505314
:104BE0000A98005D8508119E3040C0269055180730
:104BF000800D4019A423D0520B98005DC309C12534
:104C000053550C9B1B5D5D07ED0FE1269555DD06A9
:104C1000AD0FE02695554006800D5D094019C4256D
:104C200050530D98005D9B079B0D1818E423D0523C
:104C30000D34083167E720203DE0FDF7FDFE054615
:104C4000386D00782870FFF7BBFC00282FD13C6D31
:104C50006078401CFBF7DCFA6860A11C00206278D9
:104C600090423AD20A5C6B681A54401CF7E7202540
:104C70002846FBF7CDFA064610983070396D487813
:104C80008A78F2700A79C97809028918F160314688
:104C9000FFF75CFB3046FBF7ECFA28460BE0386D7B
:104CA000017840184078FFF7FBFA002828D023202D
:104CB0000221395415201299FEF79AFF8AE6386DC1
:104CC00001214156CEB2057800293CD4841C0F9AAC
:104CD0003DE0109CA2E62220EDE7696800240C5418
:104CE000FFF7F4F9FEF760FE401C00D18BE02920AD
:104CF0001299FEF77DFFA868FBF7BBFAAC6089E06C
:104D00005149086808263043086001254F4C332D6F
:104D100009D8386D01788D4205D8405D2146FBF7F2
:104D2000A5FC6D1CF3E7484C2068B043206000F000
:104D300095F800F03FF9FDF787FE0028FBDC401CEA
:104D40006DD030206FE081780F9A5170C41C7006CE
:104D500002D520789070641CB00602D52078D070FF
:104D6000641CF00605D56078217809020818908047
:104D7000A41C30070CD50020FDF714FE217809048F
:104D8000627812025118A278891840680160E41C08
:104D900070070CD50120FDF705FE21780904627823
:104DA00012025118A278891840680160E41C2D0293
:104DB000B0070CD50220FDF7F5FD217809046278D3
:104DC00012025118A278891840680160E41CAD19DC
:104DD000F0070BD00320FDF7E5FD21780904627888
:104DE00012025118A2788918406801603120129986
:104DF000FEF7FEFE786DFBF73CFA002D00D1ECE5E6
:104E0000FEF7D8FEE9E52320012139541520129937
:104E1000FEF7EEFE6868FBF72CFA6C60DAE52320FB
:104E20000121395415201299FEF7E2FE00F016F820
:104E3000206830432060CDE506201299FEF7D8FEA9
:104E4000FDF7E4FB7C040010FC3F03504C05001010
:104E500013480078811E484248417047104800219D
:104E6000817001701921090181807047F8B50446ED
:104E700000200B4D0B4EC7B2A878401E87420DDABA
:104E8000F15D68460170F1194978417000211022E6
:104E9000FBF7B4FB2070B81C641CECE7F8BDC046FF
:104EA000140300107809001080B500F011F80748CD
:104EB00000680068FFF792FA002800D080BD00204B
:104EC00001460246FFF7D4FA80BDC04698020010A2
:104ED00080B5FFF703FB05480221016004494161E9
:104EE000012101600168C907FCD180BD0480014037
:104EF000102700007CB50C460646002528462946AA
:104F00002A46FFF7B5FA0220FFF796FA0820032198
:104F1000009101903046294622462B46FFF708FBB8
:104F20007CBD70B514460E4605460320FFF74CFACB
:104F3000002001460246FFF79BFA0120FFF77CFAAA
:104F400020463146FFF71CFB802128462246FFF70A
:104F500003FB70BDB0B53020FBF75AF904460025BD
:104F6000302D05D00720FCF7EFFC6053AD1CF7E7B0
:104F70002046FFF70DFB2046FEF74CF9054620467C
:104F8000FBF777F92846FBF788FF02460B4601201E
:104F9000C0070549FBF7DAFC0022044BFBF7D6FCFF
:104FA000034A03C2B0BDC0462079434100C8A940AE
:104FB000500500100248AA21016055210160704788
:104FC0000840004080B5FDF761FA80BD80B502461B
:104FD00008461146FCF74CFF80BD10B500F026F8DE
:104FE000EFF300804000800F012800D0002010BDAA
:104FF00030380A2801D20120704700207047000095
:1050000010B500290AD00878002807D00548784450
:10501000FCF796FB002801D0002010BD0248784420
:1050200010BD00009A0400009204000070B5012534
:105030002D050C001C4310D4EC4206D4AC420AD41B
:10504000994200D070BD904270BDE94217D4EB4246
:1050500015D4994270BD894270BDEC4206D5AC4270
:10506000F9D58B4200D070BD824270BD6D004C00FE
:10507000EC4204D25C00EC4201D28B4270BD034C86
:1050800030B4FCF7B7FA30BC70BD00BF1900130490
:1050900070B50125ED0704004C4020D4441A01D21C
:1050A000001B0919C60D4B00F2B2FF2A29D01B0EB6
:1050B0002CD000020C0228432C43D31ADC400519E3
:1050C00010D2280A02D3401C6D0611D0761EF605B8
:1050D0008019FF2A00DA70BDC00DC00570BD69409F
:1050E00000F022F801200543C541521C761CE8E778
:1050F00064089C40C90161408900E7D10124A043B4
:10510000E4E71B0E440200D0034870BD002AFCD126
:10511000C00FC00770BD00BF0000C07F70B5012583
:10512000ED0704004C4022D4441A02D26C40001B0C
:105130000919C60D4B00F2B2FF2A4BD01B0E50D0FE
:1051400000020C02A8432C43D31ADC40051B05D5F2
:10515000AD0019D36D08761E521E37D0F605280A09
:1051600001D2801970BD70416D0603D070BD6940D9
:10517000FFF794FF9C4009026140490001D0401EA6
:1051800070BD0124A04370BD6D081DD001202B0C03
:1051900001D12D0410302B0E01D12D0208302B0F20
:1051A00001D12D01001DAB0F01D1AD00801CEB0F13
:1051B00001D16D00401C361A121A6D00680AF505FF
:1051C0004019012A02DB70BD002070BDC036300AD4
:1051D000C00770BD1B0E440201D1FF2B00D1024855
:1051E00070BD002AF0D070BD0000C07F3031323376
:1051F000343536373839414243444546403058000B
:10520000303132333435363738396162636465663C
:105210004030780004000008000000000000000298
:10522000000100001080807F7E7D7C7B7A7978771A
:105230007676757473727171706F6E6E6D6C6C6B67
:105240006A6A696868676666656464636362616107
:1052500060605F5F5E5E5D5D5C5C5B5B5A5A595986
:1052600058585757565655555554545353525252F1
:1052700051515050504F4F4F4E4E4D4D4D4C4C4C48
:105280004B4B4B4A4A4A4949494848484747474790
:1052900046464645454544444444434343434242CD
:1052A00042424141418182838485868788898B8CF3
:1052B0008D8E8F919293959697999A9C9D9FA0A27F
:1052C000A3A5A7A8AAACAEB0B2B3B5B7B9BCBEC0CF
:1052D000C2C5C7C9CCCED1D4D7D9DCDFE2E6E9EC70
:1052E000F0F3F7FAFE44303133000000280A0000E2
:1052F000170000001C0C00000F0000003C0F000015
:105300000700000050140000160000009C18000068
:105310000E000000781E000006000000A02800001B
:1053200015000000D43000000D000000F03C00002B
:10533000050000004051000014000000A8610000BA
:105340000C000000447A000004000000E4A2000009
:105350001300000050C300000B00000024F4000004
:10536000030000008545010012000000A086010036
:105370000A00000048E80100020000002C8B020037
:1053800011000000400D03000900000090D0030050
:1053900001000000E093040000000000C51E0000B2
:1053A000B91E00007D21000029210000BD1F000062
:1053B000FD1F0000ED210000C5220000A11E00001D
:1053C000C11E0000B5200000B1220000BB22000079
:1053D000E321000029240000672000002B240000A6
:1053E000012000003D240000152000006121000084
:1053F000020000100040030000F000000000000068
:10540000000000000000000000000000000000009C
:10541000000000000000000000000000000000008C
:10542000000000000000000000000000000000007C
:10543000000000000000000000000000000C23003D
:105440000A49001A01000D1F000E1F001FAA0024A8
:105450000700271100282D0029D400308800324091
:1054600000353F003B02004000004130004B8025EA
:10547000C0126009B004000000000050000001509C
:105480000000025000000350B8550000000000105A
:10549000A00200009E18000000570000A0020010AB
:1054A0006013000020010000100100004300000014
:1054B000F8FFFFFF00404040404040404040414135
:1054C00041414140404040404040404040404040D9
:1054D0004040404040050202020202020202020273
:1054E0000202020202202020202020202020200270
:1054F0000202020202029090909090901010101000
:10550000101010101010101010101010101010109B
:10551000020202020202888888888888080808082F
:1055200008080808080808080808080808080808FB
:105530000202020240000000000000000000000023
:10554000000000000000000000000000000000005B
:10555000000000000000000000000000000000004B
:10556000000000000000000000000000000000003B
:10557000000000000000000000000000000000002B
:10558000000000000000000000000000000000001B
:10559000000000000000000000000000000000000B
:1055A00000000000000000000000000000000000FB
:1055B00000000000000000008DFFFF070201000155
:1055C000C9C38008132A06110002005200051128E1
:1055D000010360071101034A071083081102040048
:1055E0000A5B0D111009000618000F31390911115D
:1055F000050001B42B2B0B111207008060001D0F5A
:1056000047021011120C086540400040D6101112DC
:105610000C14D61011120C20A60D1112092C2710F3
:1056200011200C000230490707A12001C9C38000E6
:1056300006051120010CD40C112008180180080364
:10564000C00010100D112009220064051EB8028F41
:1056500002C20B1120072C0436804905F0C0051149
:10566000200135E20D11200938111616000280E0E4
:1056700074280D11200942A402D683027F0180FF05
:10568000051120014C22051120014E400511200179
:1056900051081011210C00FFBA0F51CFA9C9FC1BF2
:1056A0001E0F011011210C0CFCFD15FF000FFFBA9D
:1056B0000F51CFA91011210C18C9FC1B1E0F01FCA2
:1056C000FD15FF000F0811220400087F003F05119F
:1056D000220105250B112307002C0E0B040C73036C
:1056E0001011300C380C114008003C0865222220B3
:1056F000FF09FF6CDC02AA010002C8011A73F05313
:04000005000000C136
:00000001FF
