:020000040000FA
:10000000B81B0010D9010000E1010000E30100006D
:1000100000000000000000000000000000000000E0
:10002000000000000000000000000000E5010000EA
:100030000000000000000000E70100004D2000006B
:10004000EB010000EB010000EB010000EB01000000
:10005000EB010000EB010000EB010000EB010000F0
:10006000EB010000EB010000EB010000EB010000E0
:10007000EB010000EB010000EB0100009517000010
:10008000012100002D210000EB010000EB01000028
:10009000EB0100005D210000EB010000EB0100001E
:1000A000C5150000EB010000EB010000EB010000B2
:1000B00009190000A1180000EB010000EB0100008D
:1000C00000F002F800F05DF812A030C808382418DB
:1000D0002D18AC4201D100F054F80FCCA246AB462B
:1000E0000CA730CF2D1B083F3F197C427F1E544484
:1000F0002D090426F441641EAC4201D300F041F8FE
:100100000126334200D0FB1A3343984754465D46DC
:10011000DFE70000945E0000B45E0000704700005E
:100120000023002400250026103A01D378C1FBD813
:10013000520700D330C100D50B60704710B5642959
:1001400002D100F023F910BD752902D100F01EF98B
:1001500010BD782902D100F04FF910BD002010BD6C
:100160001FB50098019900F0ACFF01F0B5F804004C
:100170000020002105F0D4FD401C60601FBD10B5BB
:1001800010BD01F0F4F81146FFF7EAFF02F0C4FFDA
:1001900001F00CF903B4FFF7F2FF03BC02F022F800
:1001A00070B505460C46164602E00FCC0FC5103E52
:1001B000102EFAD2082E02D303CC03C5083E042E1B
:1001C00007D301CC01C5361F03E021782970641CD8
:1001D0006D1C761EF9D270BD07488047074800475E
:1001E000FEE7FEE7FEE7FEE7FEE7FEE70448054917
:1001F000054A064B70470000A1200000C100000026
:10020000B80F0010B81B0010B8150010B81500107A
:1002100070B505F064FD00230A46DB4300211B1A7C
:10022000914101D2002070BD044600F007F805009E
:1002300002D0214600F095FA284670BD70B50646FA
:1002400000F020FF056830460B30C408E400B442DB
:1002500001D8002070BD68682A46002818D00168BF
:10026000A14211D30B46214608318B4208D3436883
:1002700001194B6003681B1B0B605160046001E0B7
:1002800041685160001D70BD024640680028E6D1FB
:100290002146284600F000FF0028DCD170BD70B573
:1002A0000446051F00F0EEFE0068002C1AD04468DA
:1002B00001E020466468002C01D0AC42F9D301680B
:1002C0000A18AA4204D12A6805468918016000E08C
:1002D000456028684119A14205D1616869602168BB
:1002E0004018286070BD6C6070BD10B502F05CF9FC
:1002F00010BD70477047704770477047FFFFFFFFA2
:1003000010B5202A04DB0146203A9140002010BDA0
:10031000914020239C1A0346E3401943904010BDAE
:100320000FB4054910B503AA029800F055FF10BCA0
:1003300008BC04B018470000F804001070B504466B
:1003400085690068C10601D5302600E02026C00777
:1003500007D070BD62683046A1689047206A401C93
:1003600020626D1EF6D570BD70B5044685690078B3
:10037000C00707D170BD6268A16820209047206A3D
:10038000401C20626D1EF6D570BD0000F7B500253B
:1003900075291068009914A611D0C046C0460028DF
:1003A00002DA404211A608E0009909688A0701D5DF
:1003B0000FA602E0490704D50EA6012501E0C046BC
:1003C000C046009F0024243704E000F06CFF303169
:1003D0003955641C0028F8D12B4632462146009836
:1003E00000F0A2FEFEBD0000000000002D00000095
:1003F0002B0000002000000070B504460D46214689
:100400001068C046C0462188090502D50F4A7A44C3
:1004100002E00E4A7A440E3223460021243305E0DE
:1004200006070009360F965D5E54491C0028F7D177
:1004300020780023000705D5702D03D0002901D0B6
:1004400002231132204600F06FFE70BD3A590000C1
:10045000F3B50446002081B020622046E168884759
:1004600000287DD0252802D06268A16883E0454F2E
:1004700000257F442046E16888472028064608DB9F
:10048000312E06D2B81920380078002801D0054353
:10049000F0E7A80701D5042085430020E061074666
:1004A000A0612A2E0AD0304605F032FC002827D061
:1004B000B8000019303E0090866119E00298BA0039
:1004C000121902C8916102902046E1688847012F05
:1004D000064617D1E06900281FDA202085431CE07A
:1004E00000980A2180694843009980193038886152
:1004F0002046E1688847064605F00AFC0028EFD14F
:10050000012F0AD02E2E08D12046E16888470646E2
:10051000202005437F1C022FC3DBA069002803DADB
:100520004042A06101200543E80701D01020854327
:10053000002E24D030464138192803D80120C002AB
:1005400005432036204625603146029A1546FFF7BE
:10055000F5FD00280CD0012807D0ED1DE80800E0CB
:100560000DE0C0000830029077E72D1D029574E77A
:1005700062683046A1689047206A401C6CE7206A98
:10058000FEBD0000FE580000F7B50F460026009C97
:100590002578641C002D05D000F06CFD0068405DDE
:1005A000C007F5D12B2D02D02D2D18D0641E394651
:1005B000029A204600F024FE002F04D03968A142A0
:1005C00001D1009939607105022400290BDA4042FB
:1005D000002803DD00F05AFD0460A007FEBD0120E5
:1005E00080020643E3E70028F8DA00F04FFD0460DC
:1005F0000048FEBDFFFFFF7F10B5024901F0D4FFA8
:1006000010BD0000F8040010034610B50B439B0713
:100610000FD1042A0DD308C810C9121FA342F8D065
:1006200018BA21BA884201D9012010BD0020C04368
:1006300010BD002A03D0D30703D0521C07E00020CE
:1006400010BD03780C78401C491C1B1B07D1037894
:100650000C78401C491C1B1B01D1921EF1D118467D
:1006600010BD000030B5441C03E00178401C002997
:100670000DD08107F9D10B4BDD0104C8D11A91438C
:100680002940FAD0001B0A0603D0C01E30BD001B53
:1006900030BD0A0401D0801E30BD0902FCD0401ECE
:1006A00030BD000001010101F8B5042A2CD38307F5
:1006B00012D00B78491C0370401C521E83070BD0CC
:1006C0000B78491C0370401C521E830704D00B7822
:1006D000491C0370401C521E8B079B0F05D0C91A82
:1006E000DF002023DE1B08C90AE0FFF759FDF8BD33
:1006F0001D4608C9FD401C46B4402C4310C0121FC3
:10070000042AF5D2F308C91A521EF0D40B78491CFA
:100710000370401C521EEAD40B78491C0370401C25
:10072000012AE4D409780170F8BD01E004C0091F72
:100730000429FBD28B0701D50280801CC90700D099
:100740000270704700290BD0C30702D00270401C12
:10075000491E022904D3830702D50280801C891E0A
:10076000E3E70022EEE70022DFE7000000220309B2
:100770008B422CD3030A8B4211D300239C464EE0BC
:1007800003460B433CD4002243088B4231D3030978
:100790008B421CD3030A8B4201D394463FE0C3092A
:1007A0008B4201D3CB01C01A524183098B4201D342
:1007B0008B01C01A524143098B4201D34B01C01A2D
:1007C000524103098B4201D30B01C01A5241C308A5
:1007D0008B4201D3CB00C01A524183088B4201D314
:1007E0008B00C01A524143088B4201D34B00C01A00
:1007F0005241411A00D201465241104670475DE015
:10080000CA0F00D04942031000D3404253409C46D7
:10081000002203098B422DD3030A8B4212D3890194
:10082000FC2212BA030A8B420CD3890192118B422B
:1008300008D3890192118B4204D389013AD09211D5
:1008400000E08909C3098B4201D3CB01C01A524190
:1008500083098B4201D38B01C01A524143098B4259
:1008600001D34B01C01A524103098B4201D30B0142
:10087000C01A5241C3088B4201D3CB00C01A524167
:1008800083088B4201D38B00C01A5241D9D243084E
:100890008B4201D34B00C01A5241411A00D201468B
:1008A0005241104663465B1001D34042002B00D5F5
:1008B0004942704763465B1000D3404201B5054989
:1008C000002802DC491C084000E00846C046C0463B
:1008D00002BD00BFFFFFFF7FF0B5F94D0C091E09F7
:1008E0002C402E402F468BB0A7437DD0B543FCD083
:1008F000002E7AD0002CFCD00D465D40ED0F254334
:10090000AC1BFF25AD0464190894C502440DC9024F
:100910002143500DDC0204430120C007014304437E
:10092000D2020191200C110C00958C460104234643
:100930008B430A9161460904E24D8A430991010AF9
:100940007D4449198039097805464D4301266D18C3
:10095000F605751B6943C90C640B891C4C4364186C
:10096000B5012C1B250C2E04B4434C434D43210CE4
:10097000691889090591009DE90701D00121C9077E
:1009800004912C4601996708CD072F434C08059D1B
:10099000E10B4D432D0C29466646754302950D46E5
:1009A00045432E46029D7D1BB44100950D465D4397
:1009B00001942C0C2F040D465543AE462D0C3D439F
:1009C000029503947546049C2D04641B049406D27E
:1009D000029C039D641C002675410395029401ACA2
:1009E00070CC009F7D1B01E03EE162E1B44109044F
:1009F0000095079101940599A4086143090C0C46E0
:100A00004443650BE7040C4666467443A646640BF4
:100A10003C43039502947446049DE4042C1B049407
:100A200006D2029C039D641C002675410395029426
:100A300001AC70CC009F7D1BB44101940C465C431B
:100A40000095650FE7000C465443A646640F3C43EF
:100A5000039502947446049DE4002C1B049406D272
:100A6000029C039D641C002675410395029401AC11
:100A700070CC009F7D1BB441AE09AF06049DC90038
:100A8000AD092F43049DA406AD060495079D34438C
:100A900069180791059DE10B4D432D0C29466646CB
:100AA000754302950D4645432E46029D7D1BB4417C
:100AB00000950D465D4301942C0C2F040D465543C3
:100AC000AE462D0C3D43029503947546049C2D04BF
:100AD000641B049406D2029C039D641C002675418D
:100AE0000395029401AC70CC009F7D1BB44101942E
:100AF0008C050694079C890A611800950791019C52
:100B00000599A4086143090C0D464543680BEF04A1
:100B10000D46644665436C0B3C43049FED047D1B0E
:100B2000AC4602D20025641C6841009E019D371B23
:100B300085410846584301950C46460FC50054436D
:100B4000600F28436546E4002C1B02D20025401CA0
:100B50006E41019D3F1AB5412846BD0980062843D4
:100B60008446A009BF064E020699A40676180743DC
:100B7000079D002068410A99079019430020099BAE
:100B800000906046FF1913434041E20F64003A436E
:100B9000A4460446D71A8C41A04203D901200090F4
:100BA00020463A46C70F941840416246D20F22436E
:100BB000644664000494009CBE466400D71AA446B0
:100BC000044602978C417746002F01D1A04204D9F8
:100BD0006046401C8446029A2046C40FA6469418DC
:100BE0004041049A0546D20F224364466400D31A5A
:100BF0008D417146002901D1A84202D928461A46E2
:100C0000641C10430122002800D01643610200201A
:100C1000079B891904465C410223002C02DB49181A
:100C200013466441089DCE0A2D145D194B056705D6
:100C3000E10A2C050D1908993E43C9076940002BAC
:100C400008D0934006D30022761C5141002B01D1DD
:100C5000760876001C4A002D43DB154241D0AA439A
:100C60003FD030460BB0F0BD06180D464D41174C35
:100C70007642AC411AD395181C465C41134A6D422A
:100C8000A24113D3012252054C00D4420AD15C0088
:100C9000D4420BD04B4002D592021143E2E7490007
:100CA0004908DFE75940C90FC90718E00020084983
:100CB000D8E7054801420DD10342F7D0F2E7000022
:100CC0000000FF07415400000000F07F0000E0FF3B
:100CD0000000F87F114859400143C01241400020F4
:100CE000C0E70123089A9B069A4205DC03225207BB
:100CF0008918C90FC907B5E7052252078918074A9D
:100D00001143D2125140ADE770B515461C4602465C
:100D10000B4628462146FFF7DFFD70BDFFFFFF7F32
:100D200030B50346CA02400D1043164D164C0A1545
:100D300002D02043002A06DBAA1A002A12DDD04086
:100D4000FF2A0BDC30BD5205520D01D14000400896
:100D5000AA1A07D4D0404042FF2A01DD002030BD4E
:100D60000028FCDD4A00002B01D0012000E000201B
:100D7000101801225205D042F0D8C817C043604075
:100D800030BD00001E040000000000800346CA02BF
:100D9000400D10B510430A1504D00124E407204388
:100DA000002A05DB0A4CA21A04D4D040FF2A00DD39
:100DB000002010BD4A00002B01D0012000E00020DF
:100DC000101801225205D042F2D8C817C04310BDF6
:100DD0001E0400001F22030C02D10F22000402D0C7
:100DE000030E03D004E00020014670470002083AD9
:100DF000030F01D10001121F830F01D18000921E49
:100E0000002801DB4000521E120551184205C01295
:100E1000411810467047C10FC90700D04042012257
:100E200092071143D6E701218907D3E7F0B58B4C30
:100E30000F09254689B0BD437BD01D092646AE4328
:100E4000FAD00E465E402740F60F3E43254071D053
:100E500024012142FBD0FF24AD19A4042D1B0395CE
:100E600001252D05DB02DB0AC9022B43C90A2943F0
:100E70001E010901040F130F050121431701880BFF
:100E8000820391432D098C46A90B1E438A03954387
:100E9000B30B9A0396433F09BA0B9403A7430296F8
:100EA0002E467E430497B6464E19D7190C46019636
:100EB000544305977E43371B7646BF1B3601B64623
:100EC000BE0B361900967646BC043719009C01D338
:100ED000641C00946400002F01D001263443029E5C
:100EE000049F754366467E430496760034196E006F
:100EF00034190094029C019E1C196643751BAE4672
:100F0000069465464519059C05956C4359437546FD
:100F10000891691A0191049E01465143A41B049152
:100F2000611A009C0791E10605D061090122114375
:100F300002E072E06EE06109089D00272C0A2D0690
:100F40006918049D7C412A0A2D066918019D624199
:100F5000AC0DAD026D185441079A910D92025519CE
:100F60006141029A644658435443069B059A5A438A
:100F7000121A131B9A0E9B015B187A41010B000594
:100F8000C3185141220A200644195A419A4200D2FC
:100F9000491C01204002814203D315230226F64357
:100FA00002E014230326F6432020C51AA940174661
:100FB000AF40DA400A4320460399D8400914731819
:100FC00019055118039A3843D2075140AC4009D053
:100FD0000122944006D30022401C5141002C01D133
:100FE000400840001E4A934212D301220398920601
:100FF000904207DB0520400709181A480143C01238
:10100000414004E0032040070818C10FC907002031
:1010100009B0F0BD0020F107FAE705180C464C4175
:1010200011486D42A04115D394181A465A410E48F2
:10103000644290410ED301204A004005824209D308
:101040005A00824206D35940C90F084AC9070020F6
:101050001143DDE700200649DAE700000000FF0742
:10106000FE070000FFFFFF7F0000E0FF0000F07FB1
:101070000000F87F10B500F02FF9001D10BD00BF73
:10108000A14C000000487047C8020010004870479B
:10109000C00200107047704738B504460A46002069
:1010A0006946C046C046002805D002462046009941
:1010B00000F016F9012038BD10B5012000F051F9FB
:1010C00010BDF8B5C046C046054600200C460C20B1
:1010D000C0460646A819A0420DD9324669460020EE
:1010E000C046C046070001D100F03BF90098A0427D
:1010F00000D00546C419FFF7C5FFF61D0746056079
:10110000F008C0004619284600F008F8B44204D0A0
:1011100031463868A21B00F0E3F8F8BD00210160F9
:10112000416070470C207047FFB504460D4681B002
:10113000243000902168880604D51022E06991438C
:10114000216000E00120A84201DD471B00E00027EC
:101150000498A1697A191018081AA0612078C006AD
:1011600002D42046FFF7EAF8002608E003986268F8
:10117000A168805D9047206A401C761C206204981C
:101180008642F3DB2078C0060AD52046FFF7D6F862
:1011900006E06268A16830209047206A401C206207
:1011A00038467F1E0028F4DC07E000986268A168DA
:1011B000405D9047206A401C206228466D1E002832
:1011C000F3DC2046FFF7D0F82078000602D5022095
:1011D00005B0F0BD0120FBE7084B70B50D467B4420
:1011E00000F09DF80446284601F05CF9002802D082
:1011F0000020C04370BD204670BD0000C713000032
:10120000F7B5154682B00027029C2078641C019730
:10121000302802D0002D15D015E020780127641C5D
:10122000782804D0582802D0002D09D00BE0002DDA
:1012300001D0102D07D1207800271025641C02E072
:10124000082500E00A250026009610E000990127F5
:101250006943081829467143020C80B200908E1829
:101260003804864201D3012001902078641C29466D
:1012700000F068F80028E9DA0398002805D0002F6C
:1012800001D0641E00E0029C04600198002806D092
:10129000FFF7FCFE02210160C81E05B0F0BD0099F9
:1012A00030040843F9E701468008081A02091018BB
:1012B000020A1018020C1018C008820012185200FE
:1012C000891A01E0401C0A390A29FBD27047000044
:1012D00000487047C002001000487047E00200104C
:1012E00010B50346406801E003464068002801D07D
:1012F0008842F9D31868C3188B4206D0CB1CD80893
:10130000C000001D411A521A0146081D0A60FEF76E
:10131000C6FF10BD01694A1C02610878704700B51C
:101320008FB0029100210591054901937944039101
:10133000114604906846FFF78BF80FB000BD00001F
:10134000E5FFFFFF3A2800D23038202302469A43B7
:10135000412A01D310463738884201D30020C043C8
:10136000704710B500F030F800F028F810BD754651
:10137000FFF7AEFFAE46050069465346C008C00001
:10138000854618B020B5FEF731FF60BCB646002692
:101390000027C0C5C0C5C0C5C0C5C0C5C0C5C0C583
:1013A000C0C5403D490849008D46704710B5044608
:1013B000C046C0462046FEF7EDFE10BD10B5002821
:1013C00001D000F00FFF10BD10B5012805D000219D
:1013D00003A000F065F8012010BD09A1F8E70000A6
:1013E00053494752544D454D3A204F7574206F660E
:1013F0002068656170206D656D6F72790000000076
:101400003A2048656170206D656D6F727920636F59
:101410007272757074656400024670B50A43920773
:101420002AD11E4DEE0104C808C9541B9443344010
:1014300017D0D0B2D9B2401A2106014310D190B2D0
:1014400099B2401A210401430AD110021902000A7C
:10145000090A401A2102014302D1100E190E401A46
:1014600070BD9A42DFD010BA19BA884201D9012062
:1014700070BD0020C04370BD02780B78401C491C31
:10148000002A09D09A4207D102780B78401C491CE7
:10149000002A01D09A42EFD0D01A70BD010101019B
:1014A00070B505460C460A2000E06D1C00F09BFE5E
:1014B000002D06D028780028F7D102E0641C00F047
:1014C00092FE002C02D020780028F7D10A2000F0EC
:1014D0008AFE70BD30B58C180278401C13071B0FB4
:1014E00001D10378401C120906D10278401C03E0A8
:1014F0000578401C0D70491C5B1EF9D101E00B7092
:10150000491C521EFBD1A142E6D3002030BD000091
:10151000B0B51648016810229143016001204203D2
:1015200013498B6813438B600022434B202A04D05D
:101530009C180025A560121DF8E70E4A022393604F
:10154000D36013615361536290621060D0620A48A5
:1015500000680968FFF70AF90849FFF707F9000270
:10156000FF21C943401833490860B0BD38820440A8
:10157000788004406C40044078010010009F2400F3
:1015800010B52C490A68FF239A430A60072800D93E
:1015900000200122130682400C6814431C430C6097
:1015A00082000B461033D0580028FCD507221206C3
:1015B0000B6893430B60410001D5002010BD00046F
:1015C000800D10BDB0B51B48016B0A04120E12D07D
:1015D000194A53685B1C5360024610320023082BE3
:1015E0001ED0090AD940C90701D0116800E00021C6
:1015F000121D5B1CF3E7CA031AD50F4A08320346D3
:1016000010330024082C0BD00D46E540ED0703D025
:101610001D682D04AD0D1560121D1B1D641CF1E726
:101620000721090602688A4302600348012101601C
:10163000B0BDC04600C0014020030010F8B5E24E26
:1016400032217161010C01D1070B01E0C70B0E378C
:10165000B761F7613446143435462835DB4A2046F5
:1016600029469047B06A002801D00120F8BDD7492B
:1016700034207061B761F7613078002800D0D44819
:101680000A463062204629469047B06A411E88418A
:10169000F8BDC04610B50021074AA82908D0535804
:1016A000984203D353189C68A04202D30831F4E750
:1016B000FEE7187910BDC0460C5E0000F8B56D4C11
:1016C0000020A06060600120850720262E60062093
:1016D0002061084F2069062809D12068401C20603D
:1016E000B84202D204F0E8FAF4E70B202061AE61C0
:1016F0002069F8BDFF0F0000B0B518490A68022341
:1017000013430B60CA6F20231343CB673F21CB43A6
:10171000134A116819401160146801210C431460C8
:1017200054681C40546053680B4353608B076C240F
:101730009C614C021568254315605568254355602A
:10174000D2225A611A61022801D1A020D860C803B0
:10175000044A1060402018600846B0BD0480044070
:101760003040044000E100E070B50124A5071020DE
:1017700028600820A861064E2868C00606D5002EFD
:1017800003D004F099FA761EF6E70024204670BDD7
:10179000FE0F000010B5374900220A6001208007C3
:1017A0004368DBB2083B0324E3410A2B28D8C04638
:1017B0007B441B795B009F4405120726290E231BDF
:1017C0001D3F34004A600BE0CA68012A22D1102272
:1017D0000260072215E010220260092211E08A60EF
:1017E0004A68531C4B608918097E816028213AE0C1
:1017F000042136E00422026008220A61826110BDE1
:101800000A220A612EE0FFF7AFFF10BD4A68CB68DD
:101810009A4222D24A68531C4B608918097E816023
:1018200020E082688B685C1C8C60CB1828241A55D9
:101830000C220A61102114E082688B685C1C8C60A9
:10184000CB1828241A558A6849698A42014601D36F
:101850000146183104220A6004E04A69002A04D0D3
:10186000202101600821816110BD102202600C223C
:10187000C7E7C046480300105348012101700748DC
:1018800000220267416742674167426FD207FCD07E
:1018900081670221017000207047C046008004402B
:1018A00070B5174C2068304D0007164E0BD5C2207E
:1018B000295A002907D12D2129523068000702D466
:1018C000022000F0D9FF206840070CD5912040008D
:1018D000295A002907D12D2129523068400702D406
:1018E000032000F0C9FFA06808210143A16000BFE8
:1018F00000BFA06804210143A16000BF00BF70BD0C
:1019000014800250FC3F025070B5164C2068164DF2
:10191000C007164E0AD06888002807D12D2068809D
:101920003068C00702D1002000F0A6FF2068400701
:101930000BD56220295A002907D12D212952306860
:10194000400702D4012000F097FFA0680121014365
:10195000A16000BF00BFA06804210143A16000BFD7
:1019600000BF70BD1480035000050010FC3F035001
:10197000F8B500910546144C32206061280C01D165
:10198000280B01E0E80B0E30A061E061264614361A
:10199000274628370D4A30463946904701204002F5
:1019A00033216161A5610099E161206220780028FE
:1019B00000D00748606230463946044A9047A06A22
:1019C000411E8841F8BDC046C0030010F11FFF1F33
:1019D000E02E0000F0B50022D3430E4D194C8A4290
:1019E00016D000262660666814273740042F03D0DF
:1019F0006D1E6E1CF7D31D466668760703D46D1EF8
:101A00006E1CF9D31D4626680670521C401CE6E782
:101A1000F0BDC046FFFFFF00B0B50022094B8A426F
:101A20000FD05C6812252540022DFAD104781C6085
:101A30005C6814252540042DFAD11C68521C401CFA
:101A4000EDE7B0BD0800044001207047034988421B
:101A500001D3002000E00120C001704740DD4A1F93
:101A6000BA4800787047C04600207047F0B585B08E
:101A70003849086000F0D2F80925374C2846A047BD
:101A800001900620A04704900720A047039008205B
:101A9000A047064600272846394600F09AFA3B251B
:101AA0002846A0470146402002900143284600F006
:101AB00090FA049800040399090208188019FFF7A6
:101AC000B2F9904B3A46FFF7B1F9FFF75FF90646D6
:101AD000C8243B2000F068F8800603D5641E200669
:101AE000F7D11CE01D4800F0F3F83B24204600F03D
:101AF0005BF802990143204600F06BFAC8243B20B2
:101B000000F052F8800603D5641E2006F7D106E0E7
:101B10000920019900F05DFA304600F0D9F8002064
:101B200000F016F92F20C4430D4D0020002C0AD0E0
:101B300000F0F8F829193120085C3222895C00F0A5
:101B400048FAE41CF1E700F0EDF8022000F000F99B
:101B500005B0F0BD94040010A91B000000A1BC3327
:101B60005C5F0000B0B514460D4600F0DBF8284677
:101B700000F0AEF8052000F0EBF84F4802210160BC
:101B80007D21C9004161012505600168C907FCD1BB
:101B900000F03DF8A04200DD002500F05DF9284688
:101BA000B0BDC046002070471CB501AC00212170BB
:101BB0000122214600F002F820781CBDF8B5154638
:101BC0000C460E4E31688027B94331603A490222F3
:101BD0000A604B2292004A6101220A600A68D20719
:101BE000FCD17F21084004F06FF82846214601F01F
:101BF0005CFF306838433060F8BDC046FC3F0050A1
:101C000080B50A4601460020FFF7D8FF80BD80B5A9
:101C10001120FFF7C9FF400880BD0000B0B50D4995
:101C200008682022904308602348022303607D2433
:101C3000E4004461012404600568ED07FCD10D68EF
:101C400015430D6003600449416104600168C907E0
:101C5000FCD1B0BDFC3F015070170000FEB50291F1
:101C6000009000F0FEF8EF4F02243C607D208000E1
:101C70000190786101253D603868C007FCD1029E63
:101C8000701EC1B2352000F0A4F90098314600F072
:101C9000CBF9204600F05CF83C60019878613D602B
:101CA0003868C007FCD1032000F052F83F20FFF74E
:101CB0007BFF0007FAD5FEBD04800140704700009D
:101CC00002490A78824200D00870704798040010D8
:101CD000B0B5BB494860FFF7A6F80022BA4BFEF743
:101CE000FBFDFFF753F80446000CC1B20620B54DCA
:101CF000A847200AC1B20720A847E1B20820A84798
:101D0000B0BDC04680844E4010B50C4600F00AF8C5
:101D1000AB48807F002800D010BD3220214600F063
:101D200058F910BD10B5A6494A7882420CD04870C7
:101D3000002000F00DF801242046FFF735FF7F2139
:101D40000140204600F045F910BDC0469C0400103B
:101D5000B0B50446002806D00020FFF7B1FF032CE1
:101D600005D1012004E00120FFF7AAFF02E00020D6
:101D7000FFF7A4FF01252846FFF716FFF8210140D1
:101D80002143284600F025F9B0BD80B50520FFF7B6
:101D9000DFFF80BDF0B585B01D46019314460F46A8
:101DA0000091FFF7BFFF222185480F9A425421215D
:101DB0000E9A425420210D9E4654846107610C996D
:101DC0000391C1770B990491817745610A9D8583C1
:101DD0002046FFF728F802460B46002002907B4978
:101DE000FEF77AFDFEF79CFF0446010A0220754FBC
:101DF000B847E1B20320B8470098FFF74BFC014613
:101E00001220B8470198FFF745FC01461320B84758
:101E1000290A2520B847E9B22620B84732242046AF
:101E2000039D2946B84720462946B8470299049899
:101E3000002801D17F20C143701E864135010D432A
:101E400030242046FFF7B0FE6F2101402943C9B27C
:101E50002046B84705B0F0BD80B50020FFF778FFF9
:101E600080BD80B50120FFF773FF80BDF0B587B05E
:101E7000029303920E46FFF755FF0920FFF794FEE9
:101E80004D20FFF791FE05464D484068FFF7DEFD07
:101E900040B211990191109900910F9906910E99F4
:101EA00005910D9904910C9C002808D4F117314339
:101EB0000E2900DB0E21084671300E461EE0072079
:101EC000112E03DCF8210D402D1D00E005432840B4
:101ED000072808D1052E00DC0526142E00DB142669
:101EE00031460B3107E0022E00DC0226112E00DB0A
:101EF000112631460E310F20C0430843C1B20920DC
:101F0000304FB8474D202946B84721202C4A009928
:101F10001154202006991154019850620598907729
:101F2000049890839461039DD560029810611672A5
:101F30000A263046FFF738FE402101433046B847B5
:101F40002846FEF770FF00251F4B2A46FEF7C4FC0B
:101F5000FEF7E6FE0646010A0420B847F1B2052066
:101F6000B8472046FEF75FFF02460B461749284652
:101F7000FEF7B2FCFEF7D4FE0446010A0220B84781
:101F8000E1B20320B847049C210A2520B847E1B2FA
:101F90002620B8470598002801D17F20C54306991F
:101FA000481E81410E012E4330242046FFF7FCFDE0
:101FB0006F2101403143C9B22046B84707B0F0BD98
:101FC0009C040010D31F000080844E4080847E411A
:101FD0007047E0B501AB19700122194600F002F814
:101FE0008CBD0000F8B515460C460D4E31688027B3
:101FF000B94331600B4902220A604B2292004A61C8
:1020000001220A600A68D207FCD1384303F05CFE63
:102010002846214603F05CFE306838433060F8BD46
:10202000FC3F00500480014080B50A460146002074
:10203000FFF7D8FF80BD0000034908604868C0066C
:10204000FCD40868C0B270470800044010B5124CB8
:10205000A068411CA160092813DB0020A06001F0EA
:102060002BF800F07BFC01F015F901F043F900F0CA
:102070000BF903F03FF82068401C02D02068401C98
:1020800020606068411C6160632804DB0348012113
:1020900001600020606010BD18040010B80200103C
:1020A000B0B51248002282630121C163C263C163DB
:1020B000C36BDB07FCD0232303600D4B1C6880251A
:1020C000AC431C604368DB07FCD003238366C16616
:1020D000C266C166C26ED207FCD00167054A82673C
:1020E00005480160054813210160B0BD0880044027
:1020F000388204405F000100988004405081044011
:1021000009480168C90705D00121016012490A6820
:10211000521C0A600168C90605D5102101600E48ED
:102120004168491C4160704700C00040094801688F
:10213000C90705D00121016007498A68521C8A60DD
:102140000168C90605D5102101600348C168491C12
:10215000C1607047000001408003001010B50122EB
:102160005005084908600F48036807488178074C04
:1021700063540A2383800270802901D8491C81702E
:1021800010BDC04680E200E0B8030010100F001040
:1021900004494A695206FCD508604A695206FCD5D2
:1021A0007047C046008000400648011F03220A60B5
:1021B000012101600022026001600168C907FCD0B2
:1021C0000020704774800440BFF34F8F03480449D8
:1021D0000160BFF34F8F00BFFDE7C0460CED00E08C
:1021E0000400FA05FEE780B5FFF7D2FF80BD0000CE
:1021F000FEB5054622490A780024E043072A0DD897
:102200002B78AE1C0296A64FA34208D02E19B678A2
:102210007601BE19B669641C002EF5D0FEBD2624D9
:102220005443184E3355521C0A704A78521C4A7057
:102230003419002001906070688C6084A88CA084A0
:10224000A61C2A7830460299FEF72EFAA0784001A3
:1022500006213954618C7D22D20051433818A38C59
:102260005343016143612878002806D03178490141
:1022700079188C61761C401EF6E70198FEBDC046B9
:10228000000400108006001010B516480288D549D9
:10229000002A06D00B6880241C430C60511E01806C
:1022A00010BD4288002A06D00B688024A3430B602F
:1022B000511E418010BD0279002A0ED0C2880280D2
:1022C0000A6880231A430A60028942800A689A4396
:1022D0000A600179491E017110BD0868802290438F
:1022E000086010BD24040010B0B50023094A0C0694
:1022F0000ED0047863400824250606D05D08DB076D
:1023000000D055402B46641EF6E7491E401CEEE700
:1023100098B2B0BD01A0000010B560214143B94A98
:102320005418515C002903D000202061204610BDC4
:1023300000F0D4FA20610028F8D08200E3689342CC
:10234000194600D80146934202D804488142EDD391
:102350000348814200D900212161E7E7E0930400AE
:10236000DF93040070B5E24883789D4A2A492B48E0
:10237000022B13D0012B24D1294B1C68182525438F
:102380001D600C6804231C430C600D6880242543E9
:102390000D6005682026B54316460BE00B68042443
:1023A000A3430B600C6880231C430C600568202449
:1023B0002543BF4E056035682543356014681C43CE
:1023C00014600122130204689C4304600B68082413
:1023D000A3430B60036813490B4003601020C44300
:1023E000114B1868204018601048056825400560AA
:1023F0002024E4430568254005601D6825401D60D4
:1024000003680B400360910203688B430360D102B1
:1024100002688A43026070BD008000500080015055
:10242000A0400440FFFDFFFF0080035000800250E9
:1024300010B504460BA0005D01F094F944216143FE
:10244000844A51184880411C08D0602161439E4A4B
:102450005118C97E0840411E884110BD0020C0436C
:1024600010BDC0464042000070B5FFB0FFB082B062
:10247000202000210A4A00280BD001231B026C46B1
:102480006352631800249C8053189C612031401EC5
:10249000F1E7684601F09EF87FB07FB002B070BDF2
:1024A000000900100020C0437047000010B504462A
:1024B00000F0D2F8EE49896C0022FF2A05D02346AD
:1024C0000C5D521C8442F8D100E0FF23D8B210BD4D
:1024D000FEB5E74D287824216854287A28240090F6
:1024E0002855A8792627E8552220285C019000F07D
:1024F000B3F82C216854285D002808D0FFF7D6FFD8
:1025000030216854FF2815D1285D685412E0E87F17
:1025100030216854287D34216854287E382168543D
:10252000287F3C216854A87F3E2168544020285AC7
:1025300044216852A87C32216854EC5D002C01D003
:102540000D2000E007203F21029168546A6D294662
:1025500015188D650E26F743002C00D1BF1DC44B06
:102560001C783F190024C249E6B2B7420CD9C6B262
:102570003F2E07D86B1C8B652D789555401C029D0E
:1025800048551D46641CEFE701200099090601D05B
:10259000014600E00221019A002A00D101460020F4
:1025A00001F036FCFEBDC04680B5FFF7F1FD80BDF1
:1025B000012000023E49096801404842484108495B
:1025C0000968090700D4801C3A490968890700D4C2
:1025D000001D39490968490600D40830C0B2704767
:1025E000FC3F0050FC3F025000487047880100103B
:1025F000032804D860214143D64840187047002082
:102600007047C04600050010F8B50C4606468F001E
:102610003846FDF713FE002813D0054631463A46EA
:10262000FDF7BEFD0120204061084018401E82B227
:102630002846214600F0C6FC04462846FDF72FFE3A
:1026400000E034682046F8BD442141430148401869
:102650007047C046B00700100120400214490968C5
:10266000014048424841134A1168C90600D4801C01
:1026700011490B68DB0600D4001D0B689B0600D4D3
:1026800008301268920601D4102210430A6892059D
:1026900001D4202210430A68520501D4402210437D
:1026A0000968090501D480210843C0B27047C046BB
:1026B000FC3F0150FC3F0350FC3F0250602141436E
:1026C000014840187047C0463808001080B502F035
:1026D000A3FB024800780649487080BDA80300109B
:1026E00000487047000F00100148401C7047C0466A
:1026F00032040010EA498978017001487047C046E9
:10270000100F001000487047940F001000487047E9
:10271000A00F0010E24881888078000601D00846AA
:1027200001E00020C043002900D008467047C046A1
:102730000148001D7047C046C0030010F0B593B0BB
:1027400003A8801C3E21FEF70CF8494E306D057839
:10275000A80913D03F210D4003A94D700424002D7A
:102760000DD00A2D0BD8401E03A90870C0B2FFF788
:10277000A5FFC17C002905D0052400E003242046E4
:1027800013B0F0BD01218174316D4A78C276062004
:1027900068430A1D01920291891C0091002425467C
:1027A000A04219D003AE3619EDB200994F5D390938
:1027B00031710199495DED1C029A525D13071B0DA1
:1027C0005918318139011206120F8918C9B23C22F9
:1027D0004A43F280A41DE3E703A802F03BFA002479
:1027E0000028CCD103A80178012002F0B9F9C6E78E
:1027F000B0B51F48006D007800280ED0401EC0B252
:10280000FFF75CFF0446012585741E304021FDF76B
:10281000A8FFA57565750020B0BD0320B0BDC046FA
:1028200010B5134CE07F217B814209D0A07900F0E4
:10283000B3FB002805D0207C00F0AEFB002800D0C0
:1028400010BDFFF751FF4178022906D00129F7D1C9
:102850008178C2789142F3D303E08178C2789142C3
:10286000EED84E22034BA352C170A179017110BD65
:102870003804001060EA000010B560214143C24AEC
:102880005018515C002917D14178491CCAB20F2A4F
:1028900000D900214170C9B289004118C2680A629A
:1028A000018B8A4208D27D21C900C28A4A43C1698C
:1028B000914201D30121017541680A68531C00222D
:1028C0001C0E144600D11C460C604280C26002708F
:1028D0000120192102F004F910BDC04680B5602125
:1028E0004143A948401820301021FFF78DFE80BDDC
:1028F00010B560214143A44844186088002801D0E5
:10290000401E60802078002800D010BDE068401C88
:1029100011498842024600D30A46E260218B884270
:102920000DD900212175E1610B498842EDD3204684
:1029300020304021FDF717FF0120207010BD7D20C1
:10294000C100E08A4843E169491C814200D3014645
:10295000E16110BD00050010E093040010B50020F7
:10296000044CA0470120A0470220A0470320A04715
:1029700010BDC046F128000070B50F22D343164A9F
:10298000002B07D0D4182825002666553825665513
:102990005B1CF5E70123D360516118431076FEF705
:1029A0008DFE70BDB0B518240B4B282C03D000252C
:1029B0001D55641CF9E7541CDC6000245C6118762A
:1029C000E0B2904205D2C0180D784576641C491CCF
:1029D000F6E7FEF773FEB0BD4803001010B570486F
:1029E000016802220A430260074900220A62036862
:1029F0000124234303600A60A002044A13680343CE
:102A000013600C6610BDC0460840044000800050B2
:102A100080B5FEF77DFD072001F066F800280AD09A
:102A2000FEF701FA0022074BFDF756FF064A074B57
:102A3000FDF752FF01E002490020054A03C280BDB4
:102A40000000F03F007EA340D7A3703D0AD7D33FDC
:102A50008001001080B55248016880221143016056
:102A600004480168914301601E200121022202F006
:102A700037F880BDFC3F025080B544480168082209
:102A80001143016005480168114301604B200002B9
:102A900000F01CFA02480021018080BDFC3F035079
:102AA000B803001080B501F071F9074800785A2882
:102AB00001D001F085F90F20C102492082000348AE
:102AC000FDF76EFB80BDC04616780000880100103F
:102AD000C548016840220A4302607047F8B50026E5
:102AE000294CFFF781FD0546102E0CD060212046B1
:102AF000FDF739FEA819606001202070A859A06078
:102B00006034361DF0E70120C643204A1168314089
:102B100011600421CD4313682B40136008230093F8
:102B2000DF431F4B1C683C401C601C682C401C6031
:102B300054683440546054682C4054605C683C4095
:102B40005C605C682C405C609468044394609468AA
:102B50000C4394609C68009D2C439C609C680C43D3
:102B60009C6014690443146114690C4314611A696C
:102B70002A431A611A690A431A614107EE4A116031
:102B800000071060F8BDC04600050010008003502B
:102B90000120000202490A6802430A607047C046E9
:102BA0000080025080B50448C021FDF7DCFD0348D9
:102BB0008821FDF7D8FD80BD38080010B00700104F
:102BC000B0B5FFF70BFF0024204601F03DFF0120C8
:102BD00081020A4D2846FDF7C6FDE0430849086119
:102BE000486100F087FB1C352020002805D02C60B0
:102BF000291F0C602035401EF7E7B0BD000900100A
:102C000000040010F0B589B07D20C60034461834A9
:102C1000FFF7EAFC0890C548016821430160A64817
:102C200000687249FDF7A2FD514FB860381FFF21BF
:102C300007910160042038614E4D2878002805D1A5
:102C4000012028704C490978C9077AD100F0D2F8E0
:102C50000124AC70FFF786FB48480025458002F050
:102C6000D5FFFFF733FD45484088454988427CD071
:102C70000220404DA870079929710899097E002902
:102C8000294600D004464C70FFF76CFB3D4C216890
:102C90000025284688472820FEF786FF2D2860D18A
:102CA0000595049503950295182106910191364AE0
:102CB0000092E06907900E21344B2846079CA047FC
:102CC0004020069900910195029003950495059581
:102CD0002C4884692E4B28462C492B4AA0470D20AE
:102CE0001F21FFF776F90898007E002808D04B24B2
:102CF0002046FEF759FF102101432046FFF769F9EE
:102D0000FFF756FC02243C607E6101210891396086
:102D10003968C907FCD11F4E4643FFF7A2F81E4889
:102D200030181849C96888470420FFF711F83C603B
:102D3000692080007861089838603868C007FCD145
:102D400013E06921890000221E318A4200D17DE70B
:102D500002233B607E6138603B68DB07FCD1521C7C
:102D6000F3E7044845708570ED43284609B0F0BD8F
:102D700004800140320400100C0F0010A803001062
:102D800063440000BC5E000050C3000060610200AC
:102D9000B030010090D00300C0CA893610B5FFF7EB
:102DA00023FC0446FFF704FC8549034A22348C6463
:102DB000CA6400F063FE10BDB80B000010B501241A
:102DC000A0025A490A6802430A603B480068074962
:102DD000FDF7CCFC0649C860FF200860042048616C
:102DE0002046FEF789FC10BD8080044040420F0061
:102DF00000800140B0B51F490868012210430860F7
:102E00001D480346F933CC6F1C43CC671B490A604D
:102E10001F21CB431A494C691C404C614C69144337
:102E20004C614C69182525434D618C691C408C61AF
:102E30008B6913438B618A69082313438B614A6E44
:102E400003239A434A664B6E022213434B660B6878
:102E50000724A3430B600B6813430B600949086008
:102E60000A610020072802D88B68401CFAE74A60F4
:102E7000B0BDC046048004400707000094800440B1
:102E80004C4004400000044080B50B4800680B49EA
:102E9000FDF76CFC401E010E0DD10949094A506036
:102EA000094803680B400321890759180160002075
:102EB00090600720106080BD78010010DE260000C1
:102EC000FFFFFF0010E000E020ED00E0B0B501469C
:102ED00014480268802313430360026840239A4326
:102EE00002601148026801242243026042682243C2
:102EF000426020030D4A1368034313600C4D832086
:102F0000E8600C48FDF732FC010AC9B26960C0B242
:102F100028600320E8606C600620A8606005064910
:102F20000860B0BD00800150A4400440808004408F
:102F300000800040C0C62D0000E100E00120C10378
:102F40000F4AD36D0B43D3653F2111600D490A68C9
:102F500040239A430A600C4A002111605060536874
:102F6000DB07FCD0906009480160094809494160CD
:102F700003210160AA218160552181607047C0460C
:102F80002480044038820440D0800440B00F0010F8
:102F900000400040FFFF7F0010B50446FFF75CFBD8
:102FA00007498A6C00231946FF2B03D0145D4B1C84
:102FB0008442F8D1FF39481E8141084610BDC04601
:102FC00038040010F0B590B093000E90C018019036
:102FD0004D1EEB1700210C460092019800680C90E2
:102FE000481B2046984163D20395099502930591A9
:102FF0000F46049426460F933B4635460E982C46C2
:103000001E4600275B1C7D41B10042580C9882424D
:103010000E98F4D3069208930A960B9441180791E0
:103020000C9A099B0D970F9F0F971E465B1E0D99DB
:103030008F41B40001598A42F6D30A98301A0F988A
:103040000B9A90410AD30E980019079C21600699AB
:1030500001601E460F9708980A900B9509960A9FE3
:10306000F01B0F9B18460B9EB041C4D20124009A5E
:10307000D01B0D98B041214600D30D9900291D4663
:10308000099800D1029B0C930029034600D1039BB1
:10309000801A0D98854100D30446002C00D1049E6F
:1030A000002C00D1059F394634461D460C9B94E701
:1030B0000C9810B0F0BD0000B0B514490888401C51
:1030C000088082B21248312A04D812492B31026892
:1030D0000A4005E0F92A05D80121090202680A43DD
:1030E0000260B0BD036895080A4C4A2D03D82B3402
:1030F00023400360B0BD01252D022B4303604888A7
:103100000019904201DA00200880B0BD2E040010A2
:10311000FC3F0250D4FEFFFFFFF7DAFCFFF750FD43
:1031200013480168134A11601F210160FFF706FF71
:10313000FFF72EFDFFF78EFCFFF79EFCFFF7B2FCBA
:10314000FFF7CCFCFFF7A0FEFFF738FEFFF72AFDE4
:1031500000F066FB01F0DCFC00F0CEFB01F0E0FFCC
:1031600002F0B8F802F022F802F044F8F4E7C046A2
:10317000308004400C0F001010B501466020484319
:103180005A4A10180024C475427E521C4276C37FEE
:10319000D2B29A4203D2012001F0E2FC01E044766F
:1031A000E443204610BDC046F8B5044660206043A5
:1031B0004E490E18FFF718FA0546B07D002801D0D9
:1031C000092700E0777E002C01D0032000E00120D9
:1031D00000F0C6FCA100204A53585050B08131681D
:1031E000F181834201D0EA7E3282F27C002A05D04E
:1031F000328A002A05D00022327717E000201C21F5
:1032000028E0EA7E002AF6D044226243204B0224C2
:103210009C5406227A43B2182223D35C0122002B4D
:1032200001D0D34301E00023DB43337706237B4304
:10323000F318DC8CA04209D222335B88012099422A
:10324000014600D300214240114204D10120707593
:10325000072018217054F8BDF80800106021414380
:10326000224A5118CA7C002A02D08A7D002A00D046
:10327000704744224243064880184A7E0271062362
:103280005343C018CA894281898981817047C046E9
:10329000B0070010B0B573211448435CC27C1146DE
:1032A0001943090607D012490C88002C04D0641E6B
:1032B0000C80240400D0B0BD048A002C01D0641E10
:1032C00004827024055B002D01D06D1E0553DBB216
:1032D000002A02D00268521C0260002B02D0026E4B
:1032E000521C02667D20C0000880B0BD3808001066
:1032F000AC020010FEB50026B44AB54D3346202E70
:1033000000D14FE17101505C062800D9D0E0571878
:103310007844007940008744036627CB818A4200C5
:10332000B869002800D0C3E0029372000320002196
:103330000092FCF7E5FF2A696D698D438243019293
:103340000124B440B888002800D10AE101200021FE
:10335000009AFCF7D5FF0D4301990143029B2343DB
:10336000E043FE4A0C4601E10120B0406968014299
:1033700000D09DE03A69002A00D1C1E0521E0292BD
:103380003A89019264245443029A3A617C6103436E
:10339000019A002A00D08AE00143696087E0029325
:1033A000386900286CD0401E3861720000920320FA
:1033B00000242146FCF7A4FF01912F6987430125D2
:1033C00028462146009AFCF79BFF3843E24A1061E9
:1033D000E1484069019A90430843DF494861B5409C
:1033E000029B2B4362E00124B4406868204202D073
:1033F000797800295CD0B978002959D03A69002A37
:103400006AD00293FFF7F0F83969002901D0491E0C
:103410003961029B2343808A786148E0386900283B
:1034200048D0401E38610120B040034340E0029381
:103430000124B440686820436860F868F969496805
:10344000096881420DD2720001200021FCF758FF6B
:103450002A6902432A61686908436861029B234321
:1034600025E00320387072000021FCF749FF2A692B
:1034700082432A61686988436861029BA34316E01E
:1034800072000320002401902146FCF739FF2A69CD
:1034900082432A616869884368610120B040029BC9
:1034A00083437969002938D0481E7861AA4DAB4A18
:1034B000761C24E77200032000211C46FCF720FF45
:1034C00023462A6982432A61A44A6869884368615D
:1034D0000120B0408343EBE7EA68224205D0491E51
:1034E000B970090601D120436860A34378690028B8
:1034F0009A4A02D0401E7861DAD1B8883861D7E79D
:10350000834378690028954A02D0401E7861CFD164
:10351000F888642141433961CAE7BC800199397058
:10352000B9690029C2D01F464A78531C4B700A78EB
:10353000DBB2934222D2CA18927852010623874CFA
:10354000A354854D6B6803436B607D20C0004B8C9A
:103550004343A2181361898C4143516122463B4683
:10356000A6E7029BA343E0437C4A019C7A490C6195
:103570004D610D4649680140696099E7881C3B46EA
:10358000002A07D001784901744D69188C61401CEC
:10359000521EF5E7704D6878401E6870000686D1AF
:1035A0002C7084E7E868984202D16888002805D129
:1035B00018461C4601F048FA23466888EB60401C18
:1035C00081B2142900D900206880FEBD00090010D6
:1035D00000040010F0B58DB00A907D20C000089066
:1035E000FFF702F806905C480669476900210B4620
:1035F0000C91402B00D1A2E03C4635460A98465C2F
:10360000032E0B9304D0554A5718B869002802D0EE
:103610002E4627463AE056540A98099141184878B0
:1036200078708A880898824202D908988880024671
:10363000059107970492BA80032000211A46FCF7EF
:103640005FFE274603918F432A46029082434249F8
:1036500010460A614F6101220C998A4006990B6954
:10366000019393430B61042E66D8B30002A6F3586E
:10367000099906469F46C0469B360000E536000085
:10368000C13600008D3600001337000020310B9B3F
:103690009B1C0C98401C0C90ABE704980028F5D0BC
:1036A0000199114306980161012000210B9AFCF752
:1036B00027FE0F4309990643274806614761E5E75E
:1036C0000298054303980443234805614461059922
:1036D000C888079AD080098911816421414311610A
:1036E000099995E7079A9078002806D10699487EAF
:1036F0009070888A049911615061022000210B9A10
:10370000FCF7FEFD0F430643134806614761099924
:10371000BCE7012000210B9AFCF7F2FD0F43099949
:1037200006430D48066147610598C088079BD8800D
:103730000B4A50431861A9E709990646A6E70648CF
:103740008068069C2169884202D000F039FB20691C
:10375000014988600DB0F0BD0004001000090010A0
:1037600060EA000080B50121FFF706F9C0B20C281D
:1037700002D10448007800E0014800B280BDC04694
:10378000FFFF000070030010F8B5009314460D46CB
:103790000646069FE848874200D30746FEF724FF07
:1037A00051498F80009A642A00D36422CA7007842A
:1037B000C277621E94418C706A1E95414D70721ED4
:1037C00096410E70847745770677C879002801D036
:1037D00000F040F8F8BDC04610B502460320D307FC
:1037E0001CD1920712D4424A14682204920D0FD0C1
:1037F0008203224003022340501E824188B23A498C
:10380000898889B2884205D3104604E0042010BD9F
:10381000002010BD0220002B00D1104610BDC04674
:1038200080B5FEF7E1FE818B2F4A1180C18B51805C
:10383000008C908080BDC04680B500F09BF92C497B
:1038400049780906890F0007800F002900D0001D64
:1038500080BDC046B0B5FFF7EFFF234C0121E171F9
:10386000C20715D1800715D4217803201F4DA84722
:1038700061780420A847A1780520A847E07801F0E6
:10388000D3F96078002807D0A088002804D0B0BD04
:103890002172B0BD6172B0BD992040006081B0BDA1
:1038A00070B5114D00242C81EC7103200F4E214680
:1038B000B04704202146B04705202146B0472046A6
:1038C00001F0B2F9E87A012805D16C810720214680
:1038D00001F0A0F970BD064840780006800F01D0C5
:1038E0000448688170BDC046000F0010154C0000F0
:1038F000100400103202000003480168034A1160FE
:10390000002101607047C046B8020010AC0F0010E3
:103910004048002101707047F8B50C460546002666
:103920000F4F002F19D000F07DF8442000F09EF8D2
:1039300000F094F8FF2804D0064600F087F87F1CBA
:10394000EFE7002D03D02846214600F08BF800F069
:103950007DF8304801210170FF26F0B2F8BDC04665
:10396000F0D8FFFF80B500200146FFF7D5FF80BDEE
:10397000F8B51C4615460646002906D0254F38786E
:10398000002802D1FFF7EEFFF9E700F04BF83046D0
:1039900000F06CF82846214600F064F800F056F874
:1039A0001C4800210170F8BDB0B50C46054600F07A
:1039B00039F82846214600F05DF800F047F8154830
:1039C00000210170B0BDC046B0B51C461546FFF7DA
:1039D000EBFF28462146FFF79FFFB0BDF8B51C4618
:1039E00015460646002906D00A4F3878002802D12D
:1039F000FFF7B8FFF9E700F015F8304600F036F8A9
:103A00002846214600F036F800F020F80148002151
:103A10000170F8BDFC0400100F48016804220A433D
:103A2000026070470C480168802291430160704732
:103A30000948016804229143016070470248016807
:103A4000202008407047C046FC3F015002480168F2
:103A500080220A4302607047FC3F005080B500F0AE
:103A60001FF880BD80B500F020F880BD80B502F061
:103A70002BF980BD80B502F02BF980BD80B51849C7
:103A80008978022905D0012906D1402102F0E4F805
:103A900080BD0248406B804780BDC046BC5E0000D0
:103AA00080B5FF20FEF7C8FA80BD80B50246084603
:103AB0001146FDF78FFF80BD10B5094CA078012895
:103AC00004D0022809D1FEF7A2F804E0042001F096
:103AD0007FF904480078E07000E0E078C0B210BDE3
:103AE00032040010A8030010B0B598B004460025B9
:103AF000602D06D02046FDF743FD694648512D1D37
:103B0000F6E768461821FEF77FFD072C0BD081B23F
:103B1000002908D00846FDF786F9064B0CCBFCF7C8
:103B2000DBFEFDF7FDF880B20349884200D308466A
:103B300018B0B0BD80010010FF0300000C48143025
:103B400000210A46042908D00378002B01D0012364
:103B50008B401A436030491CF4E7D0B27047C0462E
:103B60006021414302484018406800687047C046E1
:103B7000000500100A48016801220A400068400858
:103B800002210140881807490A685208042313409B
:103B9000C0180968490008220A4080187047C046CA
:103BA000FC3F0350FC3F0250F0B597B04D4CA0785D
:103BB000012529468140607880004B4E3058EA0349
:103BC00083588B43835007A840210191FCF7CBFD1C
:103BD00002F072F8607880003158A07800220292DA
:103BE000424F434B434C664E04952A468240C819C7
:103BF000194603681A4203D1641C491EF9D151E0E9
:103C000002F05AF80220039030603B487061049A39
:103C100032603068C007FCD107A80299435C0021DC
:103C2000082924D0059106932E49487880002E4A11
:103C30001058C7598D7802F03FF8049A0398306005
:103C40002E4870613260EF40F80703D00020069BD9
:103C5000059903E0104605998840069B0343234FCE
:103C60003068C007FCD17F200340491CD8E707A873
:103C7000029943541B4988788240497889001A4B3D
:103C80005958CB191D682A4202D0641CFAD30BE0A4
:103C9000029A521C0292402A049D154B154CA4D145
:103CA000019C03E0029C01E00298441C02F004F82D
:103CB0000027FD4307A8007800280FD0E4B2601C5D
:103CC000FCF7BCFA064607488660002E06D007A916
:103CD00030462246FCF7E8FC37553D46284617B0EB
:103CE000F0BDC046940F0010985F0000FC3F00003C
:103CF000A08601006079FEFFD104000041030000AE
:103D0000FEB502A900274F7024220A704500022642
:103D100028463246FEF746FEF9430C282ED1019183
:103D2000174C26607D20C000606101202060206863
:103D3000C007FCD106212846FEF71EFE0828F0D059
:103D4000104D28786978AA7800F0DCFF002814D09C
:103D500028786978000240180B4CE080E8782979CF
:103D60006A7900F0CFFF0028019907D0E878297917
:103D700000024018A080394600E001990846FEBDC7
:103D80000480014070030010A00F001010B50A4C11
:103D90003A2060612046143021462C31074A904772
:103DA000E06A002801D0012010BD234630330FCB3C
:103DB000241D0FC4002010BDC0030010F11FFF1F01
:103DC000B0B549208200104C10492046FCF7E8F9B4
:103DD000FDF752FD00BF00BF00BF00BF00BF72B6BD
:103DE0000F20C5022846FDF729FC00BF28462146C2
:103DF000FDF7BEFD62B6FEF7D7F900BF00BF00BFFA
:103E000000BF00BFB0BDC046000D0010880100100B
:103E1000F0B58DB006910646FEF766FC0446FEF747
:103E2000C7FB0590FEF718FC002E049403904DD0BC
:103E30000546FEF7EDFD2C20ED4F3D542820294688
:103E400000253D542620395432203E54F87F30213D
:103E5000785438217854A07834217854E0783C2183
:103E6000785420793E2178540620FFF73DFE442106
:103E700078523F200D2408903C547A6D10460D3046
:103E8000B865012E00D1FAE2062E16D0702E00D1B0
:103E90002AE3202E00D154E1222E00D1B8E2292EAF
:103EA00000D17DE2302E00D19FE0312E00D1D0E054
:103EB000602E00D1A7E0152E0DD1B87C50732320C1
:103EC000385C90730F2408983C5404E03F20C849A4
:103ED0000C5CC748426DA01C2425C54F7855107056
:103EE000387950702620385C90702820385CD0706B
:103EF0002C20385C10713020385C50713220385CD6
:103F00009071387AB979002902D0002818D106E0DA
:103F10000399884203D0002801D0FF2810D1342013
:103F2000385CD0713820385C10723C20385C50729C
:103F30003E20385C90724420385A1073000AD072C8
:103F4000E6B2104631460792FEF7CEF93F2E05D86D
:103F5000079A9055641C3F217C5400E0079AE1B217
:103F60003F2904D8000A5054601C3F21785401F0C6
:103F7000A3FE069802280FD100269EA4785D8642F3
:103F800006D2786D815D2046FCF7CAF9761CF5E70C
:103F90000A20FCF731FB26E00498407802281AD06A
:103FA00001281DD1954802210160954941610121F7
:103FB00001600168C907FCD17A5D796D059801F04F
:103FC00062FE904C00200146024600F00FFFA078F0
:103FD0008006F7D504E0795D786D8B4A926A904748
:103FE0000598FFF74BFD0DB0F0BD0CAC2046FEF779
:103FF00081FB089D7A5D796D16463F2A01D800F055
:1040000050FC00F054FC00263046FEF71DFB054630
:104010000120FEF781F902903046FEF709FA089870
:10402000395C786D07902F463F290C46019500D9E1
:10403000BAE30095FA783B46079F7A544A1C6C4DC8
:1040400008982A5440243F2900D033E3009D1F469E
:10405000AAE3FEF7C9FA0146089EBC5D786D079099
:10406000084622461146102DD2B22ED03F2A02D940
:104070000A462D1DF6E743195B88079CA3544B1C89
:10408000BB55074640203F2A04D102460446384625
:10409000574FEEE77E59360ADBB2E654089B8C1C7C
:1040A000534E0294F4543D2A02460446384637469D
:1040B0001E46DED84259029BDBB204460798C25422
:1040C0002046CA1CBA551446D3E7402A00D300E75D
:1040D000437D079DAB544B1C089EBB5540243F2A93
:1040E0002DD00290007DDBB2E8548B1CBB553D2ADD
:1040F00025D80298C07DDBB2E854CB1CBB553D2AC5
:104100001DD00298007EDBB2E8540B1DBB553B2A44
:1041100015D80298407EDBB2E8544B1DBB553B2AB4
:104120000DD00298807EDBB2E8548B1DBB55392A36
:1041300005D80298C07EDAB2A854CC1DBC552A46D8
:10414000C9E6FFF7FBFC0290FFF714FD0790386DFE
:104150000578002609AF062E06D0F0B2FFF7C4FCA2
:104160003880BF1C761CF6E70026214F042E4DD068
:104170002846F040C00738D0F0B2FEF7CDF80899D5
:10418000795C3F2931D87A6D438A53544B1C089C83
:104190003B553F2929D007693F0AD754144F8B1C40
:1041A000089C3B553D2920D80769D754104FCB1C9C
:1041B000089C3B553D2918D047687F88D7540C4F41
:1041C0000B1D089C3B553B290FD847683F683F0AA9
:1041D000D754074F4B1D089C3B553B2905D04068E1
:1041E0000068D054881D08997854761CBEE7C046F4
:1041F00038040010253032580000000004800140CF
:1042000010270000A8030010BC5E0000089EB85DE7
:10421000402800D3C2E0796DF84AD3790B54431C8F
:10422000BB5540243F2800D153E69579DBB2CD54ED
:10423000831CBB553D2800D94BE65579DBB2CD54E4
:10424000C31CBB553D2800D143E61579DBB2CD54E4
:10425000031DBB553B2800D93BE6D578DBB2CD54D6
:10426000431DBB553B2800D133E69578DBB2CD54D6
:10427000831DBB55392800D92BE65578DBB2CD54C8
:10428000C31DBB55392800D123E61278DBB2CA54CE
:1042900002460832BA55372800D91AE60094D2B23D
:1042A00009AB1B889D088D5402460932BA55372840
:1042B00000D152E235469C0109AB5B889E05B60EE3
:1042C0003419D2B28C5402460A327A55352800D9B4
:1042D00043E21D0109AB9B889E05360F7519D2B2CA
:1042E0008D5405460B35D94A089C1555352800D103
:1042F00033E29B0009AAD2889605B60FF318EDB2F7
:104300004B5503460C33D14D089C2B55332800D90F
:1043100023E2DBB2CA5402460D32CC4B089C1A553C
:10432000332800D119E2D3B209AA12899508CD54D5
:1043300003460E33C54D089C2B55312800D90CE29D
:10434000950109AA52899605B60E7519DBB2CD54AE
:1043500003460F33BD4D089C2B55312800D1FCE19D
:10436000DBB21201CA5402461032B84B089C1A55EF
:104370002F2800D9F1E1D2B2079B8B5402461132AB
:10438000B24B089C1A552F28009C00D1A1E5D2B24F
:10439000029B8B541230AD49089A8854044698E524
:1043A000FEF7B0F904460898385C05463F2806D861
:1043B000786D217841556A1C154608983A54A068D2
:1043C00000281BD0FCF74EF9796DEAB23F2A04D8D9
:1043D00088546B1C1D46089ABB54C0B20022904200
:1043E0000CD0EBB23F2B07D82E46A568AD5CCD5460
:1043F000761C3546089BFE54521CF0E72C46E8B26A
:104400003F2800D965E57A6D00211154641C5AE5F6
:10441000FEF77CF9089D795D7A6D3F2900D9CFE0E0
:104420001646427A72544A1C7A5540243F2900D1DC
:104430003EE1837AD2B2B3548A1C7A553D2900D921
:1044400036E1C379D2B2B354CA1C7A553D2900D1A2
:104450002EE18379D2B2B3540A1D7A553B2900D993
:1044600026E14379D2B2B3544A1D7A553B2900D193
:104470001EE10079D2B2B0548C1D7C5518E1FEF7D4
:1044800033F90090FEF754F90290FEF791F801908D
:10449000089EB95D786D07903F290C4600D992E0DF
:1044A0006B4AD378079843544B1C3746674EF355F5
:1044B00040243F2900D185E05588DBB2C5548B1CD0
:1044C000F3553D297ED8DBB215682D0AC554CB1CA7
:1044D000F3553D293E4676D01268DBB20798C254A8
:1044E0000C1DFB498C556EE0FEF7FAF83D4606467A
:1044F0000020FFF7F9FA0446FFF79EF9089FE95DEF
:104500006A6D3F295CD80794505413464A1CEA55FB
:1045100040243F2900D119E102960190D2B2079EB2
:104520001846330A835403468A1CEA553D2900D9AC
:104530000CE1D2B29E54CA1CEA553D2900D105E1D6
:10454000029E3378D2B283540A1DEA553B2900D922
:10455000FBE07378D2B283544A1DEA553B2900D15F
:10456000F3E0B378D2B283548A1DEA55392900D9D1
:10457000EBE0F378D2B28354CA1DEA55392900D151
:104580008CE100947379D2B2044683540A4608320F
:10459000EA55372900D9DCE03379D2B2A354093186
:1045A000E9553F2A2246009C00D194E401980799DE
:1045B000FFF712F9E95D6A6D50544C1CEC558AE422
:1045C0000C4688E43E46002223461946102A41D074
:1045D000CBB23F2B02D90B46121DF6E70298851885
:1045E0003446EE780798C6544E1CB94F3E554027C6
:1045F0003F2B05D13B4626463C46EDE71004001014
:104600006D88F6B285558D1CB14805553D2B03D9F3
:1046100026463C463B46DFE702988658360AEDB20E
:1046200007984655CD1CAA4E089C3555089E3D2B33
:104630003C463B46D0D002988358EDB2079843558C
:104640000C1DA3498C552346C6E7C046380400100C
:10465000180400100022A04B9D4F0798042ACDB2E9
:1046600009D03F2D05D89E5C46554C1C08997C54BA
:104670002146521CF2E7402D00D32AE4974A1268E3
:10468000079E72554A1C089BFA5440243F2D0FD0B8
:10469000D2B20198B054881CF8543D2D08D8009A25
:1046A0001278C0B2079C2254079ACC1CFC5412E426
:1046B000324610E49B78D2B2BB548A1C2A543D295E
:1046C00070D8029B5B8AD2B2BB54CA1C2A543D29C3
:1046D00068D0D2B2029B1B691B0ABB540A1D2A5424
:1046E0003B295FD8029B1B69D2B2BB544A1D2A5496
:1046F0003B2957D0029B5B685B88D2B2BB548A1DB2
:104700002A5439294ED8D2B2029B5B681B681B0A17
:10471000BB54CA1D2A54392944D0029B5B681B68CC
:10472000D2B2BB540A4608322A5437293AD8019FDC
:104730003B78D2B2079883540A4609326448089BF2
:10474000C25437290CD1009D2EE003461A46FFF7CC
:10475000C2FB2246009CFFF7BEFB009CFFF7B9FBA3
:104760003B79D2B2079883540A460A325848089BCC
:10477000C254352916D8019F7B79D2B20798835449
:104780000A460B325248089BC2543529009D0BD073
:10479000BB79D2B2079883540C314D48089A8154A2
:1047A0000C4601E0009D019F0C3522461146BA7966
:1047B0009642CAB22DD23F2A03D90A46AD1D761CB5
:1047C000F4E702962B1F1B782E46079DAB544B1C1B
:1047D0003F48089FC35540243F2A04D1224635460E
:1047E000029E019FEAE77078DBB2E8548B1C3848E0
:1047F000C3553D2A22463546029E019FDED82A78BF
:10480000DBB20798C254CC1C314808994454224664
:10481000D4E7402A2E4E01D3FFF75BFB2D4DEB79F9
:10482000079883544B1C089FF35540243F2A35D0EA
:10483000AD79DBB2C5548B1CF3553D2A2ED8254DDE
:104840006D79DBB2C554CB1CF3553D2A26D0214DE2
:104850002D79DBB2C5540B1DF3553B2A1ED81D4DD7
:10486000ED78DBB2C5544B1DF3553B2A16D0194DDC
:10487000AD78DBB2C5548B1DF355392A0ED8154DD2
:104880006D78DBB2C554CB1DF355392A06D0114AD9
:104890001478DAB284540831F1550C460246FFF719
:1048A0001AFB2278F3B2CA54741C26467C550CAA13
:1048B00012783446130601D1FFF70BFB521EE3B208
:1048C0003F2BF7D80CAB1A70421C04461046E8E7A1
:1048D0003804001010040010055E00000C0F0010DA
:1048E000FEB5524B987801252946814058788000C2
:1048F0004F4A1058EC0302590A43009402515A6877
:1049000001924C4E82590A43825101F0D5F94A4C2A
:104910000220029020604948606125602068C0073D
:10492000FCD101F0C9F9414988782A46824049788A
:1049300089003F4B59588B5993438B51029A2260FF
:104940003F4A626125602268D207FCD12A46824034
:10495000885910438851029820603A486061256068
:104960002068C007FCD100273E46304B072F25D0DA
:1049700099782846884001990978F940C90708D0F4
:10498000597889002A4A51582A4BCA588243CA503A
:1049900008E059788900264A5158264BCA580243E4
:1049A000CA506E4001F088F9029820602548606185
:1049B00025602068C007FCD17F1CD6E798782A467E
:1049C0008240F10707D159788900194B5958194E7F
:1049D0008B59934306E059788900154B5958154E69
:1049E0008B5913438B51029B2360164B63612560E7
:1049F0008E19009BCB182768FF07FCD137689743B7
:104A00003760029E26600F4E66612560D24326689D
:104A1000F607FCD1019F7E1C7F78002F0196054E82
:104A200094D1186810401860FEBDC046940F001065
:104A3000985F0000FC3F000004800140E02E000071
:104A40008A20000041030000F8B500902F490B6850
:104A5000012293430B6000BF00BF00BF00BF1F23B4
:104A600013480E685DB2002D1ED40225AE430E60C1
:104A7000DEB2009FF74017407E4297023E4000BFE3
:104A800000BF00BF00BF0468BC43A419046000BF9E
:104A900000BF00BF00BF0C682C430C6000BF00BF0C
:104AA00000BF00BF5B1EDCE716430E60F8BDC046CA
:104AB000FC3F005010B508494A780024904209D0C4
:104AC000042801D9E44305E0487040000349085A2E
:104AD000FEF7FCF9204610BDB80300108C5F000003
:104AE00070B516460D460446FDF77EFDC07D0028D4
:104AF00008D005480681C5800471044801688022F9
:104B00000A43026070BDC04624040010FC3F0250FE
:104B1000F0B5FFB0FFB083B0FDF766FD006900217E
:104B2000404A0B46202B0ED00124250201AE7552BF
:104B300055180027AF6175180646DE402640AE8046
:104B400020315B1CEEE701A8FEF744FD7FB07FB08B
:104B500003B0F0BD014948807047C0462E040010E4
:104B600070B560224A43664B9A18002803D001288A
:104B700004D1537E0FE00120507570BD0923022837
:104B800009D15A243C2515535824002515552024B5
:104B9000145D5C25545301241476147506255D4379
:104BA00055192223EB5C9376AE8C5681ED8C1581E2
:104BB000012805D14420484350490C54081843713A
:104BC00070BDC046B0B50C460C494968C140C90724
:104BD00000D0B0BD400113490D18E078FDF708FD85
:104BE000E8610028F5D021782970E178E970E16862
:104BF000406800680818E860B0BDC04600040010B6
:104C000010B5400181235B00064C2352201802811D
:104C1000C18010BD400101221202024B1A52181825
:104C2000818070470009001080B5002805D001463A
:104C30000620642906D3012101E006200021FFF7A8
:104C4000E9FF80BD41434B22D200521A92B2FFF7D6
:104C5000D7FF80BDF0B585B007460478FDF7C4FCEA
:104C60000290807E0190B8704420604323490E1862
:104C700060206043CA490D180395223504973F1DF3
:104C800000218C1D3C2C0AD06818049A5118091D6B
:104C90000622FBF7B9FC00282146F2D00FE003986A
:104CA000C07F04994978814209D120200399085C8A
:104CB0000199814203D10020C04305B0F0BD039D9E
:104CC00028461E304022049C2146FBF7EDFC0020C4
:104CD000687630716178B171A278F271029AD27EF1
:104CE0002A820C360029E8D0002232803A78331F1D
:104CF0001A70BF1DB61D491EF4E7C046B00700106C
:104D00003808001010B5C0430023082B08D2440017
:104D100040B2002801D53120444020465B1CF4E716
:104D200048400021082908D2430040B2002801D59C
:104D3000312043401846491CF4E7C0B2811A48426A
:104D4000484110BD80B56C4948703420087002207D
:104D5000FEF72AFE80BDC04670B50546664E28782F
:104D6000002821D00424102821D86D1C3146024689
:104D7000002A05D02B780B706D1C491C521EF7E7DA
:104D8000002231461346FEF71FFEFF280ED1FEF724
:104D900055FE0028E3D100200146024600F026F827
:104DA000B07D0007DBD502E0002400E002242046AD
:104DB00070BDC04610B5504C6070152020700220A8
:104DC000214602462346FEF7FFFD2088208210BDC3
:104DD00010B5024650200021474C2346FEF7C8FD7F
:104DE000208820826088608210BDC04610B5424C89
:104DF000E270A170607020202070042008222146FB
:104E00002346FEF7E1FD2088208260886082A0882A
:104E1000A082E088E08210BD10B5374C01202070E0
:104E2000082221462346FEF7CFFD20782074E07843
:104E30002075E0882083A08840BAE082A07861785D
:104E400009020818608210BD80B50B460246772023
:104E50000021FEF78DFD80BD70B5FEF7DDFD104C25
:104E6000022525600F486061012626602068C00782
:104E7000FCD1FEF7DDFD25600B48606126602068EF
:104E8000C007FCD1FEF7E2FD25607D20C000606117
:104E900026602068C007FCD1FEF73AFD70BDC04611
:104EA0000480014070170000581B0000B0B5124C80
:104EB000059DE571049DA57163712271A1706070FB
:104EC00032202070100AE07008202146FEF76CFDA9
:104ED000B0BDC04610B5084B00249C715C711A71BE
:104EE0009970587031201870100AD8700720194630
:104EF000FEF75AFD10BDC0469803001080B50B4662
:104F0000024666200021FEF769FD80BDF8B5002845
:104F100001D0112300E00123002801D01EA500E0EC
:104F20001BA560214143B24A5718397E0026032948
:104F30001DD0F443022907D0012925D1FE75FE7446
:104F400000281BD003201AE00093FDF771FA0646F3
:104F5000401C1AD0B87E285C0121FFF75BFE002EB2
:104F600013D001210098FFF755FE03210CE03E7598
:104F70000120F8743E600421344605E00120FDF76D
:104F800037FB40680660022139762046F8BDC046EE
:104F90000B0C0D0E0F0000001B1C1D1E1F0000003F
:104FA00038080010F8B50020284C217805294BD886
:104FB0000090C0467944097949008F4402180D13C6
:104FC000081E234999220A600B2200211AE0204979
:104FD0009922CA61032214E01D4999228A600121A5
:104FE0000A460FE01A499922CA60022209E01849CC
:104FF00099224A600121024604E0154998220A627A
:105000000422012101231D4695408E00114FBE59F7
:10501000DF03F0592843F051A27061700E483158F7
:105020002943315098020D490A6802430A600C482E
:1050300000680C49FBF79AFB0B49C860FF20086029
:10504000042048610098F8BDC043F8BD940F0010DB
:1050500074400440985F0000FC3F000080800440E2
:105060007801001040420F000080014070B50546F5
:10507000FDF7BAFA0446284600F060FD2846FDF721
:10508000D7F901460022D0434B1C32D0012930D041
:105090006020684356490E18F274707EB17D002975
:1050A00006D106214143711822228A5C511E8A4191
:1050B000B275002A01D0082100E009213176002ACA
:1050C00006D0E07E308202202946FFF749FD0EE03F
:1050D0000121F175401CF17F884208D2062141432D
:1050E00070182221405C002801D1E07E308200202F
:1050F000707570BD09488188002905D0491E8180DE
:105100008AB25142514100E00121002904D00178C6
:10511000012901D1022101707047C046B803001077
:10512000F8B56948006800283AD01E480178491C43
:105130000170C9B2642933D30021017072B6C02155
:105140001948415C6022825C037813400B400921BE
:105150004901425C1A404921890041580968C42329
:10516000C3581D68436E1B684468246862B6C8262D
:105170008768BC420AD1876EBB4207D18759BD42BE
:1051800004D12527FF00C759B94209D0002A07D00A
:1051900085512522D200815083668460FEF710FE7F
:1051A000F8BDC046B40200100005001010B510484C
:1051B000817C00291AD0017D002903D00020FFF74F
:1051C000A5FE0CE0417D002903D00020FFF74EFF33
:1051D00005E0C07D002802D00020FDF7CDFF0024AF
:1051E0002046FDF7E1FF2046FEF738F810BDC04627
:1051F00038080010B0B5334DA879002860D0324887
:10520000006800285CD0E87A00280ED0A97A00292E
:1052100003D0491EA972090607D1401E41424141EF
:105220000720FFF7F7FC0020E872FEF705FBC10737
:105230000AD1297A00291CD000202872E879002898
:105240003ED0FEF707FBB0BD00246C810120287220
:1052500003201E4D2146A84704202146A8470520CB
:105260002146A84707202146A8472046FFF7DCFC37
:10527000B0BD800705D4687A002807D00020687286
:10528000DCE700246C8101206872E1E7E8790028FE
:1052900016D06878002813D0A888002810D0E87AA3
:1052A00000280DD10A4840780006800F08D1002060
:1052B000FEF71AFCA988884202D399204000688131
:1052C000B0BDC046000F0010AC0F0010154C000020
:1052D00010040010F0B59FB0CE48006800284BD0F5
:1052E000FDF7BAF91490FDF763F9054600F0E4FC08
:1052F0004C21C94E705A002802D0401E705200E066
:1053000000204E27F15B002901D0491EF1534221B4
:10531000725A002A06D0521E7252110402D1212163
:1053200000227254000409D17D20C000FFF712FC56
:10533000FDF768FC0028FBD1FDF730FD2024305D2F
:10534000B64AA84203D110781499884208D00120A7
:105350001E210022FFF7C4FB2846FEF78FFBAF4A51
:10536000F05B002805D11746FDF7BEF93A46FF214C
:10537000C17035551498107000F018FC05460028CF
:105380003CD02220A44C012121544020FAF756FFA2
:105390006065002867D0402100F014FC002000F078
:1053A0000BFC02209C4C676D3E782670402E00D985
:1053B00008E1082E00D805E11490B01EC1B23846AD
:1053C000FCF792FFB9198A1E1278491E09787B787A
:1053D00023710902891889B2884200D0F2E04C207A
:1053E0008F492152B978A171F87820723A792273E5
:1053F0007A792274002952D00D2151E02120864C67
:10540000205C002800D0E4E08448007800282ED0FA
:10541000FDF76AF9407802282CD0012800D0D8E0A6
:1054200080480068800600D5D3E00020014602468F
:10543000FFF7DCFC7C4EB078C00600D4C9E0012048
:1054400040210746FAF7E4FE6065002800D1B2E08B
:10545000FEF732FB0020FFF7ADFC616D3078FFF7FF
:10546000F3FC38469EE7002000F0A6FBB1E0FCF715
:10547000FBFFAEE03F20FCF797FB1421084200D170
:10548000A7E0012040210646FAF7C2FE6065002829
:1054900000D190E04021FCF7B3FB304682E70721C2
:1054A0007918BA792165A274002D02D05B49097878
:1054B00008E0FEF701FB217C58480078814200D0CB
:1054C0007EE0207AFF2815D0884213D000280ED124
:1054D000606DC1792175017A2176417A2177817ACF
:1054E000A177017BC07A0002401840216052FCF78E
:1054F000EFFF6BE0A179002901D1217BE177012346
:10550000FF280AD12220215C002906D04221474AE7
:105510006252212163540021215411933F4886781F
:10552000257B8570417813912779477003210520E9
:1055300010910E900246FFF7D3FA3948FFF70AFBA5
:105540002320002112900F912154701B411E88418D
:105550001399B94200D11190A67C304620386327B8
:10556000112838D84000C0467844808840008744DD
:10557000E600FC00C80011001100CC01B100DB0006
:10558000DC026D00C801C801C801C801C801C8011A
:105590008B00D5010127B802FAF750FE002800D190
:1055A000AEE1054620202946109A002845D00A7011
:1055B0002031401EF9E72020205CFEF75FFA08E06A
:1055C000FDF72EF92020205CFEF758FA606DFAF7FF
:1055D00066FE1FB0F0BD30467038032811D9012E89
:1055E00000D1C7E1612E00D1AEE1622E00D088E18A
:1055F000FDF7FEF8129EA055002800D083E1602040
:105600001BE2400078448088400087441100D001AC
:10561000AC01B501AC0F0010380400100000001000
:10562000B80B0000FC3F0150A803001070170000E9
:10563000FDF756F801218171BFE1206D41781F29E6
:105640005AD8232E00D1E1E10422E0E1FDF75AF817
:105650000546206D00782870FFF7A4FC00284ED185
:10566000266D7078401CFAF7E9FD6860002800D1CB
:1056700046E1B11C00207278904200D3F3E10A5C4D
:105680006B681A54401CF6E7206D05780227302D10
:1056900000D936E140194078FFF70CFA002800D015
:1056A0002FE1206D4019C178119180781090F74951
:1056B000086808221392104308606E1C0127F44DFD
:1056C000BE4200D1E6E1206DC05D2946FAF70DFE2D
:1056D0007F1CF5E72020FAF7B1FD002800D10FE18B
:1056E00005460E982870216D48781F2804D88A78BE
:1056F000EA70032A00D8E6E12846FAF7D0FD02272F
:10570000FFE0FDF703F8216D0A7842724978817253
:105710000846FEF7F5FA002800D175E10120129E37
:10572000A055FDF74BFB9CE1A06C216D4A780978F0
:10573000425406201499FEF76BFB119FD3E1206DB4
:105740008178427812025518C61C0027042F00D118
:10575000C4E1F8B2FCF74CFFC582717832781202CE
:1057600051180183B61C7F1CF0E71198002800D166
:10577000B4E101200E908002FAF760FD119000283C
:1057800000D1BDE0206D01460E310D9101460D3175
:105790000C9101460C310B9101460B310A910146E7
:1057A0000A310991014609310891014608310791F2
:1057B000C11D0691811D0591411D0491011D03919B
:1057C000C11C02910F90801C019000210F460F9880
:1057D00042780D235343FFB29F4200D331E1019839
:1057E000C35D9A09C9B213914D01119842554219EE
:1057F0009D06ED0F55700298C05D05460E990D404F
:10580000212695554507AD0F20269555DB069B0DA6
:10581000C008181890800398C05D0499CB5D1D07DF
:10582000ED0F412695559D06AD0F4026955500027A
:10583000C01880B2800990845807800D0599CD5D0D
:105840006B08C0184423D0520698C35D5806C00F99
:1058500061269055E807800FDD09401960255055F5
:105860000798C55DA807C00F812690552807800FAF
:10587000802690559806800D2B09C0186423D052BD
:105880000898C05D0999CB5DDE06F60FA12156543C
:105890005906890FA0269155E907890D400008187F
:1058A000D9094018842150520A98C05D8108109D82
:1058B0002840C02550551807800D4018A42150528B
:1058C0000B98C05DC109C123D1540C99C95D4B0728
:1058D000DB0FE1255355CB069B0FE02553554006C2
:1058E000800D4B09C018C423D0520D98C05D8907A4
:1058F000890D0818E421505213990D37083166E7D5
:105900000727129827540027F1E0216D487815AA3F
:105910001070212853D30220129EA1E0FCF764FEF0
:10592000216D0A78012A0F9F69D1002203468D1844
:10593000AE786F780C2A54D03F043602F619ED7811
:10594000751920C3D21CF2E7FCF7F8FE129D6055D2
:10595000052801D0002879D160201499FEF758FA63
:1059600000276755C7E0FCF7BBFE01218171FDF7F9
:1059700097FF22E00120B2E0206DC1781391817879
:10598000119141781091057846790779FCF7A8FEC6
:105990000121817138020F46801980B2009028469B
:1059A0001099119A139BFDF7EFFE702028E0FCF789
:1059B00097FE01218171FDF74DFF70208FE08A78FD
:1059C00015AB5A84CA789A84091D0022129E90420F
:1059D0003ED08B5C15ADAD18AB70202B3FD2521C66
:1059E000F5E7390289198182E978C175297901764B
:1059F00069794176A9798176E979C17601273120E3
:105A00001499FEF705FA6EE0222068E00222129E49
:105A100049016A5469184F70C27883781B029A183A
:105A2000CA80427900790002801808812846FDF773
:105A3000D1FD2846FAF733FC20201499FEF7E8F947
:105A40000FE0119D2846FDF7C5FD44E000274CE01E
:105A500015A800214170FCF7CBFB0028ECD00220F8
:105A6000A055002740E0696800270F54FEF738FF73
:105A7000FEF79AF8401C47D029201499FEF7C8F980
:105A8000A868FAF70CFCAF60129E40E0FC3F0350A0
:105A9000F8040010284D2868139FB8432860109818
:105AA00000021199401800F087F800F005F9FCF7A2
:105AB00031FE0028FBDC401C129E2DD030201499B2
:105AC000FEF7A6F92AE00A79C97809028918E9607F
:105AD0002946FFF777F82846FAF7E1FB20201499CA
