:020000040000FA
:10000000481A0010D9010000E1010000E3010000DE
:1000100000000000000000000000000000000000E0
:10002000000000000000000000000000E5010000EA
:100030000000000000000000E70100005D2000005B
:10004000EB010000EB010000EB010000EB01000000
:10005000EB010000EB010000EB010000EB010000F0
:10006000EB010000EB010000EB010000EB010000E0
:10007000EB010000EB010000EB0100009117000014
:10008000112100003D210000EB010000EB01000008
:10009000EB0100006D210000EB010000EB0100000E
:1000A000C5150000EB010000EB010000EB010000B2
:1000B0000119000099180000EB010000EB0100009D
:1000C00000F002F800F05DF812A030C808382418DB
:1000D0002D18AC4201D100F054F80FCCA246AB462B
:1000E0000CA730CF2D1B083F3F197C427F1E544484
:1000F0002D090426F441641EAC4201D300F041F8FE
:100100000126334200D0FB1A3343984754465D46DC
:10011000DFE70000105C0000305C0000704700006A
:100120000023002400250026103A01D378C1FBD813
:10013000520700D330C100D50B60704710B5642959
:1001400002D100F023F910BD752902D100F01EF98B
:1001500010BD782902D100F04FF910BD002010BD6C
:100160001FB50098019900F0ACFF01F0B5F804004C
:100170000020002105F0B8FC401C60601FBD10B5D8
:1001800010BD01F0F4F81146FFF7EAFF02F0B4FFEA
:1001900001F00CF903B4FFF7F2FF03BC02F02AF8F8
:1001A00070B505460C46164602E00FCC0FC5103E52
:1001B000102EFAD2082E02D303CC03C5083E042E1B
:1001C00007D301CC01C5361F03E021782970641CD8
:1001D0006D1C761EF9D270BD07488047074800475E
:1001E000FEE7FEE7FEE7FEE7FEE7FEE70448054917
:1001F000054A064B70470000B1200000C100000016
:10020000480E0010481A001048140010481400103E
:1002100070B505F048FC0123044600221B07C01AF4
:10022000914101D3002070BD204600F007F8050081
:1002300002D0214600F095FA284670BD70B50646FA
:1002400000F020FF056830460B30C408E400B442DB
:1002500001D8002070BD68682A46002818D00168BF
:10026000A14211D30B46214608318B4208D3436883
:1002700001194B6003681B1B0B605160046001E0B7
:1002800041685160001D70BD024640680028E6D1FB
:100290002146284600F000FF0028DCD170BD70B573
:1002A0000446051F00F0EEFE0068002C1AD04468DA
:1002B00001E020466468002C01D0AC42F9D301680B
:1002C0000A18AA4204D12A6805468918016000E08C
:1002D000456028684119A14205D1616869602168BB
:1002E0004018286070BD6C6070BD10B502F06CF9EC
:1002F00010BD70477047704770477047FFFFFFFFA2
:1003000010B5202A04DB0146203A9140002010BDA0
:10031000914020239C1A0346E3401943904010BDAE
:100320000FB4054910B503AA029800F055FF10BCA0
:1003300008BC04B0184700005803001070B504460C
:1003400085690068C10601D5302600E02026C00777
:1003500007D070BD62683046A1689047206A401C93
:1003600020626D1EF6D570BD70B5044685690078B3
:10037000C00707D170BD6268A16820209047206A3D
:10038000401C20626D1EF6D570BD0000F7B500253B
:1003900075291068009914A611D0C046C0460028DF
:1003A00002DA404211A608E0009909688A0701D5DF
:1003B0000FA602E0490704D50EA6012501E0C046BC
:1003C000C046009F0024243704E000F06CFF303169
:1003D0003955641C0028F8D12B4632462146009836
:1003E00000F0A2FEFEBD0000000000002D00000095
:1003F0002B0000002000000070B504460D46214689
:100400001068C046C0462188090502D50F4A7A44C3
:1004100002E00E4A7A440E3223460021243305E0DE
:1004200006070009360F965D5E54491C0028F7D177
:1004300020780023000705D5702D03D0002901D0B6
:1004400002231132204600F06FFE70BD02570000FB
:10045000F3B50446002081B020622046E168884759
:1004600000287DD0252802D06268A16883E0454F2E
:1004700000257F442046E16888472028064608DB9F
:10048000312E06D2B81920380078002801D0054353
:10049000F0E7A80701D5042085430020E061074666
:1004A000A0612A2E0AD0304605F016FB002827D07E
:1004B000B8000019303E0090866119E00298BA0039
:1004C000121902C8916102902046E1688847012F05
:1004D000064617D1E06900281FDA202085431CE07A
:1004E00000980A2180694843009980193038886152
:1004F0002046E1688847064605F0EEFA0028EFD16D
:10050000012F0AD02E2E08D12046E16888470646E2
:10051000202005437F1C022FC3DBA069002803DADB
:100520004042A06101200543E80701D01020854327
:10053000002E24D030464138192803D80120C002AB
:1005400005432036204625603146029A1546FFF7BE
:10055000F5FD00280CD0012807D0ED1DE80800E0CB
:100560000DE0C0000830029077E72D1D029574E77A
:1005700062683046A1689047206A401C6CE7206A98
:10058000FEBD0000C6560000F7B50F460026009CD1
:100590002578641C002D05D000F06CFD0068405DDE
:1005A000C007F5D12B2D02D02D2D18D0641E394651
:1005B000029A204600F024FE002F04D03968A142A0
:1005C00001D1009939607105022400290BDA4042FB
:1005D000002803DD00F05AFD0460A007FEBD0120E5
:1005E00080020643E3E70028F8DA00F04FFD0460DC
:1005F0000048FEBDFFFFFF7F10B5024901F0E4FF98
:1006000010BD000058030010034610B50B439B07B4
:100610000FD1042A0DD308C810C9121FA342F8D065
:1006200018BA21BA884201D9012010BD0020C04368
:1006300010BD002A03D0D30703D0521C07E00020CE
:1006400010BD03780C78401C491C1B1B07D1037894
:100650000C78401C491C1B1B01D1921EF1D118467D
:1006600010BD000030B5441C03E00178401C002997
:100670000DD08107F9D10B4BDD0104C8D11A91438C
:100680002940FAD0001B0A0603D0C01E30BD001B53
:1006900030BD0A0401D0801E30BD0902FCD0401ECE
:1006A00030BD000001010101F8B5042A2CD38307F5
:1006B00012D00B78491C0370401C521E83070BD0CC
:1006C0000B78491C0370401C521E830704D00B7822
:1006D000491C0370401C521E8B079B0F05D0C91A82
:1006E000DF002023DE1B08C90AE0FFF759FDF8BD33
:1006F0001D4608C9FD401C46B4402C4310C0121FC3
:10070000042AF5D2F308C91A521EF0D40B78491CFA
:100710000370401C521EEAD40B78491C0370401C25
:10072000012AE4D409780170F8BD01E004C0091F72
:100730000429FBD28B0701D50280801CC90700D099
:100740000270704700290BD0C30702D00270401C12
:10075000491E022904D3830702D50280801C891E0A
:10076000E3E70022EEE70022DFE7000000220309B2
:100770008B422CD3030A8B4211D300239C464EE0BC
:1007800003460B433CD4002243088B4231D3030978
:100790008B421CD3030A8B4201D394463FE0C3092A
:1007A0008B4201D3CB01C01A524183098B4201D342
:1007B0008B01C01A524143098B4201D34B01C01A2D
:1007C000524103098B4201D30B01C01A5241C308A5
:1007D0008B4201D3CB00C01A524183088B4201D314
:1007E0008B00C01A524143088B4201D34B00C01A00
:1007F0005241411A00D201465241104670475DE015
:10080000CA0F00D04942031000D3404253409C46D7
:10081000002203098B422DD3030A8B4212D3890194
:10082000FC2212BA030A8B420CD3890192118B422B
:1008300008D3890192118B4204D389013AD09211D5
:1008400000E08909C3098B4201D3CB01C01A524190
:1008500083098B4201D38B01C01A524143098B4259
:1008600001D34B01C01A524103098B4201D30B0142
:10087000C01A5241C3088B4201D3CB00C01A524167
:1008800083088B4201D38B00C01A5241D9D243084E
:100890008B4201D34B00C01A5241411A00D201468B
:1008A0005241104663465B1001D34042002B00D5F5
:1008B0004942704763465B1000D3404201B5054989
:1008C000002802DC491C084000E00846C046C0463B
:1008D00002BD00BFFFFFFF7FF0B5F94D0C091E09F7
:1008E0002C402E402F468BB0A7437DD0B543FCD083
:1008F000002E7AD0002CFCD00D465D40ED0F254334
:10090000AC1BFF25AD0464190894C502440DC9024F
:100910002143500DDC0204430120C007014304437E
:10092000D2020191200C110C00958C460104234643
:100930008B430A9161460904E24D8A430991010AF9
:100940007D4449198039097805464D4301266D18C3
:10095000F605751B6943C90C640B891C4C4364186C
:10096000B5012C1B250C2E04B4434C434D43210CE4
:10097000691889090591009DE90701D00121C9077E
:1009800004912C4601996708CD072F434C08059D1B
:10099000E10B4D432D0C29466646754302950D46E5
:1009A00045432E46029D7D1BB44100950D465D4397
:1009B00001942C0C2F040D465543AE462D0C3D439F
:1009C000029503947546049C2D04641B049406D27E
:1009D000029C039D641C002675410395029401ACA2
:1009E00070CC009F7D1B01E03EE162E1B44109044F
:1009F0000095079101940599A4086143090C0C46E0
:100A00004443650BE7040C4666467443A646640BF4
:100A10003C43039502947446049DE4042C1B049407
:100A200006D2029C039D641C002675410395029426
:100A300001AC70CC009F7D1BB44101940C465C431B
:100A40000095650FE7000C465443A646640F3C43EF
:100A5000039502947446049DE4002C1B049406D272
:100A6000029C039D641C002675410395029401AC11
:100A700070CC009F7D1BB441AE09AF06049DC90038
:100A8000AD092F43049DA406AD060495079D34438C
:100A900069180791059DE10B4D432D0C29466646CB
:100AA000754302950D4645432E46029D7D1BB4417C
:100AB00000950D465D4301942C0C2F040D465543C3
:100AC000AE462D0C3D43029503947546049C2D04BF
:100AD000641B049406D2029C039D641C002675418D
:100AE0000395029401AC70CC009F7D1BB44101942E
:100AF0008C050694079C890A611800950791019C52
:100B00000599A4086143090C0D464543680BEF04A1
:100B10000D46644665436C0B3C43049FED047D1B0E
:100B2000AC4602D20025641C6841009E019D371B23
:100B300085410846584301950C46460FC50054436D
:100B4000600F28436546E4002C1B02D20025401CA0
:100B50006E41019D3F1AB5412846BD0980062843D4
:100B60008446A009BF064E020699A40676180743DC
:100B7000079D002068410A99079019430020099BAE
:100B800000906046FF1913434041E20F64003A436E
:100B9000A4460446D71A8C41A04203D901200090F4
:100BA00020463A46C70F941840416246D20F22436E
:100BB000644664000494009CBE466400D71AA446B0
:100BC000044602978C417746002F01D1A04204D9F8
:100BD0006046401C8446029A2046C40FA6469418DC
:100BE0004041049A0546D20F224364466400D31A5A
:100BF0008D417146002901D1A84202D928461A46E2
:100C0000641C10430122002800D01643610200201A
:100C1000079B891904465C410223002C02DB49181A
:100C200013466441089DCE0A2D145D194B056705D6
:100C3000E10A2C050D1908993E43C9076940002BAC
:100C400008D0934006D30022761C5141002B01D1DD
:100C5000760876001C4A002D43DB154241D0AA439A
:100C60003FD030460BB0F0BD06180D464D41174C35
:100C70007642AC411AD395181C465C41134A6D422A
:100C8000A24113D3012252054C00D4420AD15C0088
:100C9000D4420BD04B4002D592021143E2E7490007
:100CA0004908DFE75940C90FC90718E00020084983
:100CB000D8E7054801420DD10342F7D0F2E7000022
:100CC0000000FF07095200000000F07F0000E0FF75
:100CD0000000F87F114859400143C01241400020F4
:100CE000C0E70123089A9B069A4205DC03225207BB
:100CF0008918C90FC907B5E7052252078918074A9D
:100D00001143D2125140ADE770B515461C4602465C
:100D10000B4628462146FFF7DFFD70BDFFFFFF7F32
:100D200030B50346CA02400D1043164D164C0A1545
:100D300002D02043002A06DBAA1A002A12DDD04086
:100D4000FF2A0BDC30BD5205520D01D14000400896
:100D5000AA1A07D4D0404042FF2A01DD002030BD4E
:100D60000028FCDD4A00002B01D0012000E000201B
:100D7000101801225205D042F0D8C817C043604075
:100D800030BD00001E040000000000800346CA02BF
:100D9000400D10B510430A1504D00124E407204388
:100DA000002A05DB0A4CA21A04D4D040FF2A00DD39
:100DB000002010BD4A00002B01D0012000E00020DF
:100DC000101801225205D042F2D8C817C04310BDF6
:100DD0001E0400001F22030C02D10F22000402D0C7
:100DE000030E03D004E00020014670470002083AD9
:100DF000030F01D10001121F830F01D18000921E49
:100E0000002801DB4000521E120551184205C01295
:100E1000411810467047C10FC90700D04042012257
:100E200092071143D6E701218907D3E7F0B58B4C30
:100E30000F09254689B0BD437BD01D092646AE4328
:100E4000FAD00E465E402740F60F3E43254071D053
:100E500024012142FBD0FF24AD19A4042D1B0395CE
:100E600001252D05DB02DB0AC9022B43C90A2943F0
:100E70001E010901040F130F050121431701880BFF
:100E8000820391432D098C46A90B1E438A03954387
:100E9000B30B9A0396433F09BA0B9403A7430296F8
:100EA0002E467E430497B6464E19D7190C46019636
:100EB000544305977E43371B7646BF1B3601B64623
:100EC000BE0B361900967646BC043719009C01D338
:100ED000641C00946400002F01D001263443029E5C
:100EE000049F754366467E430496760034196E006F
:100EF00034190094029C019E1C196643751BAE4672
:100F0000069465464519059C05956C4359437546FD
:100F10000891691A0191049E01465143A41B049152
:100F2000611A009C0791E10605D061090122114375
:100F300002E072E06EE06109089D00272C0A2D0690
:100F40006918049D7C412A0A2D066918019D624199
:100F5000AC0DAD026D185441079A910D92025519CE
:100F60006141029A644658435443069B059A5A438A
:100F7000121A131B9A0E9B015B187A41010B000594
:100F8000C3185141220A200644195A419A4200D2FC
:100F9000491C01204002814203D315230226F64357
:100FA00002E014230326F6432020C51AA940174661
:100FB000AF40DA400A4320460399D8400914731819
:100FC00019055118039A3843D2075140AC4009D053
:100FD0000122944006D30022401C5141002C01D133
:100FE000400840001E4A934212D301220398920601
:100FF000904207DB0520400709181A480143C01238
:10100000414004E0032040070818C10FC907002031
:1010100009B0F0BD0020F107FAE705180C464C4175
:1010200011486D42A04115D394181A465A410E48F2
:10103000644290410ED301204A004005824209D308
:101040005A00824206D35940C90F084AC9070020F6
:101050001143DDE700200649DAE700000000FF0742
:10106000FE070000FFFFFF7F0000E0FF0000F07FB1
:101070000000F87F10B500F02FF9001D10BD00BF73
:10108000694A000000487047480100100048704756
:10109000400100107047704738B504460A460020EA
:1010A0006946C046C046002805D002462046009941
:1010B00000F016F9012038BD10B5012000F051F9FB
:1010C00010BDF8B5C046C046054600200C460C20B1
:1010D000C0460646A819A0420DD9324669460020EE
:1010E000C046C046070001D100F03BF90098A0427D
:1010F00000D00546C419FFF7C5FFF61D0746056079
:10110000F008C0004619284600F008F8B44204D0A0
:1011100031463868A21B00F0E3F8F8BD00210160F9
:10112000416070470C207047FFB504460D4681B002
:10113000243000902168880604D51022E06991438C
:10114000216000E00120A84201DD471B00E00027EC
:101150000498A1697A191018081AA0612078C006AD
:1011600002D42046FFF7EAF8002608E003986268F8
:10117000A168805D9047206A401C761C206204981C
:101180008642F3DB2078C0060AD52046FFF7D6F862
:1011900006E06268A16830209047206A401C206207
:1011A00038467F1E0028F4DC07E000986268A168DA
:1011B000405D9047206A401C206228466D1E002832
:1011C000F3DC2046FFF7D0F82078000602D5022095
:1011D00005B0F0BD0120FBE7084B70B50D467B4420
:1011E00000F09DF80446284601F06BF9002802D073
:1011F0000020C04370BD204670BD0000E713000012
:10120000F7B5154682B00027029C2078641C019730
:10121000302802D0002D15D015E020780127641C5D
:10122000782804D0582802D0002D09D00BE0002DDA
:1012300001D0102D07D1207800271025641C02E072
:10124000082500E00A250026009610E000990127F5
:101250006943081829467143020C80B200908E1829
:101260003804864201D3012001902078641C29466D
:1012700000F068F80028E9DA0398002805D0002F6C
:1012800001D0641E00E0029C04600198002806D092
:10129000FFF7FCFE02210160C81E05B0F0BD0099F9
:1012A00030040843F9E701468008081A02091018BB
:1012B000020A1018020C1018C008820012185200FE
:1012C000891A01E0401C0A390A29FBD27047000044
:1012D000004870474001001000487047600100104E
:1012E00010B50346406801E003464068002801D07D
:1012F0008842F9D31868C3188B4206D0CB1CD80893
:10130000C000001D411A521A0146081D0A60FEF76E
:10131000C6FF10BD01694A1C02610878704700B51C
:101320008FB0029100210591054901937944039101
:10133000114604906846FFF78BF80FB000BD00001F
:10134000E5FFFFFF3A2800D23038202302469A43B7
:10135000412A01D310463738884201D30020C043C8
:10136000704710B500F030F800F028F810BD754651
:10137000FFF7AEFFAE46050069465346C008C00001
:10138000854618B020B5FEF731FF60BCB646002692
:101390000027C0C5C0C5C0C5C0C5C0C5C0C5C0C583
:1013A000C0C5403D490849008D46704710B5044608
:1013B000C046C0462046FEF7EDFE10BD10B5002821
:1013C00001D000F017FF10BD10B5012805D0002195
:1013D00003A000F065F8012010BD09A1F8E70000A6
:1013E00053494752544D454D3A204F7574206F660E
:1013F0002068656170206D656D6F72790000000076
:101400003A2048656170206D656D6F727920636F59
:101410007272757074656400024670B50A43920773
:101420002AD11E4DEE0104C808C9541B9443344010
:1014300017D0D0B2D9B2401A2106014310D190B2D0
:1014400099B2401A210401430AD110021902000A7C
:10145000090A401A2102014302D1100E190E401A46
:1014600070BD9A42DFD010BA19BA884201D9012062
:1014700070BD0020C04370BD02780B78401C491C31
:10148000002A09D09A4207D102780B78401C491CE7
:10149000002A01D09A42EFD0D01A70BD010101019B
:1014A00070B505460C460A2000E06D1C00F0A3FE56
:1014B000002D06D028780028F7D102E0641C00F047
:1014C0009AFE002C02D020780028F7D10A2000F0E4
:1014D00092FE70BD30B58C180278401C13071B0FAC
:1014E00001D10378401C120906D10278401C03E0A8
:1014F0000578401C0D70491C5B1EF9D101E00B7092
:10150000491C521EFBD1A142E6D3002030BD000091
:10151000B0B51648016810229143016001204203D2
:1015200013498B6813438B600022434B202A04D05D
:101530009C180025A560121DF8E70E4A022393604F
:10154000D36013615361536290621060D0620A48A5
:1015500000680968FFF70AF90849FFF707F9000270
:10156000FF21C943401833490860B0BD38820440A8
:10157000788004406C40044004000010009F240068
:1015800010B52C490A68FF239A430A60072800D93E
:1015900000200122130682400C6814431C430C6097
:1015A00082000B461033D0580028FCD507221206C3
:1015B0000B6893430B60410001D5002010BD00046F
:1015C000800D10BDB0B51B48016B0A04120E12D07D
:1015D000194A53685B1C5360024610320023082BE3
:1015E0001FD0090AC9B20C46DC40E40700D01168DC
:1015F000121D5B1CF3E7CA031BD50F4A08320346D2
:101600001033C9B20024082C0BD00D46E540ED077D
:1016100003D01D682D04AD0D1560121D1B1D641C2B
:10162000F1E70721090602688A43026002480121A6
:101630000160B0BD00C00140A0010010F8B5E04E4F
:1016400032217161010C01D1070B01E0C70B0E378C
:10165000B761F7613446143435462835D94A2046F7
:1016600029469047B06A002801D00120F8BD3420F7
:101670007061B761F76130780028D24A00D0D24853
:101680003062204629469047B06A411E8841F8BD25
:1016900010B50021074AA82908D05358834203D81F
:1016A00053189C68844202D80831F4E7FEE71879A1
:1016B00010BDC046D45B0000F8B56C4C0020A060A3
:1016C00060600120850720262E6006202061084FDB
:1016D0002069062809D12068401C2060B84202D247
:1016E00004F0CEF9F4E70B202061AE612069F8BD6B
:1016F000FF0F0000B0B518490A68022313430B60BE
:10170000CA6F20231343CB673F21CB43134A116891
:1017100019401160146801210C43146054681C4086
:10172000546053680B4353608B076C249C614C02DC
:10173000156825431560556825435560D2225A61C6
:101740001A61022801D1A020D860C803044A1060A1
:10175000402018600846B0BD04800440304004407A
:1017600000E100E070B50124A507102028600820E2
:10177000A861064E2868C00606D5002E03D004F0E6
:101780007FF9761EF6E70024204670BDFE0F0000AC
:1017900010B5364900220A60012080074368F8240A
:1017A0001C40083CE4085B071B190A2B2ED8C046D6
:1017B0007B441B795B009F44050710171A25293DC0
:1017C0002C323F004A6000E08A604A68531C4B603C
:1017D0008918097E816028213FE0CA68012A0AD160
:1017E00010220260072212E0FFF7BCFF10BD4A681A
:1017F000CB689A422BD24A68531C4B608918097EE9
:10180000816029E010220260092200E00A220A61B8
:1018100022E00422026008220A61826110BD82680F
:101820008B685C1C8C60CB1828241A558A6849691F
:101830008A4214D204210EE082688B685C1C8C60A2
:10184000CB1828241A550C220A61102103E04A699A
:10185000002A07D0202101600821816110BD0421E8
:101860008161F9E7102202600C22D0E7C801001064
:10187000534801210170074800220267416742670F
:101880004167426FD207FCD08167022101700020BE
:101890007047C0460080044070B5174C2068304D3A
:1018A0000007164E0BD5C220295A002907D12D2139
:1018B00029523068000702D4022000F0E3FF2068BC
:1018C00040070CD591204000295A002907D12D212D
:1018D00029523068400702D4032000F0D3FFA068EB
:1018E00008210143A16000BF00BFA068042101439B
:1018F000A16000BF00BF70BD14800250FC3F0250C9
:1019000070B5164C2068164DC007164E0AD0688870
:10191000002807D12D2068803068C00702D1002040
:1019200000F0B0FF206840070BD56220295A00293B
:1019300007D12D2129523068400702D4012000F040
:10194000A1FFA06801210143A16000BF00BFA06802
:1019500004210143A16000BF00BF70BD148003508B
:101960005C030010FC3F0350F8B500910546144C91
:1019700032206061280C01D1280B01E0E80B0E3009
:10198000A061E06126461436274628370D4A3046C6
:10199000394690470120400233216161A5610099D9
:1019A000E16120622078002800D00748606230465C
:1019B0003946044A9047A06A411E8841F8BDC04696
:1019C00020020010F11FFF1FE02E0000F0B50022E2
:1019D000D3430E4D194C8A4216D000262660666805
:1019E00014273740042F03D06D1E6E1CF7D31D46FD
:1019F0006668760703D46D1E6E1CF9D31D462668F3
:101A00000670521C401CE6E7F0BDC046FFFFFF0019
:101A1000B0B50022094B8A420FD05C6812252540E0
:101A2000022DFAD104781C605C6814252540042D31
:101A3000FAD11C68521C401CEDE7B0BD0800044000
:101A4000012070470349884201D3002000E00120B3
:101A5000C001704740DD4A1FB94800787047C04652
:101A600000207047F0B585B03749086000F0D0F825
:101A70000925364C2846A04701900620A04704902F
:101A80000720A04703900820A047064600272846C5
:101A9000394600F0A6FA3B252846A04701464020DB
:101AA00002900143284600F09CFA04980004039930
:101AB000090208188019FFF7B6F98F4B3A46FFF76D
:101AC000B5F9FFF763F90646C8243B2000F066F835
:101AD000800603D5641E2006F7D11CE01C4800F0E8
:101AE000F1F83B24204600F059F8029901432046C2
:101AF00000F077FAC8243B2000F050F8800603D5A8
:101B0000641E2006F7D106E00920019900F069FA69
:101B1000304600F0D7F8002000F014F92F20C4431D
:101B20000C4D002000F0F8F8002C08D029193120C5
:101B3000085C3222895C00F054FAE41CF1E70220D0
:101B400000F000F905B0F0BDF40200109D1B00008C
:101B500000A1BC33D85C0000B0B514460D4600F0BF
:101B6000DBF8284600F0AEF8052000F0EBF84F480F
:101B7000022101607D21C9004161012505600168E4
:101B8000C907FCD100F03DF8A04200DD002500F0BF
:101B90005DF92846B0BDC046002070471CB501ACB9
:101BA000002121700122214600F002F820781CBD9E
:101BB000F8B515460C460E4E31688027B9433160A2
:101BC0003A4902220A604B2292004A6101220A60CD
:101BD0000A68D207FCD17F21084003F059FF28464C
:101BE000214601F01FFF306838433060F8BDC04621
:101BF000FC3F005080B50A4601460020FFF7D8FFA1
:101C000080BD80B51120FFF7C9FF400880BD0000EE
:101C1000B0B50D490868202290430860234802238C
:101C200003607D24E4004461012404600568ED073D
:101C3000FCD10D6815430D600360044941610460E7
:101C40000168C907FCD1B0BDFC3F0150701700000E
:101C5000FEB50291009000F0FEF8F64F02243C60C1
:101C60007D2080000190786101253D603868C007C3
:101C7000FCD1029E701EC1B2352000F0B2F900986E
:101C8000314600F0D9F9204600F05CF83C6001983C
:101C900078613D603868C007FCD1032000F052F83D
:101CA0003F20FFF77BFF0007FAD5FEBD048001400F
:101CB0007047000002490A78824200D008707047DD
:101CC000F8020010B0B5C2494860FFF7ACF8002236
:101CD000C14BFEF701FEFFF759F80446000CC1B2F4
:101CE0000620BC4DA847200AC1B20720A847E1B290
:101CF0000820A847B0BDC04680844E4010B50C46B1
:101D000000F00AF8B248807F002800D010BD3220D1
:101D1000214600F066F910BD10B5AD494A788242FF
:101D20000CD04870002000F00DF801242046FFF789
:101D300035FF7F210140204600F053F910BDC04619
:101D4000FC020010B0B50446002806D00020FFF7C2
:101D5000B1FF032C05D1012004E00120FFF7AAFF09
:101D600002E00020FFF7A4FF01252846FFF716FF39
:101D7000F82101402143284600F033F9B0BD80B579
:101D80000520FFF7DFFF80BDF0B585B01D4600934D
:101D900014460E460191FFF7BFFF8D48846106612E
:101DA000014608310F9A8A760E9A4A760D9E0E7673
:101DB0000C990391C1770B990491817745610A9D34
:101DC00085832046FFF72FF802460B46002002903D
:101DD0008249FEF781FDFEF7A3FF0446010A0220B7
:101DE0007C4FB847E1B20320B8470198FFF750FC99
:101DF00001461220B8470098FFF74AFC014613201D
:101E0000B847290A2520B847E9B22620B847322426
:101E10002046039D2946B84720462946B8470299DF
:101E20000498002801D17F20C143701E86413501EE
:101E30000D4330242046FFF7B1FE6F2101402943B6
:101E4000C9B22046B84705B0F0BDC04680B50020F5
:101E5000FFF778FF80BD80B50120FFF773FF80BDDD
:101E6000F0B589B0039304920E46FFF755FF0920A1
:101E7000FFF794FE05460F273D404D20FFF78EFEED
:101E8000069053484068FFF7DDFD28437021014369
:101E900048B21399019112990291119A10990891DF
:101EA0000F9907910E9D0028059209D4B843F117A8
:101EB00031430E2900DB0E214A1C10430E4623E05D
:101EC0000721112E05DCF822069B13401A461A1D25
:101ED00001E0069A0A4306921140F02210400729B9
:101EE00008D1052E00DC0526142E00D31426314619
:101EF0000B3107E0022E00DC0226112E00D3112642
:101F000031460E3139400843C1B20920314CA04757
:101F10004D200699A04701982D4A5062104608307E
:101F200002994176059F07760898907707989083E5
:101F300095610695049DD5600398106116720A2676
:101F40003046FFF72BFE402101433046A04728468C
:101F5000FEF769FF0024204B2246FEF7BDFCFEF78A
:101F6000DFFE0646010A04201A4DA847F1B22E46AC
:101F70000520A8470698FEF756FF02460B4617496C
:101F80002046FEF7A9FCFEF7CBFE0546010A02201B
:101F9000B047E9B20320B047079D290A2520B04782
:101FA000E9B22620B0470898002801D17F20C44319
:101FB000781E87413D01254330242046FFF7EEFD82
:101FC0006F2101402943C9B22046B04709B0F0BD96
:101FD000FC020010E31F000080844E4080847E419C
:101FE0007047E0B501AB19700122194600F002F804
:101FF0008CBD0000F8B515460C460D4E31688027A3
:10200000B94331600B4902220A604B2292004A61B7
:1020100001220A600A68D207FCD1384303F038FD78
:102020002846214603F038FD306838433060F8BD5B
:10203000FC3F00500480014080B50A460146002064
:10204000FFF7D8FF80BD0000034908604868C0065C
:10205000FCD40868C0B270470800044010B5124CA8
:10206000A068411CA160092813DB0020A06001F0DA
:1020700013F800F07BFC01F003F901F02FF900F0F8
:1020800009F902F05DFF2068401C02D02068401C66
:1020900020606068411C6160632804DB0348012103
:1020A00001600020606010BD78020010380100104F
:1020B000B0B51248002282630121C163C263C163CB
:1020C000C36BDB07FCD0232303600D4B1C6880250A
:1020D000AC431C604368DB07FCD003238366C16606
:1020E000C266C166C26ED207FCD00167054A82672C
:1020F00005480160054813210160B0BD0880044017
:10210000388204405F000100988004405081044000
:1021100009480168C90705D00121016012490A6810
:10212000521C0A600168C90605D5102101600E48DD
:102130004168491C4160704700C00040094801687F
:10214000C90705D00121016007498A68521C8A60CD
:102150000168C90605D5102101600348C168491C02
:10216000C1607047000001400002001010B501225C
:102170005005084908600F48036807488178074CF4
:1021800063540A2383800270802901D8491C81701E
:1021900010BDC04680E200E018020010A00D001043
:1021A00004494A695206FCD508604A695206FCD5C2
:1021B0007047C046008000400648011F03220A60A5
:1021C000012101600022026001600168C907FCD0A2
:1021D0000020704774800440BFF34F8F03480449C8
:1021E0000160BFF34F8F00BFFDE7C0460CED00E07C
:1021F0000400FA05FEE780B5FFF7D2FF80BD0000BE
:10220000F8B50546214E31780023D84307290BD86D
:102210002A78A14F9A4208D0EC18A47864013C199E
:10222000A4695B1C002CF5D0F8BD26234B43184C49
:10223000E254491C31707178491C7170E418002017
:1022400000906070688C6084A88CA084A61C2A789A
:10225000A91C3046FEF728FAA0784001062139541F
:10226000618C7D22D20051433818A38C5343016105
:1022700043612878002806D03178490179188C61AB
:10228000761C401EF6E70098F8BDC04660020010BC
:10229000DC04001010B517480188002907D0D94A7E
:1022A000136880241C431460491E018010BD4288BD
:1022B000D449002A06D00B688024A3430B60511E2A
:1022C000418010BD0279002A0ED0C28802800A68BF
:1022D00080231A430A60028942800A689A430A608E
:1022E0000179491E017110BD086880229043086081
:1022F00010BDC04684020010B0B50023094A0C0688
:102300000ED0047863400824250606D05D08DB075C
:1023100000D055402B46641EF6E7491E401CEEE7F0
:1023200098B2B0BD01A0000010B560214143BD4A84
:102330005418515C002903D000202061204610BDB4
:1023400000F0D4FA20610028F8D0E26883009A42B5
:10235000114600D801469A4202D805488142EDD381
:1023600020461030034A914200D900210160E5E780
:10237000E0930400DF930400B0B5E2488178254A79
:102380002548012913D1116804239943116013686A
:1023900080210B4313600368202423430360CC4B4C
:1023A0001D6825431D60964B1C680C431C60012171
:1023B0000B0204689C43046013680824A343136061
:1023C000164B1A680224A2431A60154A1468402565
:1023D000AC4314600568134C254005601020C043D1
:1023E0001D6805401D601568054015602020C0432C
:1023F0001568054015601D6805401D601068204087
:1024000010608802136883431360C8021168814317
:102410001160B0BD0080005000800150008003506A
:1024200000800250FFFDFFFF10B504460BA0005DC9
:1024300001F0DCF9442161438E4A51184880411C67
:1024400008D060216143A84A5118C97E0840411E46
:10245000884110BD0020C04310BDC046404200006E
:1024600070B5FFB0FFB082B0202000210A4A0028DA
:102470000BD001231B026C466352631800249C801E
:1024800053189C612031401EF1E7684601F0A6F820
:102490007FB07FB002B070BD5C07001010B500F0D7
:1024A000B3F804462220205C022809D0402001F025
:1024B0009DF9401C04D022340220207001F034FC2D
:1024C00010BD0020C043704710B5044600F0D4F89A
:1024D000EA49896C0022FF2A05D023460C5D521C74
:1024E0008442F8D100E0FF23D8B210BDFEB5E34E20
:1024F000307824217054307A282401903055B079F6
:102500002627F0552220355C00F0B6F82C217054B7
:10251000305D002809D0FFF7D7FFD84A302150544A
:10252000FF2816D1105D505413E03246F07F302161
:102530007054307D34217054307E38217054307F97
:102540003C217054B07F3E2170544020305A4421C9
:102550007052907C32215054D45D002C009501D0F3
:102560000D2000E007203F21029150541146526D8A
:1025700015188D650E26F743002C00D1BF1DBF4BEB
:102580001C783F190024BD49E6B2B7420CD9C6B247
:102590003F2E07D86B1C8B652D789555401C029DEE
:1025A00048551D46641CEFE701200199002901D020
:1025B000014600E00221009A002A00D101460020D5
:1025C00001F0DAFBFEBDC04680B5FFF7E9FD80BD36
:1025D000012000023E49096801404842484108493B
:1025E0000968090700D4801C3A490968890700D4A2
:1025F000001D39490968490600D40830C0B2704747
:10260000FC3F0050FC3F0250004870471000001093
:10261000032804D860214143D24840187047002065
:102620007047C0465C030010F8B50C4606468F00A4
:102630003846FDF703FE002813D0054631463A46DA
:10264000FDF7AEFD0120204061084018401E82B217
:102650002846214600F0A6FC04462846FDF71FFE4A
:1026600000E034682046F8BD442141430148401849
:102670007047C0460C06001001204002144909684A
:10268000014048424841134A1168C90600D4801CE1
:1026900011490B68DB0600D4001D0B689B0600D4B3
:1026A00008301268920601D4102210430A6892057D
:1026B00001D4202210430A68520501D4402210435D
:1026C0000968090501D480210843C0B27047C0469B
:1026D000FC3F0150FC3F0350FC3F0250602141434E
:1026E000014840187047C0469406001000487047E3
:1026F0005C0D0010004870478E0D00100148401C12
:102700007047C04692020010E9498978017001487B
:102710007047C046A00D001000487047240E0010FE
:1027200000487047300E0010E14882788188002A06
:1027300001D0084601E00020C043002900D008462F
:102740007047C0460148001D7047C0462002001077
:10275000F0B591B0FFF7A2FE01A8801C3E21FEF764
:1027600000F8464D296D0878800914D009783F2675
:102770000E4001A94E700424002E0DD00A2E0BD855
:10278000401E01A90870C0B2FFF7A8FFC17C002954
:1027900005D0052400E00324204611B0F0BD01213E
:1027A0008174296D4A78C276062070430090002219
:1027B00013460098904218D001ACA418DBB25D1803
:1027C000AE78360926712E79DB1CCF5C3807000DF8
:1027D0008019AD78208128013D062D0F4019C0B227
:1027E0003C254543E580921DE3E701A802F02AFA63
:1027F00000240028D0D101A80178012002F09EF920
:10280000CAE7C046B0B51D48006D0478FFF746FE24
:10281000002C0ED0601EC0B2FFF760FF04460125F9
:1028200085741E304021FDF79CFFA575657500205D
:10283000B0BD0320B0BDC04610B5104CE07F217B79
:10284000814209D0A07900F097FB002805D0207CB8
:1028500000F092FB002800D010BDFFF74FFF417839
:102860000129F9D18178C2789142F5D84E22044BE2
:10287000A352C170A179017110BDC0469802001029
:1028800060EA000010B560214143C34A5018515C12
:10289000002919D14178491CCAB20F2A00D9002158
:1028A0004170C9B289004118C2680A62018B8A422C
:1028B0000AD2C18A7D22D2004A43C169914203D320
:1028C0000146143101220A7041680A68531C002233
:1028D0001C0E144600D11C460C604280C26002707F
:1028E0000120192102F0D8F810BDC04680B5602142
:1028F0004143A948401820301021FFF795FE80BDC4
:1029000010B560214143A44844186088002802D0D3
:10291000A11C401E08802078002800D010BDE0686F
:10292000401C1149884200D30846E060218B884250
:1029300003D900212175E16109E0E28A7D21C90006
:102940005143E269521C8A4200D30A46E2610649B9
:102950008842E3D3204620304021FDF704FF0120C8
:10296000207010BD5C030010E093040010B500203F
:10297000044CA0470120A0470220A0470320A04705
:1029800010BDC0460129000070B50F22D343164A7E
:10299000002B07D0D4182825002666553825665503
:1029A0005B1CF5E70123D360516118431076FEF7F5
:1029B00083FE70BDB0B518240B4B282C03D0002526
:1029C0001D55641CF9E7541CDC6000245C6118761A
:1029D000E0B2904205D2C0180D784576641C491CBF
:1029E000F6E7FEF769FEB0BDC801001010B57048EB
:1029F000016802220A430260074900220A62036852
:102A00000124234303600A60A002044A13680343BD
:102A100013600C6610BDC0460840044000800050A2
:102A200080B5FEF775FD072001F012F800280AD0E6
:102A3000FEF7F9F90022074BFDF74EFF064A074B58
:102A4000FDF74AFF01E002490020054A03C280BDAC
:102A50000000F03F007EA340D7A3703D0AD7D33FCC
:102A60000800001080B552480168802211430160BF
:102A700004480168914301601E200121022202F0F6
:102A80000BF880BDFC3F025080B544480168082225
:102A90001143016005480168114301604B200002A9
:102AA00000F004FA02480021018080BDFC3F035081
:102AB0001802001080B501F01DF9074800785A2867
:102AC00001D001F031F90F20C102492082000348F2
:102AD000FDF766FB80BDC0461678000010000010B0
:102AE000B948016840220A4302607047F8B50026E1
:102AF000294CFFF789FD0546102E0CD06021204699
:102B0000FDF731FEA819606001202070A859A0606F
:102B10006034361DF0E70120C643204A1168314079
:102B200011600421CD4313682B40136008230093E8
:102B3000DF431F4B1C683C401C601C682C401C6021
:102B400054683440546054682C4054605C683C4085
:102B50005C605C682C405C6094680443946094689A
:102B60000C4394609C68009D2C439C609C680C43C3
:102B70009C6014690443146114690C4314611A695C
:102B80002A431A611A690A431A614107E24A11602D
:102B900000071060F8BDC0465C03001000800350C1
:102BA0000120000202490A6802430A607047C046D9
:102BB0000080025080B50448C021FDF7D4FD0348D1
:102BC0008821FDF7D0FD80BD940600100C06001092
:102BD000B0B5FFF70BFF0024204601F011FF0120E4
:102BE00081020A4D2846FDF7BEFDE0430849086111
:102BF000486100F073FB18352020002804D02C60B9
:102C00006C602035401EF8E7B0BDC0465C07001080
:102C100060020010F0B589B07D20C600344618343B
:102C2000FFF7F2FC0890B9480168214301609A4817
:102C300000686649FDF79AFD474FB860381FFF25C9
:102C4000056004203861454C2078002805D101201A
:102C5000207043490978C9076ED100F0BBF8012004
:102C6000A07025710899097E002900D002206070AB
:102C7000FFF782FB3B48016800252846884728204B
:102C8000FEF78CFF2D2851D10595049503950295EB
:102C9000182006900190344A00923248C06907908B
:102CA0000E21324B2846079CA047402006990091F0
:102CB000019502900395049505952A4884692C4B4B
:102CC00028462A49284AA0470D201F21FFF789F9E5
:102CD0000898007E002808D04B242046FEF75EFFAF
:102CE000102101432046FFF77CF9FFF771FC022415
:102CF0003C607E610121089139603968C907FCD1C7
:102D00001C4E4643FFF7A7F81B4830181549C96801
:102D100088470420FFF716F83C606920800078613E
:102D2000089838603868C007FCD102E06570A5706B
:102D3000ED43284609B0F0BD6921890000221E310B
:102D40008A428AD002233B607E6138603B68DB07A1
:102D5000FCD1521CF4E7C0460480014092020010EE
:102D60009C0D0010845C000050C3000060610200F4
:102D7000B030010090D00300C0CA893610B5FFF70B
:102D800043FC0446FFF724FC8549034A23348C6442
:102D9000CA6400F03BFE10BDB80B000010B5012462
:102DA000A0025A490A6802430A603B480068074982
:102DB000FDF7DCFC0649C860FF200860042048617C
:102DC0002046FEF797FC10BD8080044040420F0073
:102DD00000800140B0B51F49086801221043086017
:102DE0001D480346F933CC6F1C43CC671B490A606E
:102DF0001F21CB431A494C691C404C614C69144358
:102E00004C614C69182525434D618C691C408C61CF
:102E10008B6913438B618A69082313438B614A6E64
:102E200003239A434A664B6E022213434B660B6898
:102E30000724A3430B600B6813430B600949086028
:102E40000A610020072802D88B68401CFAE74A6014
:102E5000B0BDC046048004400707000094800440D1
:102E60004C4004400000044080B50B4800680B490A
:102E7000FDF77CFC401E010E0DD10949094A506046
:102E8000094803680B400321890759180160002095
:102E900090600720106080BD04000010DE26000056
:102EA000FFFFFF0010E000E020ED00E0B0B50146BC
:102EB00014480268802313430360026840239A4346
:102EC00002601148026801242243026042682243E2
:102ED000426020030D4A1368034313600C4D8320A6
:102EE000E8600C48FDF742FC010AC9B26960C0B253
:102EF00028600320E8606C600620A8606005064931
:102F00000860B0BD00800150A440044080800440AF
:102F100000800040C0C62D0000E100E00120C10398
:102F20000F4AD36D0B43D3653F2111600D490A68E9
:102F300040239A430A600C4A002111605060536894
:102F4000DB07FCD0906009480160094809494160ED
:102F500003210160AA218160552181607047C0462C
:102F60002480044038820440D0800440400E001089
:102F700000400040FFFF7F0010B50446FFF77CFBD8
:102F800007498A6C00231946FF2B03D0145D4B1CA4
:102F90008442F8D1FF39481E8141084610BDC04621
:102FA00098020010F0B590B093000E90C0180190F8
:102FB0004D1EEB1700210C460092019800680C9002
:102FC000481B2046984163D20395099502930591C9
:102FD0000F46049426460F933B4635460E982C46E2
:102FE0001E4600275B1C7D41B10042580C9882426E
:102FF0000E98F4D3069208930A960B944118079101
:103000000C9A099B0D970F9F0F971E465B1E0D99FB
:103010008F41B40001598A42F6D30A98301A0F98AA
:103020000B9A90410AD30E980019079C21600699CB
:1030300001601E460F9708980A900B9509960A9F03
:10304000F01B0F9B18460B9EB041C4D20124009A7E
:10305000D01B0D98B041214600D30D9900291D4683
:10306000099800D1029B0C930029034600D1039BD1
:10307000801A0D98854100D30446002C00D1049E8F
:10308000002C00D1059F394634461D460C9B94E721
:103090000C9810B0F0BD0000B0B514490888401C71
:1030A000088082B21248312A04D812492B310268B2
:1030B0000A4005E0F92A05D80121090202680A43FD
:1030C0000260B0BD036895080A4C4A2D03D82B3422
:1030D00023400360B0BD01252D022B4303604888C7
:1030E0000019904201DA00200880B0BD8E02001065
:1030F000FC3F0250D4FEFFFFFFF7F2FCFFF768FD34
:1031000017480168174A11601F210160FFF706FF89
:10311000FFF746FDFFF7A6FCFFF7B6FCFFF7CAFC7A
:10312000FFF7E4FCFFF7A0FEFFF738FEFFF742FDD4
:1031300000F0E8FB01F0DAFCFFF766FA2221405CC0
:10314000022802D1002002F033FC00F053FC01F011
:103150000DFF01F0E7FF01F04FFF01F071FFF4E711
:10316000308004409C0D001010B50146602048439B
:10317000584A10180024C475427E521C4276C37F00
:10318000D2B29A4203D2012001F0D8FC02E01930F9
:103190000470E443204610BDF8B504466020604347
:1031A0004C490E18FFF730FA0546B07D002801D0D3
:1031B000092700E0777E002C01D0032000E00120E9
:1031C00000F082FCA1001F4A53585050B081316872
:1031D000F181834201D0EA7E3282F27C002A05D05E
:1031E000328A002A05D00022327717E0002030779B
:1031F000F8BDEA7E002AF6D0442262431F4B022427
:103200009C5406227A43B2182223D35C0122002B5D
:1032100001D0D34301E00023DB43337706237B4314
:10322000F318DC8CA04208D29B8C01209942014605
:1032300000D300214240114203D107203076012003
:103240007075F8BD5407001060214143214A5118A0
:10325000CA7C002A02D08A7D002A00D0704744220E
:103260004243064880184A7E027106235343C01821
:10327000CA894281898981817047C0460C06001045
:10328000B0B573211348425CC37C1946114307D083
:1032900011490C88002C04D0641E0C80240400D03A
:1032A000B0BD048A002C01D0641E04827024055B2A
:1032B000002D01D06D1E0553002B02D003685B1C4E
:1032C0000360002A02D0026E521C02667D20C000FC
:1032D0000880B0BD9406001034010010FEB5002631
:1032E000BC4CBD4D3346202E00D15FE17101605CC6
:1032F000062800D944E167184000C0467844808819
:10330000400087440600270047003D0162006C0032
:103310008600B869002800D032E1029372000320D1
:1033200000210192FCF7ECFF2A696D698D4382430D
:103330000124B440B888002800D1E1E00120002138
:103340001746019AFCF7DCFF3A460D430243029B05
:103350002343D7E00124B4406868204203D0797841
:10336000002900D10BE1B978002900D107E13D46E1
:1033700010353A69002A00D1AAE00293FFF744F918
:103380002968002901D0491E2960029B2343808AB5
:103390007861F3E00120B0406A68024200D0EFE0BB
:1033A0001C463B6939461031002B00D1B4E05B1E4E
:1033B0000B60398964234B437B6123460343002917
:1033C00000D0DCE002436A60D9E03869002855D0BB
:1033D0001037401E38600120B0400343D0E0012484
:1033E000B440686820436860F868F969496809680A
:1033F000814233D27200012000211F46FCF780FF7A
:103400003B462A6902432A6168690843686123438D
:10341000B5E002933869002842D01037401E38606A
:1034200072000092032000242146FCF769FF0191FD
:103430002F698743012528462146009AFCF760FF43
:103440003843D64A1061D5484069019A90430843F1
:10345000D2494861B540029B2B438FE0032038706E
:10346000720000211F46FCF74BFF3B462A6982434E
:103470002A61686988436861A34380E07200032081
:1034800000211C46FCF73CFF2346C54C2A698243B9
:103490002A616869884368610120B04083436FE016
:1034A00072000320002401902146FCF729FF2A69BD
:1034B00082432A616869884368610120B040029BA9
:1034C00083437969002936D01437481E386055E0A7
:1034D000B24AD268224207D0BA1C491E11700906AE
:1034E00002D12043AD494860A3437869002804D045
:1034F00039461431401E086040D1B88828603DE04C
:10350000029BA343E043A64CA4490A614D610D46CA
:1035100049680140696033E02346834378690028A5
:1035200004D03A461432401E106028D1F888642234
:1035300042430A6023E001993970BC80B9690029CF
:103540001CD01F464A78531C4B700A78DBB293425A
:1035500018D2CA18927852010623914CA3548F4D69
:103560006B6803436B607D20C0004B8C4343A21803
:103570001361898C414351613B4601E0874D884C82
:10358000761CB0E6881C3B46002A07D0017849012A
:10359000834D69188C61401C521EF5E77F4D687899
:1035A000401E68700006EAD12C70E8E7E86898428F
:1035B00002D16888002805D118461C4601F020FA7F
:1035C00023466888EB60401C81B2142900D9002092
:1035D0006880FEBD5C07001060020010F0B58FB07F
:1035E0000C907D20C0000990FFF70EF86B490F6921
:1035F00049690790223000900026694B32460E96AA
:10360000402A00D1BDE00C463D460C98875D032F53
:103610000D9203D099198869002802D02F462146BF
:103620003EE09F550C980A968319587848709E88FA
:103630000998864201D9099E9E80069308910596B5
:103640008E8003200021FCF75BFE264604918E430A
:103650002B4603908343514A184613610B965661DB
:1036600001210E9A9140079B1E6932468A431A61D6
:10367000042F00D980E001960291BA0003A39A5862
:10368000474B07460B990A9E9746C046AF36000047
:10369000F536000029370000A13600004B37000046
:1036A00020360D9A921C0E98401C0E90A8E70598A3
:1036B0000028F5D00124002120460D9AFCF720FEB9
:1036C0000B9A0A430B920B990743344807614161F7
:1036D00000980078022807D10E98C0B20F2803D8AE
:1036E0008440314804421DD10298019A0243079850
:1036F000026117E008998878002807D10A460799DF
:10370000487E9070888A05991161506102200021DD
:103710000D9AFCF7F5FD0B9A0A43114607431F4823
:10372000076142611E4BBBE70398054304980443BD
:103730001A48056144610699C888089AD0800989A9
:10374000118164214143116168E7012000210D9A34
:10375000FCF7D6FD124B0B9A0A430B9207430F4816
:1037600007610B9941610698C088089AD0800D497D
:1037700048430B99106193E7094B07460B990A9E42
:103780008EE7064CA068079D2969884202D000F0A8
:10379000CBFA2869A0600FB0F0BDC04660020010EF
:1037A0005C07001060EA000002F8000070B50C46EB
:1037B00005460D4E30701136002D13D0207831465D
:1037C0001039087020784006000E00F00FF8411CF8
:1037D00000D100203074484248413070641C6D1E96
:1037E000761CE9E770BDC0465C0D001080B5012174
:1037F000FFF7CAF8C0B20C2802D10448007800E0F4
:10380000014800B280BDC046FFFF0000F00100107B
:10381000F8B5009314460D460646069FA048874219
:1038200000D30746FEF7F0FE6E4A978000996429A0
:1038300000D36421D1700784C177611E8C419470DC
:10384000691E8D415570711E8E41167084774577C3
:103850000677107A002809D1507A002806D1507BCB
:10386000002803D1144601F02FF92246D079002810
:1038700001D000F063F8F8BDB0B55A480024848147
:103880004481594D20462146A84701202146A8479A
:1038900003202146A84704202146A84705202146A9
:1038A000A84707202146A847204601F0B5F9B0BD3A
:1038B000B0B50323C20714D1800714D44B48026863
:1038C0000F4C1440651E2046A841002C0CD09C03D0
:1038D000144009D11B0243488088884206D8002141
:1038E00005E0184600E00420C0B2B0BD01211A4036
:1038F000002800D04800002AF6D11046F4E7C04660
:10390000C0FF000080B5FEF77FFE818B354A118035
:10391000C18B5180008C908080BDC04680B500F086
:10392000DDF8410802220A400007C00F10182F4995
:1039300049780906890F00D0001D80BDB0B5FFF79A
:10394000EDFF284C0121E171C2071AD180071AD47A
:1039500021780320244DA84761780420A847A17846
:103960000520A847E07801F057F9607B002801D1D5
:1039700001F0AAF86078002807D0A088002804D0B9
:10398000B0BD2172B0BD6172B0BD1848407800066C
:10399000800FF5D1992040006081B0BD70B5114D08
:1039A00000242C81EC7103200F4E2146B0470420E7
:1039B0002146B04705202146B047204601F02CF9AA
:1039C000E87A012805D16C810720214601F01AF917
:1039D00070BD064840780006800F01D00448688119
:1039E00070BDC0468E0D0010054C00007002001026
:1039F0003202000003480168034A1160002101609F
:103A00007047C046380100103C0E001080B50F48CA
:103A10008078012802D10248406B804780BDC046B3
:103A2000845C000080B5024608461146FDF7CEFFD3
:103A300080BD000010B5054CA078012803D1FEF729
:103A4000E0F8E07000E0E078C0B210BD9202001033
:103A5000B0B598B004460025602D06D02046FDF78D
:103A60008FFD694648512D1DF6E768461821FEF77F
:103A7000DBFD072C0BD081B2002908D00846FDF7EA
:103A8000D2F9064B0CCBFCF727FFFDF749F980B2C2
:103A90000349884200D3084618B0B0BD08000010A2
:103AA000FF0300000C48143000210A46042908D006
:103AB0000378002B01D001238B401A436030491C4E
:103AC000F4E7D0B27047C046602141430248401835
:103AD000406800687047C0465C0300100A480168EF
:103AE00001220A4000684008022101408818074965
:103AF0000A68520804231340C018096849000822C4
:103B00000A4080187047C046FC3F0350FC3F0250FB
:103B1000F0B597B04D4CA0780125294681406078DA
:103B200080004B4E3058EA0383588B43835007A8DC
:103B300040210191FCF717FE01F0A2FF60788000A0
:103B40003158A07800220292424F434B434C664EBC
:103B500004952A468240C819194603681A4203D1BF
:103B6000641C491EF9D152E001F08AFF0220039043
:103B700030603B487061049A32603068C007FCD105
:103B800007A80299435C0021082925D005910693D6
:103B90002E49487880002E4A1058C7598D7801F078
:103BA0006FFF049A039830602E4870613260EF40D6
:103BB000F80704D00020274F069B059904E0104623
:103BC00005998840234F069B03433068C007FCD10A
:103BD0007F200340491CD7E707A8029943541B499B
:103BE0008878824049788900194B5958CB191D684B
:103BF0002A4202D0641CFAD30BE0029A521C0292B1
:103C0000402A049D144B154CA3D1019C03E0029C57
:103C100001E00298441C01F033FF0027FD4307A890
:103C2000007800280FD0E4B2601CFCF707FB0646C2
:103C300006488660002E06D007A930462246FCF7CB
:103C400033FD37553D46284617B0F0BD240E001011
:103C5000145D0000FC3F0000A08601006079FEFFBB
:103C6000D104000041030000FEB502A900274F70F7
:103C700024220A704500022628463246FEF79AFEA4
:103C8000F9430C282ED10191174C26607D20C000ED
:103C90006061012020602068C007FCD10621284611
:103CA000FEF772FE0828F0D0104D28786978AA78BF
:103CB00001F016F8002814D028786978000240181E
:103CC0000B4CE080E87829796A7901F009F800283E
:103CD000019907D0E878297900024018A080394678
:103CE00000E001990846FEBD04800140F00100108B
:103CF000300E001010B50A4C3A2060612046143096
:103D000021462C31074A9047E06A002801D0012063
:103D100010BD234630330FCB241D0FC4002010BD2F
:103D200020020010F11FFF1FB0B549208200104C87
:103D300010492046FCF734FAFDF79AFD00BF00BF9A
:103D400000BF00BF00BF72B60F20C5022846FDF7B6
:103D500075FC00BF28462146FDF706FE62B6FEF759
:103D60002BFA00BF00BF00BF00BF00BFB0BDC04600
:103D70005C0B001010000010F0B58FB007910646E4
:103D8000FEF7BCFC0446FEF723FC0690FEF774FC2D
:103D9000002E0594049049D00546FEF741FE2C20E4
:103DA000624F3D542820294600253D542620395491
:103DB00032203E54F87F3021785438217854A0784E
:103DC00034217854E0783C21785420793E2178548D
:103DD0000620FFF73DFE442178523F220D24BC54BB
:103DE0007B6D18460D30B8653046293809280A928F
:103DF00000D891E0012E00D18EE1062E0ED0702E5B
:103E000000D1F7E1202E00D16CE2222E00D17CE21D
:103E1000602E00D1B1E2152E0A9A0CD1B87C5873ED
:103E20002320385C98730F2400F010FC3F203F499A
:103E30000C5C3E48436DA01C24273C4DE85518708F
:103E4000287958702620285C98702820285CD87023
:103E50002C20285C18713020285C58713220285C96
:103E60009871287AA979002902D0002818D106E093
:103E70000499884203D0002801D0FF2810D13420B3
:103E8000285CD8713820285C18723C20285C587255
:103E90003E20285C98724420285A1873000AD87271
:103EA000E6B21846314608941C46FEF725FA3F2E26
:103EB00005D8A0550899491C3F22A95401E03F218B
:103EC000695CCAB23F2A04D8000AA054481C3F21AA
:103ED000685401F0D5FD079802280BD1002614A4E0
:103EE000E85D864213D2686D815D2046FCF718FAC2
:103EF000761CF5E705984078012804D1E95D686DE6
:103F00000D4A926A90470698FFF780FD02E00A206A
:103F1000FCF772FB0FB0F0BD784400794000874495
:103F20000E0D0D0D0D0D0D3F4D7FC046980200107A
:103F30002530325800000000845C00007BE7FEF76B
:103F4000EBFB0A9A0446B85C05463F2806D8786D14
:103F500021782B4641556B1C1D46BB54A068002898
:103F600000D169E3FCF77EFB796DEAB23F2A05D800
:103F70002B4688546B1C0A9A1D46BB54C0B20022C3
:103F8000904200D157E3EBB23F2B07D82E46A568ED
:103F9000AD5CCD54761C0A9B3546FE54521CEFE7AF
:103FA0000EAC20461546FEF7AFFB7A5D796D1546DF
:103FB0003F2A01D900F05AFC00F050FC1446FEF7ED
:103FC00023FB06463C5D786D099000232246089647
:103FD0001146102BD2B260D03F2A01D90A461DE00B
:103FE000F5186D88099885544D1C0A9C3D55402450
:103FF0003F2A12D0089EF658360AEDB24655089E62
:104000008D1C0A983D543D2A224607D8F258EDB23D
:1040100009984255CC1C0A997C5422461B1DD7E7AF
:104020001446FEF763FB09903C5D7B6D3F2C05D881
:10403000099802781A55641C0A997C540393214606
:1040400023461A46099803789D4263D2D4B23F2C86
:1040500001D913461FE00998401908904678039843
:104060000655561C0A997E5440233F2C12D0089FB7
:104070007F7CF6B28755FD4F961C7E543D2C194629
:1040800009D821240898035DF4B203980355D31C82
:104090000A997B5419466D1CD3E7402A00D3C8E621
:1040A000737D3846099FBB544B1C35460A9E835589
:1040B00040243F2A2CD02D7DDBB2FD548B1C835530
:1040C0003D2A25D8089DED7DDBB2FD54CB1C8355E0
:1040D0003D2A1DD0089D2D7EDBB2FD540B1D83555E
:1040E0003B2A15D8089D6D7EDBB2FD544B1D8355D0
:1040F0003B2A0DD0089DAD7EDBB2FD548B1D835550
:10410000392A05D8089AD47EDAB2BC54CC1D84551D
:104110003B4690E60C468CE61446FEF7EFFA01901B
:10412000FEF710FB0390FEF753FA0290395D786DAD
:1041300009903F290C4621D8CD4AD3780998435499
:104140004B1CCA4E0A9FF35540243F2916D0558870
:10415000DBB2C5548B1CF3553D290FD8DBB2156873
:104160002D0AC554CB1CF3553D2907D01268DBB28C
:104170000998C2540C1DBD490A9A8C54002223464A
:104180000A9F1946102A00D11BE1CBB23F2B01D95F
:104190000B4615E003988518EE780998C6544E1C16
:1041A000B24CE65540243F2B09D008946D88F6B2F6
:1041B00085558D1CAD48C5553D2B03D9089C23461C
:1041C000121DDEE703988658360AEDB20998465567
:1041D000CD1CA64E0A9C35553D2B089C2346EFD09E
:1041E00003988358EDB2099843550C1D9F490A9BCB
:1041F000CC54E4E7FEF77EFA3D4604460020FFF784
:1042000027FC0646FFF78AFB0A9FE95D6B6D3F2995
:1042100000D9F8E2039458544A1CEA5540243F2937
:1042200000D108E60894D2B20993330A099CA3543A
:10423000099B8A1CEA553D2900D95FE2D2B29E54FF
:10424000CA1CEA553D2900D158E2039B1B78D2B223
:10425000099CA354099B0A1DEA553B2900D94DE24C
:10426000039B5B78D2B2099CA354099B4A1DEA5573
:104270003B2900D142E2039B9B78D2B2099CA35414
:10428000099B8A1DEA55392900D937E2039BDB785F
:10429000D2B2099CA354099BCA1DEA55392900D101
:1042A0002CE2039B5B79D2B2099CA354099B0A467A
:1042B0000832EA55372900D920E2039B1B79D2B294
:1042C000099CA354099B0931E9553F2A089C00D158
:1042D000B1E53146FFF7ECFAE95D6B6D58544C1CC3
:1042E000EC55A8E5FFF7DEFB0390FFF7F7FB09901D
:1042F000386D057800260BAF062E73D0F0B2FFF7AD
:10430000A7FB3880BF1C761CF6E7FEF709FA0A9D6A
:104310007C5D7B6D3F2C00D98DE5417A1955621C7F
:104320007A5540213F2C00D16DE21E46837AD2B2ED
:10433000B354A21C7A553D2C00D963E2C379D2B2A2
:10434000B354E21C7A553D2C00D15BE28379D2B2A2
:10435000B354221D7A553B2C00D953E24379D2B293
:10436000B3543346621D7A553B2C00D14BE20079A1
:10437000D1B25854A41D7C555DE500263046FEF7A9
:1043800073F93C4607460120FDF7CEFF0290304608
:10439000FEF74AF80A98215C606D3D463F290C46BD
:1043A0000990039700D9AFE1EA7842544A1C2B46A2
:1043B0002E4D0A982A5440243F2900D04CE11D4636
:1043C000A2E100222B4B294F0998042ACDB253D0E9
:1043D0003F2D05D89E5C46554C1C0A997C542146BD
:1043E000521CF2E70026214F042E61D02846F040EF
:1043F000C00738D0F0B2FDF797FF0A99795C3F29E2
:1044000031D87A6D438A53544B1C0A9C3B553F2943
:1044100029D007693F0AD754144F8B1C0A9C3B557F
:104420003D2920D80769D754104FCB1C0A9C3B5517
:104430003D2918D047687F88D7540C4F0B1D0A9C24
:104440003B553B290FD847683F683F0AD754074F71
:104450004B1D0A9C3B553B2905D040680068D05451
:10446000881D0A997854761CBEE7C0469802001051
:1044700078020010CD5B0000402D00D3D9E4F64A4D
:104480001268099E72554A1C0A9BFA5440243F2D1B
:104490000CD0D2B20298B054881CF8543D2D05D8E7
:1044A000019A1278C0B23254CC1CFC543346C2E498
:1044B0000A9C385D402800D3BAE0796DF54AD3797B
:1044C0000B54431C3B55402508953F2800D1C0E0C4
:1044D0009579DBB2CD54831C3B553D2800D9B8E01B
:1044E0005579DBB2CD54C31C3B553D2800D1B0E01B
:1044F0001579DBB2CD54031D3B553B2800D9A8E00C
:10450000D578DBB2CD54431D3B553B2800D1A0E00C
:104510009578DBB2CD54831D3B55392800D998E0FE
:104520005578DBB2CD54C31D3B55392800D190E0FE
:104530001278DBB2CA54024608323A55372800D9FD
:1045400087E0D2B20BAB1B889D088D54024609321E
:104550003A5537287DD09D010BAB5B889E05B60E82
:104560007519D2B28D5402460A323A55352870D8A0
:104570001D010BAB9B889E05360F7519D2B28D5469
:1045800005460B35C24A0A9C1555352861D09B005B
:104590000BAAD2889605B60FF318EDB24B55034619
:1045A0000C33BB4D0A9C2B55332852D8DBB2CA546E
:1045B00002460D32B64B0A9C1A55332849D0D3B265
:1045C0000BAA12899508CD5403460E33B04D0A9CB0
:1045D0002B5531283DD895010BAA52899605B60E68
:1045E0007519DBB2CD5403460F33A94D0A9C2B55E8
:1045F00031282ED0DBB21201CA5402461032A44B2D
:104600000A9C1A552F2824D8D2B2099B8B540246F3
:1046100011329F4B0A9C1A552F28089C01D1FFF795
:1046200008FCD2B2039B8B54123099490A9A8854E1
:104630000446FFF7FEFB0A9A2C46E8B23F2801D950
:10464000FFF7F7FB7B6D00211954641CBC54FFF786
:10465000F2FB089CFFF7EDFB019708949B78D2B220
:10466000099CA3548A1C2A543D294AD8029F7B8A5C
:10467000D2B2099CA354CA1C2A543D2941D0D2B2BB
:104680003B691B0A099CA3540A1D2A543B2938D8AC
:104690003B69D2B2099CA3544A1D2A543B2930D00D
:1046A0007B685B88D2B2099CA3548A1D2A5439299D
:1046B00027D8D2B27B681B681B0A099CA354CA1D69
:1046C0002A5439291DD07B681B68D2B2099CA35497
:1046D000099B0A4608322A54372912D81846039DE6
:1046E0002B78D2B283540A46093269480A9BC254D5
:1046F000372900D08AE0089C019F05E0089CFFF75D
:104700009AFB089C019F039D0C3722461146AA790B
:104710009642CAB22ED23F2A03D90A46BF1D761C42
:10472000F4E73B1F1B78099DAB544B1C584C384693
:104730000A9FE35540243F2A03D122460746039DA2
:10474000ECE7029646780896DBB2089EEE54029E8D
:104750008B1C4F4DEB553D2A22460746039DDDD865
:104760003A78DBB20998C254CC1C49480A9944549F
:104770002246D3E7402A464E01D3FFF75AFB454D68
:10478000EB79099883544B1C0A9FF35540243F2A28
:1047900035D0AD79DBB2C5548B1CF3553D2A2ED8EC
:1047A0003C4D6D79DBB2C554CB1CF3553D2A26D068
:1047B000384D2D79DBB2C5540B1DF3553B2A1ED85D
:1047C000344DED78DBB2C5544B1DF3553B2A16D062
:1047D000304DAD78DBB2C5548B1DF355392A0ED858
:1047E0002C4D6D78DBB2C554CB1DF355392A06D05C
:1047F000284A1478DAB284540831F1550C4603463D
:10480000FFF719FB33460C46FFF715FB089C2B7985
:10481000D2B2099883540A460A321D480A9BC254F0
:10482000352900D96EE7039D6B79D2B2099883547C
:104830000A460B3216480A9BC2543529019F00D103
:1048400062E7AB79D2B2099883540C3110480A9AC6
:1048500081540C4658E7C0469C0D001022782C4627
:10486000EBB2CA546C1C0A9A2546BC540EAA1278A4
:104870002C46130601D1FFF7DCFA521EE3B23F2BA0
:10488000F7D80EAB1A70421C04461046E6E7C04645
:104890009802001070020010FEB5524B9878012566
:1048A00029468140587880004F4A1058EC0302593D
:1048B0000A43009402515A6801924C4E82590A43AD
:1048C000825101F0DDF84A4C0220029020604948F4
:1048D000606125602068C007FCD101F0D1F8414932
:1048E00088782A468240497889003F4B59588B592D
:1048F00093438B51029A22603F4A6261256022688D
:10490000D207FCD12A468240885910438851029828
:1049100020603A48606125602068C007FCD100270C
:104920003E46304B072F25D099782846884001997C
:104930000978F940C90708D0597889002A4A51589E
:104940002A4BCA588243CA5008E059788900264A3F
:104950005158264BCA580243CA506E4001F090F895
:10496000029820602548606125602068C007FCD15E
:104970007F1CD6E798782A468240F10707D15978FC
:104980008900194B5958194E8B59934306E05978B1
:104990008900154B5958154E8B5913438B51029B67
:1049A0002360164B636125608E19009BCB18276826
:1049B000FF07FCD1376897433760029E26600F4E91
:1049C00066612560D2432668F607FCD1019F7E1CF4
:1049D0007F78002F0196054E94D11868104018601A
:1049E000FEBDC046240E0010145D0000FC3F000018
:1049F00004800140E02E00008A20000041030000F6
:104A0000F8B500902F490B68012293430B6000BF5B
:104A100000BF00BF00BF1F2313480E685DB2002D0A
:104A20001ED40225AE430E60DEB2009FF740174051
:104A30007E4297023E4000BF00BF00BF00BF046837
:104A4000BC43A419046000BF00BF00BF00BF0C68D6
:104A50002C430C6000BF00BF00BF00BF5B1EDCE743
:104A600016430E60F8BDC046FC3F005010B5084923
:104A70004A780024824209D0042801D9E44305E0A1
:104A8000487040000349085AFEF710FA204610BD4E
:104A900018020010085D000070B516460D46044669
:104AA000FDF7B2FDC07D002808D005480681C5800D
:104AB00004710448016880220A43026070BDC04648
:104AC00084020010FC3F025010B5074CA078414210
:104AD0004141002000F096F8A178481E8141012054
:104AE00000F090F810BDC0468E0D0010F0B5FFB07C
:104AF000FFB083B0FDF788FD00690021454A0B46F1
:104B0000202B0ED00124250201AE75525518002726
:104B1000AF6175180646DE402640AE8020315B1C32
:104B2000EEE701A8FEF75AFD7FB07FB003B0F0BDFD
:104B3000014948807047C0468E02001070B50028B9
:104B400007D001280CD160224A439A4B9A18527E12
:104B500015E060204843F94908180121417570BDEE
:104B6000092202280BD160234B43F44CE31858244C
:104B700000251D551E333C249C879C78DC876023D0
:104B80004B43EE4CE4180123237623750625554349
:104B900065192222AA5CA276AE8C6681ED8C2581F5
:104BA000012805D1442048434C490B540818427150
:104BB00070BDC046F8B50C460C494968C140C907EC
:104BC00000D0F8BD4601134FBD19E078FDF720FD78
:104BD000E8610028F5D02178B955E178E970E168FD
:104BE000406800680818E860F8BDC0466002001020
:104BF00010B5400181235B00064C2352201802812E
:104C0000C18010BD400101221202024B1A52181835
:104C1000818070475C07001080B5002805D00146F0
:104C20000620642906D3012101E006200021FFF7B8
:104C3000E9FF80BD41434B22D200521A92B2FFF7E6
:104C4000D7FF80BDFEB504460578FDF7DDFC029078
:104C5000807E0090A070602001956843F749461857
:104C60003746223700218D1D3C2D09D07818611858
:104C7000091D0622FBF7C8FC00282946F3D00BE0EB
:104C8000F07F6178814207D12020305C0099814219
:104C900002D10020C043FEBD30461E3040222146D6
:104CA000FBF702FD002070764421019A51430B4A24
:104CB0005118087162788A71A378CB71029BDB7EF0
:104CC00033820831231D002AE5D000248C801C7813
:104CD0000C70891D9B1D521EF5E7C0460C06001086
:104CE00010B5C0430023082B08D2440040B200286E
:104CF00001D53120444020465B1CF4E748400021A8
:104D0000082908D2430040B2002801D53120434091
:104D10001846491CF4E7C0B2811A4842484110BD08
:104D2000F8B5002801D0112400E00124002801D0AA
:104D30001EA500E01BA560224243C04B9F18397E90
:104D4000002603290BD00094F44302290ED0012938
:104D500024D1FE75FE7400281AD0032019E09E505D
:104D60003E750120F8740421344617E0FDF75CFB22
:104D70000646401C14D0B87E285C0121FFF742FF94
:104D8000002E0DD001210098FFF73CFF032105E024
:104D90000120FDF73DFC406806600221183739709C
:104DA0002046F8BD0B0C0D0E0F0000001B1C1D1E35
:104DB0001F00000094060010F8B50020284C217850
:104DC00005290ED80090C0467944097949008F44DE
:104DD000020A10161B20234999220A600B22002187
:104DE0001CE0C043F8BD1F4999224A6001210246D8
:104DF00014E01C4999228A6001210A460EE01949F3
:104E00009922CA60022208E016499922CA61032247
:104E100003E0144998220A620422012101231D465D
:104E200095408E00104FBE59DF03F0592843F051D2
:104E3000A27061700D4831582943315098020C49D5
:104E40000A6802430A600B4800680B49FBF78EFCB6
:104E50000A49C860FF200860042048610098F8BD36
:104E6000240E001074400440145D0000FC3F00005C
:104E7000808004400400001040420F000080014088
:104E8000F0B585B00446FDF7BFFB0546204600F0AF
:104E90008FFD2046FDF7C8FA01460026F0434A1C64
:104EA00049D0012947D0602720467843634B1A1820
:104EB000D67411461631507E927D002A15D00E70A0
:104EC0003946614359180122CA7509220A76CA7FF8
:104ED000401C90422BD20622424388182222805C3A
:104EE000002824D1E87E088221E0062343433A4685
:104EF00062430495514DAA18049D0192D2182223B1
:104F0000D35CDAB2531E0393134602900398834195
:104F100002980B70494B002AD2D0082001990876DC
:104F2000E87E088202202146FFF708FE434B6743D4
:104F3000D8194675304605B0F0BDC046940600103D
:104F400009488188002905D0491E81808AB25142D2
:104F5000514100E00121002904D00178012901D14B
:104F6000022101707047C04618020010F8B56B4866
:104F7000006800283AD01E480178491C0170C9B267
:104F8000642933D30021017072B6C0211948415CF5
:104F90006022825C047814400C4009214901435C82
:104FA00023404118496809680646C036726815688A
:104FB000426E12684468246862B68768BC420AD1AF
:104FC000876EBA4207D1B668B54204D12526F600ED
:104FD0008659B1420AD0002B08D0C823C5502523DA
:104FE000DB00C15082668460FEF79EFEF8BDC046BD
:104FF000360100105C03001010B51048817C0029B8
:105000001AD0017D002903D00020FFF789FE0CE0B3
:10501000417D002903D00020FFF732FF05E0C07D6D
:10502000002802D00020FEF79FF800242046FEF75B
:10503000B3F82046FEF708F910BDC04694060010EC
:1050400010B5354CA079002865D0F64800680028D6
:1050500061D0E07A00280ED0A17A002903D0491E41
:10506000A172090607D1401E414241410720FFF7C6
:10507000C9FD0020E072607B00280AD0207B002858
:1050800003D0401E2073000603D1FFF71DFD002052
:105090006073FEF743FC217AC2070CD1002911D0BE
:1050A0000020207299204000A081E079002832D0B1
:1050B000FEF744FC10BD002901D1FEF7DDFB012005
:1050C000207210BD617A800704D4002909D0002025
:1050D0006072E7E7002901D1FEF7CEFB0120607284
:1050E00010BDE079002816D06078002813D0A08881
:1050F000002810D0E07A00280DD109484078000639
:10510000800F08D10020FEF7A3FCA188884202D3BB
:1051100099204000608110BD8E0D00103C0E0010E3
:1051200070020010F0B59FB0BE48006800284BD058
:10513000FDF7A2FA1490FDF74BFA054600F0A0FC2B
:105140004C21B94E705A002802D0401E705200E027
:1051500000204E27F15B002901D0491EF153422166
:10516000725A002A06D0521E7252110402D1212115
:1051700000227254000409D17D20C000FFF7D8FC42
:10518000FDF748FD0028FBD1FDF7F8FD2024305D38
:10519000A64AA84203D110781499884208D0012069
:1051A0001E210022FFF778FC2846FEF72FFC9F4ABD
:1051B000F05B002805D11746FDF7A0FA3A46FF211B
:1051C000C17035551498107000F02AFC054600286F
:1051D0003CD02220944C012121544020FBF72EF892
:1051E0006065002857D0402100F026FC002000F028
:1051F0001DFC02208C4C676D3E782670402E00D935
:10520000E3E0082E00D8E0E01490B01EC1B23846AA
:10521000FDF772F8F1198A1E1278491E09787B7819
:1052200023710902891889B2884200D0CDE04C2050
:105230007F492152B978A171F87820723A792273A6
:105240007A79227400292DD00D212CE02120764C72
:10525000205C002800D0BFE07448007800281ED0F1
:10526000FDF74CFA4078012800D0B5E03F20FCF76C
:1052700095FC1421084200D1AEE0012040210646F1
:10528000FAF7C6FF6065002800D197E04021FCF7DF
:10529000B1FC3046AEE7002000F0C8FB9CE0FDF713
:1052A000DFF899E007217918BA792165A274002DF9
:1052B00002D05E49097808E0FEF7BCFB217C5B4820
:1052C0000078814200D07EE0207AFF2815D0884205
:1052D00013D000280ED1606DC1792175017A217635
:1052E000417A2177817AA177017BC07A0002401848
:1052F00040216052FDF7FAF86BE0A179002901D155
:10530000217BE1770123FF280AD12220215C00299B
:1053100006D04221474A6252212163540021215480
:10532000119342488678257B8570417812912779C0
:1053300047700321052010910E900246FFF7ACFB49
:105340003B48FFF7F5FB2320002113900F912154D8
:10535000701B411E88411299B94200D11190A57C61
:10536000284620386326122838D8400078448088A0
:105370004000874470008600650112001200780129
:105380008201980112039F01750275027502750270
:1053900075027502AC01D201E7010126B002FAF7ED
:1053A0004DFF002800D15AE2074620203946109AC6
:1053B000002846D00A702031401EF9E72020205CEA
:1053C000FEF724FB08E0FDF737FA2020205CFEF70B
:1053D0001DFB606DFAF763FF1FB0F0BD2846703803
:1053E000032815D9012D00D1BAE1612D00D1B9E111
:1053F000622D00D034E2FDF705FA139EA055002877
:1054000000D02FE260201499FEF7B6FC00259FE241
:105410000F9D400078448088400087440D00B4010F
:10542000BB01C6013C0E00109802001000000010E5
:10543000B80B000070170000FDF75CF901218171C5
:10544000AEE1206D41781F2900D928E1232D00D13C
:105450000AE2042209E2206D81784278120255188E
:10546000C61C0027042F00D11DE2F8B2FDF7D0F8CA
:10547000C58271783278120251180183B61C7F1CE4
:10548000F0E71198002800D15CE201200E90800224
:10549000FAF7D4FE1190002800D1E0E1206D01461A
:1054A0000E310D9101460D310C9101460C310B91DD
:1054B00001460B310A9101460A3109910146093131
:1054C0000891014608310791C11D0691811D059182
:1054D000411D0491011D0391C11C02910F90801C7C
:1054E0000190002633460F9842780D255543DBB2D4
:1054F000AB4200D3D0E10199CA5C9209F6B2129690
:105500007501119842554219CD5CAD06ED0F5570ED
:105510000298C55CED08C95CC906890D49199180DE
:10552000C15C4907890F20255155C15C0E98014087
:105530001546203569700498C15C039DED5C2D0211
:10554000691889B289099184C15C8906890F40254F
:10555000515511464031C55C2D07ED0F4D70059E2C
:10556000F55C6D08C05C4007800D40198880069D81
:10557000E85CC009F15CC907890F08186021505424
:1055800010466030E95C4906C90F4170079EF15C26
:105590000909ED5CAD06AD0D69188180F05C00076E
:1055A000800F8021505410468030F15C8907C90F6C
:1055B00041700899C95C4900F55CED07AD0D6918AB
:1055C000099EF55CED0949198180F05C4006800F69
:1055D000A02150541046A030F15CC906C90F41709B
:1055E0000A9FF95C8908F55C129E2D07AD0D6918BC
:1055F0008180F85C10990840C02150541046C0309A
:105600000B9DE95CC90941700C9FF95C4909ED5C8F
:105610006D06AD0D69188180F85CC006800FE02131
:105620005054E032F85C4007C00F50700D98C05CD9
:10563000F95C8907890D081890800D33083652E708
:10564000FDF76EF8216D0A7842724978817208463A
:10565000FEF70AFB002800D1EDE00120139EA055C3
:10566000FDF79CFB73E1216D487815AA1070212885
:1056700000D2B8E00220139E2AE12020FAF7DEFDD6
:10568000002800D1EBE007460E983870216D48786D
:105690001F2804D88A78FA70032A00D847E13846D0
:1056A000FAF7FDFD11E0A06C216D4A7809784254AB
:1056B000062093E0FDF730F80546206D007828704D
:1056C000FFF77AFB002800D1B7E00226C8E0206D82
:1056D00007780226302F00D9C2E038184078FFF74B
:1056E000C5F9002800D0BBE0206D3818C1781191B1
:1056F00080781090AC490868082212921043086024
:105700000126AA4DF0B2B84200D9F6E0216D085C3E
:105710002946FAF7EAFD761CF4E7FCF775FF216DE0
:105720000A78012A71D1002203468D18AE786F786D
:105730000C2A6CD03F043602F619ED78751920C397
:10574000D21CF2E7216D08780226002800D187E0FC
:10575000102800D984E0491CFEF728F83220F2E036
:105760000120F0E0FCF7F4FF139D6055052802D0FE
:10577000002800D09EE060201499FEF7FDFA00207A
:1057800060550546EBE0FCF7B5FF01218171FEF79E
:10579000D5F805E0FCF7AEFF01218171FEF7FEF8B8
:1057A00070201499FEF7E8FA82E0206DC17812911A
:1057B0008178109141780F91057846790779FCF747
:1057C00099FF012181713802801980B2009028462A
:1057D0000F99109A129BFEF71BF870201499FEF790
:1057E000CBFA119D64E08A7815AB5A84CA789A8402
:1057F000091D0022139E90425ED08B5C15ADAD1842
:10580000AB70202B63D2521CF5E700250DE0390266
:1058100089198182E978C17529790176697941769A
:10582000A9798176E979C176119D139E3120149969
:10583000FEF7A2FA8CE0222085E0266D7078401CED
:10584000FAF7FCFC6860002809D0B11C00207278CF
:1058500090423FD20A5C6B681A54401CF7E7072657
:1058600013982654002576E002220F9D49017A54B0
:1058700079184E70C27883781B029A18CA804279D0
:1058800000790002801808813846FDF7A7FE3846E7
:10589000FAF705FD202084E7119D2846FDF79EFEBE
:1058A0002846FAF7FCFC20201499FEF765FA00253B
:1058B000139E4DE000254CE015A800214170FCF737
:1058C0009FFC00280F9D53D00220A05540E00220ED
:1058D000A0553CE0696800270F54FEF7DDFFFEF796
:1058E00017F9401C46D029201499FEF745FAA868FC
:1058F000FAF7D5FCAF60139E3FE02B4F3868129942
:1059000088433860109800021199401800F08EF812
:1059100000F0B6F8FCF708FF0028FBDC401C139EE3
:105920000F9D30D030201499FEF726FA2DE00A7929
:10593000C97809028918F9603946FFF73BF93846FA
:10594000FAF7ADFC20201499FEF716FA139E0F9D6E
:10595000A05D002803D015201499FEF70DFA606DA4
:10596000FAF79DFC002D00D136E5FEF7DDF933E5B1
:1059700020205CE70120139EA0556868FAF78FFC91
:105980006F603D46E4E70620A0550A2000F04EF87F
:105990003868129908433860DAE706201499FEF750
:1059A000EBF9FCF719FCC046FC3F0350580300100C
:1059B00070B50446002801D01B2000E00B20002514
:1059C000154E2946B047002C01D01C2000E00C20C9
:1059D0002946B047002C01D01D2000E00D202946AB
:1059E000B047002C01D01E2000E00E202946B04711
:1059F000002C01D01F2000E00F202946B047002CCA
:105A000001D0112000E001202946B0474420604326
:105A100002490D5470BDC046054C00000C06001034
:105A200015480078811E48424841704712490022BB
:105A30008A700A7088807047FEB50191054600267D
:105A40000E4F3046C4B20C488078401E844211DAB2
:105A5000019886420ED2395D02A801703919497841
:105A6000417000211022FAF78FFD2870761CA01CCF
:105A70006D1CE7E7FEBDC04618020010A00D001027
:105A80000248AA210160552101607047084000408A
:105A900080B5FCF7D9FA80BD80B5024608461146AC
:105AA000FBF7B6FF80BDF0B4040C8BB2264682B281
:105AB0005E43104658430D0C370C36040021801904
:105AC000164679416E43370C3604801926467941D3
:105AD0006E438919F0BC704730380A2801D2012082
