:020000040000FA
:10000000481A0010D9010000E1010000E3010000DE
:1000100000000000000000000000000000000000E0
:10002000000000000000000000000000E5010000EA
:100030000000000000000000E70100004D2000006B
:10004000EB010000EB010000EB010000EB01000000
:10005000EB010000EB010000EB010000EB010000F0
:10006000EB010000EB010000EB010000EB010000E0
:10007000EB010000EB010000EB0100009517000010
:10008000012100002D210000EB010000EB01000028
:10009000EB0100005D210000EB010000EB0100001E
:1000A000C5150000EB010000EB010000EB010000B2
:1000B00009190000A1180000EB010000EB0100008D
:1000C00000F002F800F05DF812A030C808382418DB
:1000D0002D18AC4201D100F054F80FCCA246AB462B
:1000E0000CA730CF2D1B083F3F197C427F1E544484
:1000F0002D090426F441641EAC4201D300F041F8FE
:100100000126334200D0FB1A3343984754465D46DC
:10011000DFE700008C5B0000AC5B00007047000074
:100120000023002400250026103A01D378C1FBD813
:10013000520700D330C100D50B60704710B5642959
:1001400002D100F023F910BD752902D100F01EF98B
:1001500010BD782902D100F04FF910BD002010BD6C
:100160001FB50098019900F0ACFF01F0B5F804004C
:100170000020002105F076FC401C60601FBD10B51A
:1001800010BD01F0F4F81146FFF7EAFF02F0A8FFF6
:1001900001F00CF903B4FFF7F2FF03BC02F022F800
:1001A00070B505460C46164602E00FCC0FC5103E52
:1001B000102EFAD2082E02D303CC03C5083E042E1B
:1001C00007D301CC01C5361F03E021782970641CD8
:1001D0006D1C761EF9D270BD07488047074800475E
:1001E000FEE7FEE7FEE7FEE7FEE7FEE70448054917
:1001F000054A064B70470000A1200000C100000026
:10020000480E0010481A001048140010481400103E
:1002100070B505F006FC00230A46DB4300211B1ADB
:10022000914101D2002070BD044600F007F805009E
:1002300002D0214600F095FA284670BD70B50646FA
:1002400000F020FF056830460B30C408E400B442DB
:1002500001D8002070BD68682A46002818D00168BF
:10026000A14211D30B46214608318B4208D3436883
:1002700001194B6003681B1B0B605160046001E0B7
:1002800041685160001D70BD024640680028E6D1FB
:100290002146284600F000FF0028DCD170BD70B573
:1002A0000446051F00F0EEFE0068002C1AD04468DA
:1002B00001E020466468002C01D0AC42F9D301680B
:1002C0000A18AA4204D12A6805468918016000E08C
:1002D000456028684119A14205D1616869602168BB
:1002E0004018286070BD6C6070BD10B502F060F9F8
:1002F00010BD70477047704770477047FFFFFFFFA2
:1003000010B5202A04DB0146203A9140002010BDA0
:10031000914020239C1A0346E3401943904010BDAE
:100320000FB4054910B503AA029800F055FF10BCA0
:1003300008BC04B0184700005C03001070B5044608
:1003400085690068C10601D5302600E02026C00777
:1003500007D070BD62683046A1689047206A401C93
:1003600020626D1EF6D570BD70B5044685690078B3
:10037000C00707D170BD6268A16820209047206A3D
:10038000401C20626D1EF6D570BD0000F7B500253B
:1003900075291068009914A611D0C046C0460028DF
:1003A00002DA404211A608E0009909688A0701D5DF
:1003B0000FA602E0490704D50EA6012501E0C046BC
:1003C000C046009F0024243704E000F06CFF303169
:1003D0003955641C0028F8D12B4632462146009836
:1003E00000F0A2FEFEBD0000000000002D00000095
:1003F0002B0000002000000070B504460D46214689
:100400001068C046C0462188090502D50F4A7A44C3
:1004100002E00E4A7A440E3223460021243305E0DE
:1004200006070009360F965D5E54491C0028F7D177
:1004300020780023000705D5702D03D0002901D0B6
:1004400002231132204600F06FFE70BD7E56000080
:10045000F3B50446002081B020622046E168884759
:1004600000287DD0252802D06268A16883E0454F2E
:1004700000257F442046E16888472028064608DB9F
:10048000312E06D2B81920380078002801D0054353
:10049000F0E7A80701D5042085430020E061074666
:1004A000A0612A2E0AD0304605F0D4FA002827D0C1
:1004B000B8000019303E0090866119E00298BA0039
:1004C000121902C8916102902046E1688847012F05
:1004D000064617D1E06900281FDA202085431CE07A
:1004E00000980A2180694843009980193038886152
:1004F0002046E1688847064605F0ACFA0028EFD1AF
:10050000012F0AD02E2E08D12046E16888470646E2
:10051000202005437F1C022FC3DBA069002803DADB
:100520004042A06101200543E80701D01020854327
:10053000002E24D030464138192803D80120C002AB
:1005400005432036204625603146029A1546FFF7BE
:10055000F5FD00280CD0012807D0ED1DE80800E0CB
:100560000DE0C0000830029077E72D1D029574E77A
:1005700062683046A1689047206A401C6CE7206A98
:10058000FEBD000042560000F7B50F460026009C55
:100590002578641C002D05D000F06CFD0068405DDE
:1005A000C007F5D12B2D02D02D2D18D0641E394651
:1005B000029A204600F024FE002F04D03968A142A0
:1005C00001D1009939607105022400290BDA4042FB
:1005D000002803DD00F05AFD0460A007FEBD0120E5
:1005E00080020643E3E70028F8DA00F04FFD0460DC
:1005F0000048FEBDFFFFFF7F10B5024901F0D8FFA4
:1006000010BD00005C030010034610B50B439B07B0
:100610000FD1042A0DD308C810C9121FA342F8D065
:1006200018BA21BA884201D9012010BD0020C04368
:1006300010BD002A03D0D30703D0521C07E00020CE
:1006400010BD03780C78401C491C1B1B07D1037894
:100650000C78401C491C1B1B01D1921EF1D118467D
:1006600010BD000030B5441C03E00178401C002997
:100670000DD08107F9D10B4BDD0104C8D11A91438C
:100680002940FAD0001B0A0603D0C01E30BD001B53
:1006900030BD0A0401D0801E30BD0902FCD0401ECE
:1006A00030BD000001010101F8B5042A2CD38307F5
:1006B00012D00B78491C0370401C521E83070BD0CC
:1006C0000B78491C0370401C521E830704D00B7822
:1006D000491C0370401C521E8B079B0F05D0C91A82
:1006E000DF002023DE1B08C90AE0FFF759FDF8BD33
:1006F0001D4608C9FD401C46B4402C4310C0121FC3
:10070000042AF5D2F308C91A521EF0D40B78491CFA
:100710000370401C521EEAD40B78491C0370401C25
:10072000012AE4D409780170F8BD01E004C0091F72
:100730000429FBD28B0701D50280801CC90700D099
:100740000270704700290BD0C30702D00270401C12
:10075000491E022904D3830702D50280801C891E0A
:10076000E3E70022EEE70022DFE7000000220309B2
:100770008B422CD3030A8B4211D300239C464EE0BC
:1007800003460B433CD4002243088B4231D3030978
:100790008B421CD3030A8B4201D394463FE0C3092A
:1007A0008B4201D3CB01C01A524183098B4201D342
:1007B0008B01C01A524143098B4201D34B01C01A2D
:1007C000524103098B4201D30B01C01A5241C308A5
:1007D0008B4201D3CB00C01A524183088B4201D314
:1007E0008B00C01A524143088B4201D34B00C01A00
:1007F0005241411A00D201465241104670475DE015
:10080000CA0F00D04942031000D3404253409C46D7
:10081000002203098B422DD3030A8B4212D3890194
:10082000FC2212BA030A8B420CD3890192118B422B
:1008300008D3890192118B4204D389013AD09211D5
:1008400000E08909C3098B4201D3CB01C01A524190
:1008500083098B4201D38B01C01A524143098B4259
:1008600001D34B01C01A524103098B4201D30B0142
:10087000C01A5241C3088B4201D3CB00C01A524167
:1008800083088B4201D38B00C01A5241D9D243084E
:100890008B4201D34B00C01A5241411A00D201468B
:1008A0005241104663465B1001D34042002B00D5F5
:1008B0004942704763465B1000D3404201B5054989
:1008C000002802DC491C084000E00846C046C0463B
:1008D00002BD00BFFFFFFF7FF0B5F94D0C091E09F7
:1008E0002C402E402F468BB0A7437DD0B543FCD083
:1008F000002E7AD0002CFCD00D465D40ED0F254334
:10090000AC1BFF25AD0464190894C502440DC9024F
:100910002143500DDC0204430120C007014304437E
:10092000D2020191200C110C00958C460104234643
:100930008B430A9161460904E24D8A430991010AF9
:100940007D4449198039097805464D4301266D18C3
:10095000F605751B6943C90C640B891C4C4364186C
:10096000B5012C1B250C2E04B4434C434D43210CE4
:10097000691889090591009DE90701D00121C9077E
:1009800004912C4601996708CD072F434C08059D1B
:10099000E10B4D432D0C29466646754302950D46E5
:1009A00045432E46029D7D1BB44100950D465D4397
:1009B00001942C0C2F040D465543AE462D0C3D439F
:1009C000029503947546049C2D04641B049406D27E
:1009D000029C039D641C002675410395029401ACA2
:1009E00070CC009F7D1B01E03EE162E1B44109044F
:1009F0000095079101940599A4086143090C0C46E0
:100A00004443650BE7040C4666467443A646640BF4
:100A10003C43039502947446049DE4042C1B049407
:100A200006D2029C039D641C002675410395029426
:100A300001AC70CC009F7D1BB44101940C465C431B
:100A40000095650FE7000C465443A646640F3C43EF
:100A5000039502947446049DE4002C1B049406D272
:100A6000029C039D641C002675410395029401AC11
:100A700070CC009F7D1BB441AE09AF06049DC90038
:100A8000AD092F43049DA406AD060495079D34438C
:100A900069180791059DE10B4D432D0C29466646CB
:100AA000754302950D4645432E46029D7D1BB4417C
:100AB00000950D465D4301942C0C2F040D465543C3
:100AC000AE462D0C3D43029503947546049C2D04BF
:100AD000641B049406D2029C039D641C002675418D
:100AE0000395029401AC70CC009F7D1BB44101942E
:100AF0008C050694079C890A611800950791019C52
:100B00000599A4086143090C0D464543680BEF04A1
:100B10000D46644665436C0B3C43049FED047D1B0E
:100B2000AC4602D20025641C6841009E019D371B23
:100B300085410846584301950C46460FC50054436D
:100B4000600F28436546E4002C1B02D20025401CA0
:100B50006E41019D3F1AB5412846BD0980062843D4
:100B60008446A009BF064E020699A40676180743DC
:100B7000079D002068410A99079019430020099BAE
:100B800000906046FF1913434041E20F64003A436E
:100B9000A4460446D71A8C41A04203D901200090F4
:100BA00020463A46C70F941840416246D20F22436E
:100BB000644664000494009CBE466400D71AA446B0
:100BC000044602978C417746002F01D1A04204D9F8
:100BD0006046401C8446029A2046C40FA6469418DC
:100BE0004041049A0546D20F224364466400D31A5A
:100BF0008D417146002901D1A84202D928461A46E2
:100C0000641C10430122002800D01643610200201A
:100C1000079B891904465C410223002C02DB49181A
:100C200013466441089DCE0A2D145D194B056705D6
:100C3000E10A2C050D1908993E43C9076940002BAC
:100C400008D0934006D30022761C5141002B01D1DD
:100C5000760876001C4A002D43DB154241D0AA439A
:100C60003FD030460BB0F0BD06180D464D41174C35
:100C70007642AC411AD395181C465C41134A6D422A
:100C8000A24113D3012252054C00D4420AD15C0088
:100C9000D4420BD04B4002D592021143E2E7490007
:100CA0004908DFE75940C90FC90718E00020084983
:100CB000D8E7054801420DD10342F7D0F2E7000022
:100CC0000000FF07855100000000F07F0000E0FFFA
:100CD0000000F87F114859400143C01241400020F4
:100CE000C0E70123089A9B069A4205DC03225207BB
:100CF0008918C90FC907B5E7052252078918074A9D
:100D00001143D2125140ADE770B515461C4602465C
:100D10000B4628462146FFF7DFFD70BDFFFFFF7F32
:100D200030B50346CA02400D1043164D164C0A1545
:100D300002D02043002A06DBAA1A002A12DDD04086
:100D4000FF2A0BDC30BD5205520D01D14000400896
:100D5000AA1A07D4D0404042FF2A01DD002030BD4E
:100D60000028FCDD4A00002B01D0012000E000201B
:100D7000101801225205D042F0D8C817C043604075
:100D800030BD00001E040000000000800346CA02BF
:100D9000400D10B510430A1504D00124E407204388
:100DA000002A05DB0A4CA21A04D4D040FF2A00DD39
:100DB000002010BD4A00002B01D0012000E00020DF
:100DC000101801225205D042F2D8C817C04310BDF6
:100DD0001E0400001F22030C02D10F22000402D0C7
:100DE000030E03D004E00020014670470002083AD9
:100DF000030F01D10001121F830F01D18000921E49
:100E0000002801DB4000521E120551184205C01295
:100E1000411810467047C10FC90700D04042012257
:100E200092071143D6E701218907D3E7F0B58B4C30
:100E30000F09254689B0BD437BD01D092646AE4328
:100E4000FAD00E465E402740F60F3E43254071D053
:100E500024012142FBD0FF24AD19A4042D1B0395CE
:100E600001252D05DB02DB0AC9022B43C90A2943F0
:100E70001E010901040F130F050121431701880BFF
:100E8000820391432D098C46A90B1E438A03954387
:100E9000B30B9A0396433F09BA0B9403A7430296F8
:100EA0002E467E430497B6464E19D7190C46019636
:100EB000544305977E43371B7646BF1B3601B64623
:100EC000BE0B361900967646BC043719009C01D338
:100ED000641C00946400002F01D001263443029E5C
:100EE000049F754366467E430496760034196E006F
:100EF00034190094029C019E1C196643751BAE4672
:100F0000069465464519059C05956C4359437546FD
:100F10000891691A0191049E01465143A41B049152
:100F2000611A009C0791E10605D061090122114375
:100F300002E072E06EE06109089D00272C0A2D0690
:100F40006918049D7C412A0A2D066918019D624199
:100F5000AC0DAD026D185441079A910D92025519CE
:100F60006141029A644658435443069B059A5A438A
:100F7000121A131B9A0E9B015B187A41010B000594
:100F8000C3185141220A200644195A419A4200D2FC
:100F9000491C01204002814203D315230226F64357
:100FA00002E014230326F6432020C51AA940174661
:100FB000AF40DA400A4320460399D8400914731819
:100FC00019055118039A3843D2075140AC4009D053
:100FD0000122944006D30022401C5141002C01D133
:100FE000400840001E4A934212D301220398920601
:100FF000904207DB0520400709181A480143C01238
:10100000414004E0032040070818C10FC907002031
:1010100009B0F0BD0020F107FAE705180C464C4175
:1010200011486D42A04115D394181A465A410E48F2
:10103000644290410ED301204A004005824209D308
:101040005A00824206D35940C90F084AC9070020F6
:101050001143DDE700200649DAE700000000FF0742
:10106000FE070000FFFFFF7F0000E0FF0000F07FB1
:101070000000F87F10B500F02FF9001D10BD00BF73
:10108000E5490000004870474801001000487047DB
:10109000400100107047704738B504460A460020EA
:1010A0006946C046C046002805D002462046009941
:1010B00000F016F9012038BD10B5012000F051F9FB
:1010C00010BDF8B5C046C046054600200C460C20B1
:1010D000C0460646A819A0420DD9324669460020EE
:1010E000C046C046070001D100F03BF90098A0427D
:1010F00000D00546C419FFF7C5FFF61D0746056079
:10110000F008C0004619284600F008F8B44204D0A0
:1011100031463868A21B00F0E3F8F8BD00210160F9
:10112000416070470C207047FFB504460D4681B002
:10113000243000902168880604D51022E06991438C
:10114000216000E00120A84201DD471B00E00027EC
:101150000498A1697A191018081AA0612078C006AD
:1011600002D42046FFF7EAF8002608E003986268F8
:10117000A168805D9047206A401C761C206204981C
:101180008642F3DB2078C0060AD52046FFF7D6F862
:1011900006E06268A16830209047206A401C206207
:1011A00038467F1E0028F4DC07E000986268A168DA
:1011B000405D9047206A401C206228466D1E002832
:1011C000F3DC2046FFF7D0F82078000602D5022095
:1011D00005B0F0BD0120FBE7084B70B50D467B4420
:1011E00000F09DF80446284601F061F9002802D07D
:1011F0000020C04370BD204670BD0000CF1300002A
:10120000F7B5154682B00027029C2078641C019730
:10121000302802D0002D15D015E020780127641C5D
:10122000782804D0582802D0002D09D00BE0002DDA
:1012300001D0102D07D1207800271025641C02E072
:10124000082500E00A250026009610E000990127F5
:101250006943081829467143020C80B200908E1829
:101260003804864201D3012001902078641C29466D
:1012700000F068F80028E9DA0398002805D0002F6C
:1012800001D0641E00E0029C04600198002806D092
:10129000FFF7FCFE02210160C81E05B0F0BD0099F9
:1012A00030040843F9E701468008081A02091018BB
:1012B000020A1018020C1018C008820012185200FE
:1012C000891A01E0401C0A390A29FBD27047000044
:1012D000004870474001001000487047600100104E
:1012E00010B50346406801E003464068002801D07D
:1012F0008842F9D31868C3188B4206D0CB1CD80893
:10130000C000001D411A521A0146081D0A60FEF76E
:10131000C6FF10BD01694A1C02610878704700B51C
:101320008FB0029100210591054901937944039101
:10133000114604906846FFF78BF80FB000BD00001F
:10134000E5FFFFFF3A2800D23038202302469A43B7
:10135000412A01D310463738884201D30020C043C8
:10136000704710B500F030F800F028F810BD754651
:10137000FFF7AEFFAE46050069465346C008C00001
:10138000854618B020B5FEF731FF60BCB646002692
:101390000027C0C5C0C5C0C5C0C5C0C5C0C5C0C583
:1013A000C0C5403D490849008D46704710B5044608
:1013B000C046C0462046FEF7EDFE10BD10B5002821
:1013C00001D000F00FFF10BD10B5012805D000219D
:1013D00003A000F065F8012010BD09A1F8E70000A6
:1013E00053494752544D454D3A204F7574206F660E
:1013F0002068656170206D656D6F72790000000076
:101400003A2048656170206D656D6F727920636F59
:101410007272757074656400024670B50A43920773
:101420002AD11E4DEE0104C808C9541B9443344010
:1014300017D0D0B2D9B2401A2106014310D190B2D0
:1014400099B2401A210401430AD110021902000A7C
:10145000090A401A2102014302D1100E190E401A46
:1014600070BD9A42DFD010BA19BA884201D9012062
:1014700070BD0020C04370BD02780B78401C491C31
:10148000002A09D09A4207D102780B78401C491CE7
:10149000002A01D09A42EFD0D01A70BD010101019B
:1014A00070B505460C460A2000E06D1C00F09BFE5E
:1014B000002D06D028780028F7D102E0641C00F047
:1014C00092FE002C02D020780028F7D10A2000F0EC
:1014D0008AFE70BD30B58C180278401C13071B0FB4
:1014E00001D10378401C120906D10278401C03E0A8
:1014F0000578401C0D70491C5B1EF9D101E00B7092
:10150000491C521EFBD1A142E6D3002030BD000091
:10151000B0B51648016810229143016001204203D2
:1015200013498B6813438B600022434B202A04D05D
:101530009C180025A560121DF8E70E4A022393604F
:10154000D36013615361536290621060D0620A48A5
:1015500000680968FFF70AF90849FFF707F9000270
:10156000FF21C943401833490860B0BD38820440A8
:10157000788004406C40044004000010009F240068
:1015800010B52C490A68FF239A430A60072800D93E
:1015900000200122130682400C6814431C430C6097
:1015A00082000B461033D0580028FCD507221206C3
:1015B0000B6893430B60410001D5002010BD00046F
:1015C000800D10BDB0B51B48016B0A04120E12D07D
:1015D000194A53685B1C5360024610320023082BE3
:1015E0001ED0090AD940C90701D0116800E00021C6
:1015F000121D5B1CF3E7CA031AD50F4A08320346D3
:1016000010330024082C0BD00D46E540ED0703D025
:101610001D682D04AD0D1560121D1B1D641CF1E726
:101620000721090602688A4302600348012101601C
:10163000B0BDC04600C0014024020010F8B5E24E23
:1016400032217161010C01D1070B01E0C70B0E378C
:10165000B761F7613446143435462835DB4A2046F5
:1016600029469047B06A002801D00120F8BDD7492B
:1016700034207061B761F7613078002800D0D44819
:101680000A463062204629469047B06A411E88418A
:10169000F8BDC04610B50021074AA82908D0535804
:1016A000984203D353189C68A04202D30831F4E750
:1016B000FEE7187910BDC046505B0000F8B56D4CD0
:1016C0000020A06060600120850720262E60062093
:1016D0002061084F2069062809D12068401C20603D
:1016E000B84202D204F08AF9F4E70B202061AE611F
:1016F0002069F8BDFF0F0000B0B518490A68022341
:1017000013430B60CA6F20231343CB673F21CB43A6
:10171000134A116819401160146801210C431460C8
:1017200054681C40546053680B4353608B076C240F
:101730009C614C021568254315605568254355602A
:10174000D2225A611A61022801D1A020D860C803B0
:10175000044A1060402018600846B0BD0480044070
:101760003040044000E100E070B50124A5071020DE
:1017700028600820A861064E2868C00606D5002EFD
:1017800003D004F03BF9761EF6E70024204670BD36
:10179000FE0F000010B5374900220A6001208007C3
:1017A0004368DBB2083B0324E3410A2B28D8C04638
:1017B0007B441B795B009F4405120726290E231BDF
:1017C0001D3F34004A600BE0CA68012A22D1102272
:1017D0000260072215E010220260092211E08A60EF
:1017E0004A68531C4B608918097E816028213AE0C1
:1017F000042136E00422026008220A61826110BDE1
:101800000A220A612EE0FFF7AFFF10BD4A68CB68DD
:101810009A4222D24A68531C4B608918097E816023
:1018200020E082688B685C1C8C60CB1828241A55D9
:101830000C220A61102114E082688B685C1C8C60A9
:10184000CB1828241A558A6849698A42014601D36F
:101850000146183104220A6004E04A69002A04D0D3
:10186000202101600821816110BD102202600C223C
:10187000C7E7C046640200105348012101700748C1
:1018800000220267416742674167426FD207FCD07E
:1018900081670221017000207047C046008004402B
:1018A00070B5174C2068304D0007164E0BD5C2207E
:1018B000295A002907D12D2129523068000702D466
:1018C000022000F0D5FF206840070CD59120400091
:1018D000295A002907D12D2129523068400702D406
:1018E000032000F0C5FFA06808210143A16000BFEC
:1018F00000BFA06804210143A16000BF00BF70BD0C
:1019000014800250FC3F025070B5164C2068164DF2
:10191000C007164E0AD06888002807D12D2068809D
:101920003068C00702D1002000F0A2FF2068400705
:101930000BD56220295A002907D12D212952306860
:10194000400702D4012000F093FFA0680121014369
:10195000A16000BF00BFA06804210143A16000BFD7
:1019600000BF70BD1480035060030010FC3F0350A3
:10197000F8B500910546144C32206061280C01D165
:10198000280B01E0E80B0E30A061E061264614361A
:10199000274628370D4A30463946904701204002F5
:1019A00033216161A5610099E161206220780028FE
:1019B00000D00748606230463946044A9047A06A22
:1019C000411E8841F8BDC046D8010010F11FFF1F1D
:1019D000E02E0000F0B50022D3430E4D194C8A4290
:1019E00016D000262660666814273740042F03D0DF
:1019F0006D1E6E1CF7D31D466668760703D46D1EF8
:101A00006E1CF9D31D4626680670521C401CE6E782
:101A1000F0BDC046FFFFFF00B0B50022094B8A426F
:101A20000FD05C6812252540022DFAD104781C6085
:101A30005C6814252540042DFAD11C68521C401CFA
:101A4000EDE7B0BD0800044001207047034988421B
:101A500001D3002000E00120C001704740DD4A1F93
:101A6000BA4800787047C04600207047F0B585B08E
:101A70003849086000F0D2F80925374C2846A047BD
:101A800001900620A04704900720A047039008205B
:101A9000A047064600272846394600F09AFA3B251B
:101AA0002846A0470146402002900143284600F006
:101AB00090FA049800040399090208188019FFF7A6
:101AC000B2F9904B3A46FFF7B1F9FFF75FF90646D6
:101AD000C8243B2000F068F8800603D5641E200669
:101AE000F7D11CE01D4800F0F3F83B24204600F03D
:101AF0005BF802990143204600F06BFAC8243B20B2
:101B000000F052F8800603D5641E2006F7D106E0E7
:101B10000920019900F05DFA304600F0D9F8002064
:101B200000F016F92F20C4430D4D0020002C0AD0E0
:101B300000F0F8F829193120085C3222895C00F0A5
:101B400048FAE41CF1E700F0EDF8022000F000F99B
:101B500005B0F0BDF8020010A91B000000A1BC33C5
:101B6000545C0000B0B514460D4600F0DBF8284682
:101B700000F0AEF8052000F0EBF84F4802210160BC
:101B80007D21C9004161012505600168C907FCD1BB
:101B900000F03DF8A04200DD002500F05DF9284688
:101BA000B0BDC046002070471CB501AC00212170BB
:101BB0000122214600F002F820781CBDF8B5154638
:101BC0000C460E4E31688027B94331603A490222F3
:101BD0000A604B2292004A6101220A600A68D20719
:101BE000FCD17F21084003F011FF2846214601F077
:101BF00005FF306838433060F8BDC046FC3F0050F8
:101C000080B50A4601460020FFF7D8FF80BD80B5A9
:101C10001120FFF7C9FF400880BD0000B0B50D4995
:101C200008682022904308602348022303607D2433
:101C3000E4004461012404600568ED07FCD10D68EF
:101C400015430D6003600449416104600168C907E0
:101C5000FCD1B0BDFC3F015070170000FEB50291F1
:101C6000009000F0FEF8EF4F02243C607D208000E1
:101C70000190786101253D603868C007FCD1029E63
:101C8000701EC1B2352000F0A4F90098314600F072
:101C9000CBF9204600F05CF83C60019878613D602B
:101CA0003868C007FCD1032000F052F83F20FFF74E
:101CB0007BFF0007FAD5FEBD04800140704700009D
:101CC00002490A78824200D008707047FC02001076
:101CD000B0B5BB494860FFF7A6F80022BA4BFEF743
:101CE000FBFDFFF753F80446000CC1B20620B54DCA
:101CF000A847200AC1B20720A847E1B20820A84798
:101D0000B0BDC04680844E4010B50C4600F00AF8C5
:101D1000AB48807F002800D010BD3220214600F063
:101D200058F910BD10B5A6494A7882420CD04870C7
:101D3000002000F00DF801242046FFF735FF7F2139
:101D40000140204600F045F910BDC04600030010D8
:101D5000B0B50446002806D00020FFF7B1FF032CE1
:101D600005D1012004E00120FFF7AAFF02E00020D6
:101D7000FFF7A4FF01252846FFF716FFF8210140D1
:101D80002143284600F025F9B0BD80B50520FFF7B6
:101D9000DFFF80BDF0B585B01D46019314460F46A8
:101DA0000091FFF7BFFF222185480F9A425421215D
:101DB0000E9A425420210D9E4654846107610C996D
:101DC0000391C1770B990491817745610A9D8583C1
:101DD0002046FFF728F802460B46002002907B4978
:101DE000FEF77AFDFEF79CFF0446010A0220754FBC
:101DF000B847E1B20320B8470098FFF74BFC014613
:101E00001220B8470198FFF745FC01461320B84758
:101E1000290A2520B847E9B22620B84732242046AF
:101E2000039D2946B84720462946B8470299049899
:101E3000002801D17F20C143701E864135010D432A
:101E400030242046FFF7B0FE6F2101402943C9B27C
:101E50002046B84705B0F0BD80B50020FFF778FFF9
:101E600080BD80B50120FFF773FF80BDF0B587B05E
:101E7000029303920E46FFF755FF0920FFF794FEE9
:101E80004D20FFF791FE05464D484068FFF7DEFD07
:101E900040B211990191109900910F9906910E99F4
:101EA00005910D9904910C9C002808D4F117314339
:101EB0000E2900DB0E21084671300E461EE0072079
:101EC000112E03DCF8210D402D1D00E005432840B4
:101ED000072808D1052E00DC0526142E00DB142669
:101EE00031460B3107E0022E00DC0226112E00DB0A
:101EF000112631460E310F20C0430843C1B20920DC
:101F0000304FB8474D202946B84721202C4A009928
:101F10001154202006991154019850620598907729
:101F2000049890839461039DD560029810611672A5
:101F30000A263046FFF738FE402101433046B847B5
:101F40002846FEF770FF00251F4B2A46FEF7C4FC0B
:101F5000FEF7E6FE0646010A0420B847F1B2052066
:101F6000B8472046FEF75FFF02460B461749284652
:101F7000FEF7B2FCFEF7D4FE0446010A0220B84781
:101F8000E1B20320B847049C210A2520B847E1B2FA
:101F90002620B8470598002801D17F20C54306991F
:101FA000481E81410E012E4330242046FFF7FCFDE0
:101FB0006F2101403143C9B22046B84707B0F0BD98
:101FC00000030010D31F000080844E4080847E41B7
:101FD0007047E0B501AB19700122194600F002F814
:101FE0008CBD0000F8B515460C460D4E31688027B3
:101FF000B94331600B4902220A604B2292004A61C8
:1020000001220A600A68D207FCD1384303F0FEFCC3
:102010002846214603F0FEFC306838433060F8BDA6
:10202000FC3F00500480014080B50A460146002074
:10203000FFF7D8FF80BD0000034908604868C0066C
:10204000FCD40868C0B270470800044010B5124CB8
:10205000A068411CA160092813DB0020A06001F0EA
:102060000FF800F077FC01F001F901F02FF900F012
:102070000BF902F033FF2068401C02D02068401C9E
:1020800020606068411C6160632804DB0348012113
:1020900001600020606010BD1802001038010010BF
:1020A000B0B51248002282630121C163C263C163DB
:1020B000C36BDB07FCD0232303600D4B1C6880251A
:1020C000AC431C604368DB07FCD003238366C16616
:1020D000C266C166C26ED207FCD00167054A82673C
:1020E00005480160054813210160B0BD0880044027
:1020F000388204405F000100988004405081044011
:1021000009480168C90705D00121016012490A6820
:10211000521C0A600168C90605D5102101600E48ED
:102120004168491C4160704700C00040094801688F
:10213000C90705D00121016007498A68521C8A60DD
:102140000168C90605D5102101600348C168491C12
:10215000C1607047000001404C02001010B5012220
:102160005005084908600F48036807488178074C04
:1021700063540A2383800270802901D8491C81702E
:1021800010BDC04680E200E0B4010010A40D0010B4
:1021900004494A695206FCD508604A695206FCD5D2
:1021A0007047C046008000400648011F03220A60B5
:1021B000012101600022026001600168C907FCD0B2
:1021C0000020704774800440BFF34F8F03480449D8
:1021D0000160BFF34F8F00BFFDE7C0460CED00E08C
:1021E0000400FA05FEE780B5FFF7D2FF80BD0000CE
:1021F000FEB5054622490A780024E043072A0DD897
:102200002B78AE1C02969F4FA34208D02E19B678A9
:102210007601BE19B669641C002EF5D0FEBD2624D9
:102220005443184E3355521C0A704A78521C4A7057
:102230003419002001906070688C6084A88CA084A0
:10224000A61C2A7830460299FEF72EFAA0784001A3
:1022500006213954618C7D22D20051433818A38C59
:102260005343016143612878002806D03178490141
:1022700079188C61761C401EF6E70198FEBDC046B9
:10228000C0010010E004001010B516480288D749BC
:10229000002A06D00B6880241C430C60511E01806C
:1022A00010BD4288002A06D00B688024A3430B602F
:1022B000511E418010BD0279002A0ED0C2880280D2
:1022C0000A6880231A430A60028942800A689A4396
:1022D0000A600179491E017110BD0868802290438F
:1022E000086010BDA6010010B0B50023094A0C0615
:1022F0000ED0047863400824250606D05D08DB076D
:1023000000D055402B46641EF6E7491E401CEEE700
:1023100098B2B0BD01A0000010B560214143BB4A96
:102320005418515C002903D000202061204610BDC4
:1023300000F0D0FA20610028F8D08200E3689342D0
:10234000194600D80146934202D804488142EDD391
:102350000348814200D900212161E7E7E0930400AE
:10236000DF930400B0B5E1488178254A254801296A
:1023700013D11168042399431160136880210B4322
:1023800013600368202423430360CB4B1D6825435F
:102390001D60954B1C680C431C6001210B020468F6
:1023A0009C43046013680824A3431360164B1A6807
:1023B0000224A2431A60154A14684025AC431460F5
:1023C0000568134C254005601020C0431D6805407A
:1023D0001D601568054015602020C0431568054044
:1023E00015601D6805401D6010682040106088025F
:1023F000136883431360C802116881431160B0BD44
:102400000080005000800150008003500080025086
:10241000FFFDFFFF10B504460BA0005D01F0CCF9F5
:10242000442161438D4A51184880411C08D06021E5
:102430006143A74A5118C97E0840411E884110BD1A
:102440000020C04310BDC0464042000070B5FFB040
:10245000FFB082B0202000210A4A00280BD00123BF
:102460001B026C466352631800249C8053189C61C5
:102470002031401EF1E7684601F098F87FB07FB048
:1024800002B070BD6007001010B500F0B1F804464E
:102490002220205C022809D0402001F08DF9401C48
:1024A00004D022340220207001F02AFC10BD00204C
:1024B000C043704710B5044600F0D2F8EA49896C71
:1024C0000022FF2A05D023460C5D521C8442F8D11D
:1024D00000E0FF23D8B210BDFEB5E34D28782421DB
:1024E0006854287A282400902855A8792627E8558A
:1024F0002220285C019000F0B3F82C216854285D5C
:10250000002808D0FFF7D6FF30216854FF2815D1E6
:10251000285D685412E0E87F30216854287D34211A
:102520006854287E38216854287F3C216854A87F4D
:102530003E2168544020285A44216852A87C322108
:102540006854EC5D002C01D00D2000E007203F21F5
:10255000029168546A6D294615188D650E26F74359
:10256000002C00D1BF1DC04B1C783F190024BE4970
:10257000E6B2B7420CD9C6B23F2E07D86B1C8B65AA
:102580002D789555401C029D48551D46641CEFE76B
:1025900001200099090601D0014600E00221019ABC
:1025A000002A00D10146002001F0D2FBFEBDC0464A
:1025B00080B5FFF7EDFD80BD012000023E490968AE
:1025C00001404842484108490968090700D4801C75
:1025D0003A490968890700D4001D39490968490644
:1025E00000D40830C0B27047FC3F0050FC3F02509E
:1025F0000048704710000010032804D860214143B0
:10260000D2484018704700207047C0466003001051
:10261000F8B50C4606468F003846FDF70FFE002839
:1026200013D0054631463A46FDF7BAFD0120204059
:1026300061084018401E82B22846214600F0A6FCE0
:1026400004462846FDF72BFE00E034682046F8BD1E
:1026500044214143014840187047C046100600100D
:102660000120400214490968014048424841134A88
:102670001168C90600D4801C11490B68DB0600D420
:10268000001D0B689B0600D408301268920601D426
:10269000102210430A68920501D4202210430A68D0
:1026A000520501D4402210430968090501D4802154
:1026B0000843C0B27047C046FC3F0150FC3F035086
:1026C000FC3F025060214143014840187047C0461A
:1026D0009806001000487047600D001000487047D1
:1026E000920D00100148401C7047C046A001001028
:1026F000E9498978017001487047C046A40D00106F
:1027000000487047280E001000487047340E001033
:10271000E14881888078000601D0084601E0002069
:10272000C043002900D008467047C0460148001D3C
:102730007047C046D8010010F0B593B0FFF7A4FE73
:1027400003A8801C3E21FEF70CF8474E306D05783B
:10275000A80913D03F210D4003A94D700424002D7A
:102760000DD00A2D0BD8401E03A90870C0B2FFF788
:10277000A9FFC17C002905D0052400E003242046E0
:1027800013B0F0BD01218174316D4A78C276062004
:1027900068430A1D01920291891C0091002425467C
:1027A000A04219D003AE3619EDB200994F5D390938
:1027B00031710199495DED1C029A525D13071B0DA1
:1027C0005918318139011206120F8918C9B23C22F9
:1027D0004A43F280A41DE3E703A802F015FA00249F
:1027E0000028CCD103A80178012002F093F9C6E7B4
:1027F000B0B51D48006D0478FFF746FE002C0ED0E2
:10280000601EC0B2FFF75EFF0446012585741E30CE
:102810004021FDF7A6FFA57565750020B0BD03201A
:10282000B0BDC04610B5104CE07F217B814209D07D
:10283000A07900F095FB002805D0207C00F090FBEB
:10284000002800D010BDFFF74DFF41780129F9D1D4
:102850008178C2789142F5D84E22044BA352C170C0
:10286000A179017110BDC0469C02001060EA000011
:1028700010B560214143C24A5018515C002917D15C
:102880004178491CCAB20F2A00D900214170C9B24F
:1028900089004118C2680A62018B8A4208D27D21F0
:1028A000C900C28A4A43C169914201D3012101751D
:1028B00041680A68531C00221C0E144600D11C46B5
:1028C0000C604280C26002700120192102F0D0F831
:1028D00010BDC04680B560214143A9484018203052
:1028E0001021FFF795FE80BD10B560214143A4483B
:1028F00044186088002801D0401E6080207800289D
:1029000000D010BDE068401C11498842024600D347
:102910000A46E260218B88420DD900212175E161D0
:102920000B498842EDD3204620304021FDF71BFFA4
:102930000120207010BD7D20C100E08A4843E1697C
:10294000491C814200D30146E16110BD60030010C3
:10295000E093040010B50020044CA0470120A047DC
:102960000220A0470320A04710BDC046E928000070
:1029700070B50F22D343164A002B07D0D418282550
:1029800000266655382566555B1CF5E70123D360A4
:10299000516118431076FEF791FE70BDB0B5182452
:1029A0000B4B282C03D000251D55641CF9E7541C43
:1029B000DC6000245C611876E0B2904205D2C01859
:1029C0000D784576641C491CF6E7FEF777FEB0BD2E
:1029D0006402001010B57048016802220A430260C8
:1029E000074900220A6203680124234303600A6046
:1029F000A002044A1368034313600C6610BDC0466E
:102A0000084004400080005080B5FEF781FD07209B
:102A100001F00AF800280AD0FEF705FA0022074B59
:102A2000FDF75AFF064A074BFDF756FF01E0024942
:102A30000020054A03C280BD0000F03F007EA34095
:102A4000D7A3703D0AD7D33F0800001080B5524885
:102A500001688022114301600448016891430160CC
:102A60001E200121022202F003F880BDFC3F02502B
:102A700080B5444801680822114301600548016897
:102A8000114301604B20000200F004FA02480021CB
:102A9000018080BDFC3F0350B401001080B501F0FF
:102AA00015F9074800785A2801D001F029F90F20BC
:102AB000C102492082000348FDF772FB80BDC04679
:102AC0001678000010000010B948016840220A433F
:102AD00002607047F8B50026294CFFF789FD0546CE
:102AE000102E0CD060212046FDF73DFEA819606035
:102AF00001202070A859A0606034361DF0E7012045
:102B0000C643204A1168314011600421CD43136847
:102B10002B40136008230093DF431F4B1C683C408D
:102B20001C601C682C401C6054683440546054681D
:102B30002C4054605C683C405C605C682C405C608D
:102B400094680443946094680C4394609C68009D6E
:102B50002C439C609C680C439C6014690443146182
:102B600014690C4314611A692A431A611A690A43E9
:102B70001A614107E24A116000071060F8BDC046C3
:102B800060030010008003500120000202490A681F
:102B900002430A607047C0460080025080B5044876
:102BA000C021FDF7E0FD03488821FDF7DCFD80BD75
:102BB0009806001010060010B0B5FFF70BFF0024B8
:102BC000204601F009FF012081020A4D2846FDF749
:102BD000CAFDE04308490861486100F077FB1C35F5
:102BE0002020002805D02C60291F0C602035401EB5
:102BF000F7E7B0BD60070010C0010010F0B589B064
:102C00007D20C60034461834FFF7F2FC0890B9481E
:102C10000168214301609A4800686649FDF7A6FDF6
:102C2000474FB860381FFF25056004203861454CC8
:102C30002078002805D10120207043490978C90770
:102C40006ED100F0BBF80120A07025710899097EB3
:102C5000002900D002206070FFF784FB3B48016828
:102C60000025284688472820FEF79EFF2D2851D1B1
:102C70000595049503950295182006900190344A15
:102C800000923248C06907900E21324B2846079CBB
:102C9000A047402006990091019502900395049564
:102CA00005952A4884692C4B28462A49284AA0477A
:102CB0000D201F21FFF78DF90898007E002808D00D
:102CC0004B242046FEF770FF102101432046FFF7FA
:102CD00080F9FFF771FC02243C607E6101210891BC
:102CE00039603968C907FCD11C4E4643FFF7B9F873
:102CF0001B4830181549C96888470420FFF728F891
:102D00003C60692080007861089838603868C007A6
:102D1000FCD102E06570A570ED43284609B0F0BD16
:102D20006921890000221E318A428AD002233B6039
:102D30007E6138603B68DB07FCD1521CF4E7C0467B
:102D400004800140A0010010A00D0010005C0000F4
:102D500050C3000060610200B030010090D0030059
:102D6000C0CA893610B5FFF743FC0446FFF724FCC0
:102D70008549034A23348C64CA6400F033FE10BDD5
:102D8000B80B000010B50124A0025A490A6802439A
:102D90000A603B4800680749FDF7E8FC0649C8603F
:102DA000FF200860042048612046FEF7A5FC10BD06
:102DB0008080044040420F0000800140B0B51F49B0
:102DC00008680122104308601D480346F933CC6FA0
:102DD0001C43CC671B490A601F21CB431A494C692D
:102DE0001C404C614C6914434C614C6918252543C7
:102DF0004D618C691C408C618B6913438B618A69BE
:102E0000082313438B614A6E03239A434A664B6E31
:102E1000022213434B660B680724A3430B600B6825
:102E200013430B60094908600A610020072802D893
:102E30008B68401CFAE74A60B0BDC046048004407D
:102E400007070000948004404C4004400000044008
:102E500080B50B4800680B49FDF788FC401E010E49
:102E60000DD10949094A5060094803680B40032104
:102E7000890759180160002090600720106080BD0C
:102E800004000010DE260000FFFFFF0010E000E05D
:102E900020ED00E0B0B501461448026880231343DA
:102EA0000360026840239A430260114802680124CB
:102EB0002243026042682243426020030D4A1368A5
:102EC000034313600C4D8320E8600C48FDF74EFC73
:102ED000010AC9B26960C0B228600320E8606C6072
:102EE0000620A860600506490860B0BD008001505A
:102EF000A44004408080044000800040C0C62D00F3
:102F000000E100E00120C1030F4AD36D0B43D365FC
:102F10003F2111600D490A6840239A430A600C4A18
:102F20000021116050605368DB07FCD090600948B5
:102F3000016009480949416003210160AA218160BB
:102F4000552181607047C046248004403882044087
:102F5000D0800440440E001000400040FFFF7F007E
:102F600010B50446FFF77CFB07498A6C002319461D
:102F7000FF2B03D0145D4B1C8442F8D1FF39481E4F
:102F80008141084610BDC0469C020010F0B590B0CB
:102F900093000E90C01801904D1EEB1700210C46B7
:102FA0000092019800680C90481B2046984163D21B
:102FB00003950995029305910F46049426460F93B5
:102FC0003B4635460E982C461E4600275B1C7D412D
:102FD000B10042580C9882420E98F4D3069208939E
:102FE0000A960B94411807910C9A099B0D970F9F15
:102FF0000F971E465B1E0D998F41B40001598A42FE
:10300000F6D30A98301A0F980B9A90410AD30E986B
:103010000019079C2160069901601E460F970898C9
:103020000A900B9509960A9FF01B0F9B18460B9E62
:10303000B041C4D20124009AD01B0D98B041214662
:1030400000D30D9900291D46099800D1029B0C93CD
:103050000029034600D1039B801A0D98854100D3B7
:103060000446002C00D1049E002C00D1059F394657
:1030700034461D460C9B94E70C9810B0F0BD000040
:10308000B0B514490888401C088082B21248312A21
:1030900004D812492B3102680A4005E0F92A05D804
:1030A0000121090202680A430260B0BD0368950865
:1030B0000A4C4A2D03D82B3423400360B0BD0125B0
:1030C0002D022B43036048880019904201DA00204A
:1030D0000880B0BDB0010010FC3F0250D4FEFFFFDD
:1030E000FFF7F2FCFFF768FD17480168174A116007
:1030F0001F210160FFF706FFFFF746FDFFF7A6FC63
:10310000FFF7B6FCFFF7CAFCFFF7E4FCFFF7A0FEF1
:10311000FFF738FEFFF742FD00F0E0FB01F0D2FCC4
:10312000FFF766FA2221405C022802D1002002F05B
:10313000FDFB00F04BFC01F0E7FE01F0C3FF01F0E6
:1031400029FF01F04BFFF4E730800440A00D001090
:1031500010B50146602048435A4A10180024C4752F
:10316000427E521C4276C37FD2B29A4203D20120E1
:1031700001F0D0FC01E04476E443204610BDC04697
:10318000F8B50446602060434E490E18FFF730FA48
:103190000546B07D002801D0092700E0777E002C8D
:1031A00001D0032000E0012000F07AFCA100204AB9
:1031B00053585050B0813168F181834201D0EA7E8A
:1031C0003282F27C002A05D0328A002A05D0002201
:1031D000327717E000201C2128E0EA7E002AF6D092
:1031E00044226243204B02249C5406227A43B218A4
:1031F0002223D35C0122002B01D0D34301E0002322
:10320000DB43337706237B43F318DC8CA04209D2DF
:1032100022335B8801209942014600D300214240BD
:10322000114204D101207075072018217054F8BD97
:103230005807001060214143224A5118CA7C002AD5
:1032400002D08A7D002A00D07047442242430648BB
:1032500080184A7E027106235343C018CA894281EE
:10326000898981817047C04610060010B0B573216E
:103270001448435CC27C11461943090607D0124921
:103280000C88002C04D0641E0C80240400D0B0BD37
:10329000048A002C01D0641E04827024055B002D7A
:1032A00001D06D1E0553DBB2002A02D00268521C09
:1032B0000260002B02D0026E521C02667D20C0000C
:1032C0000880B0BD9806001034010010FEB500263D
:1032D000B44AB54D3346202E00D14FE17101505C08
:1032E000062800D9D0E05718784400794000874478
:1032F000036627CB818A4200B869002800D0C3E06A
:1033000002937200032000210092FCF7F9FF2A6962
:103310006D698D43824301920124B440B88800282E
:1033200000D10AE101200021009AFCF7E9FF0D43DA
:1033300001990143029B2343E0439A4A0C4601E171
:103340000120B0406968014200D09DE03A69002A3E
:1033500000D1C1E0521E02923A8901926424544382
:10336000029A3A617C610343019A002A00D08AE004
:103370000143696087E00293386900286CD0401EE1
:10338000386172000092032000242146FCF7B8FF48
:1033900001912F698743012528462146009AFCF7B1
:1033A000AFFF3843F14A1061F0484069019A9043F9
:1033B0000843EE494861B540029B2B4362E001247B
:1033C000B4406868204202D0797800295CD0B9788E
:1033D000002959D03A69002A6AD00293FFF708F908
:1033E0003969002901D0491E3961029B2343808A33
:1033F000786148E03869002848D0401E38610120D3
:10340000B040034340E002930124B4406868204385
:103410006860F868F9694968096881420DD27200EC
:1034200001200021FCF76CFF2A6902432A616869C8
:1034300008436861029B234325E003203870720033
:103440000021FCF75DFF2A6982432A61686988438D
:103450006861029BA34316E07200032000240190E0
:103460002146FCF74DFF2A6982432A616869884337
:1034700068610120B040029B83437969002938D0FC
:10348000481E7861B94DBA4A761C24E772000320C1
:1034900000211C46FCF734FF23462A6982432A6137
:1034A000B34A6869884368610120B0408343EBE711
:1034B000EA68224205D0491EB970090601D12043AD
:1034C0006860A34378690028A94A02D0401E786149
:1034D000DAD1B8883861D7E7834378690028A44AED
:1034E00002D0401E7861CFD1F88864214143396110
:1034F000CAE7BC8001993970B9690029C2D01F465A
:103500004A78531C4B700A78DBB2934222D2CA1815
:10351000927852010623964CA354944D6B68034352
:103520006B607D20C0004B8C4343A2181361898CD3
:103530004143516122463B46A6E7029BA343E04339
:103540008B4A019C89490C614D610D4649680140D7
:10355000696099E7881C3B46002A07D00178490139
:10356000834D69188C61401C521EF5E77F4D6878C9
:10357000401E6870000686D12C7084E7E868984287
:1035800002D16888002805D118461C4601F024FAAB
:1035900023466888EB60401C81B2142900D90020C2
:1035A0006880FEBD60070010C0010010F0B58FB04C
:1035B0000C907D20C0000990FFF71AF86B490F6945
:1035C00049690790223000900026694B32460E96DA
:1035D000402A00D1BDE00C463D460C98875D032F84
:1035E0000D9203D099198869002802D02F462146F0
:1035F0003EE09F550C980A968319587848709E882B
:103600000998864201D9099E9E80069308910596E5
:103610008E8003200021FCF773FE264604918E4322
:103620002B4603908343514A184613610B9656610B
:1036300001210E9A9140079B1E6932468A431A6106
:10364000042F00D980E001960291BA0003A39A5892
:10365000474B07460B990A9E9746C0467F360000A7
:10366000E7360000C5360000713600001B37000049
:1036700020360D9A921C0E98401C0E90A8E70598D3
:103680000028F5D00124002120460D9AFCF738FED1
:103690000B9A0A430B920B99074334480761416127
:1036A00000980078022807D10E98C0B20F2803D8DE
:1036B0008440314804422ED10298019A024307986F
:1036C000026128E0039805430498044327480561F4
:1036D00044610699C888089AD080098911816421BB
:1036E0004143116182E708998878002807D10A468A
:1036F0000799487E9070888A05991161506102206F
:1037000000210D9AFCF7FCFD0B9A0A431146074372
:10371000164807614261164BAAE7012000210D9A65
:10372000FCF7EEFD124B0B9A0A430B9207430F482E
:1037300007610B9941610698C088089AD0800D49AD
:1037400048430B99106193E7094B07460B990A9E72
:103750008EE706488068079C2169884202D000F005
:10376000CFFA2069014988600FB0F0BDC001001098
:103770006007001060EA000002F8000070B50C4617
:1037800005460C4E30701136002D12D0207831468F
:10379000103908704006000E00F00EF8411C00D1F0
:1037A00000203074484248413070641C6D1E761C05
:1037B000EAE770BD600D001080B50121FFF7D8F871
:1037C000C0B20C2802D10448007800E0014800B2E1
:1037D00080BDC046FFFF00008C020010F8B50093CA
:1037E00014460D460646069FA348874200D3074667
:1037F000FEF7FEFE714A97800099642900D3642188
:10380000D1700784C177611E8C419470691E8D410F
:103810005570711E8E411670847745770677107A41
:10382000002809D1507A002806D1507B002803D106
:10383000144601F035F92246D079002801D000F075
:1038400069F8F8BDF8B505465C4E00247481032084
:103850005B4F2146B84704202146B8470520214642
:10386000B84707202146B847204601F0B7F9002D98
:1038700000D0F8BDB4812046214601F0A5F9012011
:10388000214601F0A1F9F8BDB0B50323C20717D155
:10389000800717D44B4800680F4C0440651E224631
:1038A000AA41002C0FD09C0304400CD11A021040F6
:1038B00089B2424A928892B2914206D3002105E031
:1038C0001A4600E00422D0B2B0BD0121002801D187
:1038D0000246F8E74A00F6E7C0FF000080B5FEF7B1
:1038E00087FE818B354A1180C18B5180008C90807E
:1038F00080BDC04680B500F0DDF8410802220A40D4
:103900000007C00F10182F4949780906890F00D009
:10391000001D80BDB0B5FFF7EDFF284C0121E1711E
:10392000C2071AD180071AD421780320244DA84752
:1039300061780420A847A1780520A847E07801F025
:103940004DF9607B002801D101F0AAF860780028C9
:1039500007D0A088002804D0B0BD2172B0BD61722C
:10396000B0BD184840780006800FF5D1992040007E
:103970006081B0BD70B5114D00242C81EC71032025
:103980000F4E2146B04704202146B047052021466E
:10399000B047204601F022F9E87A012805D16C8170
:1039A0000720214601F010F970BD06484078000656
:1039B000800F01D00448688170BDC046920D001090
:1039C000C94B0000D001001032020000034801681A
:1039D000034A1160002101607047C04638010010A1
:1039E000400E001080B50F488078012802D10248AF
:1039F000406B804780BDC046005C000080B5024639
:103A000008461146FDF7E6FF80BD000010B5054CE5
:103A1000A078012803D1FEF7FAF8E07000E0E07822
:103A2000C0B210BDA0010010B0B598B0044600258A
:103A3000602D06D02046FDF7A3FD694648512D1D97
:103A4000F6E768461821FEF7E3FD072C0BD081B29C
:103A5000002908D00846FDF7E6F9064B0CCBFCF729
:103A60003BFFFDF75DF980B20349884200D3084669
:103A700018B0B0BD08000010FF0300000C4814305F
:103A800000210A46042908D00378002B01D0012325
:103A90008B401A436030491CF4E7D0B27047C046EF
:103AA0006021414302484018406800687047C046A2
:103AB000600300100A48016801220A4000684008BB
:103AC00002210140881807490A685208042313405C
:103AD000C0180968490008220A4080187047C0468B
:103AE000FC3F0350FC3F0250F0B597B04D4CA0781E
:103AF000012529468140607880004B4E3058EA030A
:103B000083588B43835007A840210191FCF72BFE7B
:103B100001F074FF607880003158A0780022029292
:103B2000424F434B434C664E04952A468240C81987
:103B3000194603681A4203D1641C491EF9D151E0A9
:103B400001F05CFF0220039030603B487061049AF2
:103B500032603068C007FCD107A80299435C00219D
:103B6000082924D0059106932E49487880002E4AD2
:103B70001058C7598D7801F041FF049A03983060BE
:103B80002E4870613260EF40F80703D00020069B9A
:103B9000059903E0104605998840069B0343234F8F
:103BA0003068C007FCD17F200340491CD8E707A834
:103BB000029943541B4988788240497889001A4BFE
:103BC0005958CB191D682A4202D0641CFAD30BE065
:103BD000029A521C0292402A049D154B154CA4D106
:103BE000019C03E0029C01E00298441C01F006FFE6
:103BF0000027FD4307A8007800280FD0E4B2601C1E
:103C0000FCF71CFB064607488660002E06D007A975
:103C100030462246FCF748FD37553D46284617B04A
:103C2000F0BDC046280E0010905C0000FC3F000074
:103C3000A08601006079FEFFD1040000410300006E
:103C4000FEB502A900274F7024220A704500022603
:103C500028463246FEF7A2FEF9430C282ED10191E8
:103C6000174C26607D20C000606101202060206824
:103C7000C007FCD106212846FEF77AFE0828F0D0BE
:103C8000104D28786978AA7801F014F8002814D02B
:103C900028786978000240180B4CE080E878297990
:103CA0006A7901F007F80028019907D0E8782979A6
:103CB00000024018A080394600E001990846FEBD88
:103CC000048001408C020010340E001010B50A4C24
:103CD0003A2060612046143021462C31074A904733
:103CE000E06A002801D0012010BD234630330FCBFD
:103CF000241D0FC4002010BDD8010010F11FFF1FAC
:103D0000B0B549208200104C10492046FCF748FA13
:103D1000FDF7B2FD00BF00BF00BF00BF00BF72B61D
:103D20000F20C5022846FDF789FC00BF2846214622
:103D3000FDF71EFE62B6FEF737FA00BF00BF00BFF8
:103D400000BF00BFB0BDC046600B001010000010E7
:103D5000F0B58FB007910646FEF7C4FC0446FEF7A7
:103D60002BFC0690FEF77CFC002E0594049049D0B5
:103D70000546FEF749FE2C20624F3D542820294677
:103D800000253D542620395432203E54F87F3021FE
:103D9000785438217854A07834217854E0783C2144
:103DA000785420793E2178540620FFF73DFE4421C7
:103DB00078523F220D24BC547B6D18460D30B865F7
:103DC0003046293809280A9200D891E0012E00D106
:103DD00021E3062E0ED0702E00D185E1202E00D1D9
:103DE000FAE1222E00D1B8E3602E00D1EDE3152ECA
:103DF0000A9A0CD1B87C58732320385C98730F242E
:103E000000F010FC3F203F490C5C3E48436DA01C75
:103E100024273C4DE8551870287958702620285CD6
:103E200098702820285CD8702C20285C18713020CD
:103E3000285C58713220285C9871287AA979002969
:103E400002D0002818D106E00499884203D0002847
:103E500001D0FF2810D13420285CD8713820285C8C
:103E600018723C20285C58723E20285C98724420CE
:103E7000285A1873000AD872E6B2184631460894D8
:103E80001C46FEF731FA3F2E05D8A0550899491C6B
:103E90003F22A95401E03F21695CCAB23F2A04D8FD
:103EA000000AA054481C3F21685401F0A7FD079860
:103EB00002280FD1002614A4E85D864206D2686D60
:103EC000815D2046FCF72CFA761CF5E70A20FCF70A
:103ED00093FB0BE005984078012804D1E95D686DFB
:103EE0000B4A926A90470698FFF77CFD0FB0F0BD31
:103EF00078440079400087440E0D0D0D0D0D0DAC7A
:103F00003DB8C0469C020010253032580000000029
:103F1000005C00007BE7FEF7F3FB0A9A0446B85CFE
:103F200005463F2805D8786D217841556B1C1D4604
:103F3000BB54A068002800D16AE3FCF793FB796DBD
:103F4000EAB23F2A04D888546B1C0A9A1D46BB5417
:103F5000C0B20022904200D159E3EBB23F2B07D808
:103F60002E46A568AD5CCD54761C0A9B3546FE54A2
:103F7000521CEFE71446FEF73BFB06463C5D786DAE
:103F800009900023224608961146102BD2B223D066
:103F90003F2A01D90A461DE0F5186D880998855415
:103FA0004D1C0A9C3D5540243F2A12D0089EF658CD
:103FB000360AEDB24655089E8D1C0A983D543D2A9E
:103FC000224607D8F258EDB209984255CC1C0A99FE
:103FD0007C5422461B1DD7E7402A00D315E7737D8A
:103FE0003846099FBB544B1C35460A9E83554024D6
:103FF0003F2A2CD02D7DDBB2FD548B1C83553D2AEE
:1040000025D8089DED7DDBB2FD54CB1C83553D2AA0
:104010001DD0089D2D7EDBB2FD540B1D83553B2A20
:1040200015D8089D6D7EDBB2FD544B1D83553B2A90
:104030000DD0089DAD7EDBB2FD548B1D8355392A12
:1040400005D8089AD47EDAB2BC54CC1D84553B46C0
:10405000DDE60EAC20461546FEF74AFB7A5D796D2B
:1040600015463F2A00D9E9E3E1E31446FEF732FBA7
:1040700009903C5D7B6D3F2C05D8099802781A5554
:10408000641C0A997C540393214623461A460998D6
:1040900003789D4226D2D4B23F2C01D913461FE0AB
:1040A000099840190890467803980655561C0A99B5
:1040B0007E5440233F2C12D0089F7F7CF6B2875558
:1040C000F34F961C7E543D2C194609D8212408989C
:1040D000035DF4B203980355D31C0A997B54194627
:1040E0006D1CD3E70C4690E6FEF7F8FA3D46044611
:1040F0000020FFF799FC0646FFF7FCFB0A9FE95DED
:104100006B6D3F2900D96AE3039458544A1CEA5561
:1041100040243F2900D17AE60894D2B20993330AA9
:10412000099CA354099B8A1CEA553D2900D9D1E278
:10413000D2B29E54CA1CEA553D2900D1CAE2039B63
:104140001B78D2B2099CA354099B0A1DEA553B294E
:1041500000D9BFE2039B5B78D2B2099CA354099BB0
:104160004A1DEA553B2900D1B4E2039B9B78D2B2A9
:10417000099CA354099B8A1DEA55392900D9A9E253
:10418000039BDB78D2B2099CA354099BCA1DEA5554
:10419000392900D19EE2039B5B79D2B2099CA354DA
:1041A000099B0A460832EA55372900D992E2039B57
:1041B0001B79D2B2099CA354099B0931E9553F2AC6
:1041C000089C00D123E63146FFF75EFBE95D6B6D8D
:1041D00058544C1CEC551AE6FFF750FC0390FFF7BF
:1041E00069FC0990386D057800260BAF062E06D0C5
:1041F000F0B2FFF719FC3880BF1C761CF6E70026EA
:10420000BC4F042E3ED02846F040C00738D0F0B254
:10421000FEF782F80A99795C3F2931D87A6D438A92
:1042200053544B1C0A9C3B553F2929D007693F0A30
:10423000D754B04F8B1C0A9C3B553D2920D80769A9
:10424000D754AC4FCB1C0A9C3B553D2918D047682E
:104250007F88D754A74F0B1D0A9C3B553B290FD88D
:1042600047683F683F0AD754A24F4B1D0A9C3B55F5
:104270003B2905D040680068D054881D0A997854BD
:10428000761CBEE70A9C385D402800D3C1E0796DFA
:10429000994AD3790B54431C3B55402508953F2838
:1042A00000D1C2E19579DBB2CD54831C3B553D284A
:1042B00000D9BAE15579DBB2CD54C31C3B553D283A
:1042C00000D1B2E11579DBB2CD54031D3B553B283B
:1042D00000D9AAE1D578DBB2CD54431D3B553B282C
:1042E00000D1A2E19578DBB2CD54831D3B5539282E
:1042F00000D99AE15578DBB2CD54C31D3B5539281E
:1043000000D192E11278DBB2CA54024608323A5523
:10431000372800D989E1D2B20BAB1B889D088D5498
:10432000024609323A55372800D17EE19D010BAB98
:104330005B889E05B60E7519D2B28D5402460A32BC
:104340003A55352800D970E11D010BAB9B889E05BD
:10435000360F7519D2B28D5405460B35654A0A9C45
:104360001555352800D160E19B000BAAD28896052F
:10437000B60FF318EDB24B5503460C335D4D0A9C56
:104380002B55332800D950E1DBB2CA5402460D3216
:10439000584B0A9C1A55332800D146E1D3B20BAAD8
:1043A00012899508CD5403460E33524D0A9C2B5565
:1043B000312800D939E195010BAA52899605B60E2C
:1043C0007519DBB2CD5403460F334A4D0A9C2B5569
:1043D000312800D129E1DBB21201CA540246103261
:1043E000444B0A9C1A552F2800D91EE1D2B2099BD2
:1043F0008B54024611323F4B0A9C1A552F28089CB9
:1044000000D102E5D2B2039B8B54123039490A9A8B
:1044100088540446F9E41446FEF764F90190FEF767
:1044200085F90390FEF7C8F80290395D786D099020
:104430003F290C4621D8314AD378099843544B1C64
:104440002C4E0A9FF35540243F2916D05588DBB2E5
:10445000C5548B1CF3553D290FD8DBB215682D0AC6
:10446000C554CB1CF3553D2907D01268DBB209981F
:10447000C2540C1DFA490A9A8C54002223460A9F02
:104480001946102A3CD0CBB23F2B03D90B4617E07C
:104490009C02001003988518EE780998C6544E1CAB
:1044A000EF4CE65540243F2B09D008946D88F6B2B6
:1044B00085558D1CEA48C5553D2B03D9089C2346DC
:1044C000121DDDE703988658360AEDB20998465565
:1044D000CD1CE34E0A9C35553D2B089C2346EFD05E
:1044E00003988358EDB2099843550C1DDC490A9B8B
:1044F000CC54E4E79C020010D00100101802001018
:104500000022D94BD64F0998042ACDB209D03F2DAD
:1045100005D89E5C46554C1C0A997C542146521C79
:10452000F2E7402D00D370E4D04A1268099E72551C
:104530004A1C0A9BFA5440243F2D0CD0D2B2029858
:10454000B054881CF8543D2D05D8019A1278C0B299
:104550003254CC1CFC54334659E4FEF7D5F80A9D7E
:104560007C5D7B6D3F2C00D951E4417A1955621C6A
:104570007A5540213F2C00D131E11E46837AD2B2D8
:10458000B354A21C7A553D2C00D927E1C379D2B28D
:10459000B354E21C7A553D2C00D11FE18379D2B28D
:1045A000B354221D7A553B2C00D917E14379D2B27E
:1045B000B3543346621D7A553B2C00D10FE100798C
:1045C000D1B25854A41D7C5521E400263046FEF794
:1045D0003FF83C4607460120FDF79EFE029030461C
:1045E000FDF718FF0A98215C606D3D463F290C4697
:1045F0000990039774D8EA7842544A1C2B46984D88
:104600000A982A5440243F2912D11D4668E00A9A8C
:104610002C46E8B23F2801D9FFF7F7FB7B6D00215C
:104620001954641CBC54FFF7F2FB089CFFF7EDFB28
:10463000019708949B78D2B2099CA3548A1C2A54EF
:104640003D294AD8029F7B8AD2B2099CA354CA1C36
:104650002A543D2941D0D2B23B691B0A099CA3547C
:104660000A1D2A543B2938D83B69D2B2099CA3546D
:104670004A1D2A543B2930D07B685B88D2B2099C02
:10468000A3548A1D2A54392927D8D2B27B681B68C3
:104690001B0A099CA354CA1D2A5439291DD07B68C2
:1046A0001B68D2B2099CA354099B0A4608322A54BB
:1046B000372912D81846039D2B78D2B283540A4664
:1046C000093267480A9BC254372900D08AE0089C07
:1046D000019F05E0089CFFF79AFB089C019F039D42
:1046E0000C3722461146AA799642CAB22ED23F2AE8
:1046F00003D90A46BF1D761CF4E73B1F1B78099DB2
:10470000AB544B1C564C38460A9FE35540243F2A75
:1047100003D122460746039DECE7029646780896A9
:10472000DBB2089EEE54029E8B1C4D4DEB553D2A8C
:1047300022460746039DDDD83A78DBB20998C25479
:10474000CC1C47480A9944542246D3E7402A444E99
:1047500001D3FFF75AFB434DEB79099883544B1C67
:104760000A9FF35540243F2A35D0AD79DBB2C554BA
:104770008B1CF3553D2A2ED83A4D6D79DBB2C554CA
:10478000CB1CF3553D2A26D0364D2D79DBB2C554CE
:104790000B1DF3553B2A1ED8324DED78DBB2C554C4
:1047A0004B1DF3553B2A16D02E4DAD78DBB2C554C8
:1047B0008B1DF355392A0ED82A4D6D78DBB2C554BE
:1047C000CB1DF355392A06D0264A1478DAB2845420
:1047D0000831F1550C460346FFF719FB33460C46EA
:1047E000FFF715FB089C2B79D2B2099883540A462F
:1047F0000A321B480A9BC254352900D96EE7039D33
:104800006B79D2B2099883540A460B3214480A9B3A
:10481000C2543529019F00D162E7AB79D2B2099821
:1048200083540C310E480A9A81540C4658E722787A
:10483000EBB2CA546C1C0A9A2546BC540EAA1278D4
:104840002C46130601D1FFF7E0FA521EE3B23F2BCC
:10485000F7D80EAB1A70421C04461046E7E7C04674
:104860009C020010D0010010495B0000A00D001058
:10487000FEB5524B98780125294681405878800032
:104880004F4A1058EC0302590A43009402515A68E7
:1048900001924C4E82590A43825101F0AFF84A4CC2
:1048A0000220029020604948606125602068C007AE
:1048B000FCD101F0A3F8414988782A468240497822
:1048C00089003F4B59588B5993438B51029A226070
:1048D0003F4A626125602268D207FCD12A468240A5
:1048E000885910438851029820603A4860612560D9
:1048F0002068C007FCD100273E46304B072F25D04B
:1049000099782846884001990978F940C90708D064
:10491000597889002A4A51582A4BCA588243CA50AA
:1049200008E059788900264A5158264BCA58024354
:10493000CA506E4001F062F802982060254860611C
:1049400025602068C007FCD17F1CD6E798782A46EE
:104950008240F10707D159788900194B5958194EEF
:104960008B59934306E059788900154B5958154ED9
:104970008B5913438B51029B2360164B6361256057
:104980008E19009BCB182768FF07FCD13768974327
:104990003760029E26600F4E66612560D24326680E
:1049A000F607FCD1019F7E1C7F78002F0196054EF3
:1049B00094D1186810401860FEBDC046280E001043
:1049C000905C0000FC3F000004800140E02E0000ED
:1049D0008A20000041030000F8B500902F490B68C1
:1049E000012293430B6000BF00BF00BF00BF1F2325
:1049F00013480E685DB2002D1ED40225AE430E6032
:104A0000DEB2009FF74017407E4297023E4000BF53
:104A100000BF00BF00BF0468BC43A419046000BF0E
:104A200000BF00BF00BF0C682C430C6000BF00BF7C
:104A300000BF00BF5B1EDCE716430E60F8BDC0463A
:104A4000FC3F005010B508494A780024904209D034
:104A5000042801D9E44305E0487040000349085A9E
:104A6000FEF718FA204610BDB4010010845C000067
:104A700070B516460D460446FDF7BAFDC07D002808
:104A800008D005480681C580047104480168802269
:104A90000A43026070BDC046A6010010FC3F0250F0
:104AA00010B5074CA07841424141002000F08CF83D
:104AB000A178481E8141012000F086F810BDC04653
:104AC000920D0010F0B5FFB0FFB083B0FDF790FD80
:104AD00000690021404A0B46202B0ED001242502FC
:104AE00001AE755255180027AF6175180646DE40B5
:104AF0002640AE8020315B1CEEE701A8FEF756FD94
:104B00007FB07FB003B0F0BD014948807047C04618
:104B1000B001001070B560224A43EF4B9A1800288C
:104B200003D0012804D1537E0FE00120507570BDE1
:104B30000923022809D15A243C251553582400255D
:104B400015552024145D5C255453012414761475E6
:104B500006255D4355192223EB5C9376AE8C568176
:104B6000ED8C1581012805D14420484350490C544F
:104B70000818437170BDC046B0B50C460C49496871
:104B8000C140C90700D0B0BD400113490D18E078FD
:104B9000FDF732FDE8610028F5D021782970E17831
:104BA000E970E168406800680818E860B0BDC04678
:104BB000C001001010B5400181235B00064C235258
:104BC00020180281C18010BD400101221202024B57
:104BD0001A521818818070476007001080B50028AD
:104BE00005D001460620642906D3012101E00620F4
:104BF0000021FFF7E9FF80BD41434B22D200521A4A
:104C000092B2FFF7D7FF80BDF0B585B007460478B4
:104C1000FDF7EEFC0290807E0190B8704420604366
:104C200023490E1860206043EB490D180395223587
:104C300004973F1D00218C1D3C2C0AD06818049A53
:104C40005118091D0622FBF7DFFC00282146F2D08F
:104C50000FE00398C07F04994978814209D1202050
:104C60000399085C0199814203D10020C04305B03B
:104C7000F0BD039D28461E304022049C2146FBF7D0
:104C800013FD0020687630716178B171A278F271FD
:104C9000029AD27E2A820C360029E8D00022328085
:104CA0003A78331F1A70BF1DB61D491EF4E7C0467F
:104CB0001006001010B5C0430023082B08D2440092
:104CC00040B2002801D53120444020465B1CF4E767
:104CD00048400021082908D2430040B2002801D5ED
:104CE000312043401846491CF4E7C0B2811A4842BB
:104CF000484110BDF8B5002801D0112300E0012380
:104D0000002801D01EA500E01BA560214143B24A46
:104D10005718397E002603291DD0F443022907D0F5
:104D2000012925D1FE75FE7400281BD003201AE04E
:104D30000093FDF76FFB0646401C1AD0B87E285C36
:104D40000121FFF741FF002E13D001210098FFF74A
:104D50003BFF03210CE03E750120F8743E60042106
:104D6000344605E00120FDF747FC4068066002215B
:104D700039762046F8BDC0460B0C0D0E0F00000022
:104D80001B1C1D1E1F000000F8B50020284C2178B8
:104D900005294BD80090C0467944097949008F44D1
:104DA00002180D13081E234999220A600B220021C4
:104DB0001AE020499922CA61032214E01D49992270
:104DC0008A6001210A460FE01A499922CA6002222C
:104DD00009E0184999224A600121024604E0154978
:104DE00098220A620422012101231D4695408E006B
:104DF000114FBE59DF03F0592843F051A270617082
:104E00000E4831582943315098020D490A6802432F
:104E10000A600C4800680C49FBF7A8FC0B49C86005
:104E2000FF200860042048610098F8BDC043F8BD29
:104E3000280E001074400440905C0000FC3F00000D
:104E4000808004400400001040420F0000800140B8
:104E500070B50546FDF7CCFB0446284600F066FD1C
:104E60002846FDF7D7FA01460022D0434B1C32D02A
:104E7000012930D06020684357490E18F274707EC3
:104E8000B17D002906D106214143711822228A5C96
:104E9000511E8A41B275002A01D0082100E0092183
:104EA0003176002A06D0E07E308202202946FFF7C4
:104EB00031FE0EE00121F175401CF17F884208D2DD
:104EC0000621414370182221405C002801D1E07E78
:104ED00030820020707570BD9806001009488188E6
:104EE000002905D0491E81808AB25142514100E01B
:104EF0000121002904D00178012901D1022101708A
:104F00007047C046B4010010F8B56C48006800282E
:104F10003AD01E480178491C0170C9B2642933D3C4
:104F20000021017072B6C0211948415C6022825C88
:104F3000037813400B4009214901425C1A40492182
:104F4000890041580968C423C3581D68436E1B6813
:104F50004468246862B6C8268768BC420AD1876E56
:104F6000BB4207D18759BD4204D12527FF00C7594D
:104F7000B94209D0002A07D085512522D20081509C
:104F800083668460FEF7BCFEF8BDC04636010010A3
:104F90006003001010B51048817C00291AD0017DF3
:104FA000002903D00020FFF7A5FE0CE0417D002979
:104FB00003D00020FFF74CFF05E0C07D002802D0A1
:104FC0000020FEF7C5F800242046FEF7D9F8204659
:104FD000FEF730F910BDC0469806001010B5364CEB
:104FE000A079002867D0F8480068002863D0E07AEC
:104FF00000280ED0A17A002903D0491EA17209060B
:1050000007D1401E414241410720FFF7DDFD00204E
:10501000E072607B00280AD0207B002803D0401E6D
:105020002073000603D1FFF73BFD00206073FEF7FD
:1050300061FC217AC2070CD1002912D00020207215
:1050400099204000A081E079002834D0FEF762FC6E
:1050500010BD002902D10120FEF7F4FB01202072CF
:1050600010BD617A800704D400290AD00020607244
:10507000E6E7002902D10020FEF7E4FB0120607280
:1050800010BDE079002816D06078002813D0A088E1
:10509000002810D0E07A00280DD109484078000699
:1050A000800F08D10020FEF7BFFCA188884202D300
:1050B00099204000608110BD920D0010400E00103C
:1050C000D0010010F0B59FB0BF48006800284BD059
:1050D000FDF7C6FA1490FDF76FFA054600F08EFC56
:1050E0004C21BA4E705A002802D0401E705200E087
:1050F00000204E27F15B002901D0491EF1534221C7
:10510000725A002A06D0521E7252110402D1212175
:1051100000227254000409D17D20C000FFF7F4FC86
:10512000FDF76CFD0028FBD1FDF71CFE2024305D4F
:10513000A74AA84203D110781499884208D00120C8
:105140001E210022FFF794FC2846FEF74BFCA04AE4
:10515000F05B002805D11746FDF7C4FA3A46FF2157
:10516000C17035551498107000F018FC05460028E1
:105170003CD02220954C012121544020FBF75EF8C1
:105180006065002857D0402100F014FC002000F09A
:105190000BFC02208D4C676D3E782670402E00D9A6
:1051A000E3E0082E00D8E0E01490B01EC1B238460B
:1051B000FDF79AF8B9198A1E1278491E09787B788A
:1051C00023710902891889B2884200D0CDE04C20B1
:1051D00080492152B978A171F87820723A79227306
:1051E0007A79227400292DD00D212CE02120774CD2
:1051F000205C002800D0BFE07548007800281ED051
:10520000FDF770FA4078012800D0B5E03F20FCF7A8
:10521000CBFC1421084200D1AEE00120402106461B
:10522000FAF7F6FF6065002800D197E04021FCF70F
:10523000E7FC3046AEE7002000F0B6FB9CE0FDF74F
:1052400005F999E007217918BA792165A274002D32
:1052500002D05F49097808E0FEF7D8FB217C5C4862
:105260000078814200D07EE0207AFF2815D0884265
:1052700013D000280ED1606DC1792175017A217695
:10528000417A2177817AA177017BC07A00024018A8
:1052900040216052FDF720F96BE0A179002901D18E
:1052A000217BE1770123FF280AD12220215C0029FC
:1052B00006D04221484A62522121635400212154E0
:1052C000119343488678257B857041781291277920
:1052D0004770032105200F910E900246FFF7C8FB8F
:1052E0003C48FFF711FC232000211390109121541A
:1052F000701B411E88411299B94200D11190A67CC1
:10530000304620386327122838D8400078448088F7
:10531000400087448201B700D001120012008000D3
:10532000B5018A0003039801CC01CC01CC01CC016A
:10533000CC01CC019100E30172000127B802FAF719
:105340007DFF002800D1B1E10346202019460F9AC5
:10535000002848D00A702031401EF9E72020205C48
:10536000FEF740FB08E0FDF75DFA2020205CFEF729
:1053700039FB606DFAF793FF1FB0F0BD304670380F
:10538000032816D9012E109D00D1D4E1612E00D141
:10539000B9E1622E00D08AE1FDF72AFA139EA055EA
:1053A000002800D085E160201499FEF7D1FC00258B
:1053B00091E2109D4000C0467844808840008744B8
:1053C0000D00DA01B301BC01400E00109C02001078
:1053D00000000010B80B000070170000FDF77EF908
:1053E00001218171CDE1206D41781F2900D958E15B
:1053F000232E00D1FEE10422FDE1216D0878022771
:10540000002800D153E1102800D950E1491CFEF7D3
:10541000B5F932205AE2216D487815AA107021287A
:1054200000D2B0E10220139E0FE2A06C216D4A78F9
:1054300009784254062099E1206D05780227302D25
:1054400000D934E140194078FFF7FCFA002800D079
:105450002DE1206D4019C178119180780F90FC49A1
:10546000086808221292104308606E1C0127F94D4B
:10547000BE4200D103E2206DC05D2946FAF735FF38
:105480007F1CF5E71198002800D11EE201200E9044
:105490008002FAF7D3FE1190002800D106E1206DBA
:1054A00001460E310D9101460D310C9101460C3132
:1054B0000B9101460B310A9101460A3109910146CF
:1054C00009310891014608310791C11D0691811DDE
:1054D0000591411D0491011D0391C11C0291109081
:1054E000801C019000210F46109840780D22424305
:1054F000FFB2974200D36FE10198C05D8209C9B243
:1055000012914B011199CA54CA188306DB0F5370CC
:105510000299CB5D1D460E990D40212695555D07DC
:10552000AD0F20269555C006800DDB08C018908071
:105530000398C05D0499CB5D1D07ED0F412695557D
:105540009D06AD0F402695550002C01880B2800917
:1055500090845807800D0599CB5D5D08401944255E
:1055600050530698C05D4506ED0F61269555DB0743
:105570009B0FC5095B19602553550799CB5D9D07A6
:10558000ED0F812695551D07AD0F80269555800698
:10559000800D1D094019642550530898C55D099870
:1055A000C05DC606F60FA12156544106890FA026FC
:1055B0009155D907890D6B00C918C309C9188423EF
:1055C000D1520A99C95D8B080F9D2940C0255155BC
:1055D0000007800DC018A42150520B98C05DC1096E
:1055E000C123D1540C99C95D4B07DB0FE1255355FD
:1055F000CB069B0FE02553554006800D4B09C01884
:10560000C423D0520D98C05D8907890D0818E42184
:10561000505212990D37083166E7206D8178427833
:1056200012025518C61C0027042F00D1DBE0F8B287
:10563000FCF7E2FFC58271783278120251180183BB
:10564000B61C7F1CF0E7FDF75BF80546206D00787F
:105650002870FFF799FB002826D1266D7078401C32
:10566000FAF7ECFD6860002820D0B11C00207278A9
:10567000904200D3F0E00A5C6B681A54401CF6E7D5
:105680002020FAF7DBFD002810D003460E98187092
:10569000216D48781F2804D88A78DA70032A00D848
:1056A00007E11846FAF7FBFD022700E007271398E9
:1056B0002754002512E1FDF727F8216D0A78427280
:1056C000497881720846FEF7BBFA002800D181E0D4
:1056D0000120139EA055FDF755FBFBE0FCF788FF6A
:1056E000216D0A78012A60D1002203468D18AE7818
:1056F0006F780C2A5BD03F043602F619ED787519E5
:1057000020C3D21CF2E7FDF717F8139D605505285A
:1057100002D0002800D08AE060201499FEF718FB20
:10572000002060550546DDE0FCF7D8FF01218171BE
:10573000FEF720F925E0012048E0206DC1781291A4
:105740008178109141780F91057846790779FCF7B7
:10575000C5FF012181713802801980B2009028466E
:105760000F99109A129BFEF739F870201499FEF7E2
:10577000EFFA119D3CE0FCF7B1FF01218171FEF7CA
:10578000C9F8702022E08A7815AB5A84CA789A84C6
:10579000091D0022139E90424BD08B5C15ADAD18B5
:1057A000AB70202B50D2521CF5E700250DE03902DA
:1057B00089198182E978C1752979017669794176FB
:1057C000A9798176E979C176119D31201499FEF786
:1057D000BFFA0DE0222079E0119D2846FDF7E6FE94
:1057E0002846FAF75CFD20201499FEF7B1FA00254F
:1057F000139E70E00222139E109D49015A545918BD
:105800004F70C2781F4683781B029A18CA8042796B
:1058100000790002801808813846FDF7C7FE384637
:10582000FAF73DFD20201499FEF792FA53E0002587
:1058300052E015A800214170FCF7DAFC0028109D09
:10584000F0D00220A05546E00220A05542E0C0461C
:10585000FC3F03505C030010696800270F54FFF7FA
:1058600007F8FEF741F9401C45D029201499FEF7AE
:105870006FFAA868FAF713FDAF60139E3EE02A4F57
:1058800038681299884338600F98000211994018BF
:1058900000F08AF800F0B2F8FCF73AFF0028FBDCD1
:1058A000401C139E109D2FD030201499FEF750FA03
:1058B0002CE00A79C97809028918D96019461D4671
:1058C000FFF75AF92846FAF7EAFC20201499FEF768
:1058D0003FFA139E109DA05D002803D01520149957
:1058E000FEF736FA606DFAF7DAFC002D00D143E5D9
:1058F000FEF706FA40E50120139EA0556868FAF706
:10590000CEFC6F603D46E6E70620A0550A2000F079
:105910004BF83868129908433860DCE70620149980
:10592000FEF716FAFCF750FCFC3F035070B5044636
:10593000002801D01B2000E00B200025154E294631
:10594000B047002C01D01C2000E00C202946B047B5
:10595000002C01D01D2000E00D202946B047002C6E
:1059600001D01E2000E00E202946B047002C01D0B7
:105970001F2000E00F202946B047002C01D0112045
:1059800000E001202946B0474420604302490D54FD
:1059900070BDC046C94B00001006001015480078C5
:1059A000811E484248417047124900228A700A709D
:1059B00088807047FEB50191054600260E4F30469F
:1059C000C4B20C488078401E844211DA01988642A5
:1059D0000ED2395D02A80170391949784170002151
:1059E0001022FAF7D1FD2870761CA01C6D1CE7E789
:1059F000FEBDC046B4010010A40D00100248AA214B
:105A000001605521016070470840004080B5FCF7F7
:105A100013FB80BD80B5024608461146FBF7FCFF2C
:105A200080BDF0B4040C8BB2264682B25E431046B1
:105A300058430D0C370C3604002180191646794165
:105A40006E43370C36048019264679416E43891916
:105A5000F0BC704730380A2801D20120704700207E
:105A60007047000010B500290AD00878002807D038
:105A700005487844FBF7D0FC002801D0002010BD79
:105A80000248784410BD00004E02000046020000AB
:105A90003031323334353637383941424344454664
:105AA000403058003031323334353637383961625E
:105AB0006364656640307800040000080000000060
:105AC00000000002000100001080807F7E7D7C7B52
:105AD0007A7978777676757473727171706F6E6E8D
