:020000040000FA
:10000000601A0010D9010000E1010000E3010000C6
:1000100000000000000000000000000000000000E0
:10002000000000000000000000000000E5010000EA
:100030000000000000000000E70100004D2000006B
:10004000EB010000EB010000EB010000EB01000000
:10005000EB010000EB010000EB010000EB010000F0
:10006000EB010000EB010000EB010000EB010000E0
:10007000EB010000EB010000EB0100009517000010
:100080000921000035210000EB010000EB01000018
:10009000EB01000065210000EB010000EB01000016
:1000A000C5150000EB010000EB010000EB010000B2
:1000B00009190000A1180000EB010000EB0100008D
:1000C00000F002F800F05DF812A030C808382418DB
:1000D0002D18AC4201D100F054F80FCCA246AB462B
:1000E0000CA730CF2D1B083F3F197C427F1E544484
:1000F0002D090426F441641EAC4201D300F041F8FE
:100100000126334200D0FB1A3343984754465D46DC
:10011000DFE70000845E0000A45E0000704700007E
:100120000023002400250026103A01D378C1FBD813
:10013000520700D330C100D50B60704710B5642959
:1001400002D100F023F910BD752902D100F01EF98B
:1001500010BD782902D100F04FF910BD002010BD6C
:100160001FB50098019900F0ACFF01F0B5F804004C
:100170000020002105F0F2FD401C60601FBD10B59D
:1001800010BD01F0F4F81146FFF7EAFF02F0DCFFC2
:1001900001F00CF903B4FFF7F2FF03BC02F026F8FC
:1001A00070B505460C46164602E00FCC0FC5103E52
:1001B000102EFAD2082E02D303CC03C5083E042E1B
:1001C00007D301CC01C5361F03E021782970641CD8
:1001D0006D1C761EF9D270BD07488047074800475E
:1001E000FEE7FEE7FEE7FEE7FEE7FEE70448054917
:1001F000054A064B70470000A9200000C10000001E
:10020000600E0010601A00106014001060140010DE
:1002100070B505F082FD00230A46DB4300211B1A5E
:10022000914101D2002070BD044600F007F805009E
:1002300002D0214600F095FA284670BD70B50646FA
:1002400000F020FF056830460B30C408E400B442DB
:1002500001D8002070BD68682A46002818D00168BF
:10026000A14211D30B46214608318B4208D3436883
:1002700001194B6003681B1B0B605160046001E0B7
:1002800041685160001D70BD024640680028E6D1FB
:100290002146284600F000FF0028DCD170BD70B573
:1002A0000446051F00F0EEFE0068002C1AD04468DA
:1002B00001E020466468002C01D0AC42F9D301680B
:1002C0000A18AA4204D12A6805468918016000E08C
:1002D000456028684119A14205D1616869602168BB
:1002E0004018286070BD6C6070BD10B502F07CF9DC
:1002F00010BD70477047704770477047FFFFFFFFA2
:1003000010B5202A04DB0146203A9140002010BDA0
:10031000914020239C1A0346E3401943904010BDAE
:100320000FB4054910B503AA029800F055FF10BCA0
:1003300008BC04B0184700005C03001070B5044608
:1003400085690068C10601D5302600E02026C00777
:1003500007D070BD62683046A1689047206A401C93
:1003600020626D1EF6D570BD70B5044685690078B3
:10037000C00707D170BD6268A16820209047206A3D
:10038000401C20626D1EF6D570BD0000F7B500253B
:1003900075291068009914A611D0C046C0460028DF
:1003A00002DA404211A608E0009909688A0701D5DF
:1003B0000FA602E0490704D50EA6012501E0C046BC
:1003C000C046009F0024243704E000F06CFF303169
:1003D0003955641C0028F8D12B4632462146009836
:1003E00000F0A2FEFEBD0000000000002D00000095
:1003F0002B0000002000000070B504460D46214689
:100400001068C046C0462188090502D50F4A7A44C3
:1004100002E00E4A7A440E3223460021243305E0DE
:1004200006070009360F965D5E54491C0028F7D177
:1004300020780023000705D5702D03D0002901D0B6
:1004400002231132204600F06FFE70BD7659000085
:10045000F3B50446002081B020622046E168884759
:1004600000287DD0252802D06268A16883E0454F2E
:1004700000257F442046E16888472028064608DB9F
:10048000312E06D2B81920380078002801D0054353
:10049000F0E7A80701D5042085430020E061074666
:1004A000A0612A2E0AD0304605F050FC002827D043
:1004B000B8000019303E0090866119E00298BA0039
:1004C000121902C8916102902046E1688847012F05
:1004D000064617D1E06900281FDA202085431CE07A
:1004E00000980A2180694843009980193038886152
:1004F0002046E1688847064605F028FC0028EFD131
:10050000012F0AD02E2E08D12046E16888470646E2
:10051000202005437F1C022FC3DBA069002803DADB
:100520004042A06101200543E80701D01020854327
:10053000002E24D030464138192803D80120C002AB
:1005400005432036204625603146029A1546FFF7BE
:10055000F5FD00280CD0012807D0ED1DE80800E0CB
:100560000DE0C0000830029077E72D1D029574E77A
:1005700062683046A1689047206A401C6CE7206A98
:10058000FEBD00003A590000F7B50F460026009C5A
:100590002578641C002D05D000F06CFD0068405DDE
:1005A000C007F5D12B2D02D02D2D18D0641E394651
:1005B000029A204600F024FE002F04D03968A142A0
:1005C00001D1009939607105022400290BDA4042FB
:1005D000002803DD00F05AFD0460A007FEBD0120E5
:1005E00080020643E3E70028F8DA00F04FFD0460DC
:1005F0000048FEBDFFFFFF7F10B5024901F0F4FF88
:1006000010BD00005C030010034610B50B439B07B0
:100610000FD1042A0DD308C810C9121FA342F8D065
:1006200018BA21BA884201D9012010BD0020C04368
:1006300010BD002A03D0D30703D0521C07E00020CE
:1006400010BD03780C78401C491C1B1B07D1037894
:100650000C78401C491C1B1B01D1921EF1D118467D
:1006600010BD000030B5441C03E00178401C002997
:100670000DD08107F9D10B4BDD0104C8D11A91438C
:100680002940FAD0001B0A0603D0C01E30BD001B53
:1006900030BD0A0401D0801E30BD0902FCD0401ECE
:1006A00030BD000001010101F8B5042A2CD38307F5
:1006B00012D00B78491C0370401C521E83070BD0CC
:1006C0000B78491C0370401C521E830704D00B7822
:1006D000491C0370401C521E8B079B0F05D0C91A82
:1006E000DF002023DE1B08C90AE0FFF759FDF8BD33
:1006F0001D4608C9FD401C46B4402C4310C0121FC3
:10070000042AF5D2F308C91A521EF0D40B78491CFA
:100710000370401C521EEAD40B78491C0370401C25
:10072000012AE4D409780170F8BD01E004C0091F72
:100730000429FBD28B0701D50280801CC90700D099
:100740000270704700290BD0C30702D00270401C12
:10075000491E022904D3830702D50280801C891E0A
:10076000E3E70022EEE70022DFE7000000220309B2
:100770008B422CD3030A8B4211D300239C464EE0BC
:1007800003460B433CD4002243088B4231D3030978
:100790008B421CD3030A8B4201D394463FE0C3092A
:1007A0008B4201D3CB01C01A524183098B4201D342
:1007B0008B01C01A524143098B4201D34B01C01A2D
:1007C000524103098B4201D30B01C01A5241C308A5
:1007D0008B4201D3CB00C01A524183088B4201D314
:1007E0008B00C01A524143088B4201D34B00C01A00
:1007F0005241411A00D201465241104670475DE015
:10080000CA0F00D04942031000D3404253409C46D7
:10081000002203098B422DD3030A8B4212D3890194
:10082000FC2212BA030A8B420CD3890192118B422B
:1008300008D3890192118B4204D389013AD09211D5
:1008400000E08909C3098B4201D3CB01C01A524190
:1008500083098B4201D38B01C01A524143098B4259
:1008600001D34B01C01A524103098B4201D30B0142
:10087000C01A5241C3088B4201D3CB00C01A524167
:1008800083088B4201D38B00C01A5241D9D243084E
:100890008B4201D34B00C01A5241411A00D201468B
:1008A0005241104663465B1001D34042002B00D5F5
:1008B0004942704763465B1000D3404201B5054989
:1008C000002802DC491C084000E00846C046C0463B
:1008D00002BD00BFFFFFFF7FF0B5F94D0C091E09F7
:1008E0002C402E402F468BB0A7437DD0B543FCD083
:1008F000002E7AD0002CFCD00D465D40ED0F254334
:10090000AC1BFF25AD0464190894C502440DC9024F
:100910002143500DDC0204430120C007014304437E
:10092000D2020191200C110C00958C460104234643
:100930008B430A9161460904E24D8A430991010AF9
:100940007D4449198039097805464D4301266D18C3
:10095000F605751B6943C90C640B891C4C4364186C
:10096000B5012C1B250C2E04B4434C434D43210CE4
:10097000691889090591009DE90701D00121C9077E
:1009800004912C4601996708CD072F434C08059D1B
:10099000E10B4D432D0C29466646754302950D46E5
:1009A00045432E46029D7D1BB44100950D465D4397
:1009B00001942C0C2F040D465543AE462D0C3D439F
:1009C000029503947546049C2D04641B049406D27E
:1009D000029C039D641C002675410395029401ACA2
:1009E00070CC009F7D1B01E03EE162E1B44109044F
:1009F0000095079101940599A4086143090C0C46E0
:100A00004443650BE7040C4666467443A646640BF4
:100A10003C43039502947446049DE4042C1B049407
:100A200006D2029C039D641C002675410395029426
:100A300001AC70CC009F7D1BB44101940C465C431B
:100A40000095650FE7000C465443A646640F3C43EF
:100A5000039502947446049DE4002C1B049406D272
:100A6000029C039D641C002675410395029401AC11
:100A700070CC009F7D1BB441AE09AF06049DC90038
:100A8000AD092F43049DA406AD060495079D34438C
:100A900069180791059DE10B4D432D0C29466646CB
:100AA000754302950D4645432E46029D7D1BB4417C
:100AB00000950D465D4301942C0C2F040D465543C3
:100AC000AE462D0C3D43029503947546049C2D04BF
:100AD000641B049406D2029C039D641C002675418D
:100AE0000395029401AC70CC009F7D1BB44101942E
:100AF0008C050694079C890A611800950791019C52
:100B00000599A4086143090C0D464543680BEF04A1
:100B10000D46644665436C0B3C43049FED047D1B0E
:100B2000AC4602D20025641C6841009E019D371B23
:100B300085410846584301950C46460FC50054436D
:100B4000600F28436546E4002C1B02D20025401CA0
:100B50006E41019D3F1AB5412846BD0980062843D4
:100B60008446A009BF064E020699A40676180743DC
:100B7000079D002068410A99079019430020099BAE
:100B800000906046FF1913434041E20F64003A436E
:100B9000A4460446D71A8C41A04203D901200090F4
:100BA00020463A46C70F941840416246D20F22436E
:100BB000644664000494009CBE466400D71AA446B0
:100BC000044602978C417746002F01D1A04204D9F8
:100BD0006046401C8446029A2046C40FA6469418DC
:100BE0004041049A0546D20F224364466400D31A5A
:100BF0008D417146002901D1A84202D928461A46E2
:100C0000641C10430122002800D01643610200201A
:100C1000079B891904465C410223002C02DB49181A
:100C200013466441089DCE0A2D145D194B056705D6
:100C3000E10A2C050D1908993E43C9076940002BAC
:100C400008D0934006D30022761C5141002B01D1DD
:100C5000760876001C4A002D43DB154241D0AA439A
:100C60003FD030460BB0F0BD06180D464D41174C35
:100C70007642AC411AD395181C465C41134A6D422A
:100C8000A24113D3012252054C00D4420AD15C0088
:100C9000D4420BD04B4002D592021143E2E7490007
:100CA0004908DFE75940C90FC90718E00020084983
:100CB000D8E7054801420DD10342F7D0F2E7000022
:100CC0000000FF077D5400000000F07F0000E0FFFF
:100CD0000000F87F114859400143C01241400020F4
:100CE000C0E70123089A9B069A4205DC03225207BB
:100CF0008918C90FC907B5E7052252078918074A9D
:100D00001143D2125140ADE770B515461C4602465C
:100D10000B4628462146FFF7DFFD70BDFFFFFF7F32
:100D200030B50346CA02400D1043164D164C0A1545
:100D300002D02043002A06DBAA1A002A12DDD04086
:100D4000FF2A0BDC30BD5205520D01D14000400896
:100D5000AA1A07D4D0404042FF2A01DD002030BD4E
:100D60000028FCDD4A00002B01D0012000E000201B
:100D7000101801225205D042F0D8C817C043604075
:100D800030BD00001E040000000000800346CA02BF
:100D9000400D10B510430A1504D00124E407204388
:100DA000002A05DB0A4CA21A04D4D040FF2A00DD39
:100DB000002010BD4A00002B01D0012000E00020DF
:100DC000101801225205D042F2D8C817C04310BDF6
:100DD0001E0400001F22030C02D10F22000402D0C7
:100DE000030E03D004E00020014670470002083AD9
:100DF000030F01D10001121F830F01D18000921E49
:100E0000002801DB4000521E120551184205C01295
:100E1000411810467047C10FC90700D04042012257
:100E200092071143D6E701218907D3E7F0B58B4C30
:100E30000F09254689B0BD437BD01D092646AE4328
:100E4000FAD00E465E402740F60F3E43254071D053
:100E500024012142FBD0FF24AD19A4042D1B0395CE
:100E600001252D05DB02DB0AC9022B43C90A2943F0
:100E70001E010901040F130F050121431701880BFF
:100E8000820391432D098C46A90B1E438A03954387
:100E9000B30B9A0396433F09BA0B9403A7430296F8
:100EA0002E467E430497B6464E19D7190C46019636
:100EB000544305977E43371B7646BF1B3601B64623
:100EC000BE0B361900967646BC043719009C01D338
:100ED000641C00946400002F01D001263443029E5C
:100EE000049F754366467E430496760034196E006F
:100EF00034190094029C019E1C196643751BAE4672
:100F0000069465464519059C05956C4359437546FD
:100F10000891691A0191049E01465143A41B049152
:100F2000611A009C0791E10605D061090122114375
:100F300002E072E06EE06109089D00272C0A2D0690
:100F40006918049D7C412A0A2D066918019D624199
:100F5000AC0DAD026D185441079A910D92025519CE
:100F60006141029A644658435443069B059A5A438A
:100F7000121A131B9A0E9B015B187A41010B000594
:100F8000C3185141220A200644195A419A4200D2FC
:100F9000491C01204002814203D315230226F64357
:100FA00002E014230326F6432020C51AA940174661
:100FB000AF40DA400A4320460399D8400914731819
:100FC00019055118039A3843D2075140AC4009D053
:100FD0000122944006D30022401C5141002C01D133
:100FE000400840001E4A934212D301220398920601
:100FF000904207DB0520400709181A480143C01238
:10100000414004E0032040070818C10FC907002031
:1010100009B0F0BD0020F107FAE705180C464C4175
:1010200011486D42A04115D394181A465A410E48F2
:10103000644290410ED301204A004005824209D308
:101040005A00824206D35940C90F084AC9070020F6
:101050001143DDE700200649DAE700000000FF0742
:10106000FE070000FFFFFF7F0000E0FF0000F07FB1
:101070000000F87F10B500F02FF9001D10BD00BF73
:10108000DD4C0000004870474801001000487047E0
:10109000400100107047704738B504460A460020EA
:1010A0006946C046C046002805D002462046009941
:1010B00000F016F9012038BD10B5012000F051F9FB
:1010C00010BDF8B5C046C046054600200C460C20B1
:1010D000C0460646A819A0420DD9324669460020EE
:1010E000C046C046070001D100F03BF90098A0427D
:1010F00000D00546C419FFF7C5FFF61D0746056079
:10110000F008C0004619284600F008F8B44204D0A0
:1011100031463868A21B00F0E3F8F8BD00210160F9
:10112000416070470C207047FFB504460D4681B002
:10113000243000902168880604D51022E06991438C
:10114000216000E00120A84201DD471B00E00027EC
:101150000498A1697A191018081AA0612078C006AD
:1011600002D42046FFF7EAF8002608E003986268F8
:10117000A168805D9047206A401C761C206204981C
:101180008642F3DB2078C0060AD52046FFF7D6F862
:1011900006E06268A16830209047206A401C206207
:1011A00038467F1E0028F4DC07E000986268A168DA
:1011B000405D9047206A401C206228466D1E002832
:1011C000F3DC2046FFF7D0F82078000602D5022095
:1011D00005B0F0BD0120FBE7084B70B50D467B4420
:1011E00000F09DF80446284601F07CF9002802D062
:1011F0000020C04370BD204670BD000007140000F1
:10120000F7B5154682B00027029C2078641C019730
:10121000302802D0002D15D015E020780127641C5D
:10122000782804D0582802D0002D09D00BE0002DDA
:1012300001D0102D07D1207800271025641C02E072
:10124000082500E00A250026009610E000990127F5
:101250006943081829467143020C80B200908E1829
:101260003804864201D3012001902078641C29466D
:1012700000F068F80028E9DA0398002805D0002F6C
:1012800001D0641E00E0029C04600198002806D092
:10129000FFF7FCFE02210160C81E05B0F0BD0099F9
:1012A00030040843F9E701468008081A02091018BB
:1012B000020A1018020C1018C008820012185200FE
:1012C000891A01E0401C0A390A29FBD27047000044
:1012D000004870474001001000487047600100104E
:1012E00010B50346406801E003464068002801D07D
:1012F0008842F9D31868C3188B4206D0CB1CD80893
:10130000C000001D411A521A0146081D0A60FEF76E
:10131000C6FF10BD01694A1C02610878704700B51C
:101320008FB0029100210591054901937944039101
:10133000114604906846FFF78BF80FB000BD00001F
:10134000E5FFFFFF3A2800D23038202302469A43B7
:10135000412A01D310463738884201D30020C043C8
:10136000704710B500F030F800F028F810BD754651
:10137000FFF7AEFFAE46050069465346C008C00001
:10138000854618B020B5FEF731FF60BCB646002692
:101390000027C0C5C0C5C0C5C0C5C0C5C0C5C0C583
:1013A000C0C5403D490849008D46704710B5044608
:1013B000C046C0462046FEF7EDFE10BD10B5002821
:1013C00001D000F013FF10BD10B5012805D0002199
:1013D00003A000F065F8012010BD09A1F8E70000A6
:1013E00053494752544D454D3A204F7574206F660E
:1013F0002068656170206D656D6F72790000000076
:101400003A2048656170206D656D6F727920636F59
:101410007272757074656400024670B50A43920773
:101420002AD11E4DEE0104C808C9541B9443344010
:1014300017D0D0B2D9B2401A2106014310D190B2D0
:1014400099B2401A210401430AD110021902000A7C
:10145000090A401A2102014302D1100E190E401A46
:1014600070BD9A42DFD010BA19BA884201D9012062
:1014700070BD0020C04370BD02780B78401C491C31
:10148000002A09D09A4207D102780B78401C491CE7
:10149000002A01D09A42EFD0D01A70BD010101019B
:1014A00070B505460C460A2000E06D1C00F09FFE5A
:1014B000002D06D028780028F7D102E0641C00F047
:1014C00096FE002C02D020780028F7D10A2000F0E8
:1014D0008EFE70BD30B58C180278401C13071B0FB0
:1014E00001D10378401C120906D10278401C03E0A8
:1014F0000578401C0D70491C5B1EF9D101E00B7092
:10150000491C521EFBD1A142E6D3002030BD000091
:10151000B0B51648016810229143016001204203D2
:1015200013498B6813438B600022434B202A04D05D
:101530009C180025A560121DF8E70E4A022393604F
:10154000D36013615361536290621060D0620A48A5
:1015500000680968FFF70AF90849FFF707F9000270
:10156000FF21C943401833490860B0BD38820440A8
:10157000788004406C40044004000010009F240068
:1015800010B52C490A68FF239A430A60072800D93E
:1015900000200122130682400C6814431C430C6097
:1015A00082000B461033D0580028FCD507221206C3
:1015B0000B6893430B60410001D5002010BD00046F
:1015C000800D10BDB0B51B48016B0A04120E12D07D
:1015D000194A53685B1C5360024610320023082BE3
:1015E0001ED0090AD940C90701D0116800E00021C6
:1015F000121D5B1CF3E7CA031AD50F4A08320346D3
:1016000010330024082C0BD00D46E540ED0703D025
:101610001D682D04AD0D1560121D1B1D641CF1E726
:101620000721090602688A4302600348012101601C
:10163000B0BDC04600C00140A0010010F8B5E24EA8
:1016400032217161010C01D1070B01E0C70B0E378C
:10165000B761F7613446143435462835DB4A2046F5
:1016600029469047B06A002801D00120F8BDD7492B
:1016700034207061B761F7613078002800D0D44819
:101680000A463062204629469047B06A411E88418A
:10169000F8BDC04610B50021074AA82908D0535804
:1016A000984203D353189C68A04202D30831F4E750
:1016B000FEE7187910BDC046485E0000F8B56D4CD5
:1016C0000020A06060600120850720262E60062093
:1016D0002061084F2069062809D12068401C20603D
:1016E000B84202D204F006FBF4E70B202061AE61A1
:1016F0002069F8BDFF0F0000B0B518490A68022341
:1017000013430B60CA6F20231343CB673F21CB43A6
:10171000134A116819401160146801210C431460C8
:1017200054681C40546053680B4353608B076C240F
:101730009C614C021568254315605568254355602A
:10174000D2225A611A61022801D1A020D860C803B0
:10175000044A1060402018600846B0BD0480044070
:101760003040044000E100E070B50124A5071020DE
:1017700028600820A861064E2868C00606D5002EFD
:1017800003D004F0B7FA761EF6E70024204670BDB9
:10179000FE0F000010B5374900220A6001208007C3
:1017A0004368DBB2083B0324E3410A2B28D8C04638
:1017B0007B441B795B009F4405120726290E231BDF
:1017C0001D3F34004A600BE0CA68012A22D1102272
:1017D0000260072215E010220260092211E08A60EF
:1017E0004A68531C4B608918097E816028213AE0C1
:1017F000042136E00422026008220A61826110BDE1
:101800000A220A612EE0FFF7AFFF10BD4A68CB68DD
:101810009A4222D24A68531C4B608918097E816023
:1018200020E082688B685C1C8C60CB1828241A55D9
:101830000C220A61102114E082688B685C1C8C60A9
:10184000CB1828241A558A6849698A42014601D36F
:101850000146183104220A6004E04A69002A04D0D3
:10186000202101600821816110BD102202600C223C
:10187000C7E7C046C801001053480121017007485E
:1018800000220267416742674167426FD207FCD07E
:1018900081670221017000207047C046008004402B
:1018A00070B5174C2068304D0007164E0BD5C2207E
:1018B000295A002907D12D2129523068000702D466
:1018C000022000F0FFFF206840070CD59120400067
:1018D000295A002907D12D2129523068400702D406
:1018E000032000F0EFFFA06808210143A16000BFC2
:1018F00000BFA06804210143A16000BF00BF70BD0C
:1019000014800250FC3F025070B5164C2068164DF2
:10191000C007164E0AD06888002807D12D2068809D
:101920003068C00702D1002000F0CCFF20684007DB
:101930000BD56220295A002907D12D212952306860
:10194000400702D4012000F0BDFFA068012101433F
:10195000A16000BF00BFA06804210143A16000BFD7
:1019600000BF70BD1480035060030010FC3F0350A3
:10197000F8B500910546144C32206061280C01D165
:10198000280B01E0E80B0E30A061E061264614361A
:10199000274628370D4A30463946904701204002F5
:1019A00033216161A5610099E161206220780028FE
:1019B00000D00748606230463946044A9047A06A22
:1019C000411E8841F8BDC04620020010F11FFF1FD4
:1019D000E02E0000F0B50022D3430E4D194C8A4290
:1019E00016D000262660666814273740042F03D0DF
:1019F0006D1E6E1CF7D31D466668760703D46D1EF8
:101A00006E1CF9D31D4626680670521C401CE6E782
:101A1000F0BDC046FFFFFF00B0B50022094B8A426F
:101A20000FD05C6812252540022DFAD104781C6085
:101A30005C6814252540042DFAD11C68521C401CFA
:101A4000EDE7B0BD0800044001207047034988421B
:101A500001D3002000E00120C001704740DD4A1F93
:101A6000BA4800787047C04600207047F0B585B08E
:101A70003849086000F0D2F80925374C2846A047BD
:101A800001900620A04704900720A047039008205B
:101A9000A047064600272846394600F09AFA3B251B
:101AA0002846A0470146402002900143284600F006
:101AB00090FA049800040399090208188019FFF7A6
:101AC000B2F9904B3A46FFF7B1F9FFF75FF90646D6
:101AD000C8243B2000F068F8800603D5641E200669
:101AE000F7D11CE01D4800F0F3F83B24204600F03D
:101AF0005BF802990143204600F06BFAC8243B20B2
:101B000000F052F8800603D5641E2006F7D106E0E7
:101B10000920019900F05DFA304600F0D9F8002064
:101B200000F016F92F20C4430D4D0020002C0AD0E0
:101B300000F0F8F829193120085C3222895C00F0A5
:101B400048FAE41CF1E700F0EDF8022000F000F99B
:101B500005B0F0BDF8020010A91B000000A1BC33C5
:101B60004C5F0000B0B514460D4600F0DBF8284687
:101B700000F0AEF8052000F0EBF84F4802210160BC
:101B80007D21C9004161012505600168C907FCD1BB
:101B900000F03DF8A04200DD002500F05DF9284688
:101BA000B0BDC046002070471CB501AC00212170BB
:101BB0000122214600F002F820781CBDF8B5154638
:101BC0000C460E4E31688027B94331603A490222F3
:101BD0000A604B2292004A6101220A600A68D20719
:101BE000FCD17F21084004F08DF82846214601F001
:101BF000F9FF306838433060F8BDC046FC3F005004
:101C000080B50A4601460020FFF7D8FF80BD80B5A9
:101C10001120FFF7C9FF400880BD0000B0B50D4995
:101C200008682022904308602348022303607D2433
:101C3000E4004461012404600568ED07FCD10D68EF
:101C400015430D6003600449416104600168C907E0
:101C5000FCD1B0BDFC3F015070170000FEB50291F1
:101C6000009000F0FEF8EF4F02243C607D208000E1
:101C70000190786101253D603868C007FCD1029E63
:101C8000701EC1B2352000F0A4F90098314600F072
:101C9000CBF9204600F05CF83C60019878613D602B
:101CA0003868C007FCD1032000F052F83F20FFF74E
:101CB0007BFF0007FAD5FEBD04800140704700009D
:101CC00002490A78824200D008707047FC02001076
:101CD000B0B5BB494860FFF7A6F80022BA4BFEF743
:101CE000FBFDFFF753F80446000CC1B20620B54DCA
:101CF000A847200AC1B20720A847E1B20820A84798
:101D0000B0BDC04680844E4010B50C4600F00AF8C5
:101D1000AB48807F002800D010BD3220214600F063
:101D200058F910BD10B5A6494A7882420CD04870C7
:101D3000002000F00DF801242046FFF735FF7F2139
:101D40000140204600F045F910BDC04600030010D8
:101D5000B0B50446002806D00020FFF7B1FF032CE1
:101D600005D1012004E00120FFF7AAFF02E00020D6
:101D7000FFF7A4FF01252846FFF716FFF8210140D1
:101D80002143284600F025F9B0BD80B50520FFF7B6
:101D9000DFFF80BDF0B585B01D46019314460F46A8
:101DA0000091FFF7BFFF222185480F9A425421215D
:101DB0000E9A425420210D9E4654846107610C996D
:101DC0000391C1770B990491817745610A9D8583C1
:101DD0002046FFF728F802460B46002002907B4978
:101DE000FEF77AFDFEF79CFF0446010A0220754FBC
:101DF000B847E1B20320B8470098FFF74BFC014613
:101E00001220B8470198FFF745FC01461320B84758
:101E1000290A2520B847E9B22620B84732242046AF
:101E2000039D2946B84720462946B8470299049899
:101E3000002801D17F20C143701E864135010D432A
:101E400030242046FFF7B0FE6F2101402943C9B27C
:101E50002046B84705B0F0BD80B50020FFF778FFF9
:101E600080BD80B50120FFF773FF80BDF0B587B05E
:101E7000029303920E46FFF755FF0920FFF794FEE9
:101E80004D20FFF791FE05464D484068FFF7DEFD07
:101E900040B211990191109900910F9906910E99F4
:101EA00005910D9904910C9C002808D4F117314339
:101EB0000E2900DB0E21084671300E461EE0072079
:101EC000112E03DCF8210D402D1D00E005432840B4
:101ED000072808D1052E00DC0526142E00DB142669
:101EE00031460B3107E0022E00DC0226112E00DB0A
:101EF000112631460E310F20C0430843C1B20920DC
:101F0000304FB8474D202946B84721202C4A009928
:101F10001154202006991154019850620598907729
:101F2000049890839461039DD560029810611672A5
:101F30000A263046FFF738FE402101433046B847B5
:101F40002846FEF770FF00251F4B2A46FEF7C4FC0B
:101F5000FEF7E6FE0646010A0420B847F1B2052066
:101F6000B8472046FEF75FFF02460B461749284652
:101F7000FEF7B2FCFEF7D4FE0446010A0220B84781
:101F8000E1B20320B847049C210A2520B847E1B2FA
:101F90002620B8470598002801D17F20C54306991F
:101FA000481E81410E012E4330242046FFF7FCFDE0
:101FB0006F2101403143C9B22046B84707B0F0BD98
:101FC00000030010D31F000080844E4080847E41B7
:101FD0007047E0B501AB19700122194600F002F814
:101FE0008CBD0000F8B515460C460D4E31688027B3
:101FF000B94331600B4902220A604B2292004A61C8
:1020000001220A600A68D207FCD1384303F07AFE45
:102010002846214603F07AFE306838433060F8BD28
:10202000FC3F00500480014080B50A460146002074
:10203000FFF7D8FF80BD0000034908604868C0066C
:10204000FCD40868C0B270470800044010B5144CB6
:10205000E068411CE160092816DB0020E06001F027
:1020600043F800F0ABFC01F037F901F065F900F03E
:1020700013F903F07DF82068401C02D02068401C52
:1020800020606068401C6060A068411CA1606328FB
:1020900004DB0448012101600020A06010BDC0469F
:1020A0007802001038010010B0B512480022826397
:1020B0000121C163C263C163C36BDB07FCD023236F
:1020C00003600D4B1C688025AC431C604368DB0734
:1020D000FCD003238366C166C266C166C26ED207A6
:1020E000FCD00167054A8267054801600548132155
:1020F0000160B0BD08800440388204405F000100E8
:10210000988004405081044009480168C90705D0FF
:102110000121016012490A68521C0A600168C9065F
:1021200005D5102101600E484168491C4160704787
:1021300000C0004009480168C90705D001210160BD
:1021400007498A68521C8A600168C90605D51021B2
:1021500001600348C168491CC1607047000001402C
:102160000002001010B501225005084908600F4810
:10217000036807488178074C63540A238380027000
:10218000802901D8491C817010BDC04680E200E062
:1021900018020010B80D001004494A695206FCD517
:1021A00008604A695206FCD57047C046008000406E
:1021B0000648011F03220A6001210160002202601B
:1021C00001600168C907FCD000207047748004409A
:1021D000BFF34F8F034804490160BFF34F8F00BF27
:1021E000FDE7C0460CED00E00400FA05FEE780B50F
:1021F000FFF7D2FF80BD0000FEB505460027F8437B
:10220000234C2178072913D80290A81C0190A14ED5
:10221000287887420DD2E8198078410171188969C0
:10222000002904D101F0BCFB7F1C0028F0D00298EB
:10223000FEBD217826224A43164B9854481C207034
:102240006078401C60709C18002002906070688C60
:102250006084A88CA084A71C2A7838460199FEF7D0
:1022600023FAA078400106213154618C7D22D200EE
:1022700051433018A38C53430161436128780028EF
:10228000D5D03978490171188C617F1C401EF6E762
:1022900060020010E004001010B516480288E14901
:1022A000002A06D00B6880241C430C60511E01805C
:1022B00010BD4288002A06D00B688024A3430B601F
:1022C000511E418010BD0279002A0ED0C2880280C2
:1022D0000A6880231A430A60028942800A689A4386
:1022E0000A600179491E017110BD0868802290437F
:1022F000086010BD88020010B0B50023094A0C0622
:102300000ED0047863400824250606D05D08DB075C
:1023100000D055402B46641EF6E7491E401CEEE7F0
:1023200098B2B0BD01A0000010B560214143C54A7C
:102330005418515C002903D000202061204610BDB4
:1023400000F0FCFA20610028F8D08200E368934294
:10235000194600D80146934202D804488142EDD381
:102360000348814200D900212161E7E7E09304009E
:10237000DF930400B0B5F2488178254A2548012949
:1023800013D11168042399431160136880210B4312
:1023900013600368202423430360D54B1D68254345
:1023A0001D609F4B1C680C431C6001210B020468DC
:1023B0009C43046013680824A3431360164B1A68F7
:1023C0000224A2431A60154A14684025AC431460E5
:1023D0000568134C254005601020C0431D6805406A
:1023E0001D601568054015602020C0431568054034
:1023F00015601D6805401D6010682040106088024F
:10240000136883431360C802116881431160B0BD33
:102410000080005000800150008003500080025076
:10242000FFFDFFFF10B504460BA0005D01F0EEF9C3
:1024300044216143974A51184880411C08D06021CB
:102440006143B14A5118C97E0840411E884110BD00
:102450000020C04310BDC0464042000070B5FFB030
:10246000FFB082B020200021AE4A00280BD001230B
:102470001B026C466352631800249C8053189C61B5
:102480002031401EF1E7684601F0D4F87FB07FB0FC
:1024900002B070BD6007001010B500F0C5F804462A
:1024A0002220205C022809D0402001F0AFF9401C16
:1024B00004D022340220207001F016FD10BD00006F
:1024C00010B59C4B1C7F44400C4208D01078401C37
:1024D0001070C0B20A2804D3187F48401877002033
:1024E000107010BD0020C0437047000010B50446B6
:1024F00000F0D2F8F149896C0022FF2A05D023466A
:102500000C5D521C8442F8D100E0FF23D8B210BD0C
:10251000FEB5EA4D287824216854287A28240090B2
:102520002855A8792627E8552220285C019000F03C
:10253000B3F82C216854285D002808D0FFF7D6FF97
:1025400030216854FF2815D1285D685412E0E87FD7
:1025500030216854287D34216854287E38216854FD
:10256000287F3C216854A87F3E2168544020285A87
:1025700044216852A87C32216854EC5D002C01D0C3
:102580000D2000E007203F21029168546A6D294622
:1025900015188D650E26F743002C00D1BF1DC74BC3
:1025A0001C783F190024C549E6B2B7420CD9C6B21F
:1025B0003F2E07D86B1C8B652D789555401C029DCE
:1025C00048551D46641CEFE701200099090601D01B
:1025D000014600E00221019A002A00D101460020B4
:1025E00001F0AAFCFEBDC04680B5FFF7D5FD80BD59
:1025F000012000023E49096801404842484108491B
:102600000968090700D4801C3A490968890700D481
:10261000001D39490968490600D40830C0B2704726
:10262000FC3F0050FC3F0250004870471000001073
:10263000032804D860214143DE4840187047002039
:102640007047C04660030010F8B50C4606468F0080
:102650003846FDF7F3FD002813D0054631463A46CB
:10266000FDF79EFD0120204061084018401E82B207
:102670002846214600F0BEFC04462846FDF70FFE22
:1026800000E034682046F8BD442141430148401829
:102690007047C04610060010012040021449096826
:1026A000014048424841134A1168C90600D4801CC1
:1026B00011490B68DB0600D4001D0B689B0600D493
:1026C00008301268920601D4102210430A6892055D
:1026D00001D4202210430A68520501D4402210433D
:1026E0000968090501D480210843C0B27047C0467B
:1026F000FC3F0150FC3F0350FC3F0250602141432E
:10270000014840187047C04698060010400105492E
:102710000A5C002A01D00020704708188088411EFA
:10272000884170476007001000487047600D001036
:1027300000487047940D00100148401C7047C04687
:1027400096020010EE498978017001487047C04632
:10275000B80D0010004870473C0E0010004870474C
:10276000480E0010E64881888078000601D00846AF
:1027700001E00020C043002900D008467047C04651
:102780000148001D7047C04620020010F0B593B00C
:10279000FFF782FE03A8801C3E21FDF7E2FF474EB3
:1027A000306D0578A80913D03F210D4003A94D7065
:1027B0000424002D0DD00A2D0BD8401E03A908704B
:1027C000C0B2FFF79BFFC17C002905D0052400E0C3
:1027D0000324204613B0F0BD01218174316D4A7885
:1027E000C276062068430A1D01920291891C00915D
:1027F00000242546A04219D003AE3619EDB2009947
:102800004F5D390931710199495DED1C029A525DA4
:1028100013071B0D5918318139011206120F89183F
:10282000C9B23C224A43F280A41DE3E703A802F0A8
:1028300035FB00240028CCD103A80178012002F048
:1028400099FAC6E7B0B51D48006D0478FFF724FE7D
:10285000002C0ED0601EC0B2FFF750FF04460125C9
:1028600085741E304021FDF77CFFA575657500203D
:10287000B0BD0320B0BDC04610B5104CE07F217B39
:10288000814209D0A07900F09FFB002805D0207C70
:1028900000F09AFB002800D010BDFFF74DFF4178F3
:1028A0000129F9D18178C2789142F5D84E22044BA2
:1028B000A352C170A179017110BDC0469C020010E5
:1028C00060EA000010B50446FE202040022805D131
:1028D000FFF72EFF007A002800D010BD6020604373
:1028E000C14908180178002917D14178491CCAB29A
:1028F0000F2A00D900214170C9B289004118C2686D
:102900000A62018B8A4208D27D21C900C28A4A43E9
:10291000C169914201D30121017541680A68531CC4
:1029200000221C0E144600D11C460C604280C2607E
:1029300002700120192102F0DDF910BD80B560217F
:102940004143A948401820301021FFF77DFE80BD8B
:1029500010B560214143A44844186088002801D084
:10296000401E60802078002800D010BDE068401C28
:1029700011498842024600D30A46E260218B884210
:102980000DD900212175E1610B498842EDD3204624
:1029900020304021FDF7E7FE0120207010BD7D2092
:1029A000C100E08A4843E169491C814200D30146E5
:1029B000E16110BD60030010E093040010B5002039
:1029C000044CA0470120A0470220A0470320A047B5
:1029D00010BDC0465129000070B50F22D343164ADE
:1029E000002B07D0D41828250026665538256655B3
:1029F0005B1CF5E70123D360516118431076FEF7A5
:102A00005DFE70BDB0B518240B4B282C03D00025FB
:102A10001D55641CF9E7541CDC6000245C611876C9
:102A2000E0B2904205D2C0180D784576641C491C6E
:102A3000F6E7FEF743FEB0BDC801001010B57048C0
:102A4000016802220A430260074900220A62036801
:102A50000124234303600A60A002044A136803436D
:102A600013600C6610BDC046084004400080005052
:102A700080B5FEF74DFD072001F0CAF800280AD006
:102A8000FEF7D1F90022074BFDF726FF064A074B58
:102A9000FDF722FF01E002490020054A03C280BD84
:102AA0000000F03F007EA340D7A3703D0AD7D33F7C
:102AB0000800001080B5524801688022114301606F
:102AC00004480168914301601E200121022202F0A6
:102AD00011F980BDFC3F025080B5444801680822CE
:102AE0001143016005480168114301604B20000259
:102AF00000F004FA02480021018080BDFC3F035031
:102B00001802001080B501F0D5F9074800785A285E
:102B100001D001F0E9F90F20C102492082000348E9
:102B2000FDF73EFB80BDC046167800001000001087
:102B3000B948016840220A4302607047F8B5002690
:102B4000294CFFF771FD0546102E0CD06021204660
:102B5000FDF709FEA819606001202070A859A06047
:102B60006034361DF0E70120C643204A1168314029
:102B700011600421CD4313682B4013600823009398
:102B8000DF431F4B1C683C401C601C682C401C60D1
:102B900054683440546054682C4054605C683C4035
:102BA0005C605C682C405C6094680443946094684A
:102BB0000C4394609C68009D2C439C609C680C4373
:102BC0009C6014690443146114690C4314611A690C
:102BD0002A431A611A690A431A614107E24A1160DD
:102BE00000071060F8BDC04660030010008003506D
:102BF0000120000202490A6802430A607047C04689
:102C00000080025080B50448C021FDF7ACFD0348A8
:102C10008821FDF7A8FD80BD980600101006001061
:102C2000B0B5FFF70BFF0024204602F017F8012093
:102C300081020A4D2846FDF796FDE04308490861E8
:102C4000486100F079FB1C352020002805D02C605D
:102C5000291F0C602035401EF7E7B0BD600700104B
:102C600060020010F0B589B07D20C60034461834EB
:102C7000FFF7DAFC0890B9480168214301609A48DF
:102C800000686649FDF772FD474FB860381FFF25A1
:102C9000056004203861454C2078002805D10120CA
:102CA000207043490978C9076ED100F0BBF80120B4
:102CB000A07025710899097E002900D0022060705B
:102CC000FFF758FB3B480168002528468847282025
:102CD000FEF76AFF2D2851D10595049503950295BD
:102CE000182006900190344A00923248C06907903B
:102CF0000E21324B2846079CA047402006990091A0
:102D0000019502900395049505952A4884692C4BFA
:102D100028462A49284AA0470D201F21FFF759F9C4
:102D20000898007E002808D04B242046FEF73CFF80
:102D3000102101432046FFF74CF9FFF759FC02240C
:102D40003C607E610121089139603968C907FCD176
:102D50001C4E4643FFF785F81B4830181549C968D3
:102D600088470420FEF7F4FF3C606920800078610A
:102D7000089838603868C007FCD102E06570A5701B
:102D8000ED43284609B0F0BD6921890000221E31BB
:102D90008A428AD002233B607E6138603B68DB0751
:102DA000FCD1521CF4E7C04604800140960200109A
:102DB000B40D0010F85E000050C300006061020016
:102DC000B030010090D00300C0CA893610B5FFF7BB
:102DD0002BFC0446FFF70CFC8549034A23348C6422
:102DE000CA6400F0F3FE10BDB80B000010B501245A
:102DF000A0025A490A6802430A603B480068074932
:102E0000FDF7B4FC0649C860FF2008600420486153
:102E10002046FEF771FC10BD8080044040420F0048
:102E200000800140B0B51F490868012210430860C6
:102E30001D480346F933CC6F1C43CC671B490A601D
:102E40001F21CB431A494C691C404C614C69144307
:102E50004C614C69182525434D618C691C408C617F
:102E60008B6913438B618A69082313438B614A6E14
:102E700003239A434A664B6E022213434B660B6848
:102E80000724A3430B600B6813430B6009490860D8
:102E90000A610020072802D88B68401CFAE74A60C4
:102EA000B0BDC04604800440070700009480044081
:102EB0004C4004400000044080B50B4800680B49BA
:102EC000FDF754FC401E010E0DD10949094A50601E
:102ED000094803680B400321890759180160002045
:102EE00090600720106080BD04000010DE26000006
:102EF000FFFFFF0010E000E020ED00E0B0B501466C
:102F000014480268802313430360026840239A43F5
:102F10000260114802680124224302604268224391
:102F2000426020030D4A1368034313600C4D832055
:102F3000E8600C48FDF71AFC010AC9B26960C0B22A
:102F400028600320E8606C600620A86060050649E0
:102F50000860B0BD00800150A4400440808004405F
:102F600000800040C0C62D0000E100E00120C10348
:102F70000F4AD36D0B43D3653F2111600D490A6899
:102F800040239A430A600C4A002111605060536844
:102F9000DB07FCD09060094801600948094941609D
:102FA00003210160AA218160552181607047C046DC
:102FB0002480044038820440D0800440580E001021
:102FC00000400040FFFF7F0010B50446FFF764FBA0
:102FD00007498A6C00231946FF2B03D0145D4B1C54
:102FE0008442F8D1FF39481E8141084610BDC046D1
:102FF0009C020010F0B590B093000E90C0180190A4
:103000004D1EEB1700210C460092019800680C90B1
:10301000481B2046984163D2039509950293059178
:103020000F46049426460F933B4635460E982C4691
:103030001E4600275B1C7D41B10042580C9882421D
:103040000E98F4D3069208930A960B9441180791B0
:103050000C9A099B0D970F9F0F971E465B1E0D99AB
:103060008F41B40001598A42F6D30A98301A0F985A
:103070000B9A90410AD30E980019079C216006997B
:1030800001601E460F9708980A900B9509960A9FB3
:10309000F01B0F9B18460B9EB041C4D20124009A2E
:1030A000D01B0D98B041214600D30D9900291D4633
:1030B000099800D1029B0C930029034600D1039B81
:1030C000801A0D98854100D30446002C00D1049E3F
:1030D000002C00D1059F394634461D460C9B94E7D1
:1030E0000C9810B0F0BD0000B0B514490888401C21
:1030F000088082B21248312A04D812492B31026862
:103100000A4005E0F92A05D80121090202680A43AC
:103110000260B0BD036895080A4C4A2D03D82B34D1
:1031200023400360B0BD01252D022B430360488876
:103130000019904201DA00200880B0BD9202001010
:10314000FC3F0250D4FEFFFFFFF7F2FCFFF768FDE3
:1031500018480168184A11601F210160FFF706FF37
:10316000FFF746FDFFF7A6FCFFF7B6FCFFF7CAFC2A
:10317000FFF7E4FCFFF7A0FEFFF738FEFFF742FD84
:1031800000F0D6FB01F0CEFDFFF74EFA2221405CA5
:10319000022802D1002002F045FDFFF769FC00F093
:1031A00009FD01F0FBFF02F019F902F03DF802F011
:1031B0005FF8F4E730800440B40D001010B501460C
:1031C000602048435A4A10180024C475427E521C9D
:1031D0004276C37FD2B29A4203D2012001F0CAFDE7
:1031E00001E04476E443204610BDC046F8B50446ED
:1031F000602060434E490E18FFF716FA0546B07D71
:10320000002801D0092700E0777E002C01D00320A0
:1032100000E0012000F038FDA100204A5358505032
:10322000B0813168F181834201D0EA7E3282F27C42
:10323000002A05D0328A002A05D00022327717E012
:1032400000201C2128E0EA7E002AF6D044226243B6
:10325000204B02249C5406227A43B2182223D35CCA
:103260000122002B01D0D34301E00023DB4333775D
:1032700006237B43F318DC8CA04209D222335B88FF
:1032800001209942014600D300214240114204D15D
:1032900001207075072018217054F8BD58070010E0
:1032A00060214143224A5118CA7C002A02D08A7DFB
:1032B000002A00D0704744224243064880184A7EC4
:1032C000027106235343C018CA89428189898181CA
:1032D0007047C04610060010B0B573211448435C17
:1032E000C27C11461943090607D012490C88002CEC
:1032F00004D0641E0C80240400D0B0BD048A002CCD
:1033000001D0641E04827024055B002D01D06D1E67
:103310000553DBB2002A02D00268521C0260002B67
:1033200002D0026E521C02667D20C0000880B0BD33
:103330009806001034010010FEB50026BB4BBC4DB2
:103340003446202E00D15EE17101585C062800D978
:1033500044E15F184000C0467844808840008744BC
:103360000600700027003D018E0097004B00B869F1
:10337000002800D032E10294720003200021019263
:10338000FCF7BEFF2A696D698D4382430124B44076
:10339000B888002800D114E1012000211746019AC5
:1033A000FCF7AEFF3A460D430243029820430AE180
:1033B000720003200021FCF7A3FF2A6902432A615F
:1033C0006869084368610120B0406968014200D023
:1033D000A1E03A69002A00D1C4E0521E3B89029460
:1033E00064245C433A617C61029C0443002B00D05E
:1033F00091E0014369608EE002943869002871D041
:10340000401E386172000092032000242146FCF720
:1034100077FF01912F698743012528462146009AAD
:10342000FCF76EFF3843E74A1061E6484069019AAD
:1034300090430843E3494861B540029C2C43E14D69
:1034400069E002940124B4406868204203D079788E
:10345000002900D1C1E0B978002900D1BDE03A6966
:10346000002A6AD0FFF7E0F83969002901D0491E27
:103470003961029921430C46808A78614BE03869B2
:1034800000284AD0401E38610120B0400443A5E026
:1034900002940124B440686820436860F868F969C0
:1034A0004968096881420DD2720001200021FCF7B1
:1034B00027FF2A6902432A61686908436861029804
:1034C00020430DE00320387072000021FCF718FF44
:1034D0002A6982432A616869884368610298A04327
:1034E000044618E072000320002401902146FCF7F6
:1034F00007FF2A6982432A6168698843686101205D
:10350000B0400299814302917969002937D0481E61
:103510007861AC4D029CAA4B60E072000320002150
:10352000FCF7EEFEA64B2A6982432A61686988434C
:1035300068610120B040844350E0EA68224205D02F
:10354000491EB970090601D1204368600298A04362
:1035500004467869002802D0401E78613ED1B888C0
:1035600038613BE0844378690028954B02D0401EC7
:10357000786133D1F8886421414339612EE0BC8001
:1035800001993970B9690029C3D04A78531C4B702E
:103590000A78DBB2934223D2CA18927852010623EA
:1035A000874CA354874D6B6803436B607D20C0003C
:1035B0004B8C4343A21813612346898C41435161CC
:1035C0000BE00298A0430290E0437D4B7D490A61E5
:1035D0004D610D46496801406960029C761CB0E669
:1035E000881C774B002A06D00178490159188C6154
:1035F000401C521EF6E7734D6878401E6870000646
:10360000EBD12C70E9E7E868A04202D16888002875
:1036100003D1204601F022FB6888EC60401C81B297
:10362000142900D900206880FEBDC0466007001044
:1036300060020010F0B58FB00E907D20C0000A909F
:10364000FEF7F2FF0C9022300090002634463746F9
:10365000402C00D1A6E00E98805D032841D0584848
:103660008519A86900283CD1F8B20D9000F098F9AE
:10367000002836D10E98825D51490B928A558119E6
:10368000487868708A880A98824202D90A988880A5
:10369000024607910692AA80032000212246FCF7E9
:1036A0002FFE034647480269049203939A43099206
:1036B000026143691A4605918A43089242610120DA
:1036C000B8400C990A690192029082430A610B98F2
:1036D000042806D878440079400087440639280237
:1036E00050002036A41C7F1CB2E706980028F8D0B2
:1036F0000125002128462246FCF702FE089A0A43CB
:10370000099901432F48016142610098007802281D
:1037100007D10D980F2804D80D9885402B480542F5
:10372000DFD10298019901430C980161D9E7049A0D
:10373000039802430598034322490A614B610799A4
:10374000C888E88009892981642141432961C8E743
:10375000A878002806D10C99487EA870888A069916
:1037600029616861022000212246FCF7C9FD089A00
:103770000A4309990143134801614261B1E70120FD
:1037800000212246FCF7BCFD089A0A43099901432F
:103790000C48016142610798C088E8800A494843A3
:1037A00028619EE7074880680C9C2169884202D006
:1037B00000F09AFB2069034988600FB0F0BDC04655
:1037C000600700106002001060EA000002F80000CC
:1037D00070B50C4605460C4E30701136002D12D0D7
:1037E00020783146103908704006000E00F00EF8BF
:1037F000411C00D100203074484248413070641CA4
:103800006D1E761CEAE770BD600D001080B50121C9
:10381000FFF7E2F8C0B20C2802D10448007800E0BB
:10382000014800B280BDC046FFFF0000F00100105B
:1038300070B5FEF7F9FE0446DD48017A002900D094
:1038400070BD012505720026082E0AD02846B0401A
:10385000FB21084203D0F0B2002101F0FFFA761CF0
:10386000F2E72069FB210842EAD08843206100F09A
:103870003BFB70BDB0B5CE48002484824482047402
:10388000C4810720084D2146A8472046214600F064
:1038900023F903202146A84704202146A8472046B3
:1038A00001F0E6FAB0BDC0465D4E000010B504461A
:1038B000FFF7E0FFBE4802210173C4720321817249
:1038C00010BDC046F0B50246800713D40325AB03F4
:1038D000414804682340B648807A471E032F18D811
:1038E0000520C0467F443F797F00BF440105150194
:1038F0000620F0BD0420F0BDD0070ED12802044000
:1039000089B2AB48808882B20120914207D3014638
:1039100006E0581E83411846F0BD2846F0BD02213E
:10392000002C00D10146002BF6D10846F0BDC04660
:1039300010B59F4C00206072044903C4083C00F09D
:103940004DF8207702480068A06110BD0000050313
:103950007C020010B0B501242046214600F0BCF8DE
:10396000934D2978032001F079FA6978042001F059
:1039700075FAE87801F07CFA6878002802D0A88807
:10398000002807D1287C002804D10720FEF7BEFEBE
:10399000002800D0B0BD2C747D208000E881B0BD2F
:1039A00001460020072909D8814A127A002A05D049
:1039B00001228A40FB201040411E88417047C046CA
:1039C0007B48007F044949780906890F01D004210A
:1039D0000843C0B27047C0467002001080B500F0C6
:1039E0005DF9410802220A400007C00F101880BD8F
:1039F000F8B500242046FEF789FE06460120FEF7B2
:103A000085FE6B4FBD78002E05D0002D03D0FFF74B
:103A100031FFFC7207E00646FFF72CFFFC72002E18
:103A200007D0002D05D10420B8727D20C000B882D7
:103A3000F8BD00F07BF8F8BDB0B55D4A517A0123BE
:103A40005372C478642C00D36424D4708488844D69
:103A5000AC4200D32C4694800478651EAC411470AF
:103A60004478651EAC41547085790A2D2C4600D3EC
:103A70000A24002D1D4600D025469571C579052DD7
:103A80002C4600D30524002D00D02346D371807826
:103A9000C0B2431E984193789070DBB2181A431E4F
:103AA00098414B1E9941137F9B070ED4927A032AAB
:103AB0000BD801407A44127952009744010407015F
:103AC000FFF796FFB0BD0029FAD1B0BD0029F7D1AC
:103AD000FFF740FFB0BDC046FEB501910646401E4F
:103AE0003746874132488078C5B2694269413940DA
:103AF000EFF31080029072B60024204601F0AEF978
:103B0000681E85412F400120394601F0A7F9002E9B
:103B100003D00198002800D02C460520214601F052
:103B20009DF9029880F31088FEBDC04680B52049FB
:103B3000012088727D22D2008B7953434B82002171
:103B4000FFF7CAFF80BDC046B0B5194D0024EC7226
:103B5000A87A022818D16C82AC720320214601F0A9
:103B60007DF90420214601F079F9204601F080F921
:103B7000287C01280CD12C74EC810720214601F00F
:103B80006DF92046214610E0FFF774FEAC72B0BD1F
:103B90000720FEF7BBFD002805D0022028747D20F9
:103BA0008000E881B0BD00200146FFF795FFB0BD61
:103BB000940D001003480168034A11600021016060
:103BC0007047C04638010010540E001080B50F48F1
:103BD0008078012802D10248406B804780BDC046F2
:103BE000F85E000080B5024608461146FDF7F2FE79
:103BF00080BD000010B5054CA078012803D1FEF768
:103C000006F8E07000E0E078C0B210BD9602001047
:103C1000B0B598B004460025602D06D02046FDF7CB
:103C2000AFFC694648512D1DF6E768461821FEF79E
:103C30000BFD072C0BD081B2002908D00846FDF7F8
:103C4000F2F8064B0CCBFCF747FEFDF769F880B2A3
:103C50000349884200D3084618B0B0BD08000010E0
:103C6000FF0300000C48143000210A46042908D044
:103C70000378002B01D001238B401A436030491C8C
:103C8000F4E7D0B27047C046602141430248401873
:103C9000406800687047C046600300100A48016829
:103CA00001220A40006840080221014088180749A3
:103CB0000A68520804231340C01809684900082202
:103CC0000A4080187047C046FC3F0350FC3F02503A
:103CD000F0B597B04D4CA078012529468140607819
:103CE00080004B4E3058EA0383588B43835007A81B
:103CF00040210191FCF737FD01F0FCFF6078800066
:103D00003158A07800220292424F434B434C664EFA
:103D100004952A468240C819194603681A4203D1FD
:103D2000641C491EF9D151E001F0E4FF0220039028
:103D300030603B487061049A32603068C007FCD143
:103D400007A80299435C0021082924D00591069315
:103D50002E49487880002E4A1058C7598D7801F0B6
:103D6000C9FF049A039830602E4870613260EF40BA
:103D7000F80703D00020069B059903E0104605993B
:103D80008840069B0343234F3068C007FCD17F2047
:103D90000340491CD8E707A8029943541B49887877
:103DA0008240497889001A4B5958CB191D682A421C
:103DB00002D0641CFAD30BE0029A521C0292402AF1
:103DC000049D154B154CA4D1019C03E0029C01E01D
:103DD0000298441C01F08EFF0027FD4307A80078DD
:103DE00000280FD0E4B2601CFCF728FA064607480A
:103DF0008660002E06D007A930462246FCF754FC08
:103E000037553D46284617B0F0BDC0463C0E001061
:103E1000885F0000FC3F0000A08601006079FEFF83
:103E2000D104000041030000FEB502A900274F7035
:103E300024220A704500022628463246FEF7E2FD9B
:103E4000F9430C282ED10191174C26607D20C0002B
:103E50006061012020602068C007FCD1062128464F
:103E6000FEF7BAFD0828F0D0104D28786978AA78B6
:103E700001F06AF8002814D0287869780002401808
:103E80000B4CE080E87829796A7901F05DF8002828
:103E9000019907D0E878297900024018A0803946B6
:103EA00000E001990846FEBD04800140F0010010C9
:103EB000480E001010B50A4C3A20606120461430BC
:103EC00021462C31074A9047E06A002801D00120A2
:103ED00010BD234630330FCB241D0FC4002010BD6E
:103EE00020020010F11FFF1FB0B549208200104CC6
:103EF00010492046FCF754F9FDF7BEFC00BF00BF97
:103F000000BF00BF00BF72B60F20C5022846FDF7F4
:103F100095FB00BF28462146FDF72AFD62B6FEF755
:103F200047F900BF00BF00BF00BF00BFB0BDC04623
:103F3000600B001010000010F0B58DB00691064621
:103F4000FEF7FAFB0446FEF753FB0490FEF7A4FBD2
:103F5000002E039402904AD00546FEF789FD2C20DE
:103F6000634F3D542820294600253D5426203954CE
:103F700032203E54F87F3021785438217854A0788C
:103F800034217854E0783C21785420793E217854CB
:103F90000620FFF73DFE442178523F220D23BB54FB
:103FA000786D04460D30B8653046293809280892E6
:103FB00000D892E0012E00D125E3062E0ED0702EFF
:103FC00000D194E1202E00D1FBE1222E00D1B0E3FC
:103FD000602E00D1DDE3152E089A0DD14449887C6E
:103FE00060732320085CA0730F238B5404E03F20F0
:103FF0003F490B5C3E48446D1A46981C24273C4DB3
:10400000E8552070287960702620285CA070282050
:10401000285CE0702C20285C20713020285C6071C6
:104020003220285CA071287AA979002902D00028C2
:1040300018D106E00299884203D0002801D0FF2859
:1040400010D13420285CE0713820285C20723C209C
:10405000285C60723E20285CA0724420285A20739D
:10406000000AE0720592D6B220463146FEF744F9C6
:104070003F2E05D8A0550599491C3F22A95401E0BF
:104080003F21695CCAB23F2A04D8000AA054481CE8
:104090003F21685401F02EFE069802280FD1002619
:1040A00014A4E85D864206D2686D815D2046FCF767
:1040B00037F9761CF5E70A20FCF79EFA0BE0039827
:1040C0004078012804D1E95D686D0C4A926A9047F6
:1040D0000498FFF77BFD0DB0F0BDC0467844007931
:1040E000400087440E0D0D0D0D0D0DB53EC4C046AC
:1040F0009C0200102530325800000000F85E0000DD
:104100007AE7FEF727FB089A0446D94FB85C0546C4
:104110003F2805D8786D217841556B1C1D46BB544E
:10412000A068002800D15BE3FCF79CFA796DEAB245
:104130003F2A04D888546B1C089A1D46BB54C0B251
:104140000022904200D14AE3EBB23F2B07D82E4623
:10415000A568AD5CCD54761C089B3546FE54521CB8
:10416000EFE71446FEF760FA0746C148045D466D66
:1041700000232246079601971146102BD2B22AD06F
:104180003F2A02D90A461B1DF6E7FD186D88B55473
:104190004D1C3E46089FC55540243F2A03D1224668
:1041A0003746079EEFE7019EF658360A0596EDB2B0
:1041B000079E059F7755079E8D1C089FC5553D2A74
:1041C0002246019FDFD8FA58EDB27255CC1C0899EF
:1041D00044542246D7E72346402A00D30AE77B7D92
:1041E000079CA3544B1C089E8355402505953F2AE8
:1041F00000D104E33D7DDBB2E5548B1C83553D2AA1
:1042000000D9FCE2FD7DDBB2E554CB1C83553D2A91
:1042100000D1F4E23D7EDBB2E5540B1D83553B2A11
:1042200000D9ECE27D7EDBB2E5544B1D83553B2A81
:1042300000D1E4E2BD7EDBB2E5548B1D8355392A03
:1042400000D9DCE2FD7EDAB2A554CB1D8355D3E65E
:104250000CAC20461546FEF775FA854E725D716D01
:1042600015463F2A01D800F026FC00F02BFC14462E
:10427000FEF75AFA07907E4F3C5D7B6D3F2C05D8C8
:10428000079802781A55641C08997C5401932146BA
:1042900023461A46079803789D4226D2D4B23F2C73
:1042A00001D913461FE007984019059046780198F8
:1042B0000655561C08997E5440233F2C12D0059F6A
:1042C0007F7CF6B287556A4F961C7E543D2C19466A
:1042D00009D821240598035DF4B201980355D31C35
:1042E00008997B5419466D1CD3E70B4682E6FEF70E
:1042F0001FFA05900020FFF78BFC5D4D0646FFF787
:104300005FFB089AAF5C6C6D3F2F00D97AE2E055F5
:10431000791CA95440233F2F00D16DE6C9B2320A5F
:104320006254089AB91CA9543D2F00D964E6C9B259
:104330006654F91CA9543D2F00D15DE6059A127808
:10434000C9B26254391D089AA9543B2F00D953E6CB
:10435000059A5278C9B26254791D089AA9543B2F24
:1043600000D149E6059A9278C9B26254B91D089AFB
:10437000A954392F00D93FE6059AD278C9B26254C0
:10438000089AF91DA954392F00D135E60193134637
:10439000059A5279C9B20794625439460831E954F2
:1043A000372F0BD81C46059A1279C9B2079B5A546D
:1043B000394609312955372F00D0B1E2019B079CBE
:1043C0001AE6FFF74FFC0190FFF768FC07902848BA
:1043D000006D0578002609AF062E06D0F0B2FFF773
:1043E00017FC3880BF1C761CF6E70026204F042EF1
:1043F00040D02846F040C00738D0F0B2FDF794FF17
:104400000899795C3F2931D87A6D438A53544B1C03
:10441000089C3B553F2929D007693F0AD754144FC0
:104420008B1C089C3B553D2920D80769D754104F59
:10443000CB1C089C3B553D2918D047687F88D75432
:104440000B4F0B1D089C3B553B290FD847683F6815
:104450003F0AD754064F4B1D089C3B553B2905D0BE
:1044600040680068D054881D08997854761CBEE7CF
:104470009C020010089C385D402800D3C1E0796D93
:10448000E54AD3790B54431C3B55402505953F28FD
:1044900000D1BAE19579DBB2CD54831C3B553D2860
:1044A00000D9B2E15579DBB2CD54C31C3B553D2850
:1044B00000D1AAE11579DBB2CD54031D3B553B2851
:1044C00000D9A2E1D578DBB2CD54431D3B553B2842
:1044D00000D19AE19578DBB2CD54831D3B55392844
:1044E00000D992E15578DBB2CD54C31D3B55392834
:1044F00000D18AE11278DBB2CA54024608323A553A
:10450000372800D981E1D2B209AB1B889D088D54B0
:10451000024609323A55372800D176E19D0109ABB0
:104520005B889E05B60E7519D2B28D5402460A32CA
:104530003A55352800D968E11D0109AB9B889E05D5
:10454000360F7519D2B28D5405460B35B34A089C07
:104550001555352800D158E19B0009AAD288960547
:10456000B60FF318EDB24B5503460C33AB4D089C18
:104570002B55332800D948E1DBB2CA5402460D322C
:10458000A64B089C1A55332800D13EE1D3B209AAA4
:1045900012899508CD5403460E33A04D089C2B5527
:1045A000312800D931E1950109AA52899605B60E44
:1045B0007519DBB2CD5403460F33984D089C2B552B
:1045C000312800D121E1DBB21201CA540246103277
:1045D000924B089C1A552F2800D916E1D2B2079B9E
:1045E0008B54024611328D4B089C1A552F28059B7F
:1045F00000D1FFE4D2B2019B8B5412308749089A54
:1046000088540346F6E41446FEF796F80090FEF749
:10461000B7F8824F0590FDF7EBFF0190395D7C6D97
:104620003F2908461FD87E4AD37863544B1C7B4EE3
:10463000089FF35540203F2915D05588DBB2E5543B
:104640008B1CF3553D290ED8DBB215682D0AE554B5
:10465000CB1CF3553D2906D01268DBB2E254081D8D
:104660006E49089A8854002203460794089F194609
:10467000102A30D0CBB23F2B01D90B4612E005985F
:104680008518EE78E6544E1C6448C65540203F2BF2
:1046900007D06D88F6B2A5558D1C604EF5553D2BA3
:1046A00002D90346121DE2E7059CA658360AEDB270
:1046B000079C6655CD1C594E089C3555079C3D2BD3
:1046C0000346EFD005988358EDB26355081D534952
:1046D000089BC854E5E703460022524C4F4F042A7A
:1046E000CDB20BD03F2D07D8A65C07984655481C85
:1046F0000899785403460146521CF0E7402D00D338
:1047000078E4FB4A1268079C62554A1C089BFA54DD
:1047100040263F2D7CD0D2B20198A054881CF8547A
:104720003D2D75D8009A1278C0B22254C81CF85496
:10473000B3E1FEF713F8089DEB4E735D746D3F2BEC
:1047400000D959E4417AE1545A1C725540213F2B5B
:104750001DD01F46837AD2B2A354BA1C72553D2F86
:1047600015D8C379D2B2A354FA1C72553D2F0ED07E
:104770008379D2B2A3543A1D72553B2F07D843799F
:10478000D2B2A3547A1D72553B2F00D0C1E00B4624
:1047900032E400263046FDF777FFD34C0546012072
:1047A000FDF7C2FD05903046FDF73CFE0898215C00
:1047B000606D07902C463F290F46019500D9F6E021
:1047C0000095E2782346079C62544A1CC64D08981F
:1047D0002A5440273F2927D1009D1C46E7E0089A2C
:1047E000E8B23F2808D8C04B5C6D002121546D1CF5
:1047F0009D542B46FFF700FC2B46FFF7FBFB059B68
:10480000FFF7FAFB3B46FFF7F7FB059BFFF7F2FBD1
:104810003346FFF7F1FBC046700200109C02001007
:1048200078020010415E00009B78D2B2A3548A1C2B
:104830002A543D2900D9B8E0059B5B8AD2B2A35423
:10484000CA1C2A543D2900D1AFE0D2B2059B1B6996
:104850001B0AA3540A1D2A543B2900D9A5E0059B35
:104860001B69D2B2A3544A1D2A543B2900D19CE0B3
:10487000059B5B685B88D2B2A3548A1D2A543929F0
:1048800000D992E0D2B2059B5B681B681B0AA35457
:10489000CA1D2A54392900D187E0059B5B681B6833
:1048A000D2B2A3540A4608322A5437297DD8019837
:1048B0000378D2B2079883540A4609328A48089B83
:1048C000C254372971D03C4601980379D2B2079877
:1048D00083540A460A328448089BC254352963D857
:1048E000019D6B79D2B2079883540A460B327E48F9
:1048F000089BC254352927462C46009D57D0A379E2
:10490000D2B2079883540C317748089A81540F46E5
:104910004DE00079D1B26054BB1D7355FFF76CFBBD
:104920003146FEF7CFFF295D6A6D17465054481C8B
:1049300028550346C0B23F2800D9B9E0059AD27A7B
:104940003A54881C684A089BD054C0B23F2800D90A
:10495000ADE0059A127B3A54C81C634A089BD054B8
:10496000C0B23F2800D9A2E0059A92793A54081DB6
:104970005D4A089BD054C0B23F2800D997E0059A01
:10498000D2793A54481D584A089BD054C0B23F28A7
:1049900000D98CE0059A527A3C463A548B1D524815
:1049A00008994354FFF728FB2746009D019C0C35CE
:1049B0003A461146A2799642CAB22FD23F2A03D96B
:1049C0000A46AD1D761CF4E705962B1F1B782E4674
:1049D000079DAB544B1C4448089FC35540243F2AB5
:1049E00005D1224627463546059E019CE9E77078A9
:1049F000DBB2E8548B1C3C48C3553D2A224627466F
:104A00003546059E019CDCD82A78DBB20798C25453
:104A1000CF1C3548089947543A46D2E73B46402ACE
:104A2000314E01D3FFF7E6FA304DEB79079CA354E2
:104A30004B1C089FF35540203F2A2ED0AD79DBB2A6
:104A4000E5548B1CF3553D2A27D8284D6D79DBB2F0
:104A5000E554CB1CF3553D2A1FD0244D2D79DBB2F4
:104A6000E5540B1DF3553B2A17D8204DED78DBB2EA
:104A7000E5544B1DF3553B2A0FD01C4DAD78DBB2EE
:104A8000E5548B1DF355392A07D8184D6D78DBB2E4
:104A9000E554CB1DF355392A02D10346FFF7ACFA92
:104AA00012480078DAB2A0540831F1556FE6019B44
:104AB0003C46FFF7A1FA2278EBB2CA546C1C089A64
:104AC0002546B4540CAA12782C46130609D0521E5F
:104AD000E3B23F2BF9D80CAB1A70421C04461046C7
:104AE000E9E72346FFF786FA9C02001070020010E7
:104AF000B40D0010FEB5524B98780125294681402F
:104B0000587880004F4A1058EC0302590A43009429
:104B100002515A6801924C4E82590A43825101F067
:104B2000E9F84A4C02200290206049486061256003
:104B30002068C007FCD101F0DDF8414988782A4699
:104B40008240497889003F4B59588B5993438B5188
:104B5000029A22603F4A626125602268D207FCD136
:104B60002A468240885910438851029820603A486A
:104B7000606125602068C007FCD100273E46304BAD
:104B8000072F25D099782846884001990978F9405F
:104B9000C90708D0597889002A4A51582A4BCA585F
:104BA0008243CA5008E059788900264A5158264B5A
:104BB000CA580243CA506E4001F09CF80298206027
:104BC0002548606125602068C007FCD17F1CD6E7BE
:104BD00098782A468240F10707D159788900194B05
:104BE0005958194E8B59934306E059788900154B53
:104BF0005958154E8B5913438B51029B2360164B0A
:104C0000636125608E19009BCB182768FF07FCD1D4
:104C1000376897433760029E26600F4E66612560B5
:104C2000D2432668F607FCD1019F7E1C7F78002FB7
:104C30000196054E94D1186810401860FEBDC0461C
:104C40003C0E0010885F0000FC3F00000480014023
:104C5000E02E00008A20000041030000F8B500901B
:104C60002F490B68012293430B6000BF00BF00BFB8
:104C700000BF1F2313480E685DB2002D1ED402250D
:104C8000AE430E60DEB2009FF74017407E429702AF
:104C90003E4000BF00BF00BF00BF0468BC43A41972
:104CA000046000BF00BF00BF00BF0C682C430C6055
:104CB00000BF00BF00BF00BF5B1EDCE716430E60F5
:104CC000F8BDC046FC3F005010B508494A780024A2
:104CD000904209D0042801D9E44305E0487040001F
:104CE0000349085AFEF70AF9204610BD18020010C1
:104CF0007C5F000070B516460D460446FDF794FC37
:104D0000C07D002808D005480681C580047104488C
:104D1000016880220A43026070BDC046880200100C
:104D2000FC3F0250F0B5FFB0FFB083B0FDF77CFC54
:104D3000006900214D4A0B46202B0ED0012425028C
:104D400001AE755255180027AF6175180646DE4052
:104D50002640AE8020315B1CEEE701A8FEF76AFC1E
:104D60007FB07FB003B0F0BD014948807047C046B6
:104D70009202001070B560224A43A84B9A1800288E
:104D800003D0012804D1537E0FE00120507570BD7F
:104D90000923022809D15A243C25155358240025FB
:104DA00015552024145D5C25545301241476147584
:104DB00006255D4355192223EB5C9376AE8C568114
:104DC000ED8C1581012805D1442048435D490C54E0
:104DD0000818437170BDC046B0B505460F4840681D
:104DE000E840C00700D0B0BD0C462846FEF7D8FD0D
:104DF0000028F8D168011D490D18E078FDF718FC6E
:104E0000E8610028EFD021782970E178E970E16845
:104E1000406800680818E860B0BDC0466002001035
:104E2000B0B54401114D2B19EFF3108072B62C5D13
:104E3000022C05D1DC888C4202D11C89944204D01A
:104E4000002464254D431D615C611A81D980812154
:104E50004900198080F31088B0BDC046400101228E
:104E60001202024B1A521818818070476007001016
:104E700080B5002805D001460620642906D301210B
:104E800001E006200021FFF7E9FF80BD41434B22EE
:104E9000D200521A92B2FFF7C3FF80BDF0B585B0C1
:104EA00007460478FDF7C0FB0290807E0190B87041
:104EB0004420604323490E1860206043EB490D18DD
:104EC0000395223504973F1D00218C1D3C2C0AD0F0
:104ED0006818049A5118091D0622FBF795FB002853
:104EE0002146F2D00FE00398C07F049949788142AF
:104EF00009D120200399085C0199814203D1002047
:104F0000C04305B0F0BD039D28461E304022049CDE
:104F10002146FBF7C9FB0020687630716178B171DA
:104F2000A278F271029AD27E2A820C360029E8D049
:104F3000002232803A78331F1A70BF1DB61D491EF9
:104F4000F4E7C0461006001010B5C0430023082B3C
:104F500008D2440040B2002801D531204440204608
:104F60005B1CF4E748400021082908D2430040B206
:104F7000002801D5312043401846491CF4E7C0B24F
:104F8000811A4842484110BDF8B5002801D01123CC
:104F900000E00123002801D01EA500E01BA5602130
:104FA0004143B24A5718397E002603291DD0F443E5
:104FB000022907D0012925D1FE75FE7400281BD0D7
:104FC00003201AE00093FDF72DFA0646401C1AD084
:104FD000B87E285C0121FFF741FF002E13D001218C
:104FE0000098FFF73BFF03210CE03E750120F874A9
:104FF0003E600421344605E00120FDF719FB4068BE
:105000000660022139762046F8BDC0460B0C0D0E15
:105010000F0000001B1C1D1E1F0000009806001042
:10502000F8B50020284C217805294BD80090C046BF
:105030007944097949008F4402180D13081E234949
:1050400099220A600B2200211AE020499922CA61A4
:10505000032214E01D4999228A6001210A460FE0CB
:105060001A499922CA60022209E0184999224A6025
:105070000121024604E0154998220A620422012116
:1050800001231D4695408E00114FBE59DF03F05994
:105090002843F051A27061700E48315829433150B5
:1050A00098020D490A6802430A600C4800680C49DE
:1050B000FBF75CFB0B49C860FF20086004204861D7
:1050C0000098F8BDC043F8BD3C0E00107440044089
:1050D000885F0000FC3F0000808004400400001056
:1050E00040420F000080014070B50546FDF79CFA74
:1050F0000446284600F096FD2846FDF793F9014640
:105100000022D0434B1C32D0012930D060206843AC
:1051100056490E18F274707EB17D002906D1062121
:105120004143711822228A5C511E8A41B275002ABD
:1051300001D0082100E009213176002A06D0E07E66
:10514000308202202946FFF715FE0EE00121F1759D
:10515000401CF17F884208D2062141437018222169
:10516000405C002801D1E07E30820020707570BD67
:1051700009488188002905D0491E81808AB25142A0
:10518000514100E00121002904D00178012901D119
:10519000022101707047C04618020010F8B58B4814
:1051A000006800283AD01E480178491C0170C9B235
:1051B000642933D30021017072B6C0211948415CC3
:1051C0006022825C037813400B4009214901425C54
:1051D0001A404921890041580968C423C3581D68F1
:1051E000436E1B684468246862B6C8268768BC4260
:1051F0000AD1876EBB4207D18759BD4204D125270A
:10520000FF00C759B94209D0002A07D0855125228D
:10521000D200815083668460FEF766FEF8BDC0460A
:10522000360100106003001010B51048817C002981
:105230001AD0017D002903D00020FFF7A5FE0CE065
:10524000417D002903D00020FFF74EFF05E0C07D1F
:10525000002802D00020FDF7B1FF00242046FDF712
:10526000C5FF2046FEF71CF810BDC046980600108A
:10527000F8B5F8480068002800D19BE0544DAC69AF
:1052800054480768AF61FEF7A9FB06462A461D325F
:1052900002210091FDF714F92A461E3201253046FD
:1052A0002946FDF70DF93E1B4B48864200D30646C2
:1052B000474F387A00287DD0397C00291AD0B2B205
:1052C000FB899C1A0020934200D20446FC81934241
:1052D00011D80720012903D10121FFF7BFFD07E005
:1052E00000242146FFF7BAFD20462146FEF7F4FBD5
:1052F000002038742846BA7A397F8B0710D4012AE7
:1053000022D0022A1BD0042A54D1B0B2B98A0A1A78
:1053100000D20022BA8281424CD8FEF707FCF8BDC9
:10532000042A22D801219140162211421DD0FEF7F5
:10533000A1FAB87A03283DD00020B872F8BDC90799
:1053400016D10021798220E0B0B27A8A131A00D2F5
:1053500000237B8282422DD8C8072ED10098B872D4
:1053600001203873FEF7F6FAF8BD0028DFD021E0FF
:10537000798A7118184A914200D3114679827D22A8
:10538000D200FB795343994215D27978002911D084
:10539000B9884A424A410124604010430AD107209B
:1053A000FDF7B4F9002805D10020FEF731FCB988DB
:1053B000884206D2F8BD022000E00120FEF776FA0E
:1053C000F8BD3C747D208000F881F8BD540E0010BB
:1053D000940D00107C020010FFFF0000F0B59FB09C
:1053E0009C48006800284BD0FDF756F91490FDF753
:1053F000FFF8054600F07EFC4C21974E705A0028BD
:1054000002D0401E705200E000204E27F15B0029C0
:1054100001D0491EF1534221725A002A06D0521E71
:105420007252110402D1212100227254000409D1C8
:105430007D20C000FFF798FCFDF714FC0028FBD18D
:10544000FDF7C4FC2024305D844AA84203D11078C3
:105450001499884208D001201E210022FFF74AFC3F
:105460002846FEF7B3FB7D4AF05B002805D11746BE
:10547000FDF762F93A46FF21C17035551498107056
:1054800000F008FC054600283CD02220724C012187
:1054900021544020FAF7D2FE6065002857D0402101
:1054A00000F004FC002000F0FBFB02206A4C676D5A
:1054B0003E782670402E00D9EEE0082E00D8EBE0B2
:1054C0001490B01EC1B23846FCF716FFB9198A1EF7
:1054D0001278491E09787B7823710902891889B2EC
:1054E000884200D0D8E04C205D492152B978A171A2
:1054F000F87820723A7922737A79227400292DD0B3
:105500000D212CE02120544C205C002800D0CAE062
:105510005248007800281ED0FDF70EF94078012887
:1055200000D0C0E03F20FCF73FFB1421084200D12F
:10553000B9E0012040210646FAF76AFE60650028BE
:1055400000D1A2E04021FCF75BFB3046AEE7002033
:1055500000F0A6FBA7E0FCF781FFA4E00721791883
:10556000BA792165A274002D02D03C49097808E07F
:10557000FEF740FB217C39480078814200D089E069
:10558000207AFF2815D0884213D000280ED1606DF4
:10559000C1792175017A2176417A2177817AA177C3
:1055A000017BC07A0002401840216052FCF7B0FF36
:1055B00076E0A179002901D1217BE1770123FF2841
:1055C0000AD12220215C002906D04221254A6252BC
:1055D0002121635400212154109320488678257B93
:1055E00085704178129127794770032105200F912A
:1055F0000E900246FFF77EFB1948FFF7B5FB23200C
:105600000021139011912154701B411E8841129961
:10561000B94200D11090A67C30462038632712286A
:1056200043D8400078448088400087449C00F300C1
:1056300089001D001D00B200BE017E00F2025F0065
:10564000F301F301F301F301F301F301CD00D601FE
:10565000EB01C046540E00109C0200100000001028
:10566000B80B0000701700000127B802FAF7E6FD3A
:10567000002800D1AFE10546202029460F9A0028D6
:105680002AD00A702031401EF9E72020205CFEF766
:105690009DFA08E0FDF7F0F82020205CFEF796FA6E
:1056A000606DFAF7FCFD1FB0F0BD012E00D1DEE108
:1056B000612E00D1CCE1622E00D1AFE1702E00D17D
:1056C000C2E1712E00D1B6E1722E00D0A2E1FEF748
:1056D000AFF8FEF739FAB9E1206D41781F2900D9FA
:1056E00074E1232E00D102E2042201E2FDF732F838
:1056F0000546206D00782870FFF792FC002800D046
:1057000067E1266D7078401CFAF798FD6860002804
:1057100000D160E1B11C00207278904200D312E207
:105720000A5C6B681A54401CF6E7A06C216D4A783D
:105730000978425406201499FEF7FEFB1098D4E134
:10574000FDF70CF8216D0A7842724978817208469B
:10575000FEF76AFB002800D1B9E10120139EA05595
:10576000FDF744FB2CE2206D817842781202551837
:10577000C61C0027042F00D1B2E1F8B2FCF758FF95
:10578000C58271783278120251180183B61C7F1CD1
:10579000F0E7216D487815AA1070212800D350E158
:1057A0008A7815AB5A84CA789A84091D0022139E00
:1057B000904200D1BDE18B5C15ADAD18AB70202BD4
:1057C00000D3BDE1521CF3E7206D05780227302D90
:1057D00000D91FE140194078FFF776FA002800D081
:1057E00018E1206D4019C178109180780F90FD4923
:1057F000086808221292104308606E1C0127FA4DB7
:10580000BE4200D1B3E1206DC05D2946FAF76DFDBF
:105810007F1CF5E71098002800D1CCE101200E9004
:105820008002FAF70BFD1190002800D1D3E0206D23
:1058300001460E310D9101460D310C9101460C319E
:105840000B9101460B310A9101460A31099101463B
:1058500009310891014608310791C11D0691811D4A
:105860000591411D0491011D0391C11C02911090ED
:10587000801C019000210F46109840780D22424371
:10588000FFB2974200D324E10198C05D8209C9B2FA
:1058900012914B011199CA54CA188306DB0F537039
:1058A0000299CB5D1D460E990D40212695555D0749
:1058B000AD0F20269555C006800DDB08C0189080DE
:1058C0000398C05D0499CB5D1D07ED0F41269555EA
:1058D0009D06AD0F402695550002C01880B2800984
:1058E00090845807800D0599CB5D5D0840194425CB
:1058F00050530698C05D4506ED0F61269555DB07B0
:105900009B0FC5095B19602553550799CB5D9D0712
:10591000ED0F812695551D07AD0F80269555800604
:10592000800D1D094019642550530898C55D0998DC
:10593000C05DC606F60FA12156544106890FA02668
:105940009155D907890D6B00C918C309C91884235B
:10595000D1520A99C95D8B080F9D2940C025515528
:105960000007800DC018A42150520B98C05DC109DA
:10597000C123D1540C99C95D4B07DB0FE125535569
:10598000CB069B0FE02553554006800D4B09C018F0
:10599000C423D0520D98C05D8907890D0818E421F1
:1059A000505212990D37083166E72020FAF746FC6D
:1059B000002810D005460E982870216D48781F28C1
:1059C00004D88A78EA70032A00D8E9E02846FAF772
:1059D00066FC02271EE007271CE0FCF725FE216D70
:1059E0000A78012A45D1002203468D18AE786F78D7
:1059F0000C2A40D03F043602F619ED78751920C301
:105A0000D21CF2E7216D08780227002802D0102866
:105A100000D887E0139827540026D5E0FCF712FF42
:105A2000139EA0550028F7D160201499FEF784FA40
:105A300000201190C4E0256DFDF7FAFE20781028B3
:105A40002AD80220139E7CE0FDF7F2FE7020B3E01E
:105A5000FCF79CFE139D6055052801D0002866D1F7
:105A600060201499FEF768FA00266655B0E0012020
:105A7000A2E000200DE0390289198182E978C17520
:105A80002979017669794176A9798176E979C176B2
:105A90001098119031208FE0287815A90870687847
:105AA000AA78EB78CB708A70487068792A79AB79DC
:105AB000ED79CD718B711202101888801098002832
:105AC000139E02D015A8FDF7B7FF702026E0222014
:105AD00072E0119D2846FDF7ADFD2846FAF7DFFB81
