:020000040000FA
:10000000E8120010D9010000E1010000E301000046
:1000100000000000000000000000000000000000E0
:10002000000000000000000000000000E5010000EA
:100030000000000000000000E7010000D51F0000E4
:10004000EB010000EB010000EB010000EB01000000
:10005000EB010000EB010000EB010000EB010000F0
:10006000EB010000EB010000EB010000EB010000E0
:10007000EB010000EB010000EB0100005D17000048
:1000800081200000AD200000EB010000EB0100002A
:10009000EB010000DD200000EB010000EB0100009F
:1000A00091150000EB010000EB010000EB010000E6
:1000B000EB010000C118000069180000EB0100000E
:1000C00000F002F800F05DF812A030C808382418DB
:1000D0002D18AC4201D100F054F80FCCA246AB462B
:1000E0000CA730CF2D1B083F3F197C427F1E544484
:1000F0002D090426F441641EAC4201D300F041F8FE
:100100000126334200D0FB1A3343984754465D46DC
:10011000DFE70000404A0000604A0000704700002E
:100120000023002400250026103A01D378C1FBD813
:10013000520700D330C100D50B60704710B5642959
:1001400002D100F013F910BD752902D100F00EF9AB
:1001500010BD782902D100F03FF910BD002010BD7C
:100160001FB50098019900F092FF01F09BF8040080
:100170000020002104F0B0FB401C60601FBD10B5E2
:1001800010BD01F0DAF81146FFF7EAFF02F0D2FFE6
:1001900001F0F2F803B4FFF7F2FF03BC01F0F4FF43
:1001A00070B505460C46164602E00FCC0FC5103E52
:1001B000102EFAD2082E02D303CC03C5083E042E1B
:1001C00007D301CC01C5361F03E021782970641CD8
:1001D0006D1C761EF9D270BD07488047074800475E
:1001E000FEE7FEE7FEE7FEE7FEE7FEE70448054917
:1001F000054A064B7047000021200000C1000000A6
:10020000E8060010E8120010E80C0010E80C0010DE
:1002100070B504F040FB00230A46DB4300211B1AA3
:10022000914101D2002070BD044600F007F805009E
:1002300002D0214600F075FA284670BD70B506461A
:1002400000F004FF056830460B30C408E400B442F7
:1002500001D8002070BD68682A46002818D00168BF
:10026000A14211D30B46214608318B4208D3436883
:1002700001194B6003681B1B0B605160046001E0B7
:1002800041685160001D70BD024640680028E6D1FB
:100290002146284600F0E6FE0028DCD170BD70B58E
:1002A0000446051F00F0D2FE0068002C1AD04468F6
:1002B00001E020466468002C01D0AC42F9D301680B
:1002C0000A18AA4204D12A6805468918016000E08C
:1002D000456028684119A14205D1616869602168BB
:1002E0004018286070BD6C6070BD000010B50249F8
:1002F00002F0D0FA10BD000018050010FFFFFFFF4C
:100300000FB4054910B503AA029800F04BFF10BCCA
:1003100008BC04B0184700001805001070B504466A
:1003200085690068C10601D5302600E02026C00797
:1003300007D070BD62683046A1689047206A401CB3
:1003400020626D1EF6D570BD70B5044685690078D3
:10035000C00707D170BD6268A16820209047206A5D
:10036000401C20626D1EF6D570BD0000F7B500255B
:1003700075291068009914A611D0C046C0460028FF
:1003800002DA404211A608E0009909688A0701D5FF
:100390000FA602E0490704D50EA6012501E0C046DC
:1003A000C046009F0024243704E000F062FF303193
:1003B0003955641C0028F8D12B4632462146009856
:1003C00000F098FEFEBD0000000000002D000000BF
:1003D0002B0000002000000070B504460D462146A9
:1003E0001068C046C0462188090502D50F4A7A44E4
:1003F00002E00E4A7A440E3223460021243305E0FF
:1004000006070009360F965D5E54491C0028F7D197
:1004100020780023000705D5702D03D0002901D0D6
:1004200002231132204600F065FE70BD1245000027
:10043000F3B50446002081B020622046E168884779
:1004400000287DD0252802D06268A16883E0454F4E
:1004500000257F442046E16888472028064608DBBF
:10046000312E06D2B81920380078002801D0054373
:10047000F0E7A80701D5042085430020E061074686
:10048000A0612A2E0AD0304604F01EFA002827D098
:10049000B8000019303E0090866119E00298BA0059
:1004A000121902C8916102902046E1688847012F25
:1004B000064617D1E06900281FDA202085431CE09A
:1004C00000980A2180694843009980193038886172
:1004D0002046E1688847064604F0F6F90028EFD187
:1004E000012F0AD02E2E08D12046E1688847064603
:1004F000202005437F1C022FC3DBA069002803DAFC
:100500004042A06101200543E80701D01020854347
:10051000002E24D030464138192803D80120C002CB
:1005200005432036204625603146029A1546FFF7DE
:1005300005FE00280CD0012807D0ED1DE80800E0DA
:100540000DE0C0000830029077E72D1D029574E79A
:1005500062683046A1689047206A401C6CE7206AB8
:10056000FEBD0000D6440000F7B50F460026009CF3
:100570002578641C002D05D000F060FD0068405D0A
:10058000C007F5D12B2D02D02D2D18D0641E394671
:10059000029A204600F01AFE002F04D03968A142CA
:1005A00001D1009939607105022400290BDA40421B
:1005B000002803DD00F04EFD0460A007FEBD012011
:1005C00080020643E3E70028F8DA00F043FD046008
:1005D0000048FEBDFFFFFF7F034670B502460B4398
:1005E0009B070FD10E4CE60100E008C208C91D1B95
:1005F0009D433542F9D0D9B21170521C00290DD05B
:100600001B0AF8E70B78491C1370521C002B05D00D
:100610000B78491C1370521C002BF3D170BD0000E5
:100620000101010130B5441C03E00178401C0029A0
:100630000DD08107F9D10B4BDD0104C8D11A9143CC
:100640002940FAD0001B0A0603D0C01E30BD001B93
:1006500030BD0A0401D0801E30BD0902FCD0401E0E
:1006600030BD000001010101F8B5042A2CD3830735
:1006700012D00B78491C0370401C521E83070BD00C
:100680000B78491C0370401C521E830704D00B7862
:10069000491C0370401C521E8B079B0F05D0C91AC2
:1006A000DF002023DE1B08C90AE0FFF779FDF8BD53
:1006B0001D4608C9FD401C46B4402C4310C0121F03
:1006C000042AF5D2F308C91A521EF0D40B78491C3B
:1006D0000370401C521EEAD40B78491C0370401C66
:1006E000012AE4D409780170F8BD01E004C0091FB3
:1006F0000429FBD28B0701D50280801CC90700D0DA
:100700000270704700290BD0C30702D00270401C52
:10071000491E022904D3830702D50280801C891E4A
:10072000E3E70022EEE70022DFE7000000220309F2
:100730008B422CD3030A8B4211D300239C464EE0FC
:1007400003460B433CD4002243088B4231D30309B8
:100750008B421CD3030A8B4201D394463FE0C3096A
:100760008B4201D3CB01C01A524183098B4201D382
:100770008B01C01A524143098B4201D34B01C01A6D
:10078000524103098B4201D30B01C01A5241C308E5
:100790008B4201D3CB00C01A524183088B4201D354
:1007A0008B00C01A524143088B4201D34B00C01A40
:1007B0005241411A00D201465241104670475DE055
:1007C000CA0F00D04942031000D3404253409C4618
:1007D000002203098B422DD3030A8B4212D38901D5
:1007E000FC2212BA030A8B420CD3890192118B426C
:1007F00008D3890192118B4204D389013AD0921116
:1008000000E08909C3098B4201D3CB01C01A5241D0
:1008100083098B4201D38B01C01A524143098B4299
:1008200001D34B01C01A524103098B4201D30B0182
:10083000C01A5241C3088B4201D3CB00C01A5241A7
:1008400083088B4201D38B00C01A5241D9D243088E
:100850008B4201D34B00C01A5241411A00D20146CB
:100860005241104663465B1001D34042002B00D535
:100870004942704763465B1000D3404201B50549C9
:10088000002802DC491C084000E00846C046C0467B
:1008900002BD00BFFFFFFF7F704770477047000039
:1008A000F0B5F94D0C091E092C402E402F468BB097
:1008B000A7437DD0B543FCD0002E7AD0002CFCD0CD
:1008C0000D465D40ED0F2543AC1BFF25AD046419BB
:1008D0000894C502440DC9022143500DDC020443B3
:1008E0000120C00701430443D2020191200C110CE6
:1008F00000958C46010423468B430A916146090406
:10090000E24D8A430991010A7D44491980390978E9
:1009100005464D4301266D18F605751B6943C90C44
:10092000640B891C4C436418B5012C1B250C2E0448
:10093000B4434C434D43210C691889090591009D2E
:10094000E90701D00121C90704912C4601996708E4
:10095000CD072F434C08059DE10B4D432D0C294637
:100960006646754302950D4645432E46029D7D1B06
:10097000B44100950D465D4301942C0C2F040D46A7
:100980005543AE462D0C3D43029503947546049C99
:100990002D04641B049406D2029C039D641C002653
:1009A00075410395029401AC70CC009F7D1B01E062
:1009B0003EE162E1B4410904009507910194059973
:1009C000A4086143090C0C464443650BE7040C463C
:1009D00066467443A646640B3C43039502947446F2
:1009E000049DE4042C1B049406D2029C039D641C09
:1009F000002675410395029401AC70CC009F7D1BCD
:100A0000B44101940C465C430095650FE7000C4629
:100A10005443A646640F3C43039502947446049DD8
:100A2000E4002C1B049406D2029C039D641C002647
:100A300075410395029401AC70CC009F7D1BB441BD
:100A4000AE09AF06049DC900AD092F43049DA4065D
:100A5000AD060495079D344369180791059DE10B88
:100A60004D432D0C29466646754302950D46454378
:100A70002E46029D7D1BB44100950D465D430194B9
:100A80002C0C2F040D465543AE462D0C3D430295CC
:100A900003947546049C2D04641B049406D2029CA6
:100AA000039D641C002675410395029401AC70CC33
:100AB000009F7D1BB44101948C050694079C890A14
:100AC000611800950791019C0599A4086143090CE0
:100AD0000D464543680BEF040D46644665436C0BB9
:100AE0003C43049FED047D1BAC4602D20025641CF0
:100AF0006841009E019D371B85410846584301957A
:100B00000C46460FC5005443600F28436546E40079
:100B10002C1B02D20025401C6E41019D3F1AB5419D
:100B20002846BD09800628438446A009BF064E0218
:100B30000699A40676180743079D002068410A9984
:100B4000079019430020099B00906046FF1913434A
:100B50004041E20F64003A43A4460446D71A8C4150
:100B6000A04203D90120009020463A46C70F9418AE
:100B700040416246D20F2243644664000494009CC4
:100B8000BE466400D71AA446044602978C417746B5
:100B9000002F01D1A04204D96046401C8446029A2D
:100BA0002046C40FA64694184041049A0546D20F29
:100BB000224364466400D31A8D417146002901D155
:100BC000A84202D928461A46641C10430122002874
:100BD00000D0164361020020079B891904465C413E
:100BE0000223002C02DB491813466441089DCE0AFB
:100BF0002D145D194B056705E10A2C050D1908999F
:100C00003E43C9076940002B08D0934006D3002219
:100C1000761C5141002B01D1760876001C4A002D2C
:100C200043DB154241D0AA433FD030460BB0F0BD64
:100C300006180D464D41174C7642AC411AD3951813
:100C40001C465C41134A6D42A24113D30122520556
:100C50004C00D4420AD15C00D4420BD04B4002D5A8
:100C600092021143E2E749004908DFE75940C90F02
:100C7000C90718E000200849D8E7054801420DD10E
:100C80000342F7D0F2E700000000FF073140000008
:100C90000000F07F0000E0FF0000F87F114859409D
:100CA0000143C01241400020C0E70123089A9B067F
:100CB0009A4205DC032252078918C90FC907B5E714
:100CC000052252078918074A1143D2125140ADE755
:100CD00070B515461C4602460B4628462146FFF7CE
:100CE000DFFD70BDFFFFFF7F30B50346CA02400D38
:100CF0001043164D164C0A1502D02043002A06DB7D
:100D0000AA1A002A12DDD040FF2A0BDC30BD5205A2
:100D1000520D01D140004008AA1A07D4D0404042E9
:100D2000FF2A01DD002030BD0028FCDD4A00002B39
:100D300001D0012000E00020101801225205D0420D
:100D4000F0D8C817C043604030BD00001E0400004A
:100D5000000000800346CA02400D10B510430A157A
:100D600004D00124E4072043002A05DB0A4CA21A20
:100D700004D4D040FF2A00DD002010BD4A00002B23
:100D800001D0012000E00020101801225205D042BD
:100D9000F2D8C817C04310BD1E0400001F22030C68
:100DA00002D10F22000402D0030E03D004E0002081
:100DB000014670470002083A030F01D10001121FDB
:100DC000830F01D18000921E002801DB4000521EDB
:100DD000120551184205C012411810467047C10F44
:100DE000C90700D04042012292071143D6E70121F2
:100DF0008907D3E7F0B58B4C0F09254689B0BD4371
:100E00007BD01D092646AE43FAD00E465E402740F1
:100E1000F60F3E43254071D024012142FBD0FF2430
:100E2000AD19A4042D1B039501252D05DB02DB0A5A
:100E3000C9022B43C90A29431E010901040F130FDC
:100E4000050121431701880B820391432D098C462C
:100E5000A90B1E438A039543B30B9A0396433F099C
:100E6000BA0B9403A74302962E467E430497B646D8
:100E70004E19D7190C460196544305977E43371BEC
:100E80007646BF1B3601B646BE0B3619009676462F
:100E9000BC043719009C01D3641C00946400002F2B
:100EA00001D001263443029E049F754366467E436B
:100EB0000496760034196E0034190094029C019E49
:100EC0001C196643751BAE46069465464519059C7C
:100ED00005956C43594375460891691A0191049E22
:100EE00001465143A41B0491611A009C0791E1063D
:100EF00005D061090122114302E072E06EE0610950
:100F0000089D00272C0A2D066918049D7C412A0A99
:100F10002D066918019D6241AC0DAD026D1854415A
:100F2000079A910D920255196141029A64465843FD
:100F30005443069B059A5A43121A131B9A0E9B019F
:100F40005B187A41010B0005C3185141220A2006A3
:100F500044195A419A4200D2491C01204002814260
:100F600003D315230226F64302E014230326F64397
:100F70002020C51AA9401746AF40DA400A43204650
:100F80000399D8400914731819055118039A384366
:100F9000D2075140AC4009D00122944006D3002230
:100FA000401C5141002C01D1400840001E4A934290
:100FB00012D3012203989206904207DB05204007D6
:100FC00009181A480143C012414004E003204007B9
:100FD0000818C10FC907002009B0F0BD0020F107B3
:100FE000FAE705180C464C4111486D42A04115D353
:100FF00094181A465A410E48644290410ED301207B
:101000004A004005824209D35A00824206D3594021
:10101000C90F084AC90700201143DDE7002006492F
:10102000DAE700000000FF07FE070000FFFFFF7F78
:101030000000E0FF0000F07F0000F87F10B500F036
:1010400031F9001D10BD00BF913800000048704705
:1010500088020010004870478002001070477047F7
:101060007047704738B504460A4600206946C046B6
:10107000C046002805D002462046009900F016F927
:10108000012038BD10B5012000F051F910BDF8B5B0
:10109000C046C046054600200C460C20C046064609
:1010A000A819A0420DD9324669460020C046C04664
:1010B000070001D100F03BF90098A04200D005469E
:1010C000C419FFF7C3FFF61D07460560F008C0000E
:1010D0004619284600F008F8B44204D03146386872
:1010E000A21B00F0E3F8F8BD0021016041607047E9
:1010F0000C207047FFB504460D4681B024300090A7
:101100002168880604D51022E0699143216000E03F
:101110000120A84201DD471B00E000270498A169D7
:101120007A191018081AA0612078C00602D4204647
:10113000FFF7F4F8002608E003986268A168805D74
:101140009047206A401C761C206204988642F3DB9C
:101150002078C0060AD52046FFF7E0F806E062686E
:10116000A16830209047206A401C206238467F1ECC
:101170000028F4DC07E000986268A168405D9047B1
:10118000206A401C206228466D1E0028F3DC2046A1
:10119000FFF7DAF82078000602D5022005B0F0BD8E
:1011A0000120FBE7084B70B50D467B4400F09DF82D
:1011B0000446284601F0F4FA002802D00020C0437B
:1011C00070BD204670BD0000E7160000F7B515465B
:1011D00082B00027029C2078641C0197302802D03E
:1011E000002D15D015E020780127641C782804D044
:1011F000582802D0002D09D00BE0002D01D0102D71
:1012000007D1207800271025641C02E0082500E0A3
:101210000A250026009610E0009901276943081866
:1012200029467143020C80B200908E183804864221
:1012300001D3012001902078641C294600F068F851
:101240000028E9DA0398002805D0002F01D0641E99
:1012500000E0029C04600198002806D0FFF7FAFE27
:1012600002210160C81E05B0F0BD0099300408439A
:10127000F9E701468008081A02091018020A101836
:10128000020C1018C008820012185200891A01E0DE
:10129000401C0A390A29FBD27047000000487047F9
:1012A0008002001000487047A002001010B50346ED
:1012B000406801E003464068002801D08842F9D325
:1012C0001868C3188B4206D0CB1CD808C000001D7C
:1012D000411A521A0146081D0A60FEF7E0FF10BDD0
:1012E00001694A1C02610878704700B58FB002910D
:1012F0000021059105490193794403911146049019
:101300006846FFF795F80FB000BD0000E5FFFFFF4E
:101310003A2800D23038202302469A43412A01D38A
:1013200010463738884201D30020C043704710B5BB
:1013300000F030F800F028F810BD7546FFF7AEFF5A
:10134000AE46050069465346C008C000854618B041
:1013500020B5FEF74BFF60BCB64600260027C0C58F
:10136000C0C5C0C5C0C5C0C5C0C5C0C5C0C5403D5D
:10137000490849008D46704710B50446C046C0462E
:101380002046FEF707FF10BD10B5002801D000F081
:10139000FBFE10BD10B5012805D0002103A000F010
:1013A00065F8012010BD09A1F8E700005349475234
:1013B000544D454D3A204F7574206F662068656125
:1013C00070206D656D6F7279000000003A204865ED
:1013D0006170206D656D6F727920636F72727570C8
:1013E00074656400024670B50A4392072AD11E4D07
:1013F000EE0104C808C9541B9443344017D0D0B23E
:10140000D9B2401A2106014310D190B299B2401AC4
:10141000210401430AD110021902000A090A401AE4
:101420002102014302D1100E190E401A70BD9A42DA
:10143000DFD010BA19BA884201D9012070BD00204E
:10144000C04370BD02780B78401C491C002A09D0AB
:101450009A4207D102780B78401C491C002A01D01F
:101460009A42EFD0D01A70BD0101010170B5054656
:101470000C460A2000E06D1C00F087FE002D06D00F
:1014800028780028F7D102E0641C00F07EFE002CD2
:1014900002D020780028F7D10A2000F076FE70BD37
:1014A00030B58C180278401C13071B0F01D103784C
:1014B000401C120906D10278401C03E00578401C4C
:1014C0000D70491C5B1EF9D101E00B70491C521EC6
:1014D000FBD1A142E6D3002030BD0000B0B51648D4
:1014E00001681022914301600120420313498B6877
:1014F00013438B600022434B202A04D09C18002504
:10150000A560121DF8E70E4A0223D36013615361F0
:10151000536290621060D0620A4800680968FFF761
:1015200005F90949FFF702F90002FF21C9434018F4
:1015300033490860B0BDC04638820440788004401A
:101540006C40044054010010007C920010B52C49FE
:101550000A68FF239A430A60072800D90020012265
:10156000130682400C6814431C430C6082000B4637
:101570001033D0580028FCD5072212060B6893437D
:101580000B60410001D5002010BD0004800D10BD8E
:10159000B0B51B48016B0A04120E12D0194A5368E9
:1015A0005B1C5360024610320023082B1ED0090A30
:1015B000D940C90701D0116800E00021121D5B1C51
:1015C000F3E7CA031AD50F4A083203461033002442
:1015D000082C0BD00D46E540ED0703D01D682D0407
:1015E000AD0D1560121D1B1D641CF1E707210906D6
:1015F00002688A430260034801210160B0BDC04611
:1016000000C00140F0030010F8B5D14E32217160E6
:10161000010C01D1070B01E0C70B0E37B760F76073
:10162000341D35461835CB4A204629469047B069C7
:10163000002801D00120F8BDC64934207060B76091
:10164000F7603078002800D0C3480A463061204651
:1016500029469047B069411E8841F8BD10B5002168
:10166000074AA82908D05358984203D353189C68B6
:10167000A04202D30831F4E7FEE7187910BDC04656
:10168000C4490000F8B56D4C0020A06060600120E6
:10169000850720262E6006202061084F2069062835
:1016A00009D12068401C2060B84202D203F0E0F863
:1016B000F4E70B202061AE612069F8BDFF0F000048
:1016C000B0B518490A68022313430B60CA6F202380
:1016D0001343CB673F21CB43134A11681940116074
:1016E000146801210C43146054681C405460536812
:1016F0000B4353608B076C249C614C021568254397
:101700001560556825435560D2225A611A61022836
:1017100001D1A020D860C803044A1060402018609E
:101720000846B0BD048004403040044000E100E0C1
:1017300070B50124A507102028600820A861064E76
:101740002868C00606D5002E03D003F091F8761E57
:10175000F6E70024204670BDFE0F000010B53749A3
:1017600000220A60012080074368DBB2083B0324A3
:10177000E3410A2B28D8C0467B441B795B009F4479
:1017800005120726290E231B1D3F34004A600BE07B
:10179000CA68012A22D110220260072215E0102215
:1017A0000260092211E08A604A68531C4B60891864
:1017B000097E816028213AE0042136E0042202609B
:1017C00008220A61826110BD0A220A612EE0FFF739
:1017D000AFFF10BD4A68CB689A4222D24A68531CB8
:1017E0004B608918097E816020E082688B685C1CF0
:1017F0008C60CB1828241A550C220A61102114E0A1
:1018000082688B685C1C8C60CB1828241A558A6807
:1018100049698A42014601D30146183104220A600F
:1018200004E04A69002A04D0202101600821816176
:1018300010BD102202600C22C7E7C046B80300109A
:10184000434801210170074800220267416742674F
:101850004167426FD207FCD08167022101700020EE
:101860007047C04600800440F0B51348026801216B
:101870000902D20519D55423104AD45C002C14D186
:101880000524D454D54B1B680B420ED15225535B13
:10189000002454535525565D761CF7B2132F00D8FB
:1018A00034465455E4B2A400135182680A4382605E
:1018B00000BF00BFF0BDC046148001501C050010E1
:1018C00010B50C4C206840060CD50B48C1682E2979
:1018D00008D30022C2608168491C816001201E215A
:1018E00002F0ACFAA06840210143A16000BF00BF34
:1018F00010BDC0461480025048030010F8B5009196
:101900000546134C32206060280C01D1280B01E001
:10191000E80B0E30A060E060261D274618370D4A00
:101920003046394690470120400233216160A5606E
:101930000099E16020612078002800D006486061AD
:1019400030463946034A9047A069411E8841F8BD98
:1019500018040010F11FFF1FE02E0000F0B5002258
:10196000D3430E4D194C8A4216D000262660666875
:1019700014273740042F03D06D1E6E1CF7D31D466D
:101980006668760703D46D1E6E1CF9D31D46266863
:101990000670521C401CE6E7F0BDC046FFFFFF008A
:1019A000B0B50022094B8A420FD05C681225254051
:1019B000022DFAD104781C605C6814252540042DA2
:1019C000FAD11C68521C401CEDE7B0BD0800044071
:1019D000012070470349884201D3002000E0012024
:1019E000C001704740DD4A1FBA4800787047C046C2
:1019F00000207047F0B585B03849086000F0D2F893
:101A00000925374C2846A04701900620A04704909E
:101A10000720A04703900820A04706460027284635
:101A2000394600F09AFA3B252846A0470146402057
:101A300002900143284600F090FA049800040399AC
:101A4000090208188019FFF7D2F9904B3A46FFF7C0
:101A5000D1F9FFF77FF90646C8243B2000F068F86B
:101A6000800603D5641E2006F7D11CE01D4800F057
:101A7000F3F83B24204600F05BF80299014320462E
:101A800000F06BFAC8243B2000F052F8800603D522
:101A9000641E2006F7D106E00920019900F05DFAE6
:101AA000304600F0D9F8002000F016F92F20C4438A
:101AB0000D4D0020002C0AD000F0F8F82919312033
:101AC000085C3222895C00F048FAE41CF1E700F07F
:101AD000EDF8022000F000F905B0F0BDB4040010EC
:101AE000311B000000A1BC33144B0000B0B51446FC
:101AF0000D4600F0DBF8284600F0AEF8052000F0B7
:101B0000EBF84F48022101607D21C90041610125A8
:101B100005600168C907FCD100F03DF8A04200DD76
:101B2000002500F05DF92846B0BDC0460020704792
:101B30001CB501AC002121700122214600F002F801
:101B400020781CBDF8B515460C460E4E316880272E
:101B5000B94331603A4902220A604B2292004A613D
:101B600001220A600A68D207FCD17F21084002F0F6
:101B700087FE2846214601F022FD30683843306058
:101B8000F8BDC046FC3F005080B50A460146002023
:101B9000FFF7D8FF80BD80B51120FFF7C9FF4008CF
:101BA00080BD0000B0B50D49086820229043086050
:101BB0002348022303607D24E4004461012404607F
:101BC0000568ED07FCD10D6815430D6003600449FD
:101BD000416104600168C907FCD1B0BDFC3F015000
:101BE00070170000FEB50291009000F0FEF8EF4F74
:101BF00002243C607D2080000190786101253D60D9
:101C00003868C007FCD1029E701EC1B2352000F0BA
:101C1000A4F90098314600F0CBF9204600F05CF8BA
:101C20003C60019878613D603868C007FCD10320B2
:101C300000F052F83F20FFF77BFF0007FAD5FEBD0A
:101C4000048001407047000002490A78824200D0B7
:101C500008707047B8040010B0B5BB494860FFF782
:101C6000C6F80022BA4BFEF71BFEFFF773F80446D6
:101C7000000CC1B20620B54DA847200AC1B207200A
:101C8000A847E1B20820A847B0BDC04680844E40B6
:101C900010B50C4600F00AF8AB48807F002800D051
:101CA00010BD3220214600F058F910BD10B5A649EC
:101CB0004A7882420CD04870002000F00DF80124D0
:101CC0002046FFF735FF7F210140204600F045F90F
:101CD00010BDC046BC040010B0B50446002806D0B4
:101CE0000020FFF7B1FF032C05D1012004E0012003
:101CF000FFF7AAFF02E00020FFF7A4FF0125284616
:101D0000FFF716FFF82101402143284600F025F98E
:101D1000B0BD80B50520FFF7DFFF80BDF0B585B011
:101D20001D46019314460F460091FFF7BFFF222185
:101D300085480F9A425421210E9A425420210D9E2B
:101D40004654846107610C990391C1770B99049102
:101D5000817745610A9D85832046FFF748F8024652
:101D60000B46002002907B49FEF79AFDFEF7BCFF70
:101D70000446010A0220754FB847E1B20320B84774
:101D80000098FFF76BFC01461220B8470198FFF757
:101D900065FC01461320B847290A2520B847E9B257
:101DA0002620B84732242046039D2946B8472046BE
:101DB0002946B84702990498002801D17F20C143E1
:101DC000701E864135010D4330242046FFF7B0FEDA
:101DD0006F2101402943C9B22046B84705B0F0BD84
:101DE00080B50020FFF778FF80BD80B50120FFF7A8
:101DF00073FF80BDF0B587B0029303920E46FFF7E4
:101E000055FF0920FFF794FE4D20FFF791FE054690
:101E10004D484068FFF7DEFD40B2119901911099DD
:101E200000910F9906910E9905910D9904910C9CC2
:101E3000002808D4F11731430E2900DB0E21084693
:101E400071300E461EE00720112E03DCF8210D40F4
:101E50002D1D00E005432840072808D1052E00DC91
:101E60000526142E00DB142631460B3107E0022E26
:101E700000DC0226112E00DB112631460E310F2028
:101E8000C0430843C1B20920304FB8474D2029460E
:101E9000B84721202C4A009911542020069911544A
:101EA0000198506205989077049890839461039DFF
:101EB000D5600298106116720A263046FFF738FE88
:101EC000402101433046B8472846FEF790FF0025E1
:101ED0001F4B2A46FEF7E4FCFEF706FF0646010A02
:101EE0000420B847F1B20520B8472046FEF77FFF2F
:101EF00002460B4617492846FEF7D2FCFEF7F4FED1
:101F00000446010A0220B847E1B20320B847049C06
:101F1000210A2520B847E1B22620B84705980028B5
:101F200001D17F20C5430699481E81410E012E43F1
:101F300030242046FFF7FCFD6F2101403143C9B238
:101F40002046B84707B0F0BDBC0400105B1F00007E
:101F500080844E4080847E417047E0B501AB1970AB
:101F60000122194600F002F88CBD0000F8B51546B4
:101F70000C460D4E31688027B943316081490222F9
:101F80000A604B2292004A6101220A600A68D20765
:101F9000FCD1384302F074FC2846214602F074FC60
:101FA000306838433060F8BDFC3F00500480014089
:101FB00080B50A4601460020FFF7D8FF80BD00002B
:101FC000034908604868C006FCD40868C0B270477E
:101FD0000800044010B5114C2069411C21610928FA
:101FE00011DB0020206102F0EBF802F0B5F802F0FE
:101FF000A9FB02F093FB01F0DBF802F097F86068B0
:10200000401C00D26060E068411CE160632803DB93
:10201000012020700020E06010BDC0466803001061
:10202000B0B51248002282630121C163C263C1635B
:10203000C36BDB07FCD0232303600D4B1C6880259A
:10204000AC431C604368DB07FCD003238366C16696
:10205000C266C166C26ED207FCD00167054A8267BC
:1020600005480160054813210160B0BD08800440A7
:10207000388204405F000100988004405081044091
:1020800009480168C90705D00121016012490A68A1
:10209000521C0A600168C90605D5102101600E486E
:1020A0004168491C4160704700C000400948016810
:1020B000C90705D00121016007498A68521C8A605E
:1020C0000168C90605D5102101600348C168491C93
:1020D000C160704700000140A003001010B501224C
:1020E0005005084908600F48036807484178074CC5
:1020F0006354142343800270802901D8491C417025
:1021000010BDC04680E200E0E00200105C06001056
:1021100004494A695206FCD508604A695206FCD552
:102120007047C046008000400648011F03220A6035
:10213000012101600022026001600168C907FCD032
:102140000020704774800440BFF34F8F0348044958
:102150000160BFF34F8F00BFFDE7C0460CED00E00C
:102160000400FA05074902220A607D22D200424398
:102170000120012A00D802464A6108600868C007A9
:10218000FCD1704704800140FEE780B5FFF7C0FF37
:1021900080BD000080B50348142100F09DFB80B293
:1021A00080BDC0461C050010F8B50C460546084623
:1021B00000F0EEFF01460020002900D0F8BD009598
:1021C000A16A4910224A8B189E10764301251821D6
:1021D000615E594349101A27E75F720B7A43D210A8
:1021E00089188914EA038918E28A4A43D10BE5D099
:1021F0002020205EF20A42431E20205E5843400009
:1022000010188010A28B120480180013009A101866
:102210002A05121A0F48504304D40F485043FEF7C2
:1022200085FA02E0FEF782FA40002221615E242254
:10223000A25E830853435A1351182622A25EC30894
:102240005B435B0B53431A13891809110818F8BD37
:102250000006FFFF350C00006A1800007CB50D4633
:10226000044601A800260680084600F091FF0146BA
:10227000FF20002C20D000291ED1F42001A9022229
:102280002B4600F01BF8002816D101A801784A0956
:10229000227040780122024022714209A270C906D0
:1022A000490F6170C006400FE0702C3505222846AA
:1022B0002146FEF7D9F9304640B27CBDF8B51F463D
:1022C00014460D460646184600F062FF0146FF2000
:1022D000002D10D000290ED1B878002801D180201F
:1022E000064378787F6831462A462346B847002857
:1022F00001D00320C04340B2F8BD7CB50D46044672
:102300006846002181800091284600F041FF014687
:10231000FF20002C1AD0002918D1F7206E46062283
:1023200031462B46FFF7CAFF317809037278120154
:102330005118B278120989186160F178090332796D
:1023400012015118727912098918216040B27CBDBE
:1023500070B586B0044600F01BFF002801D0FF20B6
:1023600014E002F085FAD020012221462346FFF72F
:10237000A5FF0146FE20002908D1217856390229FF
:1023800004D8204600F0A8F8002802D040B206B0D9
:1023900070BD68461821FEF7C6F9204600F0F8FE29
:1023A0000028DCD18820694618222346FFF786FFE3
:1023B0000028EBD100AE6FCE20616161A261E361C4
:1023C0002562666221462C3100200871E062DDE75B
:1023D000F0B585B01C461546064601AB19700122C2
:1023E000194600F01BFBFF270C280FD13046214671
:1023F00000F0FEFA0C2809D100275C483946CAB221
:10240000944203D9835CAB54491CF8E778B205B019
:10241000F0BDC04680B50A460146002000F05EF9D6
:1024200080BDB0B50C460546084600F0B1FE002858
:1024300001D0FF2005E021462C312846224600F03D
:102440004DF940B2B0BDFEB5009314460E460546A8
:10245000042A174600D30427009800F099FE01468D
:10246000FF20002E2BD0002D29D0002927D1002CB1
:1024700015D0307801A9087000988078002820D005
:10248000012C11D001A8801C0121B94209D26A5C3B
:10249000431E1A70725C0270801C491CF5E7FD2017
:1024A0000DE07806000E471E2978009A507894684F
:1024B000BBB201AAA047002801D00320C04340B20C
:1024C000FEBD284639460029DAD002787F23134022
:1024D0000370401C491EF6E7BCB5044601A8E02184
:1024E00001706846B6210170204600F051FE0028B8
:1024F00001D0FF2509E001A8694601222346FFF724
:10250000A2FF0546E1680220884768B2BCBD000012
:10251000F0B585B01C461546064601A8017000209E
:10252000C1B2A14206D201AA89182A784A70401C79
:102530006D1CF5E7601C82B201A9304600F06EFA0E
:10254000FF270C280FD10121304600F051FA0C284A
:1025500009D1002705483946CAB2A24203D2835C9A
:10256000AB54491CF8E778B205B0F0BDE0030010A9
:10257000B0B5FFF70FFE50210B4A5052002811D082
:102580000A2444435223D55AAC422B4600D3034677
:10259000AC4202D30548834204D30548834200D9A4
:1025A000002353520048B0BD1C0500101027000046
:1025B0000F270000B0B50023094A0C060ED004789E
:1025C00063400824250606D05D08DB0700D055408F
:1025D0002B46641EF6E7491E401CEEE798B2B0BDDC
:1025E00001A0000070B5E7488378DE492A482B4AED
:1025F000022B13D0012B24D12A4B1C68182525430C
:102600001D60046804231C4304600568802425437E
:10261000056015682026B5430E460BE003680424C8
:10262000A3430360046880231C43046015682024CE
:1026300025431B4E15603268224332600A681A43F4
:102640000A60194A1168194B194011601021CC43D6
:1026500017490D6825400D60156825401560202438
:10266000E4431568254015600D6825400D60012480
:1026700065021668AE43166005681D400560E002FD
:102680001368834313600868A04308600868022247
:102690009043086070BDC04600800050008001502B
:1026A000FC3F0150A040044000800250FFFBFFFFB0
:1026B0000080035080B5B0B00020C02808D00121B0
:1026C00009026A461152111800228A801830F4E774
:1026D000684600F009FE30B080BD0000F0B585B05E
:1026E00014460E46074604A80025058003A82B497A
:1026F0000180104600F04CFD0146FF20002E49D01D
:10270000002947D10297F42004A902273A4623461C
:10271000FFF7D4FD00283DD12046FFF7DDFE00285D
:1027200038D104A90878032201921040327852016E
:10273000101872785207D20E1018087030790122E2
:10274000024048783840B3785B011818F3785B078B
:10275000DB0E18188018487003A83A462346FFF786
:1027600072FE002816D1019F20462C3005223146EA
:10277000FDF77AFF029B002B28460BD03B4004A9B3
:102780000878FC220240D018087003A801222346D2
:10279000FFF759FE40B205B0F0BDC046F4F50000A9
:1027A0000020C0437047000010B5044600F0B0F8A8
:1027B0008E49896C0022FF2A05D023460C5D521CED
:1027C0008442F8D100E0FF23D8B210BDFEB5874C9B
:1027D000207824216054A07926256055207A282667
:1027E000A05500F095F82C216054A05D00280AD077
:1027F000FFF7DAFF3022A05401210191FF281DD1FB
:10280000A05DA0541AE0E07F30216054207D342187
:102810006054207E38216054207F3C216054A07F8A
:102820003E2160544020205A442160522220205CE6
:10283000002801D1012000E002200190A07C32227A
:10284000A054665D002E01D00D2000E007203F213E
:1028500002916054636D1D18A5650E27FF43002E7D
:1028600000D1BF1D2678BE1900276049FCB2A642E0
:102870000AD96C1C8C65C2B22D789D54401C029AFA
:1028800088547F1C2546F1E70020019901F038F8B3
:10289000FEBDC04680B5FFF73BFC80BDA2480830B6
:1028A0007047C04601208002B0490A680240504289
:1028B0005041DD4A1268D20600D4801CCA4A126810
:1028C000120500D4001D0968090600D40830C0B202
:1028D0007047C046B7487047F8B50C4606468F00AB
:1028E0003846FDF7ABFC054631463A46FDF758FC45
:1028F0000120204061084018401E82B2284621462F
:1029000000F09EFB04462846FDF7C9FC2046F8BDB2
:1029100010B5964A11681023194048424841116881
:10292000890600D4801CC0490C68A40600D4001D90
:102930001468A40500D40830AB4C2468640500D4A6
:1029400018431268120501D4202210430A68D207E6
:1029500001D1402210430968890701D4802108432E
:10296000C0B210BDFC3F005080B501F029FB024809
:1029700000780449487080BD8C0300100148401C59
:102980007047C046E8020010004870474406001037
:10299000004870475006001010B5144CE07F217BB2
:1029A00081420BD0A079FE2808D000F035FB00282A
:1029B00005D0207C00F030FB002800D010BDFFF7D0
:1029C000DDFF4178022906D00129F7D18178C2784C
:1029D0009142F3D303E08178C2789142EED84E223F
:1029E000A64BA352C170A179017110BD480400101B
:1029F00070B50F22D343164A002B07D0D4182825D0
:102A000000266655382566555B1CF5E70123D36023
:102A1000516118431076FEF735FE70BDB0B518242D
:102A20000B4B282C03D000251D55641CF9E7541CC2
:102A3000DC6000245C611876E0B2904205D2C018D8
:102A40000D784576641C491CF6E7FEF71BFEB0BD09
:102A5000B803001080B5FEF741FD072000F0CEFD61
:102A600000280AD0FEF7C3F90022074BFDF718FF34
:102A7000064A074BFDF714FF01E002490020054A12
:102A800003C280BD0000F03F007EA340D7A3703D8D
:102A90000AD7D33F7805001010B50C4801680C4ADE
:102AA00011400160416811404160816811408160BE
:102AB0000124210202690A43026106485821FDF7F8
:102AC00032FEA0076E49086010BDC046008001506C
:102AD000FFFEFFFF1C050010B0B5134C1348012189
:102AE000A1761349134AE26121626062EC206076AC
:102AF000254618352846FFF72BFC2073002800D008
:102B0000B0BD20462946FFF7A9FB002020710A48E6
:102B1000206020462946FFF77DFC03202946FFF769
:102B200080FC2073B0BDC046F80200106521000093
:102B300011250000D1230000050505030120000236
:102B40004C490A6802430A6008490A6882430A60DD
:102B50000A6802430A60064A32239380192353808D
:102B6000052313700A6802430A607047FC3F025055
:102B7000EE02001080B54B20000200F0E7F91920AA
:102B80000001024948800020088080BDE00200105A
:102B900010B500F065FE072004032078AA2801D0B4
:102BA00000F07AFE4720820002482146FDF7F8FA3D
:102BB00010BDC04658010010AB48016840220A43CE
:102BC0000260704707480168082211430160064807
:102BD00001681143016005480549418000210180D9
:102BE0007047C04600800050FC3F0050E4020010D7
:102BF000DC05000080B50B48016804221143016028
:102C00000168082319430160074801689143016086
:102C10000168994301600548FF21017000F0C8FA7E
:102C200080BDC04600800350FC3F03505803001095
:102C3000B0B54024E543FFF74DFE0E490A682A402F
:102C40000A604A682A404A608A682A408A60CA68DC
:102C50002A40CA600A6922430A61074900228A6041
:102C6000CA60064A0A60C068886001204007D249ED
:102C70000860B0BD008002504803001060EA000008
:102C800000E100E0F0B589B07D20C600344618347C
:102C9000FFF720FE0890C548016821430160A6485F
:102CA00000687249FDF742FD514FB860381FFF219F
:102CB00007910160042038614E4D2878002805D125
:102CC000012028704C490978C9077AD100F0D2F860
:102CD0000124AC70FFF786FC48480025456001F0F0
:102CE00071FDFFF741FE45488088454988427CD008
:102CF0000220404DA8700799297108998978002908
:102D0000294600D004464C70FFF76CFC3D4C21680E
:102D10000025284688472820FEF70AFF2D2860D185
:102D20000595049503950295182106910191364A5F
:102D30000092E06907900E21344B2846079CA0477B
:102D40004020069900910195029003950495059500
:102D50002C4884692E4B28462C492B4AA0470D202D
:102D60001F21FFF7FAF808988078002808D04B2434
:102D70002046FEF7DDFE102101432046FFF7EDF867
:102D8000FFF790FD02243C607E61012108913960CB
:102D90003968C907FCD11F4E4643FFF726F81E4885
:102DA00030181849C96888470420FEF795FF3C6031
:102DB000692080007861089838603868C007FCD1C5
:102DC00013E06921890000221E318A4200D17DE78B
:102DD00002233B607E6138603B68DB07FCD1521CFC
:102DE000F3E7044845708570ED43284609B0F0BD0F
:102DF00004800140E8020010400600108C0300101F
:102E000063440000744A000050C300006061020087
:102E1000B030010090D00300C0CA893610B5FFF76A
:102E200059FD0446FFF73EFD8449034A1C348C6477
:102E3000CA6400F0ADFB10BDB80B000010B5012452
:102E4000A0025A490A6802430A603B4800680749E1
:102E5000FDF76CFC0649C860FF200860042048614B
:102E60002046FEF72DFC10BD8080044040420F003C
:102E700000800140B0B51F49086801221043086076
:102E80001D480346F933CC6F1C43CC671B490A60CD
:102E90001F21CB431A494C691C404C614C691443B7
:102EA0004C614C69182525434D618C691C408C612F
:102EB0008B6913438B618A69082313438B614A6EC4
:102EC00003239A434A664B6E022213434B660B68F8
:102ED0000724A3430B600B6813430B600949086088
:102EE0000A610020072802D88B68401CFAE74A6074
:102EF000B0BDC04604800440070700009480044031
:102F00004C4004400000044080B50B4800680B4969
:102F1000FDF70CFC401E010E0DD10949094A506015
:102F2000094803680B4003218907591801600020F4
:102F300090600720106080BD54010010AC26000096
:102F4000FFFFFF0010E000E020ED00E0B0B501461B
:102F500014480268802313430360026840239A43A5
:102F60000260114802680124224302604268224341
:102F7000426020030D4A1368034313600C4D832005
:102F8000E8600C48FDF7D2FB010AC9B26960C0B223
:102F900028600320E8606C600620A8606005064990
:102FA0000860B0BD00800150A4400440808004400F
:102FB00000800040C0C62D0000E100E00120C103F8
:102FC0000F4AD36D0B43D3653F2111600D490A6849
:102FD00040239A430A600C4A0021116050605368F4
:102FE000DB07FCD09060094801600948094941604D
:102FF00003210160AA218160552181607047C0468C
:103000002480044038820440D0800440E006001050
:1030100000400040FFFF3F0010B50446FFF778FC7A
:1030200001460648826C00200346FF2B04D0145D45
:103030005B1C8C42F9D1012010BDC0464804001031
:10304000F0B590B093000E90C01801904D1EEB1794
:1030500000210C460092019800680C90481B204605
:10306000984163D203950995029305910F46049404
:1030700026460F933B4635460E982C461E460027A3
:103080005B1C7D41B10042580C9882420E98F4D3EB
:10309000069208930A960B94411807910C9A099B83
:1030A0000D970F9F0F971E465B1E0D998F41B40021
:1030B00001598A42F6D30A98301A0F980B9A904118
:1030C0000AD30E980019079C2160069901601E46DC
:1030D0000F9708980A900B9509960A9FF01B0F9B73
:1030E00018460B9EB041C4D20124009AD01B0D9803
:1030F000B041214600D30D9900291D46099800D101
:10310000029B0C930029034600D1039B801A0D9863
:10311000854100D30446002C00D1049E002C00D130
:10312000059F394634461D460C9B94E70C9810B019
:10313000F0BD0000FFF740FDFFF75CFD124801689D
:10314000124A11601F210160FFF738FFFFF73AFDB7
:10315000FFF7F4FCFFF70EFDFFF71AFDFFF77AFC0F
:10316000FFF7D2FEFFF76AFEFFF7B6FCFFF760FD40
:10317000FFF792FC00F06EFE00F044F901F04CF80D
:1031800001F03AF8F8E7C0463080044040060010ED
:10319000FF2100280AD04268002A07D08268002A4E
:1031A00004D0C0680021002800D1C94348B270474C
:1031B000F0B585B07D20C0000390FFF78BFB019038
:1031C0008E4988680290CA6800238D4E1F461D46AE
:1031D000C02B72D0F05C022826D001280BD000282A
:1031E00068D10120B8408243CA60F418A488002C3A
:1031F0002FD005435EE00120B840024203D0F4180E
:103200006478002C56D02946F418A578002D22D0D9
:103210002669002E21D0751E2561019DAD8865614E
:103220000D460543764E44E00120B840024241D1AC
:103230000495F4182569002D1BD06D1E268903996D
:10324000714325616161049D0543002E21D06B49C6
:1032500022E085432EE00D462BE0029E06421DD063
:103260006D1EA5702D06664E19D10243634DEA60AE
:1032700015E0049D85436069002802D0401E60610E
:1032800018D1E0882946039D68430D465B492061BB
:1032900010E002435949CA60594E0BE0584E0D46A2
:1032A00085436069002802D0401E606101D1A0887A
:1032B0002061524918337F1C8AE7ECB20298A04281
:1032C00002D14888002804D1204600F0E1FD4B4996
:1032D00048888C60401C81B2142900D900204749DD
:1032E000488005B0F0BDC046F0B58DB004467D20E5
:1032F0000190C0000890FFF7EDFA01463F480778BB
:1033000000263246304603910294C02A69D0A55C5B
:10331000032D62D00A9707463948855423468418FE
:10332000981843786370099080880794A0800124DE
:1033300006940B97BC408B680593A3438B60089958
:103340008842049003D9089909988180084603238C
:103350000C96B3400A9F3E469E4328490E70022DAC
:103360002AD0012D13D0002D03990ED100280CD0A6
:103370000598204388600C9B0698984006431F4898
:10338000067037461E46029C26E0374622E0079B21
:10339000987800280399029C05D1C878987088888D
:1033A000049D1D61586102200C9B98400643134800
:1033B000067037461E460FE00998C4880799CC80EE
:1033C000008908811F430D4807700198C0006043C1
:1033D00008610399029C0C9E0B98B61C1832401C85
:1033E00093E7064840680C468968884202D000F09E
:1033F00053FAA068014948600DB0F0BD58030010B1
:1034000080050010B0B5064C0025A5602078012885
:1034100003D10120A06001F02BFA2570B0BDC04699
:10342000680300104048002101707047F8B50C4651
:10343000054600260F4F002F19D000F07DF84420DC
:1034400000F09EF800F094F8FF2804D0064600F043
:1034500087F87F1CEFE7002D03D02846214600F0B7
:103460008BF800F07DF8304801210170FF26F0B2A2
:10347000F8BDC046F0D8FFFF80B500200146FFF739
:10348000D5FF80BDF8B51C4615460646002906D076
:10349000254F3878002802D1FFF7EEFFF9E700F05A
:1034A0004BF8304600F06CF82846214600F064F8EE
:1034B00000F056F81C4800210170F8BDB0B50C466C
:1034C000054600F039F82846214600F05DF800F086
:1034D00047F8154800210170B0BDC046B0B51C4684
:1034E0001546FFF7EBFF28462146FFF79FFFB0BDCB
:1034F000F8B51C4615460646002906D00A4F38780E
:10350000002802D1FFF7B8FFF9E700F015F83046C0
:1035100000F036F82846214600F036F800F020F892
:10352000014800210170F8BD740500100F480168C2
:1035300004220A43026070470C48016880229143CC
:103540000160704709480168042291430160704797
:1035500002480168202008407047C046FC3F0150E7
:103560000248016880220A4302607047FC3F005015
:1035700080B500F01FF880BD80B500F020F880BD58
:1035800080B501F07DF980BD80B501F07DF980BD89
:1035900080B518498978022905D0012906D1402132
:1035A00001F036F980BD0248406B804780BDC046BF
:1035B000744A000080B5FF20FEF702FD80BD80B593
:1035C000024608461146FEF7C9F980BD10B5094C00
:1035D000A078012804D0022809D1FEF7DCFA04E023
:1035E000042000F0CFFC04480078E07000E0E078B0
:1035F000C0B210BDE80200108C030010B0B598B046
:1036000004460025602D06D02046FDF79FFF694641
:1036100048512D1DF6E768461821FFF75DF9072C84
:103620000BD081B2002908D00846FDF7E0FB064B1D
:103630000CCBFDF735F9FDF757FB80B20349884203
:1036400000D3084618B0B0BD78050010FF03000095
:10365000B0B50B4D287B002801D0FF200EE0284696
:1036600010302C4618342146FEF747FE002805D1BD
:1036700068692146FEF798FDA860002040B2B0BD01
:10368000F8020010F0B595B0494CA0780125294604
:10369000814060788000474E3058EA0383588B435E
:1036A000835005A84021FDF73EF801F0E1F860786D
:1036B00080003158A078002200923F4C3F4B404F91
:1036C000644E02952A4682400819194603681A4238
:1036D00003D17F1C491EF9D155E001F0C9F8022041
:1036E0000190306037487061029A32603068C007DC
:1036F000FCD105A80099435C0021082924D003913E
:1037000004932B49487880002A4A105805598C7830
:1037100001F0AEF8029A019830602B487061326077
:10372000E540E80703D00020049B039903E010461E
:1037300003998840049B03431F4C3068C007FCD1A9
:103740007F200340491CD8E705A800994354184935
:103750008878824049788900164B59580B191C68A3
:10376000224202D07F1CFAD30AE0009A521C009237
:10377000412A029D104C114B114FA3D1412001E071
:103780000098401C009001F073F8002405A8007810
:10379000002809D00098C0B2FCF750FD04498860A9
:1037A00005A9FCF719FF00E0E443204615B0F0BD81
:1037B00044060010444B0000FC3F0000A0860100BE
:1037C0006079FEFFD104000041030000FEB502A9AC
:1037D00000264E7024200870882002252A46FFF714
:1037E0001DF9F1430C2833D101911427194C2560A0
:1037F0007D20C0006061012020602068C007FCD1EE
:1038000088200621FFF7F4F8082803D17F1E380628
:10381000EDD11CE0104D28786978AA7800F04CFBB7
:10382000002814D028786978000240180B4CE080FA
:10383000E87829796A7900F03FFB0028019907D0E0
:10384000E878297900024018A080314600E001990B
:103850000846FEBD04800140E00300105006001041
:1038600010B50A4C3A206060201D21461C31084AE0
:103870009047E069002801D0012010BD2346203385
:103880000FCB044C0FC4002010BDC046180400101C
:10389000F11FFF1FA404001010B5FDF7D1FF00BFFA
:1038A00000BF00BF00BF00BF72B607200403204660
:1038B000FDF7AAFE00BF06492046FEF71FF862B6D4
:1038C000FEF732FC00BF00BF00BF00BF00BF10BD4D
:1038D0005801001080B5FEF7FDFF07490A68002A6D
:1038E00000D080BD054A0A608968C2688A42F8D063
:1038F000C160FFF7D1FF80BD4803001060EA0000FF
:10390000F0B589B007910446FFF738F80746FEF78F
:10391000C9FF0590FEF7FCFF002C049706903DD0F0
:103920000646FFF797F82C20DE4D2E54282031460E
:10393000002603902E542620295432202C54E87F50
:103940003021685438216854B87834216854F878A4
:103950003C21685438793E2168540420FFF74EFE1C
:10396000442168523F200D2208902A54686D014678
:103970000D31A965012C00D1D2E0062C06D0402CD7
:1039800038D0292C0ED0152C00D007E1A97C41732A
:103990002321695C81730F220898FEE03F20C14912
:1039A0000A5CFBE0FEF7F0FFBE4B04460898195C8A
:1039B00020785F6D78544D1CA068002813D00391C7
:1039C000FCF730FEB74BE9B2785403998D1CC0B2B6
:1039D000864208D2A168895DEAB2B9546D1C089983
:1039E0005D54761CF4E7E8B2002139546A1C08984B
:1039F0001A54D3E0FEF752FF089EA95D02786B6D62
:103A00005A544A1CD2B244789C548A1CD2B284784C
:103A10009C54CA1CD2B2C0789854081DA855FEF711
:103A2000B7FFA95DC2796B6D5A544A1CD2B2847932
:103A30009C548A1CD2B244799C54CA1CD2B20079DC
:103A40009854081DA855FEF793FDA95D6A6D0346BD
:103A500050335B7853545023C05C4B1CDBB2D054C2
:103A6000881CC0B2904B1C781454C81CC0B25C783F
:103A70001454081DC0B29C781454481DC0B2DB78A1
:103A80001354881DA8550120884DA84704460220DC
:103A9000A84700900320A84701900420A84702905F
:103AA0000520A84703900620A8477E498D5DA208FF
:103AB000496D4A55A201009CA3059B0E9A186B1CE8
:103AC000DBB2CA542201019CA3051B0F9A18AB1C40
:103AD000DBB2CA54A200029CA3059B0F9A18EB1CF0
:103AE000DBB2CA542A1DD2B28C54039CA2086B1DAF
:103AF000DBB2CA54A20183059B0E9A18AB1DDBB240
:103B0000CA540001EA1DD2B2885428460830C0B217
:103B1000674A12780A542A460932624882553DE0C3
:103B200001462031634A12680274130AC373130CEE
:103B30008373120E4273EA6D0275130AC374130C79
:103B40008374120E42742A6E0276130AC375130C24
:103B50008375120E42756A6E0277130AC376130CD0
:103B60008376120E4276AA6E534B1C784C705C78AA
:103B70008C709C78CC70DB780B710A70130AC37759
:103B8000130C8377120E42774C480068059A8A71AD
:103B900048713878C8710898039A2A54901C2426D2
:103BA000404FB8557C6D08902070387960702620A1
:103BB000385CA0702820385CE0702C20385C2071C4
:103BC0003020385C60713220385CA071387AB97965
:103BD000002902D0002818D106E00699884203D0B7
:103BE000002801D0FF2810D13420385CE071382043
:103BF000385C20723C20385C60723E20385CA072D9
:103C00004420385A2073000AE072D5B22046294673
:103C10000692FEF7CFFC6055000A0699491CC9B20E
:103C200060543F200899395400F022FE079802287A
:103C30000FD1002526A4B85D854206D2786D415D7E
:103C40002046FCF75DFB6D1CF5E70A20FCF74EFBF8
:103C500026E00498407802281AD001281DD119487E
:103C60000221016018494161012101600168C90711
:103C7000FCD1BA5D796D059800F0E1FD134C002090
:103C80000146024600F08AF9A0788006F7D504E0E4
:103C9000B95D786D0A4A926A90470598FFF778FCFB
:103CA00009B0F0BD4804001050030010FD350000BD
:103CB000580300106C030010BD49000040060010BE
:103CC000744A000004800140102700008C0300109B
:103CD0002530325800000000FEB5524B987801257F
:103CE00029468140587880004F4A1058EC03025909
:103CF0000A43009402515A6801924C4E82590A4379
:103D0000825100F0B5FDD04C02200290206048485E
:103D1000606125602068C007FCD100F0A9FD414921
:103D200088782A468240497889003F4B59588B59F8
:103D300093438B51029A22603E4A62612560226859
:103D4000D207FCD12A4682408859104388510298F4
:103D500020603948606125602068C007FCD10027D9
:103D60003E46EA4B072F25D099782846884001998E
:103D70000978F940C90708D0597889002A4A51586A
:103D80002A4BCA588243CA5008E059788900264A0B
:103D90005158264BCA580243CA50761C00F068FDA1
:103DA000029820602448606125602068C007FCD12B
:103DB0007F1CD6E798782A468240F10707D15978C8
:103DC0008900194B5958194E8B59934306E059787D
:103DD0008900154B5958154E8B5913438B51029B33
:103DE0002360154B636125608E19009BCB182768F3
:103DF000FF07FCD1376897433760029E26600E4E5E
:103E000066612560D2432668F607FCD1019F7E1CBF
:103E10007F78002F0196054E94D1186810401860E5
:103E2000FEBDC04644060010444B0000FC3F0000AD
:103E3000E02E00008A20000041030000DD4B9A8044
:103E40005980187001200002DB490A6802430A60A9
:103E50007047C04610B5B0B0FEF73CFD8068002149
:103E60006A46082909D001231C0214800446CC406C
:103E70001C4094801832491CF3E76846FFF734FA77
:103E800030B010BDDA494880002008807047C04635
:103E900010B58000042102460A40064B1C688C4382
:103EA000A1181960082108401A688A431018186080
:103EB00010BDC046FC3F035010B5C0430023072B84
:103EC00008D8440040B2002801D5312044402046A3
:103ED0005B1CF4E748400021072908D8430040B2A2
:103EE000002801D5312043401846491CF4E7C0B2F0
:103EF000811A4842484110BD80B569494870342054
:103F000008700220FFF7DAFA80BDC04670B505469A
:103F1000634E2878002821D00424102821D86D1C55
:103F200031460246002A05D02B780B706D1C491CC7
:103F3000521EF7E7002231461346FFF7CFFAFF285B
:103F40000ED1FFF705FB0028E3D100200146024611
:103F500000F024F8B07D0007DBD502E0002400E08B
:103F60000224204670BDC04610B54D4C607015202F
:103F700020700220214602462346FFF7AFFA208830
:103F8000208210BD10B5024650200021444C23462B
:103F9000FFF778FA2068206110BDC04610B5404C8C
:103FA000E270A17060702020207004200822214659
:103FB0002346FFF793FA03CCA060E16010BDC04632
:103FC00010B5374C01202070082221462346FFF708
:103FD00085FA20782074E0782076E0882084A08814
:103FE00040BAE061A078617809020818606110BDEC
:103FF00080B50B46024677200021FFF743FA80BDCB
:1040000070B5FFF793FA104C022525600F486061E8
:10401000012626602068C007FCD1FFF793FA2560CF
:104020000B48606126602068C007FCD1FFF798FA52
:1040300025607D20C000606126602068C007FCD13B
:10404000FFF7F0F970BDC046048001407017000012
:10405000581B0000B0B5124C059DE571049DA5717B
:1040600063712271A170607032202070100AE070BC
:1040700008202146FFF722FAB0BDC04610B5084B14
:1040800000249C715C711A719970587031201870FD
:10409000100AD87007201946FFF710FA10BDC04665
:1040A0007C03001080B50B46024666200021FFF716
:1040B0001FFA80BD10B5154908780024144A00285D
:1040C00002D001281FD1121D99231360887001228C
:1040D0004A70910282400F480368134303600E4800
:1040E0000368934303600D4802680A4302600C486A
:1040F00000680C49FCF71AFB0B49C860FF200860F8
:104100000420486100E0E443204610BD440600104E
:104110007840044000800150FC3F01508080044002
:104120005401001040420F000080014009484188BE
:10413000002905D0491E41808AB25142514100E018
:104140000121002904D00178012901D10221017047
:104150007047C046E0020010B0B51648C288164944
:10416000002A07D001231B020C681C430C60511E5F
:10417000C180B0BD0389114A002B05D00C681440E2
:104180000C60591E0181B0BD0378002B0ED044880D
:10419000C480012424020D6825430D6084880481B5
:1041A0000C6814400C60591E0170B0BD08681040C6
:1041B0000860B0BDEE020010FC3F0250FFFEFFFFA2
:1041C000B0B50B4801884C1C0480428809490B6833
:1041D000A4B2944203D2082003430B60B0BD08256B
:1041E000AB430B603232A24201D200210180B0BD4C
:1041F000E4020010FC3F005080B5FFF76BFB9B48CA
:104200000068002805D003480168491E00D16421D8
:10421000016080BD78020010F0B595B0FEF7AEFBEE
:10422000044692480068002840D0FEF771FB1390C6
:10423000FEF738FB149000F01BFB4C218C4F785A92
:104240000028129402D0401E785200E000204E2434
:10425000395B002901D0491E395300040AD1C82016
:10426000FFF710FE00F004FBFEF70CFD0028F9D16B
:10427000FEF7D4FD21252026B85D1499884203D18C
:10428000785D1399884207D001201E210022FFF794
:10429000D5FD1498FFF77CF9385B0028129C01D1FA
:1042A000FF20E070139878551498B85500F060FA24
:1042B0000546002836D04020FBF7C0FF6C49486512
:1042C00000F062FA00F05AFA0220694F7E6D3478ED
:1042D0003C70402C00D99BE1082C00D898E1149048
:1042E000A01EC1B23046FEF765F931198A1E127858
:1042F000491E097873783B710902891889B288428E
:1043000000D085E14C215B4813917852B178B971A6
:10431000F078387232793A7372793A74002941D060
:104320000D2140E02120F84F385C002824D060782F
:10433000022824D0012800D071E1F44800688006EA
:1043400000D56CE1002001460246FFF727FEF04E43
:10435000B078C00600D462E1012440212046FBF77A
:1043600057FF7865FFF732F90020FFF7FDFD796D03
:104370003078FFF73DFE13E0FEF79CF94FE13F2058
:10438000FDF7D6FB1421084200D148E10124402664
:1043900020463146FBF73CFF78653146FDF7F4FBDC
:1043A000204692E707217118B2793965BA74012263
:1043B000002D04D022217A542121795C0AE0144690
:1043C000FFF704F92120385C397C814200D01DE1DF
:1043D000387A2246FF2815D0884213D000280ED103
:1043E000786DC1793975017A3976417A3977817A70
:1043F000B977017BC07A0002401840217852FEF75D
:10440000E5F909E101923E7BB879002800D1FE77F9
:10441000C04845784670017812913C7904700321B8
:10442000052011910246FFF709FDBB48FFF72AFD61
:10443000A81B411E88411299A142019A00D102464F
:10444000B87C01462139082900D9D8E04900C04686
:104450007944898849008F440F00F100F100F10090
:10446000F100F100F3005001E400C04670030010B9
:1044700048040010B80B0000002A00D10AE10192A4
:10448000C020FBF7DBFE1090386D01460E310E9117
:1044900001460D310D9101460C310C9101460B3155
:1044A0000B9101460A310A910146093109910146F1
:1044B00008310891C11D0791811D0691411D05918B
:1044C000011D0491C11C03910F90801C02900022D9
:1044D00013460F9840780D214143D2B28A4200D34F
:1044E000C2E0DBB212931820584302998C5CA109F8
:1044F000109B19541918A006C00F48700398805CCF
:10450000012505404D764507AD0F0D76E406A40D57
:10451000C008201888800498805C059B9C5C250757
:10452000ED0F31268D55A506AD0F30268D550002B5
:10453000001980B2800988836007800D069B9C5C0F
:104540006508401988860798855C6806C00F49266B
:104550008855E007800FEC09001948240855089891
:10456000805C8407E40F61268C550407A40F602645
:104570008C55AC06A40D05096419139BCC52099BFC
:104580009C5C0A9B9D5CEE06F60F7923CE546B066D
:104590009B0F78268B55C007800D6300C018EB0970
:1045A000C0186423C8520B98805C8308119C20407B
:1045B000902408552807800DC0187C23C8520C98F9
:1045C000805CC30991240B550D9B9B5C5C07E40F39
:1045D000A9254C55DC06A40FA8254C554006800D96
:1045E0005C090019942408530E98805C9B079B0D6E
:1045F0001818AC23C852129B0D32083369E7012802
:1046000030D0312808D0402818D135E0FEF7C4F961
:104610002020385CFEF7BCFF786DFBF740FE15B03C
:10462000F0BDFEF7B1F90546386D00782870FFF748
:1046300041FD002833D023200221395415202AE0DF
:10464000B86C396D14464A7809784254062014999A
:10465000FFF756F9002CDFD0786DFBF720FEFFF74F
:104660001BF9DCE7012016E0109C2046FEF73CFE1B
:104670002046FBF714FE019A002A0BD0FFF7A6F89C
:10468000002801D0FEF7DAFBFEF7E2FF002801D098
:10469000FEF722FA40201499FFF732F9BCE73E6D8D
:1046A0007078401CFBF7CAFD6860B11C002072786E
:1046B000904204D20A5C6B681A54401CF7E76968A0
:1046C00000260E54FFF708FBFEF7DCFF401C08D065
:1046D00029201499FFF714F9A868FBF7E0FDAE60F4
:1046E00006E023200121395415201499FFF708F919
:1046F0006868FBF7D4FD6E608EE706201499FFF71B
:10470000FFF8FDF721FDC04648040010FC3F0150B2
:104710008C03001000000010DC0500005421084844
:10472000425C002A01D0521E42545221425A521C6D
:1047300092B2364B9A4200D31A4642527047C04654
:104740001C0500100848C1682D2901D8491CC1600A
:104750000168002901D0491E016004490968490621
:1047600001D40021C160704748030010FC3F025093
:1047700012480078811E4842484170470F48002186
:104780000180C82141807047F8B5044600200B4DD8
:104790000B4EC7B26878401E87420DDAF15D68465D
:1047A0000170F1194978417000211022FBF7DCFEFD
:1047B0002070B81C641CECE7F8BDC046E002001095
:1047C0005C06001080B500F011F80748006800682A
:1047D000FFF79CFB002800D080BD00200146024668
:1047E000FFF7DCFB80BDC0467402001080B5FFF708
:1047F00007FC054802210160044941610121016073
:104800000168C907FCD180BD048001401027000069
:104810007CB50C4606460025284629462A46FFF761
:10482000BDFB0220FFF7A0FB0820032100910190AF
:104830003046294622462B46FFF70CFC7CBD70B55E
:1048400014460E4605460320FFF756FB002001469E
:104850000246FFF7A3FB0120FFF786FB2046314607
:10486000FFF720FC802128462246FFF707FC70BD99
:104870000248AA21016055210160704708400040AC
:1048800080B5FDF79DFB80BD80B502460846114608
:10489000FDF786F880BDF0B4040C8BB2264682B2D8
:1048A0005E43104658430D0C370C36040021801926
:1048B000164679416E43370C3604801926467941F5
:1048C0006E438919F0BC704730380A2801D20120A4
:1048D000704700207047000010B500290AD0087802
:1048E000002807D005487844FCF77CFD002801D05B
:1048F000002010BD0248784410BD00008E02000068
:10490000860200003031323334353637383941428F
:104910004344454640305800303132333435363721
:1049200038396162636465664030780004000008CD
:104930000000000000000002000100001080807FE5
:104940007E7D7C7B7A7978777676757473727171F7
:10495000706F6E6E6D6C6C6B6A6A696868676666AC
:10496000656464636362616160605F5F5E5E5D5D3C
:104970005C5C5B5B5A5A59595858575756565555AF
:10498000555454535352525251515050504F4F4F0F
:104990004E4E4D4D4D4C4C4C4B4B4B4A4A4A49495F
:1049A00049484848474747474646464545454444A1
:1049B00044444343434342424242414141453030F3
:1049C00035000000280A0000170000001C0C000041
:1049D0000F0000003C0F0000070000005014000012
:1049E000160000009C1800000E000000781E000059
:1049F00006000000A028000015000000D4300000D0
:104A00000D000000F03C00000500000040510000D7
:104A100014000000A86100000C000000447A0000AF
:104A200004000000E4A200001300000050C30000D6
:104A30000B00000024F40000030000008545010085
:104A400012000000A08601000A00000048E80100F2
:104A5000020000002C8B020011000000400D03003A
:104A60000900000090D0030001000000E093040062
:104A700000000000F5190000E9190000AD1C00005D
:104A8000591C0000ED1A00002D1B00001D1D000028
:104A9000F51D0000D1190000F1190000E51B000010
:104AA000E11D0000EB1D0000131D0000591F000058
:104AB000971B00005B1F0000311B00006D1F0000F2
:104AC000451B0000911C0000020000100040030084
:104AD00000F00000000000000000000000000000E6
:104AE00000000000000000000000000000000000C6
:104AF00000000000000000000000000000000000B6
:104B000000000000000000000000000000000000A5
:104B100000000000000C23000A49001A01000D1FCC
:104B2000000E1F001FAA00240700271100282D00D7
:104B300029D400308800324000353F003B0200405D
:104B40000000413000000050000001500000025001
:104B500000000350884C000000000010800200009C
:104B6000A0140000C84D0000800200106810000072
:104B7000200100001001000043000000F8FFFFFFCB
:104B80000040404040404040404041414141414060
:104B90004040404040404040404040404040404015
:104BA00040050202020202020202020202020202A4
:104BB00002202020202020202020200202020202A9
:104BC0000202909090909090101010101010101001
:104BD000101010101010101010101010020202020D
:104BE0000202888888888888080808080808080851
:104BF000080808080808080808080808020202024D
:104C00004000000000000000000000000000000064
:104C10000000000000000000000000000000000094
:104C20000000000000000000000000000000000084
:104C30000000000000000000000000000000000074
:104C40000000000000000000000000000000000064
:104C50000000000000000000000000000000000054
:104C60000000000000000000000000000000000044
:104C70000000000000000000000000000000000034
:104C800000000000000000003DFFFF0702010001DE
:104C9000C9C380071333606129051100010048056D
:104CA0001128010340071101032E0710830511018C
:104CB00001032008110204420A5B0D1110090008CB
:104CC00014000F3139091111050001B42B2505110C
:104CD00012014D800511120106020711120308A9E5
:104CE0001011120C0D004004960C111208192B1013
:104CF00011200C0003000700963045042DC6C000AB
:104D000004051120010C190C11200818018008035A
:104D1000C00010200D11200922030D00A7C6005469
:104D200002C20B1120072C0436800E249AC00511F4
:104D3000200135E20D1120093811ABAB001A19E042
:104D40006A2B0F11200B42A402D68300D8018000E9
:104D50000C12051120014E320511200151081011CD
:104D6000210C00CCA130A021D1B9C9EA0512111043
:104D700011210C0C0A0415FC0300CCA130A021D198
:104D80001011210C18B9C9EA0512110A0415FC0307
:104D9000000811220400087F003D0B112307002C9E
:104DA0000E0B040C73031011300C380C114008006A
:104DB0003C0835222220FF09FF6CDC02AA01000218
:084DC000C8011A33C84A8264DD
:04000005000000C136
:00000001FF
