:020000040000FA
:1000000068120010ED010000F5010000F70100008A
:1000100000000000000000000000000000000000E0
:10002000000000000000000000000000F9010000D6
:100030000000000000000000FB010000ED330000A4
:10004000FF010000FF010000FF010000FF010000B0
:10005000FF010000FF010000FF010000FF010000A0
:10006000FF010000FF010000FF010000FF01000090
:10007000FF010000FF010000FF010000CD2800008B
:10008000A1340000CD340000FF010000FF0100009A
:10009000FF010000FD340000FF010000FF0100002F
:1000A00005270000FF010000FF010000FF01000024
:1000B000FF010000352C0000A12A0000C929000022
:1000C00000F002F800F066F80CA030C808382418D8
:1000D0002D18671EA246AB4654465D46AC4201D180
:1000E00000F058F87E460F3EB6460FCC012633424C
:1000F00000D0FB1A3343A246AB461847886C000079
:10010000A86C0000103A02D378C878C1FAD8520718
:1001100001D330C830C101D504680C6070470000BD
:100120000023002400250026103A01D378C1FBD813
:10013000520700D330C100D50B60704710B5662957
:1001400002D106F06BFC10BD642902D100F070F9F9
:1001500010BD782902D100F0A1F910BD632902D1A8
:1001600001F03AFD10BD732902D101F03DFD10BD33
:10017000002010BD1FB50098019901F06EFA01F042
:1001800063FD04000020002106F086FBE0601FBD37
:1001900010B510BD02F05CF91146FFF7EBFF04F05B
:1001A00083FD02F074F903B4FFF7F2FF03BC03F020
:1001B000E5F9000070B505460C46164602E00FCC86
:1001C0000FC5103E102EFAD2082E02D303CC03C561
:1001D000083E042E07D301CC01C5361F03E0217869
:1001E0002970641C6D1C761EF9D270BD07488047CB
:1001F00007480047FEE7FEE7FEE7FEE7FEE7FEE70B
:1002000004480549054A064B704700004134000088
:10021000C10000006806001068120010680C001091
:10022000680C001070B506F0E9FA012304460022BC
:100230001B07C01A914101D3002070BD204600F079
:1002400007F8050002D0214600F082FA284670BD6A
:1002500070B5064601F0E4F9056830460B30C40875
:10026000E400B44201D8002070BD68682A46002826
:1002700018D00168A14211D30B46214608318B42A8
:1002800008D3436801194B6003681B1B0B60516066
:10029000046001E041685160001D70BD0246406885
:1002A0000028E6D12146284601F0C2F90028DCD119
:1002B00070BD10B5202A04DB0146203A9140002091
:1002C00010BD914020239C1A0346E34019439040FF
:1002D00010BD10B5202A04DB0846203AD04000218A
:1002E00010BD0B462024D340D040A21A91400843B1
:1002F000194610BD10B503F039FE10BDFFFFFFFF1A
:1003000070B50446051F01F08BF90068002C1AD067
:10031000446801E020466468002C01D0AC42F9D367
:1003200001680A18AA4204D12A68054689180160A2
:1003300000E0456028684119A14205D16168696003
:1003400021684018286070BD6C6070BD0FB405490D
:1003500010B503AA029801F04BFC10BC08BC04B015
:1003600018470000F80300100FB41CB5074B06AA8D
:100370007B4469460090059801F00BFC002069461B
:1003800001F01AFC1CBC08BC04B01847451800005A
:1003900070B5044685690068C10601D5302600E0C5
:1003A0002026C00707D070BD62683046A16890471C
:1003B000206A401C20626D1EF6D570BD70B50446E3
:1003C00085690078C00707D170BD6268A1682020E8
:1003D0009047206A401C20626D1EF6D570BD70B536
:1003E0000C460546012A05D02878800600D5EA6922
:1003F000002302E0012305E05B1C934202D2E05C93
:100400000028F9D1A869E618C01AA861286AC0189E
:1004100028622846FFF7BCFF04E06A682078A968D4
:10042000641C9047B442F8D32846FFF7C7FF70BD5D
:10043000F7B5002575291068009914A611D0C0469B
:10044000C046002802DA404211A608E00099096877
:100450008A0701D50FA602E0490704D50EA601259B
:1004600001E0C046C046009F0024243704E001F0AC
:10047000D3FB30313955641C0028F8D12B46324665
:100480002146009801F01DF9FEBD000000000000AB
:100490002D0000002B0000002000000070B5044675
:1004A0000D4621461068C046C0462188090502D580
:1004B0000F4A7A4402E00E4A7A440E322346002163
:1004C000243305E006070009360F965D5E54491C8B
:1004D0000028F7D120780023000705D5702D03D020
:1004E000002901D002231132204601F0EAF870BD44
:1004F00076650000F3B50446002081B020622046F6
:10050000E168884700287DD0252802D06268A1686C
:1005100083E0454F00257F442046E1688847202836
:10052000064608DB312E06D2B8192038007800289C
:1005300001D00543F0E7A80701D50420854300203A
:10054000E0610746A0612A2E0AD0304606F09CF9E9
:10055000002827D0B8000019303E0090866119E0CD
:100560000298BA00121902C8916102902046E1680F
:100570008847012F064617D1E06900281FDA20209E
:1005800085431CE000980A2180694843009980193E
:10059000303888612046E1688847064606F074F9DD
:1005A0000028EFD1012F0AD02E2E08D12046E16875
:1005B00088470646202005437F1C022FC3DBA06925
:1005C000002803DA4042A06101200543E80701D07A
:1005D00010208543002E24D030464138192803D8F6
:1005E0000120C00205432036204625603146029A8C
:1005F0001546FFF7A3FD00280CD0012807D0ED1DFC
:10060000E80800E00DE0C0000830029077E72D1DFB
:10061000029574E762683046A1689047206A401CE2
:100620006CE7206AFEBD00003A65000010B5024983
:1006300003F09CFC10BD0000F8030010034610B549
:100640000B439B070FD1042A0DD308C810C9121FF2
:10065000A342F8D018BA21BA884201D9012010BDAE
:100660000020C04310BD002A03D0D30703D0521C82
:1006700007E0002010BD03780C78401C491C1B1BB0
:1006800007D103780C78401C491C1B1B01D1921E1A
:10069000F1D1184610BDF8B5042A2CD3830712D027
:1006A0000B78491C0370401C521E83070BD00B783B
:1006B000491C0370401C521E830704D00B78491C50
:1006C0000370401C521E8B079B0F05D0C91ADF0018
:1006D0002023DE1B08C90AE0FFF76CFDF8BD1D46AC
:1006E00008C9FD401C46B4402C4310C0121F042A08
:1006F000F5D2F308C91A521EF0D40B78491C0370C6
:10070000401C521EEAD40B78491C0370401C012A7D
:10071000E4D409780170F8BD01E004C0091F042980
:10072000FBD28B0701D50280801CC90700D0027064
:10073000704700290BD0C30702D00270401C491E2D
:10074000022904D3830702D50280801C891EE3E7B7
:100750000022EEE70022DFE7002203098B422CD3C0
:10076000030A8B4211D300239C464EE003460B4301
:100770003CD4002243088B4231D303098B421CD363
:10078000030A8B4201D394463FE0C3098B4201D355
:10079000CB01C01A524183098B4201D38B01C01A8D
:1007A000524143098B4201D34B01C01A5241030904
:1007B0008B4201D30B01C01A5241C3088B4201D3B3
:1007C000CB00C01A524183088B4201D38B00C01A60
:1007D000524143088B4201D34B00C01A5241411A87
:1007E00000D201465241104670475DE0CA0F00D06A
:1007F0004942031000D3404253409C460022030963
:100800008B422DD3030A8B4212D38901FC2212BAE8
:10081000030A8B420CD3890192118B4208D38901C0
:1008200092118B4204D389013AD0921100E08909D8
:10083000C3098B4201D3CB01C01A524183098B42B9
:1008400001D38B01C01A524143098B4201D34B01A2
:10085000C01A524103098B4201D30B01C01A524105
:10086000C3088B4201D3CB00C01A524183088B428C
:1008700001D38B00C01A5241D9D243088B4201D315
:100880004B00C01A5241411A00D201465241104653
:1008900063465B1001D34042002B00D549427047AC
:1008A00063465B1000D3404201B50549002802DCD5
:1008B000491C084000E00846C046C04602BD00BFD3
:1008C000FFFFFF7F7047704770470000F0B50C4690
:1008D000871A9C410D46861A9D4103D2C01BA14137
:1008E000D21963410D0D1F0DC94EEC1BAE435CD0F8
:1008F0007F057F0D0026002F51D02D05AC46A94362
:10090000DD020123ED0A1B051D4320231B1B24D4FC
:100910001746E740381871412F46E740CC199D40F3
:100920002818314661410C0D27D161449A4013D5F6
:100930000023401C594152000ED1400840000122C2
:100940004B005205D34207D305204007C14201D5D1
:10095000B04900E0B0493046F0BD6B00002A00D03D
:1009600001229A181F23203C1B1B01D5002302E003
:10097000E540281871410C0DD7D001242405091930
:10098000C407CD0740084908E40F28436144002C00
:10099000D5D00024401C61419A40D0D1CDE76A05F2
:1009A000520DD9D1C90FC907D5E79C4D4E0000287B
:1009B00001D0012400E0002434195F00002A01D096
:1009C000012600E00026BE19954FAC420CD8AE427D
:1009D0000AD8B44206D001256D05EC42BCD01046C1
:1009E0001946F0BD9942FCD000203946F0BDF0B563
:1009F0001FB40C460F46811A9F412546861A9D4119
:100A000006D20125ED076F40401ABC4152187B41C8
:100A1000210D1E0D8D1BAC467D4D8D437ED0750581
:100A20006D0D7CD00D05AE46AC431B031B0B794D01
:100A300052429D41202366469B1B14D31746F74024
:100A4000381800260090744160462F460741E4198B
:100A500000989D402818664116D4714671189A4036
:100A600025D5012320E093182A466A415200002B25
:100A700000D0521C1E23203E9B1B002B61DD354104
:100A8000EE1728186641E8D5001876415B1C9A409D
:100A900000D3401C4B05F3181524E34010D3002B62
:100AA00052D071467118D30FC01802D3491C05B03B
:100AB000F0BD0123DB079A42F9D140084000F6E778
:100AC00001225205B21801D1002853D00123CC0ACB
:100AD000DB029943891E002A08D1020C03D0020CC4
:100AE0000004103902E00246002020390023550B93
:100AF00005D112020823550B01D152010D23550CCB
:100B000001D112011B1DD50C01D192009B1C150DAA
:100B100001D152005B1C2025EE1A01E02CE022E0FE
:100B20000546F54015439840CA1AE10769181305B0
:100B3000C918002ABBDA032040070818C10FC907EB
:100B40000FE071466118B2E7F107400808437110E1
:100B500071444A000CD001235B059A42A7D2C90F09
:100B6000C9070020A3E74905490D26D1002001E06F
:100B70000028F4D100219AE7284D6600002801D012
:100B8000012100E0002171185F00002A01D0012638
:100B900000E00026BE19224FA94210D8AE420ED85E
:100BA000B14208D001256D05E94206D01946A802D8
:100BB000414010467BE79C4201D0214677E7002068
:100BC000394674E710B50C465C4005D50124E407AE
:100BD0006340FFF70CFF10BDFFF778FE10BD30B487
:100BE0000C465C4004D50124E407634030BC6DE64C
:100BF00030BCFCE670B50124E40761400D465D4061
:100C000002D4FFF763FE70BD6340FFF7F0FE70BDD6
:100C1000FF0700000000F0FF0000F07F0000E0FF91
:100C20000000F87FF0B5F94D0C091E092C402E404C
:100C30002F468BB0A7437DD0B543FCD0002E7AD091
:100C4000002CFCD00D465D40ED0F2543AC1BFF256D
:100C5000AD0464190894C502440DC9022143500D26
:100C6000DC0204430120C00701430443D202019186
:100C7000200C110C00958C46010423468B430A91ED
:100C800061460904E24D8A430991010A7D444919EC
:100C90008039097805464D4301266D18F605751B08
:100CA0006943C90C640B891C4C436418B5012C1BA7
:100CB000250C2E04B4434C434D43210C691889097B
:100CC0000591009DE90701D00121C90704912C4637
:100CD00001996708CD072F434C08059DE10B4D4353
:100CE0002D0C29466646754302950D4645432E4612
:100CF000029D7D1BB44100950D465D4301942C0C73
:100D00002F040D465543AE462D0C3D4302950394EA
:100D10007546049C2D04641B049406D2029C039D1A
:100D2000641C002675410395029401AC70CC009FB1
:100D30007D1B01E03EE162E1B441090400950791A9
:100D400001940599A4086143090C0C464443650BC2
:100D5000E7040C4666467443A646640B3C43039581
:100D600002947446049DE4042C1B049406D2029C55
:100D7000039D641C002675410395029401AC70CC60
:100D8000009F7D1BB44101940C465C430095650FA8
:100D9000E7000C465443A646640F3C430395029477
:100DA0007446049DE4002C1B049406D2029C039D0F
:100DB000641C002675410395029401AC70CC009F21
:100DC0007D1BB441AE09AF06049DC900AD092F4398
:100DD000049DA406AD060495079D34436918079148
:100DE000059DE10B4D432D0C294666467543029542
:100DF0000D4645432E46029D7D1BB44100950D4690
:100E00005D4301942C0C2F040D465543AE462D0C2A
:100E10003D43029503947546049C2D04641B049481
:100E200006D2029C039D641C002675410395029422
:100E300001AC70CC009F7D1BB44101948C050694DD
:100E4000079C890A611800950791019C0599A408DF
:100E50006143090C0D464543680BEF040D4664469B
:100E600065436C0B3C43049FED047D1BAC4602D2F2
:100E70000025641C6841009E019D371B8541084682
:100E8000584301950C46460FC5005443600F284354
:100E90006546E4002C1B02D20025401C6E41019DDA
:100EA0003F1AB5412846BD09800628438446A0095B
:100EB000BF064E020699A40676180743079D002038
:100EC00068410A99079019430020099B00906046E9
:100ED000FF1913434041E20F64003A43A44604461D
:100EE000D71A8C41A04203D90120009020463A46EF
:100EF000C70F941840416246D20F224364466400F3
:100F00000494009CBE466400D71AA4460446029787
:100F10008C417746002F01D1A04204D96046401C85
:100F20008446029A2046C40FA64694184041049A6B
:100F30000546D20F224364466400D31A8D417146A0
:100F4000002901D1A84202D928461A46641C104340
:100F50000122002800D0164361020020079B891956
:100F600004465C410223002C02DB4918134664410D
:100F7000089DCE0A2D145D194B056705E10A2C0565
:100F80000D1908993E43C9076940002B08D09340CA
:100F900006D30022761C5141002B01D17608760041
:100FA0001C4A002D43DB154241D0AA433FD03046B6
:100FB0000BB0F0BD06180D464D41174C7642AC41C2
:100FC0001AD395181C465C41134A6D42A24113D3B3
:100FD000012252054C00D4420AD15C00D4420BD00D
:100FE0004B4002D592021143E2E749004908DFE78E
:100FF0005940C90FC90718E000200849D8E705483B
:1010000001420DD10342F7D0F2E700000000FF07D4
:10101000D55D00000000F07F0000E0FF0000F87FD9
:10102000114859400143C01241400020C0E701234C
:10103000089A9B069A4205DC032252078918C90FB9
:10104000C907B5E7052252078918074A1143D2128A
:101050005140ADE770B515461C4602460B46284682
:101060002146FFF7DFFD70BDFFFFFF7F30B5034670
:10107000CA02400D1043164D164C0A1502D02043EB
:10108000002A06DBAA1A002A12DDD040FF2A0BDC58
:1010900030BD5205520D01D140004008AA1A07D4B4
:1010A000D0404042FF2A01DD002030BD0028FCDD99
:1010B0004A00002B01D0012000E00020101801227E
:1010C0005205D042F0D8C817C043604030BD000080
:1010D0001E040000000000800346CA02400D10B547
:1010E00010430A1504D00124E4072043002A05DB3D
:1010F0000A4CA21A04D4D040FF2A00DD002010BD03
:101100004A00002B01D0012000E00020101801222D
:101110005205D042F2D8C817C04310BD1E040000CB
:101120001F22030C02D10F22000402D0030E03D0B1
:1011300004E00020014670470002083A030F01D185
:101140000001121F830F01D18000921E002801DBD5
:101150004000521E120551184205C0124118104697
:101160007047C10FC90700D04042012292071143C6
:10117000D6E701218907D3E7F0B58B4C0F09254647
:1011800089B0BD437BD01D092646AE43FAD00E463A
:101190005E402740F60F3E43254071D02401214296
:1011A000FBD0FF24AD19A4042D1B039501252D05AB
:1011B000DB02DB0AC9022B43C90A29431E010901CC
:1011C000040F130F050121431701880B820391437C
:1011D0002D098C46A90B1E438A039543B30B9A0332
:1011E00096433F09BA0B9403A74302962E467E43CB
:1011F0000497B6464E19D7190C46019654430597E5
:101200007E43371B7646BF1B3601B646BE0B3619EA
:1012100000967646BC043719009C01D3641C0094E8
:101220006400002F01D001263443029E049F7543C1
:1012300066467E430496760034196E003419009495
:10124000029C019E1C196643751BAE4606946546BA
:101250004519059C05956C43594375460891691AD3
:101260000191049E01465143A41B0491611A009C04
:101270000791E10605D061090122114302E072E005
:101280006EE06109089D00272C0A2D066918049D4F
:101290007C412A0A2D066918019D6241AC0DAD0200
:1012A0006D185441079A910D920255196141029AA5
:1012B000644658435443069B059A5A43121A131B1B
:1012C0009A0E9B015B187A41010B0005C31851412E
:1012D000220A200644195A419A4200D2491C012090
:1012E0004002814203D315230226F64302E0142371
:1012F0000326F6432020C51AA9401746AF40DA401E
:101300000A4320460399D840091473181905511847
:10131000039A3843D2075140AC4009D0012294408F
:1013200006D30022401C5141002C01D1400840004E
:101330001E4A934212D3012203989206904207DB81
:101340000520400709181A480143C012414004E033
:10135000032040070818C10FC907002009B0F0BDDD
:101360000020F107FAE705180C464C4111486D4280
:10137000A04115D394181A465A410E486442904130
:101380000ED301204A004005824209D35A0082420E
:1013900006D35940C90F084AC90700201143DDE7A9
:1013A00000200649DAE700000000FF07FE07000002
:1013B000FFFFFF7F0000E0FF0000F07F0000F87FEC
:1013C0000121C9050123411842001B06D3185B0EF9
:1013D0000AD0C1100722D206891840075242D142D2
:1013E00001D5520089187047090208D50146002A24
:1013F00003D0C10FC9070020704710467047420252
:1014000002D0002002497047072109050143F4E793
:101410000000F87FF0B5FF252D04C609C209FF279B
:1014200004462E400137CB093E4348402A402B401A
:101430000746002A6BD0002B69D0AA4267D0AB4286
:1014400065D0002800DA32460125ED0529432C43FA
:1014500009022002090AD21A4B0C7F24E31A434CDA
:10146000000A7C44E35C7D242404121914145B00FC
:10147000A218884201D3521C00E0400049420C46A9
:101480005C4324115C43DB016415E318040A5C43EC
:10149000C502200D0C4644436419250A5D4323030D
:1014A000EC0C0D46654300030019EB184C42A342B7
:1014B00001D35B18401CD4052018002B07D05B001B
:1014C000C91804D3401C002901D1400840003F2125
:1014D00089048A4209D3002A08DC1106090F04D0C6
:1014E000032149074018C00FC007F0BD0122410089
:1014F000120689187F2252069142F6D20521490729
:10150000C84201D59010F0BDFF20C005F0BD002FEE
:1015100000DA32461648AA4207D2AB4205D2190277
:10152000090E17D0F80FC007F0BDFF2563002D0688
:10153000AB42F9D84900A942F6D8AB4201D1A94241
:10154000F2D0A94201D1002101E061004908D00593
:101550000843F0BD1102090EFBD0FF200243D00565
:10156000F0BD0A460146104654E700007F560000D1
:101570000000C07F10B501469E240002CA15A307D3
:10158000002A02D01843002A04DBA21A002A0CDD2C
:10159000D04010BD1206120E01D140004008A21A20
:1015A00003D4D04040420028F3DDFF224800120659
:1015B000904201D9002010BDC817C043584010BD4B
:1015C0001F22030C02D10F2200041CD0030E01D1F4
:1015D0000002083A030F01D10001121F830F01D14D
:1015E0008000921E002801DB4000521ED2055118D7
:1015F000021251181922904004D3491C002801D12D
:101600004908490008467047C10FC90700D0404249
:10161000012292071143D3E701218907D0E7000097
:1016200000487047180000107047704770477047B7
:1016300038B504460A4600206946C046C046002820
:1016400005D002462046009900F002FB012038BD7B
:1016500010B5012000F0C4FE10BDF8B5C046C0466C
:10166000054600200C461020C0460646A819A04298
:101670000DD9324669460020C046C046070001D158
:1016800000F0AEFE0098A04200D00546C419FFF756
:10169000C7FFF61D07460560F008C000461928463A
:1016A00000F008F8B44204D031463868A21B00F0BC
:1016B000CFFAF8BD002101604160806070471020C2
:1016C0007047FFB504460D4681B024300090216874
:1016D000880604D51022E0699143216000E00120D2
:1016E000A84201DD471B00E000270498A1697A1990
:1016F0001018081AA0612078C00602D42046FEF710
:1017000047FE002608E003986268A168805D904764
:10171000206A401C761C206204988642F3DB207805
:10172000C0060AD52046FEF733FE06E06268A168CF
:1017300030209047206A401C206238467F1E0028D7
:10174000F4DC07E000986268A168405D9047206A79
:10175000401C206228466D1E0028F3DC2046FEF760
:101760002DFE2078000602D5022005B0F0BD012034
:10177000FBE70000FFB50C461E468FB003CA089079
:1017800009914F007D0D00D16D1E002108460020FB
:10179000C0460321099A89050840002A03DA82001D
:1017A000801840080840800D01280A9002DD0020C2
:1017B000C0430A90089807430DD0F048F049281814
:1017C00048430714189800281DD07542291E1DDDB6
:1017D0000A9842421BE01898012802D000203021CC
:1017E00004E00020F24305E02154401CB042FBDB42
:1017F00030460022189B002121540F998B600A600B
:10180000486013B0F0BDBD1B6D1CDFE70A9A0029CC
:1018100000DA69420BA800F0B7FA0BAB07CB03ABB9
:1018200007C30899099800F01BFB6B4607C30146E4
:10183000D4480918002D00910BDDD24903980A9A6B
:1018400049424018002303A90390684600F078FD40
:1018500008E003990A9A0023081803A90390684630
:1018600000F018FD6B4607C30004000C03D00020F5
:10187000C043410800E01046189A002A03D0002215
:10188000009215461EE0751E05D400F0FBF93032BB
:1018900062556D1EF9D501220843079602D0002239
:1018A0007F1C04E02078302801D100227F1E002A0E
:1018B000069787D01EE0112D07DA00F0E3F93032E9
:1018C00062556D1C02460A43F5D1084303D00098C7
:1018D000002819D00EE00021681E05E0235C625C40
:1018E00063542254401E491C8142F7DBA81B401E52
:1018F00007950690079A18990020A0540F98079B07
:10190000069A81600CC07CE711260020189059E7E8
:10191000D21DF0B50D460446D10893B0C90003C9E5
:101920000C900D9104F084FF02460D98C00F01D079
:101930002D2007E02068810701D52B2002E0400719
:10194000C00F4001032A0F9001D0072A05DB034690
:101950002946204600F0D4F90EE12078800601D512
:10196000E76900E006272846652D04D0662814D0D4
:10197000672D69D12DE00020112F009001DB11238C
:1019800000E07B1C0CAA03A910A8FFF7F3FE119935
:10199000002610987D1C0E9142E001203B460CAAC7
:1019A000C0070B900120009003A910A8FFF7E2FEEA
:1019B000119D12981099002600280E9501D1781CCF
:1019C0000D18781B02D446427D1C761EE81B009041
:1019D0003AE0012F00DA01270020112F009001DDED
:1019E000112300E03B460CAA03A910A8FFF7C2FE92
:1019F00011993D46109800260E91217809070BD4C5
:101A00000E99A94200DA0D4603A9012D04DD4A19F9
:101A1000203AD27F302A06D0B84201DA011D04DA1A
:101A2000012100910FE06D1EEFE7002802DC86190E
:101A30002D1A03E0411CA94200DD0D46801B401C0D
:101A400000900120C0070B902078000705D4009873
:101A5000A84202DB0020C043009069460020C87203
:101A60000B98012102AF0337C907884225D0022015
:101A700010902B2011900B9800280BDA40420B900D
:101A80002D20119006E00B9800F0C6F830317F1E33
:101A90000B9039701099481E00291090F3DC0B98B8
:101AA0000028F0D111987F1E38702088000501D5DC
:101AB000452000E065207F1E387001A8C01BC01DB6
:101AC0000B900F98002800D0012041190098C017F2
:101AD00009180B980818A169081A401EA0612078FF
:101AE000C00602D42046FEF753FC0F98002805D00C
:101AF0006268A1689047206A401C20622078C00676
:101B000025D52046FEF744FC21E0002E07DB0E9889
:101B1000B04204DD03A86268805DA16802E06268EB
:101B2000A16830209047206A761C401C20620098F3
:101B3000401E002800900AD100F086F8C068626854
:101B40000168405CA1689047206A401C20622846DA
:101B50006D1E0028D9DC07E062683878A1687F1C18
:101B60009047206A401C20620B99481E00290B9068
:101B7000F2DC2046FEF722FC032042E601FCFFFFD8
:101B8000104D0000E1DFFFFF01694A1C0261087887
:101B9000704700B58FB0029100210591054901936E
:101BA00079440391114604906846FEF7A3FC0FB0F8
:101BB00000BD0000E5FFFFFF0A681070521C0A60BC
:101BC000704710B54369002B02D0C046C04601E003
:101BD000FEF705FC012010BD1278014624310A7081
:101BE00000224A700122ECE711680022D243E8E7A4
:101BF000084B70B50D467B44FFF7CBFF04462846E3
:101C000001F0C8FD002802D00020C04370BD20466E
:101C100070BD00007323000001468008081A020905
:101C20001018020A1018020C1018C00882001218AE
:101C30005200891A01E0401C0A390A29FBD2704778
:101C40000048704710000010004870473000001036
:101C500010B50346406801E003464068002801D003
:101C60008842F9D31868C3188B4206D0CB1CD80819
:101C7000C000001D411A521A0146081D0A60FEF7F5
:101C80003FFB10BD0B4670B502468907800808432C
:101C900019469D08141AA941250908070543080992
:101CA0002C194841250A01060D43010A2C1941410E
:101CB000200C0D0428430D0C00194D410021401942
:101CC0004D41C00869070843E908840F8D0025438A
:101CD000840024184D4124196D41121BAB4107E0CB
:101CE0000925ED432C11521963410024401C614128
:101CF0001C460A250026551BB441F1D270BD0000D8
:101D0000F8B51F46044601230068DB02032601469E
:101D10001840072A05DB002801D017A506E017A503
:101D200004E0002801D016A500E016A5102081438C
:101D30002160A069C01E002FA06101D0401EA061DB
:101D40002046FEF725FB002F09D038466268A168BF
:101D50009047206A401C2062C01C206206E0206A76
:101D6000FAE762682878A1686D1C9047761EF8D261
:101D70002046FEF723FBF8BD4E414E006E616E001B
:101D8000494E4600696E6600F7B516468AB033487C
:101D900078446C4603467C33C06F5A689B680DC418
:101DA0002E487844763003AC0DC80DC43720C001EE
:101DB000081837211B30FEF7D9FC05460C46803D3C
:101DC0001B3C02D56442012000E00020002709905E
:101DD00010E0E0070CD00C202049784379443246CB
:101DE0004C3941186846012300F054FA6B4607C38A
:101DF00064107F1C002CECD1184F7F442E3F16E05E
:101E0000E80712D02001C0190EC806910893079266
:101E10000068F04201D1981908903246012306A9C2
:101E200003A800F037FA03AB07C36D10641C002D44
:101E3000E6D10998002806D032466946012303A856
:101E400000F07EFA05E001233246694603A800F05F
:101E500021FA0A9B07C30DB0F0BD0000944D0000AD
:101E6000034640000A4610B5400D0BD00121C907BA
:101E70000F24A40200191C0364082143540D2143BC
:101E8000D20207E000210120F2E7D40F49002143EC
:101E90005200401E0029F8DADB0FDB07184310BDA3
:101EA000FFB50D46144685B04868516804F0A6FC9D
:101EB00000910190A868A16804F0A0FC0291039031
:101EC000A868616804F09AFC029A12188242029291
:101ED00001D2012000E00020019A0B18D21800283E
:101EE000019202D08A4202D903E08A4201D2012043
:101EF00000E000200099081800906868A16804F0CC
:101F00007DFC029A12188242029201D2012000E066
:101F10000020019A0B18D2180028019202D08A42A0
:101F200002D903E08A4201D2012000E0002000999A
:101F300008180090286821684000490040084908B6
:101F40004018FA49471814E001994000C90F0843A6
:101F50000090019802994000C90F0843019002982F
:101F600003994000C90F08430290039840007F1E68
:101F7000039000980028E7DA0898002801D0EC4E7A
:101F800000E00026B74201DA012000E0002000282E
:101F900004902AD0F71BF806C00E15D0029B202112
:101FA000091A039A8B401A430392029A019BC2407A
:101FB0008B401A430292019A009BC2408B400099C9
:101FC0001A430192C14000917B110DD06F4603204E
:101FD000C11A03D500218200B95003E08A008100B4
:101FE000BA587A50401EF3D5374603980299002814
:101FF00000D00120014308980291002808460CD027
:10200000002800D001200199019A490508430121C7
:10201000D20AC902D202019200E001210E9B0122E4
:10202000D207012B02D0002B03D013E0002807D1E8
:1020300020E0904204D890420CD1019B0B4209D081
:10204000019B5918019105D10099491C009101D1BA
:102050007F1C009200280DD0102108460020C046A9
:102060000498002806D00F98002803D008210846BD
:102070000020C04628682168019B009A4840C10F93
:102080000598C90739430EC009B0F0BDFFB587B048
:10209000099A089808995368926840688968964632
:1020A0000022039317469446089A12685300099A2F
:1020B0005B081268520052089A1A9E4BD4180A9A6A
:1020C000002A01D0352200E040220692002201239E
:1020D00015460492DB07059324E0002D05D17546D3
:1020E0000346039E4D1BB34109D375466646039BC9
:1020F000491B049D9841059B7519AC465F41634699
:102100003B4308D0059B049EDD0776082E435B0801
:102110000496059301E0521E641EC50FED07491891
:102120004041521C069B9A42D7DB002D04D17546D4
:10213000039A6B1A824101D203200CE0039A0B46EA
:102140006B404240134303D0014303D0012002E01F
:10215000022000E0002061460191002100970291D9
:102160000A99002905D0614640020143704B019154
:1021700002E08007002302909C4201DA012000E087
:10218000002007003AD01A1BD006C00E15D0029DC1
:102190002021019C091AC5408C402543029C8C409B
:1021A00000D001242543019C0295009DC4408D4030
:1021B00000992C430194C140009154111DD06D46EB
:1021C0000221002202290CD10320001B07E0002875
:1021D00004DB8600AE59002E00D00122401C0328EB
:1021E000F5DB081B02D588002A5004E0800028583F
:1021F00010438A00A850491EE3D51C460A980028BF
:1022000002980CD0002800D001200199019A4905BC
:1022100008430121D20AC902D202019200E0012141
:10222000109B0122D207012B02D0002B03D013E018
:10223000002807D11FE0904204D890420CD1019BA6
:102240000B4209D0019B5918019105D10099491CF5
:10225000009101D1641C009200280CD01021084686
:102260000020C046002F06D01198002803D0082176
:1022700008460020C04608980999019A009B00680A
:1022800009684840C10F0798C907214382600AC006
:102290000BB0F0BD00B585B0019300920A4601462F
:1022A000002302A8FFF7FCFD02A807C805B000BD87
:1022B000FFB50A461F4685B0079901930123009197
:1022C000014602A8FFF7ECFD02990398049ECA0F8D
:1022D0004900D20700920F22490892028C1A00216D
:1022E000002800DB0C46450013486D08844214D3D7
:1022F000079A002A04DA441E0026104DF64302E035
:1023000004460D460E46102108460020C046002F08
:1023100003D0042108460020C0462005E90A0843EE
:10232000009908436905F20A1143ADE602C0FFFFB8
:10233000013C0000FF3F0000FF070000FFFFFF7FA0
:1023400000B585B0019300920A460146002302A819
:10235000FFF79CFE02A807C8A8E7FFB50A461F467C
:1023600085B00799019301230091014602A8FFF768
:102370008DFE02990398049ECA0F4900D20700926D
:102380000F22490892028C1A0021002800DB0C461B
:10239000450011486D08844214D3079A002A04DAD4
:1023A000441E00260D4DF64302E004460D460E463F
:1023B000102108460020C046002F03D00421084603
:1023C0000020C0462005E90A084300990843690532
:1023D000F20A114358E60000FF070000FFFFFF7FED
:1023E00010B500F063F800F05AF810BD10B5FF23E7
:1023F0001B0644009C421DD84C009C421AD8034640
:10240000124A0B4307D4401A02D3EFF3008010BDE9
:10241000EFF3008010BD081A03D3EFF30080904360
:1024200005E0EFF3008001219043C907084380F3E2
:10243000008810BD0D231B041A4204D01146002051
:1024400000F0A0F810BD00F0B5F810BD000000903D
:102450007546FFF7F5FBAE46050069465346C008D2
:10246000C000854618B020B5FDF7CAFE60BCB64670
:1024700000260027C0C5C0C5C0C5C0C5C0C5C0C5F1
:10248000C0C5C0C5403D490849008D46704710B5DC
:102490000446C046C0462046FDF785FE10BD10B577
:1024A000002801D001F06AF810BD000010B5012825
:1024B00005D0002103A000F085F8012010BD09A17E
:1024C000F8E7000053494752544D454D3A204F75A7
:1024D00074206F662068656170206D656D6F72791C
:1024E000000000003A2048656170206D656D6F72D4
:1024F0007920636F7272757074656400024670B5FE
:102500000A4392072AD11E4DEE0104C808C9541B84
:102510009443344017D0D0B2D9B2401A21060143B7
:1025200010D190B299B2401A210401430AD110028D
:102530001902000A090A401A2102014302D1100EB1
:10254000190E401A70BD9A42DFD010BA19BA8842EB
:1025500001D9012070BD0020C04370BD02780B7806
:10256000401C491C002A09D09A4207D102780B78F6
:10257000401C491C002A01D09A42EFD0D01A70BDED
:1025800001010101C80212D54803400F002804D000
:10259000C803C043012188407047EFF30080000169
:1025A000000903210907084380F3008870470020D1
:1025B0007047000010B5024800F01EF810BD000082
:1025C0000000C07F70B505460C460A2000E06D1C77
:1025D00000F0D5FF002D06D028780028F7D102E0C2
:1025E000641C00F0CCFF002C02D020780028F7D12A
:1025F0000A2000F0C4FF70BD10B50C461107090F8A
:10260000092904D00A290AD008290CD104E011466E
:102610000820FFF7B7FF06E0510606D501E0510696
:1026200001D50120C007214610BDD10607D5010103
:102630000909CC084907000E0006044309E0410FD0
:1026400020024907000A0143200E00061D22D14145
:1026500001430846E7E7000070B5044614480168E6
:102660001022914301600120420312498B681343F9
:102670008B600022404B202A04D09D180026AE60BB
:10268000121DF8E70C4A02231360536093605062F6
:102690000A4800680968FEF75FF82146FEF75CF813
:1026A0000002FF21C94340183249086070BDC0468E
:1026B00038820440788004407440044000000010D8
:1026C00010B52C490A68FF239A430A60072800D9ED
:1026D00000200122130682400C6814431C430C6046
:1026E00082000B461033D0580028FCD50722120672
:1026F0000B6893430B60410001D5002010BD00041E
:10270000800D10BDB0B51B48016B0A04120E12D02B
:10271000194A53685B1C5360024610320023082B91
:102720001FD0090AC9B20C46DC40E40700D011688A
:10273000121D5B1CF3E7CA031BD50F4A0832034680
:102740001033C9B20024082C0BD00D46E540ED072C
:1027500003D01D682D04AD0D1560121D1B1D641CDA
:10276000F1E70721090602688A4302600248012155
:102770000160B0BD00C00140A0020010F8B5904E4D
:1027800032217160010C01D1070B01E0C70B0E373C
:10279000B760F760341D354618350D4A2046294686
:1027A0009047B069002801D00120F8BD3420706046
:1027B000B760F76030780028054A00D005483061DE
:1027C000204629469047B069411E8841F8BDC04661
:1027D000F11FFF1FE02E000010B50021074AA829B5
:1027E00008D05358834203D853189C68844202D8B7
:1027F0000831F4E7FEE7187910BDC046C46B00004D
:10280000F8B5654C0020A060606001208507202697
:102810002E6006202061084F2069062809D1206813
:10282000401C2060B84202D203F0C6FFF4E70B2040
:102830002061AE612069F8BDFF0F000010B5154999
:102840000A68022313430B60CA6F20231343CB672C
:102850003F21CB43104A11681940116014680121CF
:102860000C43146054681C40546053680B4353601D
:102870008A076C239361D22353611361022801D12B
:10288000A020D060C803054B1860402010600846A7
:1028900010BDC046048004403040044000E100E028
:1028A00070B50124A507102028600820A861064EF5
:1028B0002868C00606D5002E03D003F07DFF761EE3
:1028C000F6E70024204670BDFE0F000010B5324927
:1028D00000220A60012080074368DBB2083B032422
:1028E000E3410A2B30D8C0467B441B795B009F44F0
:1028F000070912191C272B05052E3C00042143E073
:102900004A6000E08A604A68531C4B608918097E5F
:10291000816028213AE0CA68012A0AD110220260A7
:10292000072212E0FFF7BCFF10BD4A68CB689A424D
:1029300026D24A68531C4B608918097E816024E0C6
:1029400010220260092200E00A220A611DE082686A
:102950008B685C1C8C60CB1828241A558A684969DE
:102960008A42CBD3042181610FE082688B685C1CB2
:102970008C60CB1828241A550C220A61102103E020
:102980004A69002A04D0202101600821816110BD1C
:10299000102202600C22D8E7E0020010F448012166
:1029A0000170084800220267416742674167426F31
:1029B000D207FCD081670221017000207047C04619
:1029C0006403001000800440F8B5964E96483081AC
:1029D00001F0D8FA0446304F3868000755D5308BDF
:1029E000002852D1642030832C48006800074CD462
:1029F000002575830120322100902A4602F0B4FCA4
:102A0000F07CB17C002911D0411E04293DD820461C
:102A10002F30C0467944097949008F44022F0D15A3
:102A20001F00307D0121414031752EE0401E01061E
:102A300000D10520F07428E00178491CCAB20F2AA1
:102A400000D80D46057020E0A08B401C81B2784A6A
:102A50009142009900D80146A18316E0E08B0090D6
:102A600086B23C2530462946FDF776FE3009E0283F
:102A700002D80098451A3C35E58306E04178491CA8
:102A8000CAB2022A00D901214170B8680821014365
:102A9000B96000BF00BFF8BD14800050FC3F00507B
:102AA000F0B59FB05F4F6048388101F06BFA044683
:102AB0005E4E3068C00653D5B88C002850D16420D3
:102AC000B88495480068C0064AD40022FA840125DB
:102AD0003221284602F048FCF87CB97C002910D04D
:102AE000411E04293CD820462F30C046794409793C
:102AF00049008F4402220D2D1500387D684038753D
:102B00002EE0401CC1B2052900D80546FD7427E01F
:102B10000178491EC9B20F2900D30F2101701FE0AF
:102B2000E08B3C252946FDF717FE401E80B23C286D
:102B300000D328464543E58312E04178491E4170A1
:102B40000A0602D0C9B203290AD30221417007E064
:102B5000A08B401E80B23649884200D30846A0832D
:102B600001F010FA3168090735D5398C002932D1C6
:102B7000642139846849096809072CD4B97C012487
:102B800000291FD0397D012919D1F97C012916D1DD
:102B900002462F32694600238B7001244C70537813
:102BA0000B7012780A71C28BCA80808B088108462C
:102BB00002F04AFD204602F009FC0A2402E000204F
:102BC00002F004FC32210022204602F0CDFBB87C4A
:102BD00041424141B974306840070FD5B88B002895
:102BE0000CD16420B8834C480068400706D401200B
:102BF00032210024224602F0B7FBBC74B0680421E5
:102C00000143B16000BF00BFB06808210143B1605B
:102C100000BF00BFB06810210143B16000BF00BF1A
:102C20001FB0F0BD9000001060EA00001480015059
:102C3000B80B0000F8B5012630020090740201F0D4
:102C4000A1F9324D2968324FC90533D5398A002997
:102C500030D1642139822F490968009A114229D163
:102C6000B96822465832914224D3FA7C002A00D116
:102C7000F960D9490B680022234200D1D6437B6812
:102C8000F3181E0E00D11A467A60096821420AD054
:102C90008168002901D0491E81602B21405C0028F9
:102CA00001D101F069FC0022FA74BA60012005210B
:102CB00002F05AFB286820421CD0388C002819D119
:102CC0006420388413480068204213D12320395CE3
:102CD000002901D1B969F96100223A54BA617869D1
:102CE000401C010E114600D10146796101200521E9
:102CF00002F03AFBA86800990843A86000BF00BF33
:102D0000A8682043A86000BF00BFF8BD148002502F
:102D1000A8010010FC3F0250FC3F0150F8B50091A3
:102D20000546134C32206060280C01D1280B01E0CD
:102D3000E80B0E30A060E060261D274618370D4ACC
:102D40003046394690470120400233216160A5603A
:102D50000099E16020612078002800D00648606179
:102D600030463946034A9047A069411E8841F8BD64
:102D700064030010F11FFF1FE02E0000B0B5002219
:102D8000144B8A420ED000241C605C681425254038
:102D9000042DFAD15C686407FCD51C680470521CD1
:102DA000401CEEE7B0BDC046B0B50022094B8A42D8
:102DB0000FD05C6812252540022DFAD104781C60E2
:102DC0005C6814252540042DFAD11C68521C401C57
:102DD000EDE7B0BD08000440012070470349884278
:102DE00001D3002000E00120C001704740DD4A1FF0
:102DF000F54800787047C04600207047F0B585B0B0
:102E00003149086000F0CCF80926304D3046A8471B
:102E100004900620A84703900720A84702900820A6
:102E2000A847019000243046214600F09AFA3B273B
:102E30003846A847014640263143384600F091FA0B
:102E40003B2000F06BF88006FAD4214800F0FAF835
:102E50003B27384600F062F806433846314600F01A
:102E600080FA3B2000F05AF88006FAD40920049931
:102E700000F077FA039800040299090208180199F2
:102E80004018FEF776F97C4B2246FEF775F9FEF7FF
:102E900023F900F0D7F8204600F012F90D4D302C40
:102EA00009D0285D00F0F8F829194878897800F0F1
:102EB00058FAE41CF3E7002000F0EEF8022000F0DE
:102EC000FFF805B0F0BDC046940300101D2F0000B0
:102ED00000A1BC33C86C0000B0B514460D4600F02C
:102EE000DBF8284600F0AEF8052000F0E9F84F487E
:102EF000022101607D21C900416101250560016851
:102F0000C907FCD100F045F8A04200DD002500F023
:102F10005DF92846B0BDC046002070471CB501AC25
:102F2000002121700122214600F002F820781CBD0A
:102F3000FEB500920191124A1168802302939943D1
:102F400011603A4C022525607D218E0066610127C3
:102F500027602168C907FCD17F21084003F034FCB9
:102F60000098019902F094F8256066612760206856
:102F7000C007FCD102490868029A10430860FEBDF0
:102F8000FC3F005080B50A4601460020FFF7D0FF05
:102F900080BD80B51120FFF7C1FF4008404280BDD1
:102FA000B0B50D4908682022904308601F480223ED
:102FB00003607D24E4004461012404600568ED079A
:102FC000FCD10D6815430D60036004494161046044
:102FD0000168C907FCD1B0BDFC3F0150701700006B
:102FE000B0B50C46054600F0F6F8601EC1B23520BB
:102FF00000F0B7F92846214600F0E6F90224204601
:1030000000F05EF8EF480460FF21AA314161012120
:1030100001600168C907FCD1032000F051F83F208E
:10302000FFF77CFF0007FAD5B0BDC0460480014021
:103030007047000002490A78824200D00870704749
:1030400098030010B0B5C2494860FEF792F800221C
:10305000C14BFDF7E7FDFEF73FF80446000CC1B297
:103060000620BC4DA847200AC1B20720A847E1B2FC
:103070000820A847B0BDC04680844E4010B50C461D
:1030800000F00AF8B248807F002800D010BD32203E
:10309000214600F066F910BD10B5AD494A7882426C
:1030A0000CD04870002000F00BF801242046FFF7F8
:1030B00035FF7F210140204600F053F910BDC04686
:1030C000B0B50446002806D00020FFF7B3FF032C5C
:1030D00005D1012004E00120FFF7ACFF02E0002051
:1030E000FFF7A6FF01252846FFF718FFF82101404A
:1030F0002143284600F035F9B0BD80B50520FFF723
:10310000DFFF80BDF0B585B01D46009314460E4626
:103110000191FFF7C1FF8E488461066101460831C5
:103120000F9A8A760E9A4A760D9E0E760C99039126
:10313000C1770B990491817745610A9D858320466B
:10314000FEF717F802460B46002002908349FDF770
:1031500069FDFDF78BFF0446010A02207D4FB84749
:10316000E1B20320B8470198FFF736FB0146122071
:10317000B8470098FFF730FB01461320B847290AEB
:103180002520B847E9B22620B84732242046039DBF
:103190002946B84720462946B8470299049800288E
:1031A00001D17F20C143701E864135010D4330247B
:1031B0002046FFF7B3FE6F2101402943C9B22046E4
:1031C000B84705B0F0BDC0469C03001080B5002094
:1031D000FFF776FF80BD80B50120FFF771FF80BD4E
:1031E000F0B589B0039304920E46FFF755FF09200E
:1031F000FFF794FE05460F273D404D20FFF78EFE5A
:10320000069053484068FFF7E9FD284370210143C9
:1032100048B21399019112990291119A109908914B
:103220000F9907910E9D0028059209D4B843F11714
:1032300031430E2900DB0E214A1C10430E4623E0C9
:103240000721112E05DCF822069B13401A461A1D91
:1032500001E0069A0A4306921140F0221040072925
:1032600008D1052E00DC0526142E00D31426314685
:103270000B3107E0022E00DC0226112E00D31126AE
:1032800031460E3139400843C1B20920314CA047C4
:103290004D200699A04701982D4A506210460830EB
:1032A00002994176059F0776089890770798908352
:1032B00095610695049DD5600398106116720A26E3
:1032C0003046FFF72BFE402101433046A0472846F9
:1032D000FDF74FFF0024204B2246FDF7A3FCFDF72E
:1032E000C5FE0646010A04201A4DA847F1B22E4633
:1032F0000520A8470698FDF73CFF02460B461749F4
:103300002046FDF78FFCFDF7B1FE0546010A0220BD
:10331000B047E9B20320B047079D290A2520B047EE
:10332000E9B22620B0470898002801D17F20C44385
:10333000781E87413D01254330242046FFF7EEFDEE
:103340006F2101402943C9B22046B04709B0F0BD02
:103350009C0300106333000080844E4080847E41D3
:103360007047E0B501AB19700122194600F002F870
:103370008CBD0000FEB501920291CC4A11688027F5
:10338000B94311600F4C0221009121607D218E0014
:103390006661012525602168C907FCD1384303F027
:1033A00013FA0198029903F013FA009820606661FD
:1033B00025602068C007FCD1BC4908683843086014
:1033C000FEBDC0460480014080B50A46014600208B
:1033D000FFF7D0FF80BD0000034908604868C006C1
:1033E000FCD40868C0B270470800044010B5134C04
:1033F0002069411C2161092815DB0020206102F0B1
:10340000F7FA02F0B7FE00F0BFF803F041F902F05E
:10341000CDFE02F0AFFF03F00DF902F05DFA606837
:10342000401C00D26060E068411CE160632803DB5F
:10343000012020700020E06010BDC046380200105E
:10344000B0B51248002282630121C163C263C16327
:10345000C36BDB07FCD0232303600D4B1C68802566
:10346000AC431C604368DB07FCD003238366C16662
:10347000C266C166C26ED207FCD00167054A826788
:1034800005480160054813210160B0BD0880044073
:10349000388204405F00010098800440508104405D
:1034A00009480168C90705D00121016012490A686D
:1034B000521C0A600168C90605D5102101600E483A
:1034C0004168491C4160704700C0004009480168DC
:1034D000C90705D00121016007498A68521C8A602A
:1034E0000168C90605D5102101600348C168491C5F
:1034F000C160704700000140C80200100120400573
:10350000074908600D480268064805214180017896
:1035100043181A713E2901D8491C01707047C046F2
:1035200080E200E01401001004494A695206FCD50B
:1035300008604A695206FCD57047C04600800040CA
:103540000648011F03220A60012101600022026077
:1035500001600168C907FCD00020704774800440F6
:10356000BFF34F8F034804490160BFF34F8F00BF83
:10357000FDE7C0460CED00E00400FA05FEE780B56B
:10358000FFF7D2FF80BD0000B0B51748C188002901
:1035900008D001229202154B1C6814431C60491E7E
:1035A000C180B0BD03891149114A002B05D00C68B8
:1035B00014400C60591E0181B0BD0378002B0ED061
:1035C0004488C4800124A4020D6825430D608488CA
:1035D00004810C6814400C60591E0170B0BD08686D
:1035E00010400860B0BDC04670000010FC3F0250A3
:1035F000FFFBFFFFB0B50023154A0C060ED0047880
:1036000063400824250606D05D08DB0700D055403E
:103610002B46641EF6E7491E401CEEE798B2B0BD8B
:10362000B0B50A4B0A4A0C060ED0491E0478634016
:103630000024072C06D85D08DB0700D055402B4638
:10364000641CF6E7401CEEE798B2B0BDFFFF000037
:1036500001A0000010B50446FDF7DEFF0146034857
:10366000FDF7D8FE002C00D1204610BD00606A474F
:103670000B4908680422904308600A6880200243CE
:103680000A6008490A6820231A430A6006490A6842
:103690001A430A6005490A6802430A607047C04637
:1036A0000080005000800150FC3F0150FC3F005062
:1036B000800021490818007A7047C04610B54400C0
:1036C000E0B200F01FF8601CC0B201F06FFF10BD47
:1036D00070B50A480124047000253321084E28469D
:1036E000B04732212846B04728212846B0470C2150
:1036F0002846B04728462146B04770BD1803001041
:10370000A54B000080B5024601200021FCF7D1FD49
:10371000034A936983439361D0698843D06180BD34
:10372000580100100A200449522803D000220A52EE
:10373000001DF9E77047C046500200100249487565
:1037400002480068088270479000001010010010C5
:1037500010B507210C03A0421BD1FFF71FF900BFD2
:1037600000BF00BF00BF00BFEFF3108072B620465D
:10377000FFF704F800BF62B6FFF7E2FE1320020174
:1037800000BF00BF00BF00BF00BF0E482146FCF7CE
:1037900011FD10BD0020C0437047000010B508495E
:1037A00009780022074BFF2A06D0044618184078F3
:1037B000521C8842F7D100E0FF24E0B210BDC046A1
:1037C000D0010010B00400109E482B21415C00295C
:1037D0000ED12821415C00290AD02E21415C054AE6
:1037E000117006234B43D118428CCA80008C08818B
:1037F0007047C046E4050010F0B585B000F0CCFB82
:1038000001902B268F4CA55D2E20205C039000207C
:10381000049001F057FC07468B494860002D01D009
:10382000132003900096A05D002802D12784206910
:10383000608408680F600290C01B411E8841E18CC3
:103840004A424A410243012A049B00D0F6E0254641
:103850007E4CEC84002600F085FD002801D0F34367
:10386000ECE02821685C0028304633462E461FD005
:103870000D460398C0B2062141437018418F724A29
:1038800052688A4205D2008F3169814201D20120FB
:103890000EE00A201C46FFF751FF23466B4C2D20FB
:1038A000072131542A2001213154705D411E884185
:1038B0002A21715C002900D0C0E0002800D1BDE0C1
:1038C000B068002800D1B9E00020049001F000FCAD
:1038D00005465F480299B94202D1854200D2ACE068
:1038E0001E200121022201F03FFD5948854207D9DF
:1038F0007D2001018200012001F09AFE30460DE09A
:1039000028094A28304609D801980088FDF784FE26
:10391000504903F02BF8FDF72DFE15E02F462D241E
:10392000055D01980088FDF777FE4A4903F01EF80F
:10393000FDF720FE062D06D0052D0BD0042D71D1EC
:10394000052131556EE0414C2D220521B1544249EB
:10395000401868E0029032460098305C002804D09D
:10396000916800293D461DD117E03420105C36498E
:1039700049688142144605D1A2696368934201D91E
:103980009A1A6260A2680392002A22463D4604D039
:10399000814206D24B20000109E0002003902C490F
:1039A00007E0039950680391FCF7D6FE3246284998
:1039B000D060D7684B200001874200D807468F426D
:1039C00000D30F46D76028461446FDF7D2FB0646C3
:1039D00001913846FDF7CDFB02460B463046019972
:1039E000FDF720F9074600910298FDF7C2FB02900F
:1039F00001910026194B384600993246FDF7E2F84E
:103A0000029A019BFDF7B8FB154B3246FDF7B4FB5C
:103A1000FDF72CFB03994D4361688D4202D97D214E
:103A200089004018094C80B20E49884200D80846E7
:103A3000A04200D3204600F019FD049B184605B0B3
:103A4000F0BDC046000400100C010010102700005B
:103A5000E02E00004260D53F0CFEFFFF0000F03F6B
:103A60000000E03F88130000F8B50125284601F06A
:103A70002FFB0446284601F025FB6D490968B8492B
:103A80000B6B8A7E80259D54561CF6B29D55961C64
:103A9000F6B29D55D61CF6B29D55161DF6B29D5533
:103AA000561DF6B29D55260C971DFFB2DE55260A0F
:103AB000D71DFFB2DE5516460836F6B29C55040CEB
:103AC00016460936F6B29C55040A16460A36F6B270
:103AD0009C5514460B34E4B2185510460C30C0B255
:103AE0001D5410460D30C0B21D5410460E30C0B2E9
:103AF0001D5410460F30C0B21D5410461030C0B2D5
:103B00001D5410461130C0B21D5410461330C0B2BF
:103B10001D5410461230C0B21D5410461430C0B2AD
:103B20001D5410461530C0B21D5410461630C0B298
:103B30001D5410461730C0B21D5410461830C0B284
:103B4000CC781C54887814461A34E4B21D551446B7
:103B50001934E4B2185510461B30C0B21D5410463B
:103B60001C30C0B2CC7D1C54E048047810461E3096
:103B7000C6B20020985516461D36F6B29C5514461E
:103B80001F34E4B2185514462034E4B218551446D4
:103B90002134E6B2274C27799F5516462236F6B2D5
:103BA000E7789F5516462336F6B2A7789F551646F6
:103BB0002436F6B267789F5516462536F6B2247835
:103BC0009C5514462634E4B2CA4EB789BF081F5527
:103BD000B489A401B78ABF05BF0E3C191746273721
:103BE000FFB2DC55347D16462936F6B29D55164691
:103BF0002A36F6B29D5516462B36F6B29D55164618
:103C00002C36F6B29D5516462D36F6B29D55164603
:103C10002E36F6B29D5515462F35EDB25855104645
:103C20002830C0B224011C5430328A76F8BDC04618
:103C3000FC3F025060010010F0B585B000F0ACF917
:103C4000064600F0D9F904460025284601F040FA5E
:103C50000190284601F036FA02904048016804912C
:103C60004068039000F0E8F9BF490A6B8B7ED0549E
:103C700070785F1CFFB2D05530789F1CFFB2D055D2
:103C8000F079DF1CFFB2D055B0791F1DFFB2D055BF
:103C90005F1D707B002802D00120708100E0B07AA7
:103CA000FEB290552F48019F874200D30746380A3D
:103CB0009E1DF6B29055D81DC0B21754029F380C05
:103CC0001E460836F6B29055380A1E460936F6B238
:103CD000905518460A30C0B2175418460B30C0B27F
:103CE000039E1654049F380E1E460C36F6B29055AD
:103CF000380C1E460D36F6B29055380A1E460E3662
:103D0000F6B2905518460F30C0B21754184610300E
:103D1000C0B226781654A0783F260640607880010D
:103D200030181E461136F6B2905512338B76201D90
:103D3000A678B54210D246790F273740067836016B
:103D4000BE19DFB2D6555E1CF6B2077997559B1C9B
:103D50008B76801D6D1CEBE705B0F0BD50020010A6
:103D6000D0010010FFFF000070B500F065F95D4C58
:103D7000E5787D490B6B8A7E9D546588561CF6B2AA
:103D80009D55951CEDB22668360A5E552468D51CF3
:103D9000EDB25C550C464834E578161DF6B29D55DB
:103DA0006588561DF6B29D55951DEDB28E6C360A8E
:103DB0005E558D6CD61DF6B29D55E57916460836D2
:103DC000F6B29D55E58816460936F6B29D5515465C
:103DD0000A35EDB2CE6C360A5E55CD6C16460B3602
:103DE000F6B29D55E57A16460C36F6B29D556589B4
:103DF00016460D36F6B29D5515460E35EDB20E6DD2
:103E0000360A5E550D6D16460F36F6B29D55E57BAA
:103E100016461036F6B29D55E48915461135EDB2B9
:103E20005C5514461234E4B24D6D2D0A1D554C6D8F
:103E300015461335EDB25C552B4CE5781646173612
:103E4000F6B29D55A57816461636F6B29D5565789C
:103E500016461536F6B29D55247815461435EDB242
:103E60005C554C6B15461835EDB25C55CC78154653
:103E70001935EDB25C558C7815461A35EDB25C55A6
:103E800014461C34E4B280251D5514461B34E4B29C
:103E90001D55CC7D15461D35EDB25C55134C24786F
:103EA00015461E35EDB25C554C7815461F35EDB202
:103EB0005C550F4C247815462035EDB25C550D4C01
:103EC0003834657916462136F6B29D552479154663
:103ED0002235EDB25C5514462334E4B21855243231
:103EE0008A7670BD3C020010BC6B0000040000101C
:103EF000FC03001024030010F8B5F94D2C7B2020A2
:103F00002C54287824216854A87AA877002C06D04D
:103F10002046FFF743FCFF2802D0044600E0AC78BF
:103F200028202C54A87D2A2168540820A876296BC3
:103F30000A460832AA630A4609322B790A3B002452
:103F4000E6B2B34209D9561EAA63C7B23678CE5537
:103F5000401CA876521C641CF2E7002001210A468E
:103F600001F030F9F8BDC046D001001080B5FFF770
:103F7000DBFA80BD80B5482001F026F8FF2181439F
:103F8000080980BD56487047000102490818001D05
:103F90007047C046A8010010224800218181801C82
:103FA0007047C046F8B54020124CA0470746009025
:103FB0004220A047064605023D434420A04707464D
:103FC00004042C4346200B49884705062543310E3F
:103FD000F21712025118009AD2170A43390C1143F2
:103FE000040A0C4348200349884704430F21214019
:103FF0002846F8BDC94F000000487047E40500108E
:1040000080688178427812025118F74A5180017C09
:10401000C37B1B025918037AC07951810002C01872
:10402000108170472802001080B54A2000F0CCFFB4
:10403000FF218143084680BD80B500F027F8C10705
:1040400005D1810705D4400705D5022080BD042095
:1040500080BD012080BD032080BD000080B5FFF73A
:10406000EBFF401EC1B2032904D840B2800003A177
:10407000085880BD004880BD5D6D0000586D00008F
:10408000476D00004E6D00005D6D00000F48006838
:10409000800A022181430E480268D20700D1091D1F
:1040A000002904D00B4A11700023538008E009490D
:1040B0004A88952A03D8521C4A80097800E00021DA
:1040C00000684007C00F08437047C046FC3F0250DD
:1040D000FC3F03508C00001028200149085C704709
:1040E0000004001080B5FFF7F7FF012801D003A0FE
:1040F00080BD01A080BDC04672756E0073746F7084
:1041000000000000800008490818007A7047C04687
:1041100070470000014840887047C04614010010F5
:10412000014808307047C04650020010F0B59FB0FB
:10413000FFF782FF012839D16C46A01C7A21FCF7D9
:1041400007FB6748C06A0178890921702ED0017881
:104150003F220A4069464A7043788B7006215143DA
:1041600000221346914219D06C46A418DBB21D18E8
:10417000AE7836092671AE783601DB1CC75C3F0687
:104180003F0FF619F6B23C277743E7802D79C65CDE
:104190003607360D75192581921DE3E7684601F053
:1041A00053FA002802D1012001F010F91FB0F0BD30
:1041B000B0B50446FFF740FF0546FFF7E3FE012DCB
:1041C00008D105462A3532307C21FCF7C1FAFF20A0
:1041D0000230288053200022214600F0F3FFB0BDBA
:1041E00001460620002200F0EDFFFFF7B9F90000BC
:1041F00070B504463A48C66A02201821FCF712F846
:104200000546707F8006800F2870707F0007C00F02
:104210006870B07F4008717F4907890D0818A88031
:10422000F07FC009B17FC907890F08182876F07F91
:104230004006C00F68762020305CF17F8906890C2B
:1042400008180009A883284600F0BCFD2846FCF7A2
:1042500057F810200022214600F0B4FF70BDC04680
:1042600010B501461E48C26A1378941CC4620C4CF7
:10427000E018527842700620002200F0A3FFAA2026
:10428000207007200003214600F05FFF00BF00BF41
:1042900000BF00BF00BF00BF00BF00BF10BDC046D1
:1042A000B0040010B0B50E4DA9782A7C8A420DD01A
:1042B000E97D81420AD8AC7A204600F05DFC0028F6
:1042C00005D0287D00F058FC002800D0B0BD462065
:1042D0000449295204480470E878E875B0BDC04626
:1042E000D0010010307500000400001070B50F22DE
:1042F000D343164A002B07D0D4182825002666552C
:10430000382566555B1CF5E70123D36051611843DE
:104310001076FEF775FA70BDB0B518240B4B282C3B
:1043200003D000251D55641CF9E7541CDC600024F3
:104330005C611876E0B2904205D2C0180D784576DF
:10434000641C491CF6E7FEF75BFAB0BDE002001002
:1043500010B54400E0B2FFF7D5F9601CC0B2FFF71A
:10436000D1F910BDF0B587B008263046FBF770FFD5
:10437000074604242046FBF76BFF03AD0321297198
:1043800001222A70C6700021029181700192427050
:104390001021017077490C700C460590284639466B
:1043A000324600F0E9FF3846314600F0EFFE38466D
:1043B000FBF7A6FF0598FBF7A3FF00F071FE284668
:1043C00000F0B8FD002803D00298C043019907E02F
:1043D00003A8FFF715FE0598FBF792FF0298014628
:1043E000E17307B0F0BDC04628020010F0B587B0F9
:1043F00008252846FBF72CFF064604273846FBF71E
:1044000027FF03AC06212171012102912170C170A7
:1044100000218170019141702021017055490F7078
:104420000F460590204631462A4600F0A5FF30464B
:10443000294600F0ABFE3046FBF762FF0598FBF71C
:104440005FFF00F02DFE204600F074FD0446029848
:10445000002C07D103A800F0A7FD04460598FBF740
:104460004FFF0198F873204607B0F0BDF0B587B054
:10447000074608200190FBF7EBFE06460425284678
:10448000FBF7E6FE03AC06212171012102912170A8
:10449000C770390A817000274770102101703549B3
:1044A0000D70059020463146019D2A4600F064FFBC
:1044B0003046294600F06AFE3046FBF721FF05989A
:1044C000FBF71EFF00F0ECFD204600F033FD044634
:1044D0000298002C07D103A800F066FD0446059859
:1044E000FBF70EFF38462349C873204607B0F0BDDE
:1044F000F0B587B008252846FBF7AAFE0646042734
:104500003846FBF7A5FE03AC06212171012201927A
:104510002270C170002181700291417020210170D0
:1045200014490F700F460590204631462A4600F088
:1045300023FF3046294600F029FE3046FBF7E0FE17
:104540000598FBF7DDFE00F0ABFD204600F0F2FC25
:10455000002803D00298C443019807E003A800F0A4
:1045600023FD04460598FBF7CBFE0298F87320461E
:1045700007B0F0BD2802001010B54720C04307491E
:1045800000280AD00A185023D35C012B03D05223F1
:10459000D45A641CD452001DF2E710BD5002001022
:1045A0005C48016880220A430260016801220A43D4
:1045B00002609848016808220A4302607047C046BA
:1045C00010B5944801680422914301600121CA0298
:1045D000504B1C6894431C6002688A43026010BD03
:1045E000012081024B4A13680B431360054A13688C
:1045F0008B431360044902228A8048801E20087081
:104600007047C046FC3F02507000001080B54B2040
:10461000000200F03FFA80BD80B50448B021FCF7ED
:1046200099F803487C21FCF795F880BD0004001040
:10463000E405001070B500F057FD072004031320B7
:104640000201124D28462146FBF7B4FD2E78AA2E12
:1046500004D02046FFF77CF8AA202870FF20043001
:10466000295C0B48002903D00121090200226A506D
:10467000412189006A58824201D900206850AA2E3F
:1046800003D00249204600F060FD70BDB004001068
:10469000FFFFFF00B248016840220A4302607047F2
:1046A00070B51C4801681C4A1140016003681B4931
:1046B0000B400360614B1C680C401C60184B1C686D
:1046C0001125AC431C6043681340436001252A0256
:1046D00083681343836003691343036142680A409C
:1046E0004260690282680A43826002690A43026189
:1046F00068073E4908600B4E341D20212046FCF718
:1047000029F80948F061F060E577F57407483060F2
:1047100070BDC04600800250FFFEFFFFFFFDFFFF9F
:1047200024400440A8010010E02E0000E0930400A3
:10473000FCB52C4801680122019211430160082256
:10474000D44329480168214001600426F743E74922
:104750000B683B400B600B6823400B6010230093F9
:10476000DD430B682B400B60436823404360836844
:1047700013438360C3682340C36003691343036129
:10478000486838404860886830438860C868384066
:10479000C8600869304308614868204048608868FC
:1047A00010438860C8682040C860086910430861E9
:1047B0004868284048608868009A10438860C86844
:1047C0002840C860086910430861019AD007CC49A5
:1047D000086090070860064800210175C274054909
:1047E0008160FCBD904004400080005000E100E08A
:1047F0009000001060EA320006480168022211436E
:10480000016005480168914301600448C821418066
:104810007047C04600800350FC3F03507A000010F0
:1048200080B501208002B1490A6802430A60044948
:104830000A6802430A60FFF7E9FE80BD008001506C
:10484000FC3F015080B5FFF7ABFE00202822014657
:1048500000F040FD80BD000010B50120FDF7EEFF27
:104860004020064CA0474220A0474420A0474620B5
:10487000A0474820A0474A20A04710BDC94F0000CC
:10488000F0B587B09B4801687D22D40022461832DB
:104890000A4302607A4800683249FBF75DFF3249FB
:1048A0008860081FFF220260042008612F4D2878CD
:1048B000002805D1012028702D4A1278D20741D155
:1048C00000F07CF802206870FEF7D2FE29480168EB
:1048D00000242046884718274B20C50100950197E2
:1048E00002940394049405942248C6690E21224A36
:1048F000224B2046B047402000971E4F0194029063
:10490000039404940594BE691D4B20461B492A4616
:10491000B0470D201F21FEF724FD2820FEF7FEFAE8
:104920002D280BD1FFF726FB1649414316480818DE
:10493000F96888470220FEF7C3FB00E0E443204605
:1049400007B0F0BD0022E1235B009A42B8D00223F9
:104950000B604C6108600B68DB07FCD1521CF2E76E
:104960008080044040420F00048001408A00001013
:1049700004020010746C000030750000F049020061
:1049800084D3020090D00300C0CA893680B52420A9
:10499000FEF7B8FE80BD0000B0B5FFF745FB7E4CCA
:1049A0002070FFF7E7FA0025034921646564607011
:1049B00000F04EFBE570B0BD983A640070B51F483A
:1049C00001680123194301601D490A46F932C46F89
:1049D0001443C4671B4A022010601F22D4431A4AA2
:1049E00055692540556155691D435561556918261E
:1049F0002E43566195692540956194691C439461E5
:104A0000936908241C439461536E0324A3435366A3
:104A1000536E0343536613680724A343136013685C
:104A200003431360094A116010610021072902D86D
:104A30009368491CFAE7506070BDC046048004408A
:104A400007070000948004404C40044000000440EC
:104A500080B50B4800680B49FBF77EFE401E010E37
:104A60000DD10949094A5060094803680B400321E8
:104A7000890759180160002090600720106080BDF0
:104A800000000010DE260000FFFFFF0010E000E045
:104A900020ED00E0B0B501461448026880231343BE
:104AA0000360026840239A430260114802680124AF
:104AB0002243026042682243426020030D4A136889
:104AC000034313600C4D8320E8600C48FBF744FE61
:104AD000010AC9B26960C0B228600320E8606C6056
:104AE0000620A860600506490860B0BD008001503E
:104AF000A44004408080044000800040C0C62D00D7
:104B000000E100E00120C1030F4AD36D0B43D365E0
:104B1000602111600D490A6840239A430A600C4ADB
:104B20000021116050605368DB07FCD09060094899
:104B3000016009480949416003210160AA2181609F
:104B4000552181607047C04624800440388204406B
:104B5000D08004406006001000400040FFFF3F008E
:104B600010B5425C43185B781B029C18FEF758FD99
:104B7000604080B210BD000010B5014606480278C2
:104B80000020EA4B0446FF2C05D059184978641CD4
:104B90009142F8D1012010BDD00100107548007875
:104BA0007047C046F0B587B00C460546714F38785F
:104BB000411E8841C00079780A2206929143081864
:104BC0007870C1B24E26364A30469047F0200494A1
:104BD000204079780F2202921140091879703046EE
:104BE0002F4A9047681E854178780124A043059597
:104BF00040197870C1B23046294DA8477978042011
:104C00000190014379703046A847264E0225356051
:104C1000746134603068C007FCD17978FB20009063
:104C2000014079704E2000F0DFF903953560069859
:104C3000706134603068C007FCD178780299084010
:104C40000499090140187870C1B24E252846144ACB
:104C500090477878A043059940187870C1B22846EB
:104C60000F4A9047797801980143797028460C4A99
:104C70009047039D3560746134603068C007FCD193
:104C800079780098014079704E2000F0ADF93560D8
:104C90000698706134603068C007FCD107B0F0BD81
:104CA000E94F000004800140FFF7F4FCFFF7CAFD64
:104CB00017480168174A11601F210160FFF7B0FD16
:104CC000FFF720FFFFF762FEFFF77AFCFFF794FD86
:104CD000FFF786FCFFF7C0FDFFF7ACFCFFF7E0FC39
:104CE000FFF7CEFDFFF758FEFFF7B2FEFFF720FDFE
:104CF000FFF792FC00F080F900F0AAFE01F06CFBD7
:104D000000F0F4FD01F052FC00F048FEF2E7C0466E
:104D10003080044004020010103000210A4620298F
:104D200003D0435AD218891CF9E7100980B27047A2
:104D300010B50D48818C002901D0002411E02C21F0
:104D4000002444542E21425C521C42543323C35C41
:104D5000D2B29A4203D2012000F038FB01E0445461
:104D6000E443204610BDC04600040010014908700D
:104D70007047C0461803001010B54400E0B200F0C0
:104D800015FC601CC0B2FEF7BDFC10BD8068C17888
:104D900080780002401881B20020062906D001293F
:104DA0000BD107498A7B0121114303E00449897B28
:104DB00001229143024A91737047C0437047C04635
:104DC00028020010F0B591B02521C900574A515A68
:104DD0000091574B99680F91DE687D210191C900C0
:104DE0000A910024242201250290312D00D19AE05D
:104DF00010964719791E0E78032E01D1109E8EE071
:104E0000405D0C955D192021685403203B5A2320F6
:104E10002B52204601240E9084404B2081004348B1
:104E2000405804900694A0430591404C6050099569
:104E3000EE770A98834203933D4C02D9F81C0A9BF3
:104E400003800893032000210D92FBF732FA109B98
:104E500007918B430F9A15468543A5600B93E3603A
:104E6000022E41D0012E1BD02346002E0E9C13D1C2
:104E70000898002810D00698049A02432B480599F8
:104E80004250012000210D9E3246FBF712FA284BBA
:104E90000B9F0F43054320E00F950B9E02983CE0CB
:104EA0002120099E315C00290E9C0CD13146213114
:104EB0002B22009BB3502722039BB3501B4A12198D
:104EC000C000105C0870022000210D9E3246FBF7E6
:104ED000F0F90B9F0F430543154B9D60DF600F9565
:104EE00032463E46029819E015460F22BA5A2F2341
:104EF000099EF2521123FB5A31243353019BDB00EC
:104F000053432722B3500A4B05430798109E06438C
:104F10000F959D60DE6002980E9C0D9A0C9D1835D1
:104F2000921C641C61E711B0F0BDC046B0040010D3
:104F300058010010FEB50546194807780220C04305
:104F4000042F01D2401CFEBD0190164C2078287021
:104F50000120205602902871381FC6B23046FBF758
:104F600077F9A8600298002815D40020864205D061
:104F700021188978AA681154401CF7E7B81EC1B2FD
:104F80000848FFF7EDFD002807D0A868FBF7B8F93F
:104F90000198801CFEBD0198FEBD0020FEBDC046EC
:104FA000140100101801001080B581684A78097852
:104FB0000902891801225203914202D1FFF7E6FE4D
:104FC00080BD002080BD000080B50121FFF78EF973
:104FD000C0B20C2802D10348007880BD0020C04335
:104FE00080BDC04608030010E0B501AB1970012276
:104FF0001946FFF791F98CBD80B5044801788160AE
:105000000021017001F0D8FB80BDC04638020010BD
:10501000B0B50C46002807D03C2807D0282807D078
:10502000142814D1C02104E0802102E0D42100E042
:1050300094210020FFF7B6FD651C2078C1B2012045
:10504000FFF7B0FD691C287800280D46F6D1B0BDE9
:1050500010B50D4C4443FEF7BEF80C4820189A4C8E
:10506000E16888470420FEF72BF89548022101608B
:10507000692189004161012101600168C907FCD1F2
:10508000606B804710BDC04690D00300C0CA89360F
:1050900080B5024608461146FDF770FE80BD00004F
:1050A000B0B501208502454C2068A843206001F07E
:1050B0002FFBFFF72FF80028FBD120682843206042
:1050C0000020B0BD00010749081840687047C0467D
:1050D0000001044908188168C068814200D3481E55
:1050E0007047C046A801001010B50A4C3A20606015
:1050F000201D21461C31084A9047E069002801D054
:10510000012010BD234620330FCB044C0FC40020D8
:1051100010BDC04664030010F11FFF1F18020010ED
:1051200070B504460026F5B20F2D08D8A54204D06C
:105130002846FEF7BDFA012801D1761CF3E70F2DB2
:1051400001D8002070BD012070BDB0B50C4607210C
:105150000D03A84219D1FDF721FC00BF00BF00BF1D
:1051600000BF00BFEFF3108072B62846FDF706FBC4
:1051700000BF28462146FDF7D1FD62B6FEF7E0F9F3
:1051800000BF00BF00BF00BF00BFB0BDF8B50C46F8
:105190000546012087020949086838430860084E1F
:1051A000200606D028783146FBF7A4F86D1C641E53
:1051B000F6E702490868B8430860F8BDFC3F0150B3
:1051C000F8030010F8B50091002A11D120223B49C4
:1051D00000238B542A2288540A782423CA548B78BB
:1051E00028240B5508238B768A770A6B08328A634A
:1051F000062807D010280CD053280DD043280ED0F5
:1052000015280ED12D498A7E0B6B9854501C887638
:1052100007E0FEF729FC04E0FEF70EFD01E0FEF7D3
:10522000A3FD264FBC7EA61C3E773D6B2E70387AC0
:105230006870B87FA8702020385CE8702420385C43
:1052400028712820385C68712A20385CA8712846AB
:105250002146FEF7CFF92855010A601CC2B2A954B5
:10526000401CC2B28021402AF8D3B87600980228A8
:105270000CD1002515A4F0B285421AD2386B415DDD
:105280002046FBF763F86D1C3E7FF4E70C480221D3
:1052900001600C494161012101600168C907FCD12D
:1052A000F1B20948826A284690477878FFF7D0FE25
:1052B000F8BD0A20FBF7BAF9F8BDC046D0010010CE
:1052C00004800140204E0000746C000025303258EC
:1052D00000000000FEB5144602910190204F38688E
:1052E000012100918843386000BF00BF00BF00BFAC
:1052F00000BF00BF00BF00BF1A4D3868012C2BDB78
:105300008026B0433860641E019802992246FAF75D
:10531000E0FFC007000F00BF00BF00BF00BF00BF1D
:1053200000BF00BF00BF2968082291430818286009
:1053300000BF00BF00BF00BF00BF00BF00BF00BF75
:1053400038683043386000BF00BF00BF00BF00BFF7
:1053500000BF00BF00BFD0E7009908433860FEBD22
:10536000FC3F0250FC3F0350024B9A80598018705A
:105370007047C04670000010F8B515460C4606464A
:105380000078087030794870101FC0B20021884240
:1053900005D0B268525C63189A70491CF7E7A81EE2
:1053A000C7B220463946FEF73BF9B081E055707B25
:1053B000691EC9B2605403480121017002490020EE
:1053C0000870F8BDE005001014010010F8B50028C1
:1053D0002AD002282DD001282AD12D21BC4C012011
:1053E0006054292160540021A1612E21615C0623B3
:1053F0004B4322463232D3181989A183A160DD883C
:10540000E5833226A65DC703B7401B799840384331
:1054100020607D20C6006E4390787043FBF79CF9B6
:105420006061301A6060F8BD2A20F34901220A54F5
:10543000F8BD3220F04E305C0028F9D00090A82052
:10544000002131542D20012737542920375434208E
:10545000305C3546A835A880B083B06070697D2186
:10546000CC002146FBF778F9C0B26880F083F903DD
:10547000009A9140491C444312C6F8BD70B5401EC5
:10548000042840D878440079400087440B26330232
:1054900002000024E0B20F2835D8002100F01CF9EA
:1054A000641CF7E70025D44E102D2CD03068E8405E
:1054B000C0070CD0ECB22046FFF732FE002803D024
:1054C0000121204600F008F92F20355403E0E8B20E
:1054D000002100F001F96D1CE6E70024C64D102CF8
:1054E00011D02868E04001210140E0B200F0F4F85A
:1054F000641CF4E70024E0B20F2804D8022100F075
:10550000EBF8641CF7E770BD014948807047C0465E
:105510007A000010F8B50446224E357885421AD03C
:105520007D2001014B208200C832012000F080F86C
:10553000E84F384632307C21FBF70AF92D2007214D
:105540003954292000213954FF20023078857960B0
:10555000B96001F029F9201F02280FD3032C1AD0BB
:10556000022C1CD1A5421AD03020DA4901220A545B
:105570002F2000220A540C48C86110E07D20010150
:105580004B208200C8320125284600F051F82A201D
:10559000D0490D5403E0A54201D0FEF7C3F83470A2
:1055A000F8BDC046050000102C01580280B5024627
:1055B00001200021FAF77DFE034A936903439361BA
:1055C000D0690843D06180BD5801001010B5411E5C
:1055D000022905D3011F02291DD2102000241EE03C
:1055E00010200024214600F077F81120214600F019
:1055F00073F8FE4C2068C10306D5302001212154E8
:10560000102000F069F8206880030FD530200221B7
:105610002154012406E0032808D110200224214649
:1056200000F05AF81120214600F056F810BDC0468F
:1056300010B5044B9C79002C00D010BD5A81198103
:10564000987110BD7E00001070B504460021E74D32
:105650008E1D782E0AD0681836306118091D062272
:10566000FAF7ECFF00283146F2D011E03220285C36
:10567000217881420CD13320285C6178814207D1A6
:105680003420285CA178814202D10020C04370BD43
:10569000FEF748F8284632307C222146FAF7FBFF15
:1056A0002E21002068540B4A1070217851706178C7
:1056B0009170A378D370121D231D0029E7D0002418
:1056C00094801C781470921D9B1D491EF5E7C046FE
:1056D00000040010E40500108000024A1018417216
:1056E0007047C04650020010FCB50090861C002395
:1056F00001248B4214D05800009A151801962746B1
:105700008F4208D230882A88824201D9288032808C
:10571000B61C7F1CF4E7019EB61C641C5B1CE8E70A
:10572000FCBD0000F8B52D26B04FBD5D032D21D086
:105730000027FC43022D25D0012D4ED17D200101F3
:10574000820001252846FFF773FF2820A7490F5440
:10575000086881038A0F05D0002900D50225302171
:10576000A24A5554102F32D00146F940C9072BD117
:105770007F1CF7E72148FEF779FE0325002830D08B
:1057800004462BE0022801D0022500E00325974FB4
:10579000FEF7C6FC3021795C0F31C9B28900415C4B
:1057A00001291BD02F21795C8900425C012A15D088
:1057B00003250022402A11D0914203D0835C012BA3
:1057C00000D00225121DF5E72F2088490F5400252F
:1057D0002846FEF7D9FB05600225844FBD552046BB
:1057E000F8BDFEF703FE04460028F7D101203885F6
:1057F00000243C610425F1E700040010102700009C
:10580000F0B585B00546FEF7C7FB02902E20774F16
:105810003C5C28200190385C002805D07D200101E7
:1058200082000120FFF704FF2A260394601C06244F
:10583000214641433A463232531851788842049502
:1058400005D21879002802D1B85D00280BD01D467A
:10585000FEF74EFE2B46049D022D04D0002802D0F8
:105860000020C54333E000930025BD5501983D5409
:105870002B22B95C01204140B954029BDD801D8080
:105880003D60039B5C433B1936241B5D002B02D01B
:10589000049B022B0FD12D2109237B540021B954E5
:1058A0000099091D2C22B854087800280FD17D20BA
:1058B000C000B8840BE0002901D0082200E00922D2
:1058C0002D23FA540029EBD00220FFF77FFD284654
:1058D00005B0F0BD0004001003484188002901D044
:1058E000491E41807047C04614010010F8B5254894
:1058F0000068002805D024480178491E0170090677
:1059000000D0F8BD642101702048FCF7A5FE204AB4
:105910001078032801D3002010701EA10C5CE00059
:10592000161800F019FF4020FAF792FCB0603746D5
:1059300008370025402D07D02046FCF7C1FE014660
:1059400038684153AD1CF5E72021FFF7CDFE3C68D8
:105950002046FFF7E1F9FBF75FFE01460C4D686852
:1059600001F004F8FBF706FEB0812046FAF7C8FC08
:10597000B089800A02D00C36074830802878401C55
:105980002870F8BD4002001006000010C027090072
:105990001C03001001020700FF030000B0B5FEF772
:1059A0004BFB04462920114D285C002802D02046DC
:1059B000FFF7B8FE2A20285C002802D02046FFF717
:1059C0001FFF2C20285C002801D0FFF7B1F92046EA
:1059D000FFF7A0FD2046FFF7F9FD2046FFF74EFD3B
:1059E000FDF70AFFFDF7F0FEB0BDC0460004001051
:1059F000B0B5144881684A1C82608169491C816184
:105A0000038A002B01D05B1E0382038C002B01D084
:105A10005B1E0384C3680C4C1D190C4BAA4202D9AF
:105A20000122C274C360C2691219914203D92321B1
:105A300001224254C3610168002901D0491E01605E
:105A4000B0BDC046A801001030750000E02E000077
:105A5000F0B5A9B066A020A91CC81CC1FEF7ECFADD
:105A60000646FEF78FFA0446FEF796FA0546634FA0
:105A70007889401E7881000400D08EE21C961F9425
:105A800000242046FFF724FBFDF7E4FD06465C48B2
:105A9000006805211A917981012180051D9101D4A9
:105AA000C80746401E95FEF717FB002801D0554851
:105AB0003881554D3046294600F0D0FE002800D1EF
:105AC0003546524E2846314600F0D3FE002800D11C
:105AD0002E463879002811D01B963F89781E1997D9
