:020000040000FA
:1000000008120010F5010000FD010000FF010000D2
:1000100000000000000000000000000000000000E0
:1000200000000000000000000000000001020000CD
:100030000000000000000000030200007931000011
:10004000070200000702000007020000070200008C
:10005000070200000702000007020000070200007C
:10006000070200000702000007020000070200006C
:10007000070200000702000007020000CD27000071
:100080002D32000059320000070200000702000074
:10009000070200008932000007020000070200008A
:1000A000012600000702000007020000070200000E
:1000B00007020000D529000019290000D1280000FE
:1000C00000F002F800F06BF812A030C808382418CD
:1000D0002D18AC4201D100F062F80FCCA246AB461D
:1000E0000CA730CF2D1B083F3F197C427F1E544484
:1000F0002D090426F441641EAC4201D300F04FF8F0
:100100000126334200D0FB1A3343984754465D46DC
:10011000DFE700002C6D00004C6D00007047000010
:100120000023002400250026103A01D378C1FBD813
:10013000520700D330C100D50B60704710B5662957
:1001400002D106F0FDFC10BD642902D100F062F975
:1001500010BD752902D100F05DF910BD782902D1DA
:1001600000F08EF910BD632902D101F02BFD10BD06
:10017000732902D101F02EFD10BD002010BD1FB566
:100180000098019901F061FA01F040FD040000209F
:10019000002106F067FCE0601FBD10B510BD02F045
:1001A00007F91146FFF7EBFF04F0ACFF02F01FF96F
:1001B00003B4FFF7F2FF03BC03F0A6F870B50546E1
:1001C0000C46164602E00FCC0FC5103E102EFAD298
:1001D000082E02D303CC03C5083E042E07D301CC5E
:1001E00001C5361F03E021782970641C6D1C761E42
:1001F000F9D270BD0748804707480047FEE7FEE791
:10020000FEE7FEE7FEE7FEE704480549054A064B20
:1002100070470000CD310000C1000000080600104A
:1002200008120010080C0010080C001070B506F041
:10023000E1FB00230A46DB4300211B1A914101D256
:10024000002070BD044600F007F8050002D02146EA
:1002500000F075FA284670BD70B5064601F0D8F971
:10026000056830460B30C408E400B44201D80020D1
:1002700070BD68682A46002818D00168A14211D3D1
:100280000B46214608318B4208D3436801194B6065
:1002900003681B1B0B605160046001E04168516002
:1002A000001D70BD024640680028E6D12146284660
:1002B00001F0B6F90028DCD170BD10B5202A04DBAE
:1002C0000146203A9140002010BD914020239C1A05
:1002D0000346E3401943904010BD10B5202A04DBCB
:1002E0000846203AD040002110BD0B462024D340C0
:1002F000D040A21A91400843194610BDFFFFFFFFEE
:1003000070B50446051F01F083F90068002C1AD06F
:10031000446801E020466468002C01D0AC42F9D367
:1003200001680A18AA4204D12A68054689180160A2
:1003300000E0456028684119A14205D16168696003
:1003400021684018286070BD6C6070BD0FB41CB58A
:10035000074B06AA7B4469460090059801F00FFC04
:100360000020694601F01EFC1CBC08BC04B0184704
:100370004D18000070B5044685690068C10601D5B6
:10038000302600E02026C00707D070BD62683046E6
:10039000A1689047206A401C20626D1EF6D570BD92
:1003A00070B5044685690078C00707D170BD6268E2
:1003B000A16820209047206A401C20626D1EF6D55F
:1003C00070BD70B50C460546012A05D02878800618
:1003D00000D5EA69002302E0012305E05B1C93429B
:1003E00002D2E05C0028F9D1A869E618C01AA86119
:1003F000286AC01828622846FFF7BCFF04E06A6834
:100400002078A968641C9047B442F8D32846FFF7C7
:10041000C7FF70BDF7B5002575291068009914A6AF
:1004200011D0C046C046002802DA404211A608E0BA
:10043000009909688A0701D50FA602E0490704D58B
:100440000EA6012501E0C046C046009F00242437C7
:1004500004E001F0C3FB30313955641C0028F8D1A9
:100460002B4632462146009801F022F9FEBD0000DD
:10047000000000002D0000002B0000002000000004
:1004800070B504460D4621461068C046C046218816
:10049000090502D50F4A7A4402E00E4A7A440E3228
:1004A00023460021243305E006070009360F965D38
:1004B0005E54491C0028F7D120780023000705D599
:1004C000702D03D0002901D002231132204601F003
:1004D000EFF870BDB6660000F3B50446002081B0A9
:1004E00020622046E168884700287DD0252802D078
:1004F0006268A16883E0454F00257F442046E1689B
:1005000088472028064608DB312E06D2B819203845
:100510000078002801D00543F0E7A80701D50420A2
:1005200085430020E0610746A0612A2E0AD03046AC
:1005300006F090FA002827D0B8000019303E00904D
:10054000866119E00298BA00121902C891610290FE
:100550002046E1688847012F064617D1E069002848
:100560001FDA202085431CE000980A218069484357
:1005700000998019303888612046E168884706462E
:1005800006F068FA0028EFD1012F0AD02E2E08D1EC
:100590002046E16888470646202005437F1C022F3D
:1005A000C3DBA069002803DA4042A06101200543B3
:1005B000E80701D010208543002E24D03046413872
:1005C000192803D80120C0020543203620462560A3
:1005D0003146029A1546FFF7B1FD00280CD00128DC
:1005E00007D0ED1DE80800E00DE0C00008300290E3
:1005F00077E72D1D029574E762683046A168904741
:10060000206A401C6CE7206AFEBD00007A6600008C
:1006100010B503F017FC10BD034610B50B439B0744
:100620000FD1042A0DD308C810C9121FA342F8D055
:1006300018BA21BA884201D9012010BD0020C04358
:1006400010BD002A03D0D30703D0521C07E00020BE
:1006500010BD03780C78401C491C1B1B07D1037884
:100660000C78401C491C1B1B01D1921EF1D118466D
:1006700010BDF8B5042A2CD3830712D00B78491C7F
:100680000370401C521E83070BD00B78491C03706B
:10069000401C521E830704D00B78491C0370401C79
:1006A000521E8B079B0F05D0C91ADF002023DE1BCB
:1006B00008C90AE0FFF782FDF8BD1D4608C9FD40E4
:1006C0001C46B4402C4310C0121F042AF5D2F30874
:1006D000C91A521EF0D40B78491C0370401C521EDC
:1006E000EAD40B78491C0370401C012AE4D4097831
:1006F0000170F8BDD2B210B513029A1813049A18FB
:1007000000F001F810BD01E004C0091F0429FBD26C
:100710008B0701D50280801CC90700D0027070478A
:1007200000290BD0C30702D00270401C491E0229C9
:1007300004D3830702D50280801C891EE3E70022D0
:10074000EEE70022DFE70000002203098B422CD3F2
:10075000030A8B4211D300239C464EE003460B4311
:100760003CD4002243088B4231D303098B421CD373
:10077000030A8B4201D394463FE0C3098B4201D365
:10078000CB01C01A524183098B4201D38B01C01A9D
:10079000524143098B4201D34B01C01A5241030914
:1007A0008B4201D30B01C01A5241C3088B4201D3C3
:1007B000CB00C01A524183088B4201D38B00C01A70
:1007C000524143088B4201D34B00C01A5241411A97
:1007D00000D201465241104670475DE0CA0F00D07A
:1007E0004942031000D3404253409C460022030973
:1007F0008B422DD3030A8B4212D38901FC2212BAF9
:10080000030A8B420CD3890192118B4208D38901D0
:1008100092118B4204D389013AD0921100E08909E8
:10082000C3098B4201D3CB01C01A524183098B42C9
:1008300001D38B01C01A524143098B4201D34B01B2
:10084000C01A524103098B4201D30B01C01A524115
:10085000C3088B4201D3CB00C01A524183088B429C
:1008600001D38B00C01A5241D9D243088B4201D325
:100870004B00C01A5241411A00D201465241104663
:1008800063465B1001D34042002B00D549427047BC
:1008900063465B1000D3404201B50549002802DCE5
:1008A000491C084000E00846C046C04602BD00BFE3
:1008B000FFFFFF7F7047704770470000F0B50C46A0
:1008C000871A9C410D46861A9D4103D2C01BA14147
:1008D000D21963410D0D1F0DC94EEC1BAE435CD008
:1008E0007F057F0D0026002F51D02D05AC46A94372
:1008F000DD020123ED0A1B051D4320231B1B24D40D
:100900001746E740381871412F46E740CC199D4003
:100910002818314661410C0D27D161449A4013D506
:100920000023401C594152000ED1400840000122D2
:100930004B005205D34207D305204007C14201D5E1
:10094000B04900E0B0493046F0BD6B00002A00D04D
:1009500001229A181F23203C1B1B01D5002302E013
:10096000E540281871410C0DD7D001242405091940
:10097000C407CD0740084908E40F28436144002C10
:10098000D5D00024401C61419A40D0D1CDE76A0502
:10099000520DD9D1C90FC907D5E79C4D4E0000288B
:1009A00001D0012400E0002434195F00002A01D0A6
:1009B000012600E00026BE19954FAC420CD8AE428D
:1009C0000AD8B44206D001256D05EC42BCD01046D1
:1009D0001946F0BD9942FCD000203946F0BDF0B573
:1009E0001FB40C460F46811A9F412546861A9D4129
:1009F00006D20125ED076F40401ABC4152187B41D9
:100A0000210D1E0D8D1BAC467D4D8D437ED0750591
:100A10006D0D7CD00D05AE46AC431B031B0B794D11
:100A200052429D41202366469B1B14D31746F74034
:100A3000381800260090744160462F460741E4199B
:100A400000989D402818664116D4714671189A4046
:100A500025D5012320E093182A466A415200002B35
:100A600000D0521C1E23203E9B1B002B61DD354114
:100A7000EE1728186641E8D5001876415B1C9A40AD
:100A800000D3401C4B05F3181524E34010D3002B72
:100A900052D071467118D30FC01802D3491C05B04B
:100AA000F0BD0123DB079A42F9D140084000F6E788
:100AB00001225205B21801D1002853D00123CC0ADB
:100AC000DB029943891E002A08D1020C03D0020CD4
:100AD0000004103902E00246002020390023550BA3
:100AE00005D112020823550B01D152010D23550CDB
:100AF00001D112011B1DD50C01D192009B1C150DBB
:100B000001D152005B1C2025EE1A01E02CE022E00E
:100B10000546F54015439840CA1AE10769181305C0
:100B2000C918002ABBDA032040070818C10FC907FB
:100B30000FE071466118B2E7F107400808437110F1
:100B400071444A000CD001235B059A42A7D2C90F19
:100B5000C9070020A3E74905490D26D1002001E07F
:100B60000028F4D100219AE7284D6600002801D022
:100B7000012100E0002171185F00002A01D0012648
:100B800000E00026BE19224FA94210D8AE420ED86E
:100B9000B14208D001256D05E94206D01946A802E8
:100BA000414010467BE79C4201D0214677E7002078
:100BB000394674E710B50C465C4005D50124E407BE
:100BC0006340FFF70CFF10BDFFF778FE10BD30B497
:100BD0000C465C4004D50124E407634030BC6DE65C
:100BE00030BCFCE670B50124E40761400D465D4071
:100BF00002D4FFF763FE70BD6340FFF7F0FE70BDE7
:100C0000FF0700000000F0FF0000F07F0000E0FFA1
:100C10000000F87FF0B5F94D0C091E092C402E405C
:100C20002F468BB0A7437DD0B543FCD0002E7AD0A1
:100C3000002CFCD00D465D40ED0F2543AC1BFF257D
:100C4000AD0464190894C502440DC9022143500D36
:100C5000DC0204430120C00701430443D202019196
:100C6000200C110C00958C46010423468B430A91FD
:100C700061460904E24D8A430991010A7D444919FC
:100C80008039097805464D4301266D18F605751B18
:100C90006943C90C640B891C4C436418B5012C1BB7
:100CA000250C2E04B4434C434D43210C691889098B
:100CB0000591009DE90701D00121C90704912C4647
:100CC00001996708CD072F434C08059DE10B4D4363
:100CD0002D0C29466646754302950D4645432E4622
:100CE000029D7D1BB44100950D465D4301942C0C83
:100CF0002F040D465543AE462D0C3D4302950394FB
:100D00007546049C2D04641B049406D2029C039D2A
:100D1000641C002675410395029401AC70CC009FC1
:100D20007D1B01E03EE162E1B441090400950791B9
:100D300001940599A4086143090C0C464443650BD2
:100D4000E7040C4666467443A646640B3C43039591
:100D500002947446049DE4042C1B049406D2029C65
:100D6000039D641C002675410395029401AC70CC70
:100D7000009F7D1BB44101940C465C430095650FB8
:100D8000E7000C465443A646640F3C430395029487
:100D90007446049DE4002C1B049406D2029C039D1F
:100DA000641C002675410395029401AC70CC009F31
:100DB0007D1BB441AE09AF06049DC900AD092F43A8
:100DC000049DA406AD060495079D34436918079158
:100DD000059DE10B4D432D0C294666467543029552
:100DE0000D4645432E46029D7D1BB44100950D46A0
:100DF0005D4301942C0C2F040D465543AE462D0C3B
:100E00003D43029503947546049C2D04641B049491
:100E100006D2029C039D641C002675410395029432
:100E200001AC70CC009F7D1BB44101948C050694ED
:100E3000079C890A611800950791019C0599A408EF
:100E40006143090C0D464543680BEF040D466446AB
:100E500065436C0B3C43049FED047D1BAC4602D202
:100E60000025641C6841009E019D371B8541084692
:100E7000584301950C46460FC5005443600F284364
:100E80006546E4002C1B02D20025401C6E41019DEA
:100E90003F1AB5412846BD09800628438446A0096B
:100EA000BF064E020699A40676180743079D002048
:100EB00068410A99079019430020099B00906046F9
:100EC000FF1913434041E20F64003A43A44604462D
:100ED000D71A8C41A04203D90120009020463A46FF
:100EE000C70F941840416246D20F22436446640003
:100EF0000494009CBE466400D71AA4460446029798
:100F00008C417746002F01D1A04204D96046401C95
:100F10008446029A2046C40FA64694184041049A7B
:100F20000546D20F224364466400D31A8D417146B0
:100F3000002901D1A84202D928461A46641C104350
:100F40000122002800D0164361020020079B891966
:100F500004465C410223002C02DB4918134664411D
:100F6000089DCE0A2D145D194B056705E10A2C0575
:100F70000D1908993E43C9076940002B08D09340DA
:100F800006D30022761C5141002B01D17608760051
:100F90001C4A002D43DB154241D0AA433FD03046C6
:100FA0000BB0F0BD06180D464D41174C7642AC41D2
:100FB0001AD395181C465C41134A6D42A24113D3C3
:100FC000012252054C00D4420AD15C00D4420BD01D
:100FD0004B4002D592021143E2E749004908DFE79E
:100FE0005940C90FC90718E000200849D8E705484B
:100FF00001420DD10342F7D0F2E700000000FF07E5
:10100000095F00000000F07F0000E0FF0000F87FB3
:10101000114859400143C01241400020C0E701235C
:10102000089A9B069A4205DC032252078918C90FC9
:10103000C907B5E7052252078918074A1143D2129A
:101040005140ADE770B515461C4602460B46284692
:101050002146FFF7DFFD70BDFFFFFF7F30B5034680
:10106000CA02400D1043164D164C0A1502D02043FB
:10107000002A06DBAA1A002A12DDD040FF2A0BDC68
:1010800030BD5205520D01D140004008AA1A07D4C4
:10109000D0404042FF2A01DD002030BD0028FCDDA9
:1010A0004A00002B01D0012000E00020101801228E
:1010B0005205D042F0D8C817C043604030BD000090
:1010C0001E040000000000800346CA02400D10B557
:1010D00010430A1504D00124E4072043002A05DB4D
:1010E0000A4CA21A04D4D040FF2A00DD002010BD13
:1010F0004A00002B01D0012000E00020101801223E
:101100005205D042F2D8C817C04310BD1E040000DB
:101110001F22030C02D10F22000402D0030E03D0C1
:1011200004E00020014670470002083A030F01D195
:101130000001121F830F01D18000921E002801DBE5
:101140004000521E120551184205C01241181046A7
:101150007047C10FC90700D04042012292071143D6
:10116000D6E701218907D3E7F0B58B4C0F09254657
:1011700089B0BD437BD01D092646AE43FAD00E464A
:101180005E402740F60F3E43254071D024012142A6
:10119000FBD0FF24AD19A4042D1B039501252D05BB
:1011A000DB02DB0AC9022B43C90A29431E010901DC
:1011B000040F130F050121431701880B820391438C
:1011C0002D098C46A90B1E438A039543B30B9A0342
:1011D00096433F09BA0B9403A74302962E467E43DB
:1011E0000497B6464E19D7190C46019654430597F5
:1011F0007E43371B7646BF1B3601B646BE0B3619FB
:1012000000967646BC043719009C01D3641C0094F8
:101210006400002F01D001263443029E049F7543D1
:1012200066467E430496760034196E0034190094A5
:10123000029C019E1C196643751BAE4606946546CA
:101240004519059C05956C43594375460891691AE3
:101250000191049E01465143A41B0491611A009C14
:101260000791E10605D061090122114302E072E015
:101270006EE06109089D00272C0A2D066918049D5F
:101280007C412A0A2D066918019D6241AC0DAD0210
:101290006D185441079A910D920255196141029AB5
:1012A000644658435443069B059A5A43121A131B2B
:1012B0009A0E9B015B187A41010B0005C31851413E
:1012C000220A200644195A419A4200D2491C0120A0
:1012D0004002814203D315230226F64302E0142381
:1012E0000326F6432020C51AA9401746AF40DA402E
:1012F0000A4320460399D840091473181905511858
:10130000039A3843D2075140AC4009D0012294409F
:1013100006D30022401C5141002C01D1400840005E
:101320001E4A934212D3012203989206904207DB91
:101330000520400709181A480143C012414004E043
:10134000032040070818C10FC907002009B0F0BDED
:101350000020F107FAE705180C464C4111486D4290
:10136000A04115D394181A465A410E486442904140
:101370000ED301204A004005824209D35A0082421E
:1013800006D35940C90F084AC90700201143DDE7B9
:1013900000200649DAE700000000FF07FE07000012
:1013A000FFFFFF7F0000E0FF0000F07F0000F87FFC
:1013B0000121C9050123411842001B06D3185B0E09
:1013C0000AD0C1100722D206891840075242D142E2
:1013D00001D5520089187047090208D50146002A34
:1013E00003D0C10FC9070020704710467047420262
:1013F00002D0002002497047072109050143F4E7A4
:101400000000F87FF0B5FF252D04C609C209FF27AB
:1014100004462E400137CB093E4348402A402B402A
:101420000746002A6BD0002B69D0AA4267D0AB4296
:1014300065D0002800DA32460125ED0529432C430A
:1014400009022002090AD21A4B0C7F24E31A434CEA
:10145000000A7C44E35C7D242404121914145B000C
:10146000A218884201D3521C00E0400049420C46B9
:101470005C4324115C43DB016415E318040A5C43FC
:10148000C502200D0C4644436419250A5D4323031D
:10149000EC0C0D46654300030019EB184C42A342C7
:1014A00001D35B18401CD4052018002B07D05B002B
:1014B000C91804D3401C002901D1400840003F2135
:1014C00089048A4209D3002A08DC1106090F04D0D6
:1014D000032149074018C00FC007F0BD0122410099
:1014E000120689187F2252069142F6D20521490739
:1014F000C84201D59010F0BDFF20C005F0BD002FFF
:1015000000DA32461648AA4207D2AB4205D2190287
:10151000090E17D0F80FC007F0BDFF2563002D0698
:10152000AB42F9D84900A942F6D8AB4201D1A94251
:10153000F2D0A94201D1002101E061004908D005A3
:101540000843F0BD1102090EFBD0FF200243D00575
:10155000F0BD0A460146104654E70000B3570000AC
:101560000000C07F10B501469E240002CA15A307E3
:10157000002A02D01843002A04DBA21A002A0CDD3C
:10158000D04010BD1206120E01D140004008A21A30
:1015900003D4D04040420028F3DDFF224800120669
:1015A000904201D9002010BDC817C043584010BD5B
:1015B0001F22030C02D10F2200041CD0030E01D104
:1015C0000002083A030F01D10001121F830F01D15D
:1015D0008000921E002801DB4000521ED2055118E7
:1015E000021251181922904004D3491C002801D13D
:1015F0004908490008467047C10FC90700D040425A
:10160000012292071143D3E701218907D0E70000A7
:10161000004870475001001070477047704770478E
:1016200038B504460A4600206946C046C046002830
:1016300005D002462046009900F0ECFA012038BDA2
:1016400010B5012000F0AEFE10BDF8B5C046C04692
:10165000054600200C460C20C0460646A819A042AC
:101660000DD9324669460020C046C046070001D168
:1016700000F098FE0098A04200D00546C419FFF77C
:10168000C7FFF61D07460560F008C000461928464A
:1016900000F008F8B44204D031463868A21B00F0CC
:1016A000B9FAF8BD00210160416070470C20704715
:1016B000FFB504460D4681B02430009021688806AD
:1016C00004D51022E0699143216000E00120A84286
:1016D00001DD471B00E000270498A1697A19101862
:1016E000081AA0612078C00602D42046FEF742FE08
:1016F000002608E003986268A168805D9047206A30
:10170000401C761C206204988642F3DB2078C006D9
:101710000AD52046FEF72EFE06E06268A16830205A
:101720009047206A401C206238467F1E0028F4DC67
:1017300007E000986268A168405D9047206A401CFD
:10174000206228466D1E0028F3DC2046FEF728FEA6
:101750002078000602D5022005B0F0BD0120FBE78D
:10176000FFB50C461E468FB003CA089009914F0082
:101770007D0D00D16D1E002108460020C0460321CA
:10178000099A89050840002A03DA82008018400877
:101790000840800D01280A9002DD0020C0430A9015
:1017A000089807430DD0F048F0492818484307141B
:1017B000189800281DD07542291E1DDD0A98424246
:1017C0001BE01898012802D00020302104E00020FE
:1017D000F24305E02154401CB042FBDB30460022BE
:1017E000189B002121540F998B600A60486013B048
:1017F000F0BDBD1B6D1CDFE70A9A002900DA6942C3
:101800000BA800F0A3FA0BAB07CB03AB07C30899F7
:10181000099800F007FB6B4607C30146D448091836
:10182000002D00910BDDD24903980A9A49424018D5
:10183000002303A90390684600F064FD08E00399C3
:101840000A9A0023081803A90390684600F004FDD3
:101850006B4607C30004000C03D00020C0434108BE
:1018600000E01046189A002A03D000220092154684
:101870001EE0751E05D400F0E7F9303262556D1E8A
:10188000F9D501220843079602D000227F1C04E00C
:101890002078302801D100227F1E002A069787D0A9
:1018A0001EE0112D07DA00F0CFF9303262556D1CC1
:1018B00002460A43F5D1084303D00098002819D006
:1018C0000EE00021681E05E0235C625C6354225434
:1018D000401E491C8142F7DBA81B401E079506905D
:1018E000079A18990020A0540F98079B069A8160C8
:1018F0000CC07CE711260020189059E7D21DF0B5E6
:101900000D460446D10893B0C90003C90C900D914F
:1019100005F08AF802460D98C00F01D02D2007E08F
:101920002068810701D52B2002E04007C00F40014D
:10193000032A0F9001D0072A05DB034629462046DB
:1019400000F0C0F90EE12078800601D5E76900E0DB
:1019500006272846652D04D0662814D0672D69D146
:101960002DE00020112F009001DB112300E07B1CF3
:101970000CAA03A910A8FFF7F3FE119900261098EE
:101980007D1C0E9142E001203B460CAAC0070B9043
:101990000120009003A910A8FFF7E2FE119D129804
:1019A0001099002600280E9501D1781C0D18781B7F
:1019B00002D446427D1C761EE81B00903AE0012FBF
:1019C00000DA01270020112F009001DD112300E033
:1019D0003B460CAA03A910A8FFF7C2FE11993D4689
:1019E000109800260E91217809070BD40E99A94270
:1019F00000DA0D4603A9012D04DD4A19203AD27FF1
:101A0000302A06D0B84201DA011D04DA0121009122
:101A10000FE06D1EEFE7002802DC86192D1A03E0A7
:101A2000411CA94200DD0D46801B401C0090012096
:101A3000C0070B902078000705D40098A84202DB6D
:101A40000020C043009069460020C8720B98012115
:101A500002AF0337C907884225D0022010902B20FF
:101A600011900B9800280BDA40420B902D2011901A
:101A700006E00B9800F0B2F830317F1E0B90397001
:101A80001099481E00291090F3DC0B980028F0D123
:101A900011987F1E38702088000501D5452000E090
:101AA00065207F1E387001A8C01BC01D0B900F98C9
:101AB000002800D0012041190098C01709180B9880
:101AC0000818A169081A401EA0612078C00602D437
:101AD0002046FEF74FFC0F98002805D06268A168E9
:101AE0009047206A401C20622078C00625D52046F9
:101AF000FEF740FC21E0002E07DB0E98B04204DD2B
:101B000003A86268805DA16802E06268A168302075
:101B10009047206A761C401C20620098401E0028D6
:101B200000900AD100F072F8C06862680168405CF9
:101B3000A1689047206A401C206228466D1E00283C
:101B4000D9DC07E062683878A1687F1C9047206A7A
:101B5000401C20620B99481E00290B90F2DC2046A5
:101B6000FEF71EFC032042E601FCFFFF104D0000C3
:101B7000E1DFFFFF01694A1C02610878704700B588
:101B80008FB0029100210591054901937944039199
:101B9000114604906846FEF79FFC0FB000BD0000A0
:101BA000E5FFFFFF0A681070521C0A60704710B50D
:101BB0004369002B02D0C046C04601E0FEF701FC9D
:101BC000012010BD1278014624310A7000224A70AB
:101BD0000122ECE711680022D243E8E701468008C1
:101BE000081A02091018020A1018020C1018C0086E
:101BF000820012185200891A01E0401C0A390A2991
:101C0000FBD27047004870474801001000487047F9
:101C10006801001010B50346406801E003464068C3
:101C2000002801D08842F9D31868C3188B4206D027
:101C3000CB1CD808C000001D411A521A0146081DCD
:101C40000A60FEF75DFB10BD0B4670B502468907C2
:101C50008008084319469D08141AA9412509080758
:101C6000054308092C194841250A01060D43010ABC
:101C70002C194141200C0D0428430D0C00194D4135
:101C8000002140194D41C00869070843E908840F45
:101C90008D002543840024184D4124196D41121BE9
:101CA000AB4107E00925ED432C1152196341002493
:101CB000401C61411C460A250026551BB441F1D247
:101CC00070BD0000F8B51F46044601230068DB0222
:101CD000032601461840072A05DB002801D017A576
:101CE00006E017A504E0002801D016A500E016A51F
:101CF000102081432160A069C01E002FA06101D087
:101D0000401EA0612046FEF735FB002F09D0384663
:101D10006268A1689047206A401C2062C01C206253
:101D200006E0206AFAE762682878A1686D1C90478F
:101D3000761EF8D22046FEF733FBF8BD4E414E002A
:101D40006E616E00494E4600696E6600F7B5164634
:101D50008AB0334878446C4603467C33C06F5A6877
:101D60009B680DC42E487844763003AC0DC80DC472
:101D70003720C001081837211B30FEF7EFFC05465D
:101D80000C46803D1B3C02D56442012000E000204F
:101D90000027099010E0E0070CD00C202049784380
:101DA000794432464C3941186846012300F054FA10
:101DB0006B4607C364107F1C002CECD1184F7F4486
:101DC0002E3F16E0E80712D02001C0190EC8069178
:101DD000089307920068F04201D1981908903246A2
:101DE000012306A903A800F037FA03AB07C36D105F
:101DF000641C002DE6D10998002806D032466946B9
:101E0000012303A800F07EFA05E00123324669466B
:101E100003A800F021FA0A9B07C30DB0F0BD000033
:101E2000F44E0000034640000A4610B5400D0BD0AA
:101E30000121C9070F24A40200191C0364082143CF
:101E4000540D2143D20207E000210120F2E7D40F14
:101E5000490021435200401E0029F8DADB0FDB075E
:101E6000184310BDFFB50D46144685B0486851684B
:101E700004F0C0FD00910190A868A16804F0BAFDCB
:101E800002910390A868616804F0B4FD029A1218E8
:101E90008242029201D2012000E00020019A0B1838
:101EA000D2180028019202D08A4202D903E08A4265
:101EB00001D2012000E00020009908180090686815
:101EC000A16804F097FD029A12188242029201D290
:101ED000012000E00020019A0B18D218002801927E
:101EE00002D08A4202D903E08A4201D2012000E0F6
:101EF00000200099081800902868216840004900D7
:101F0000400849084018FA49471814E00199400070
:101F1000C90F08430090019802994000C90F084377
:101F20000190029803994000C90F0843029003985A
:101F300040007F1E039000980028E7DA08980028E8
:101F400001D0EC4E00E00026B74201DA012000E0AB
:101F50000020002804902AD0F71BF806C00E15D0E8
:101F6000029B2021091A039A8B401A430392029A7A
:101F7000019BC2408B401A430292019A009BC240CF
:101F80008B4000991A430192C14000917B110DD002
:101F90006F460320C11A03D500218200B95003E027
:101FA0008A008100BA587A50401EF3D5374603980C
:101FB0000299002800D001200143089802910028CE
:101FC00008460CD0002800D001200199019A49054B
:101FD00008430121D20AC902D202019200E0012184
:101FE0000E9B0122D207012B02D0002B03D013E05D
:101FF000002807D120E0904204D890420CD1019BE8
:102000000B4209D0019B5918019105D10099491C37
:10201000009101D17F1C009200280DD010210846AC
:102020000020C0460498002806D00F98002803D04E
:10203000082108460020C04628682168019B009AB4
:102040004840C10F0598C90739430EC009B0F0BD1B
:10205000FFB587B0099A0898089953689268406854
:10206000896896460022039317469446089A126898
:102070005300099A5B081268520052089A1A9E4B44
:10208000D4180A9A002A01D0352200E04022069294
:102090000022012315460492DB07059324E0002D5E
:1020A00005D175460346039E4D1BB34109D37546C2
:1020B0006646039B491B049D9841059B7519AC46D8
:1020C0005F4163463B4308D0059B049EDD077608CD
:1020D0002E435B080496059301E0521E641EC50F53
:1020E000ED0749184041521C069B9A42D7DB002D50
:1020F00004D17546039A6B1A824101D203200CE089
:10210000039A0B466B404240134303D0014303D074
:10211000012002E0022000E0002061460191002140
:10212000009702910A99002905D0614640020143B7
:10213000704B019102E08007002302909C4201DA7B
:10214000012000E0002007003AD01A1BD006C00E84
:1021500015D0029D2021019C091AC5408C402543C1
:10216000029C8C4000D001242543019C0295009DD7
:10217000C4408D4000992C430194C14000915411FA
:102180001DD06D460221002202290CD10320001B24
:1021900007E0002804DB8600AE59002E00D00122A3
:1021A000401C0328F5DB081B02D588002A5004E0F8
:1021B0008000285810438A00A850491EE3D51C46C9
:1021C0000A98002802980CD0002800D0012001991C
:1021D000019A490508430121D20AC902D20201929B
:1021E00000E00121109B0122D207012B02D0002B1D
:1021F00003D013E0002807D11FE0904204D890429A
:102200000CD1019B0B4209D0019B5918019105D1BA
:102210000099491C009101D1641C009200280CD047
:10222000102108460020C046002F06D01198002833
:1022300003D0082108460020C04608980999019A51
:10224000009B006809684840C10F0798C9072143EF
:1022500082600AC00BB0F0BD00B585B0019300925A
:102260000A460146002302A8FFF7FCFD02A807C8A2
:1022700005B000BDFFB50A461F4685B0079901931A
:1022800001230091014602A8FFF7ECFD0299039893
:10229000049ECA0F4900D20700920F2249089202F9
:1022A0008C1A0021002800DB0C46450013486D08FD
:1022B000844214D3079A002A04DA441E0026104DE3
:1022C000F64302E004460D460E4610210846002063
:1022D000C046002F03D0042108460020C046200538
:1022E000E90A0843009908436905F20A1143ADE67B
:1022F00002C0FFFF013C0000FF3F0000FF0700009D
:10230000FFFFFF7F00B585B0019300920A460146AA
:10231000002302A8FFF79CFE02A807C8A8E7FFB5A4
:102320000A461F4685B00799019301230091014693
:1023300002A8FFF78DFE02990398049ECA0F490078
:10234000D20700920F22490892028C1A002100281D
:1023500000DB0C46450011486D08844214D3079AEF
:10236000002A04DA441E00260D4DF64302E004461E
:102370000D460E46102108460020C046002F03D00F
:10238000042108460020C0462005E90A08430099B8
:1023900008436905F20A114358E60000FF070000F0
:1023A000FFFFFF7F10B500F031F800F028F810BDF6
:1023B0007546FFF727FCAE46050069465346C00840
:1023C000C000854618B020B5FDF71EFF60BCB646BC
:1023D00000260027C0C5C0C5C0C5C0C5C0C5C0C592
:1023E000C0C5C0C5403D490849008D46704710B57D
:1023F0000446C046C0462046FDF7DAFE10BD10B5C3
:10240000002801D000F080FF10BD000010B50128A9
:1024100005D0002103A000F065F8012010BD09A13E
:10242000F8E7000053494752544D454D3A204F7547
:1024300074206F662068656170206D656D6F7279BC
:10244000000000003A2048656170206D656D6F7274
:102450007920636F7272757074656400024670B59E
:102460000A4392072AD11E4DEE0104C808C9541B25
:102470009443344017D0D0B2D9B2401A2106014358
:1024800010D190B299B2401A210401430AD110022E
:102490001902000A090A401A2102014302D1100E52
:1024A000190E401A70BD9A42DFD010BA19BA88428C
:1024B00001D9012070BD0020C04370BD02780B78A7
:1024C000401C491C002A09D09A4207D102780B7897
:1024D000401C491C002A01D09A42EFD0D01A70BD8E
:1024E0000101010170B505460C460A2000E06D1C93
:1024F00000F00BFF002D06D028780028F7D102E06D
:10250000641C00F002FF002C02D020780028F7D1D4
:102510000A2000F0FAFE70BD30B58C180278401C1D
:1025200013071B0F01D10378401C120906D1027852
:10253000401C03E00578401C0D70491C5B1EF9D15E
:1025400001E00B70491C521EFBD1A142E6D30020D2
:1025500030BD0000B0B514480168102291430160FD
:102560000120420311498B6813438B600022414BC9
:10257000202A04D09C180025A560121DF8E70C4AFB
:10258000022313605360936050620A480068096830
:10259000FEF7DAF80849FEF7D7F80002FF21C94331
:1025A000401833490860B0BD388204407880044048
:1025B0007440044004000010007C920010B52C49C7
:1025C0000A68FF239A430A60072800D900200122E5
:1025D000130682400C6814431C430C6082000B46B7
:1025E0001033D0580028FCD5072212060B689343FD
:1025F0000B60410001D5002010BD0004800D10BD0E
:10260000B0B51B48016B0A04120E12D0194A536868
:102610005B1C5360024610320023082B1ED0090AAF
:10262000D940C90701D0116800E00021121D5B1CD0
:10263000F3E7CA031AD50F4A0832034610330024C1
:10264000082C0BD00D46E540ED0703D01D682D0486
:10265000AD0D1560121D1B1D641CF1E70721090655
:1026600002688A430260034801210160B0BDC04690
:1026700000C0014018030010F8B5934E322171617B
:10268000010C01D1070B01E0C70B0E37B761F761F1
:1026900034461434354628350D4A2046294690479D
:1026A000B06A002801D00120F8BD094934207061CA
:1026B000B761F7613078002800D006480A463062DA
:1026C000204629469047B06A411E8841F8BDC04661
:1026D000F11FFF1FE02E000010B50021074AA829B6
:1026E00008D05358984203D353189C68A04202D391
:1026F0000831F4E7FEE7187910BDC046E86C000029
:10270000F8B5674C0020A060606001208507202696
:102710002E6006202061084F2069062809D1206814
:10272000401C2060B84202D204F042F9F4E70B20CA
:102730002061AE612069F8BDFF0F000010B515499A
:102740000A68022313430B60CA6F20231343CB672D
:102750003F21CB43104A11681940116014680121D0
:102760000C43146054681C40546053680B4353601E
:102770008A076C239361D22353611361022801D12C
:10278000A020D060C803054B1860402010600846A8
:1027900010BDC046048004403040044000E100E029
:1027A00070B50124A507102028600820A861064EF6
:1027B0002868C00606D5002E03D004F0F9F8761E6E
:1027C000F6E70024204670BDFE0F000010B5344926
:1027D00000220A60012080074368DBB2083B032423
:1027E000E3410A2B22D8C0467B441B795B009F44FF
:1027F00012140720230E1D0505392E00042146E082
:10280000CA68012A1CD11022026007220FE01022A0
:10281000026009220BE04A6000E08A604A68531CAB
:102820004B608918097E8160282132E00A220A6102
:102830002EE0FFF7B5FF10BD4A68CB689A4222D25E
:102840004A68531C4B608918097E816020E08268C9
:102850008B685C1C8C60CB1828241A550C220A61EA
:10286000102114E082688B685C1C8C60CB182824D3
:102870001A558A6849698A42014601D301461831CE
:1028800004220A6004E04A69002A04D02021016081
:102890000821816110BD102202600C22C7E7C046EA
:1028A000580300109B48012101700848002202676C
:1028B000416742674167426FD207FCD081670221BE
:1028C000017000207047C046900300100080044053
:1028D00010B53D483D49C1800D4C216809070FD511
:1028E000017D00290CD10B490968090708D4C821CA
:1028F000017501F017FD01203221002203F0B8F824
:10290000A06808210143A16000BF00BF10BDC04600
:1029100014800050FC3F0050F8B52B4E2B48F0803F
:102920002B4C2068C0060025634A00282F4610D58E
:10293000B01D807E00282F460BD11068C0062F46A0
:1029400007D42020C8213154174601F03DFC3A46F7
:1029500001272068000728460DD5307F002828462B
:1029600009D110680007284605D4C820307701F047
:102970003DFC514A01203843216849070AD5317E80
:10298000002907D11168490704D40021B173C82177
:1029900031760125284304D001203221002203F0A2
:1029A00067F8A06804210143A16000BF00BFA068D0
:1029B00008210143A16000BF00BFA06810210143AE
:1029C000A16000BF00BFF8BDCA01001060EA0000AE
:1029D00014800150F8B5012630020090740201F015
:1029E00057FA324D2968324FC905324B33D5B98970
:1029F000002930D16421B9811968009A11422AD185
:102A0000B97B002905D1796822465832914222D3F8
:102A1000B960DA490B680022234200D1D6433B68F3
:102A2000F3181E0E00D11A463A60096821420AD0F6
:102A30008168002901D0491E81603221405C002854
:102A400001D101F059FF0022BA737A6001200521FB
:102A500003F00EF8174B286820421AD0B88B0028D4
:102A600017D16420B8831868204212D1B87F00289B
:102A700001D17869B8610022BA777A613869401C5F
:102A8000010E114600D1014639610120052102F0F5
:102A9000EFFFA86800990843A86000BF00BFA868BE
:102AA0002043A86000BF00BFF8BDC046148002509C
:102AB00058050010FC3F0250FC3F0150F8B5009152
:102AC0000546144C32206061280C01D1280B01E02E
:102AD000E80B0E30A061E061264614362746283701
:102AE0000D4A30463946904701204002332161614A
:102AF000A5610099E16120622078002800D0074894
:102B0000606230463946044A9047A06A411E8841B7
:102B1000F8BDC04690030010F11FFF1FE02E00001B
:102B2000B0B50022144B8A420ED000241C605C68B1
:102B300014252540042DFAD15C686407FCD51C6877
:102B40000470521C401CEEE7B0BDC046B0B5002278
:102B5000094B8A420FD05C6812252540022DFAD11C
:102B600004781C605C6814252540042DFAD11C688B
:102B7000521C401CEDE7B0BD080004400120704726
:102B80000349884201D3002000E00120C0017047C2
:102B900040DD4A1FF54800787047C0460020704766
:102BA000FEB53249086000F0CDF80924304E2046C9
:102BB000B04702900620B04701900720B047009030
:102BC0000820B04707460021204600F08EFA3B253A
:102BD0002846B047014640242143284600F085FAA4
:102BE0003B2000F06DF88006FAD4224800F0FCF893
:102BF0003B25284600F064F804432846214600F0AF
:102C000074FA3B2000F05CF88006FAD4092002999F
:102C100000F06BFA01980004009909020818C01925
:102C2000FEF79FFA00247D4B2246FEF79DFAFEF741
:102C30004BFA00F0D9F8204600F014F92F20C443D5
:102C40000D4D0020002C0AD000F0F8F82919312091
:102C5000085C3222895C00F048FAE41CF1E700F0DD
:102C6000EDF8022000F0FEF8FEBDC0462C04001076
:102C7000C12C000000A1BC33EC6D0000B0B51446BF
:102C80000D4600F0DBF8284600F0AEF8052000F015
:102C9000E9F84F48022101607D21C9004161012509
:102CA00005600168C907FCD100F045F8A04200DDCD
:102CB000002500F05DF92846B0BDC04600207047F1
:102CC0001CB501AC002121700122214600F002F860
:102CD00020781CBDFEB500920191124A1168802334
:102CE0000293994311603A4C022525607D218E00A4
:102CF0006661012727602168C907FCD17F21084050
:102D000003F05EFE0098019902F0FAFC256066610E
:102D100027602068C007FCD102490868029A104366
:102D20000860FEBDFC3F005080B50A460146002009
:102D3000FFF7D0FF80BD80B51120FFF7C1FF40082D
:102D400080BD0000B0B50D4908682022904308609E
:102D50001F48022303607D24E400446101240460D1
:102D60000568ED07FCD10D6815430D60036004494B
:102D7000416104600168C907FCD1B0BDFC3F01504E
:102D800070170000B0B50C46054600F0F6F8601E5E
:102D9000C1B2352000F0A9F92846214600F0DAF941
:102DA0000224204600F05EF8E9480460FF21AA31C1
:102DB0004161012101600168C907FCD1032000F0D5
:102DC00051F83F20FFF77CFF0007FAD5B0BDC046A1
:102DD000048001407047000002490A78824200D016
:102DE0000870704730040010B0B5BB494860FEF76A
:102DF000B8F90022BA4BFDF70DFFFEF765F904465E
:102E0000000CC1B20620B54DA847200AC1B2072068
:102E1000A847E1B20820A847B0BDC04680844E4014
:102E200010B50C4600F00AF8AB48807F002800D0AF
:102E300010BD3220214600F058F910BD10B5A6494A
:102E40004A7882420CD04870002000F00BF8012430
:102E50002046FFF735FF7F210140204600F045F96D
:102E600010BDC046B0B50446002806D00020FFF7CC
:102E7000B3FF032C05D1012004E00120FFF7ACFFD4
:102E800002E00020FFF7A6FF01252846FFF718FF04
:102E9000F82101402143284600F027F9B0BD80B554
:102EA0000520FFF7DFFF80BDF0B585B01D4601931B
:102EB00014460F460091FFF7C1FF222186480F9A62
:102EC000425421210E9A425420210D9E4654846181
:102ED00007610C990391C1770B9904918177456142
:102EE0000A9D85832046FEF73CF902460B460020EA
:102EF00002907C49FDF78EFEFEF7B0F80446010A09
:102F00000220764FB847E1B20320B8470098FFF798
:102F1000E3FB01461220B8470198FFF7DDFB0146AD
:102F20001320B847290A2520B847E9B22620B84718
:102F300032242046039D2946B84720462946B847F3
:102F400002990498002801D17F20C143701E864158
:102F500035010D4330242046FFF7B2FE6F210140BA
:102F60002943C9B22046B84705B0F0BD340400106B
:102F700080B50020FFF776FF80BD80B50120FFF708
:102F800071FF80BDF0B587B0029303920E46FFF744
:102F900055FF0920FFF794FE4D20FFF791FE0546EF
:102FA0004D484068FFF7ECFD40B21199019110992E
:102FB00000910F9906910E9905910D9904910C9C21
:102FC000002808D4F11731430E2900DB0E210846F2
:102FD00071300E461EE00720112E03DCF8210D4053
:102FE0002D1D00E005432840072808D1052E00DCF0
:102FF0000526142E00DB142631460B3107E0022E85
:1030000000DC0226112E00DB112631460E310F2086
:10301000C0430843C1B20920304FB8474D2029466C
:10302000B84721202C4A00991154202006991154A8
:103030000198506205989077049890839461039D5D
:10304000D5600298106116720A263046FFF738FEE6
:10305000402101433046B8472846FEF782F8002554
:103060001F4B2A46FDF7D6FDFDF7F8FF0646010A7D
:103070000420B847F1B20520B8472046FEF771F8A2
:1030800002460B4617492846FDF7C4FDFDF7E6FF4B
:103090000446010A0220B847E1B20320B847049C65
:1030A000210A2520B847E1B22620B8470598002814
:1030B00001D17F20C5430699481E81410E012E4350
:1030C00030242046FFF7FCFD6F2101403143C9B297
:1030D0002046B84707B0F0BD34040010EB300000C4
:1030E00080844E4080847E417047E0B501AB19700A
:1030F0000122194600F002F88CBD0000FEB50192D5
:103100000291124A11688027B9431160104C0221C4
:10311000009121607D218E00666101252560216876
:10312000C907FCD1384303F04BFC0198029903F026
:103130004BFC00982060666125602068C007FCD1C8
:103140000249086838430860FEBDC046FC3F005095
:103150000480014080B50A4601460020FFF7CEFFFB
:1031600080BD0000034908604868C006FCD40868B8
:10317000C0B270470800044010B5134C2069411CD0
:103180002161092815DB0020206101F06DF903F0B1
:10319000D7F800F053F903F09BFB03F0EDF803F0D0
:1031A000BDFA03F033FB02F041FF6068401C00D21F
:1031B0006060E068411CE160632803DB012020704F
:1031C0000020E06010BDC046B0020010B0B512484B
:1031D000002282630121C163C263C163C36BDB0749
:1031E000FCD0232303600D4B1C688025AC431C607E
:1031F0004368DB07FCD003238366C166C266C166F1
:10320000C26ED207FCD00167054A8267054801609B
:10321000054813210160B0BD088004403882044095
:103220005F00010098800440508104400948016813
:10323000C90705D00121016012490A68521C0A60C1
:103240000168C90605D5102101600E484168491C76
:103250004160704700C0004009480168C90705D0B7
:103260000121016007498A68521C8A600168C90609
:1032700005D5102101600348C168491CC160704731
:10328000000001404003001001204005074908608C
:103290000D480268064805214180017843181A71DB
:1032A0003E2901D8491C01707047C04680E200E009
:1032B0000802001004494A695206FCD508604A69B0
:1032C0005206FCD57047C046008000400648011FEA
:1032D00003220A600121016000220260016001688E
:1032E000C907FCD00020704774800440BFF34F8FA3
:1032F000034804490160BFF34F8F00BFFDE7C0469C
:103300000CED00E00400FA05FEE780B5FFF7D2FF00
:1033100080BD0000FEB50D46044600F0B9FD06462E
:10332000022D32D0012D1DD0002D43D100F0D4FD4F
:10333000064600F04DFE0546F07A002802D130899D
:10334000002838D02126224F78893C21FDF7FCF94E
:103350003989BA7C00910190029223A120462A4625
:10336000334625E000F0AEFE054636693C27304680
:103370003946FDF7E9F916498B894743F11B00905F
:10338000019114A120462A4612E000F087FD05466F
:10339000F06800F0B7F8FEF70BF806460F4628462F
:1033A000FEF706F802460B460096019703A1204659
:1033B000FCF7CCFFFEBD2026C5E7C04625392E31DF
:1033C000664C2F6D696E2825342E31662900000069
:1033D000CA010010252D35732534644C2533756DD5
:1033E000696E253032757300252D347325632534BD
:1033F000644C2533646D696E202025326400000022
:1034000010B583498A7B002A07D080000818C18A3A
:103410000020FA2903D8044602E0002010BD012450
:103420007D22D200914200D90224002C05D0012037
:103430003221002202F01CFB204610BDB0B5164818
:10344000C2881649002A07D001239B020C681C433E
:103450000C60511EC180B0BD0389114A002B05D0FC
:103460000C6814400C60591E0181B0BD0378002B1C
:103470000ED04488C4800124A4020D6825430D6049
:10348000848804810C6814400C60591E0170B0BD22
:10349000086810400860B0BDA8010010FC3F025051
:1034A000FFFBFFFFB0B50023154A0C060ED00478D1
:1034B00063400824250606D05D08DB0700D0554090
:1034C0002B46641EF6E7491E401CEEE798B2B0BDDD
:1034D000B0B50A4B0A4A0C060ED0491E0478634068
:1034E0000024072C06D85D08DB0700D055402B468A
:1034F000641CF6E7401CEEE798B2B0BDFFFF000089
:1035000001A0000010B50446FEF77EF8014603480E
:10351000FDF778FF002C00D1204610BD00606A47FF
:103520000B4908680422904308600A68802002431F
:103530000A6008490A6820231A430A6006490A6893
:103540001A430A6005490A6802430A607047C04688
:103550000080005000800150FC3F0150FC3F0050B3
:10356000800007490818007A7047C0460A200449BD
:10357000522803D000220A52001DF9E77047C046C6
:10358000C802001010B54400E0B200F01FF8601C43
:10359000C0B202F08FFB10BDB0B50A480024047021
:1035A0003321094D2046A84732212046A84728212B
:1035B0002046A8470C212046A84701212046A847BD
:1035C000B0BDC04678050010C550000080B5024669
:1035D00001200021FCF771FE034A93698343936144
:1035E000D0698843D06180BD500200100188491E17
:1035F00001800422825E09B2914201DA4188018091
:10360000704700000249487402480068888170478A
:10361000CA0100100402001010B5044600F0C6FCF8
:10362000032805D0022806D1204601F0A1FD10BDD7
:10363000204600F053FF10BDFEB5002900D0FEBDAE
:10364000044600F049FC064600F0C2FC0546F07A4C
:10365000002802D1308900280ED0212600F09EFCDF
:10366000074600F00DFC0097019004A120462A4671
:103670003346FCF76BFEFEBD2026EFE7252D3131EA
:10368000732563253033642F252D3264000000003C
:1036900010B5044600F082FC0649896C0022FF2A1E
:1036A00005D023460C5D521C8442F8D100E0FF2374
:1036B000D8B210BDD00300102F21BA48415C0029B8
:1036C0000AD03521415C054A117006234B43D118BD
:1036D000C28CCA80808C08817047C0467C0500106F
:1036E000F0B585B004460020C54300F0F5FB032C7F
:1036F00001D12C4689E0029501903520A9490E5C44
:10370000322003900D5C0024204602F047F8074663
:10371000A54B5861002D00D01326A24A0398105CD7
:10372000002802D197841069D08418691F61049021
:10373000B8420BD1908D00280FD11D4600242046A1
:10374000FFF70EFF012804D0E44304E0974890857A
:1037500003E00120C4432B46924A382014542F25FD
:10376000505D002819D0F0B20621414350183E3078
:1037700081885A698A428B4A05D240881169814200
:1037800001D2002C09D00A20FFF73CFF854A3420E3
:103790000721115431200121115400240498B8420A
:1037A00002D1508D002830D1814E56853120105CD9
:1037B000002828D1505D002825D09068002822D00C
:1037C00000F086FF0028029C1FD100F03DFF00247E
:1037D000204601F0F1FF024676480499B94201D132
:1037E000824212D30A2001210492022202F040F9FF
:1037F0000498704988420BD97D2001018200012084
:1038000002F0C6FA17E000F01FFF204605B0F0BD39
:1038100000094A280FD83746019806883046FDF738
:10382000F3FE654903F034F9FDF79CFE002E3E4699
:103830001ED007461CE0019807883846FDF7E4FED5
:103840005D4903F025F9FDF78DFE002F374600D0C6
:10385000074634205349095C0629534A08D00529F4
:103860000DD004294F4A6ED10521115437466AE024
:103870004C4A34200521115450483F1863E0494E0A
:103880000398305C002804D0B568002D324614D16E
:103890001BE03C20305C5169814205D1B2697368FC
:1038A000934201D99A1A7260B568002D32460CD045
:1038B000814202D24B20000104E050682946FCF707
:1038C00043FF384A3E46D06001E03E460025D768B7
:1038D0004B200001874200D807463648874200D374
:1038E0000746D7600498FDF73CFC039002913846E8
:1038F000FDF737FC02460B4603980299FDF78AF95B
:10390000074601913046FDF72CFC039002910026FA
:103910002B4B384601993246FDF74CF9039A029B2E
:10392000FDF722FC274B3246FDF71EFCFDF796FB08
:103930001C4A0746049845435068854202D97D20B9
:1039400080003F181A4ED0684B210901884200D8E8
:1039500008461849884200D30846D0603D46B9B2AF
:10396000194A91420F4600D81746114B9F4200D387
:103970001F46914206D80499814203D2012002F0E9
:10398000E3F90AE0A9B2721E92B2914205D90499F4
:10399000814202D900200449C860384600F01AFF6D
:1039A00033E7C046A0040010F001001080BB000007
:1039B00010270000E02E00004260D53F0CFEFFFF04
:1039C0000000F03F0000E03F88130000F0B585B034
:1039D00001F0E8FE0390E948006D007804900120B2
:1039E00001F0A0FE0190022001F09CFE0290002652
:1039F000022E2CD00498F040C00726D0F7B23846EB
:103A000001F0DAFE2325DD4A515D526D030C53545B
:103A10004B1CDBB2040AD4548B1CDBB2D054C81C40
:103A2000D64C6055384600F051FA615D4288636DAE
:103A300027465A544A1CD2B20468240A9C548A1C51
:103A4000D2B200689854C81C7855761CD0E7232061
:103A5000FB4E315C726D284BDC7954544C1CE4B243
:103A60009D7915558C1CE4B25D791555CC1CE4B2DA
:103A70001D7915550C1DE4B2DD7815554C1DE4B2C9
:103A80009D7815558C1DE4B25D7815550C460834AB
:103A9000E4B21B78019FBD081555CC1DE4B2135547
:103AA000BB01029DAC05A40EE3180C460934E4B238
:103AB00013550B460A33DBB22C01D4540B460B339F
:103AC000DCB2002313550C460C34E4B213550C46FB
:103AD0000D34E4B213550C460E34E4B213550C46C3
:103AE0000F34E4B213550B461033DBB2039CD454AD
:103AF0001131315405B0F0BD58020010F0B585B059
:103B000000F0EAF9074600F035FA044600F0C0F983
:103B100004900025284601F04FFE0090284601F051
:103B20003DFE01904548016803914068029000F015
:103B30003DFA2321C24A535C566DF054581CC2B260
:103B40007878B054981CC2B23878B054D81CC2B23D
:103B5000F879B054181DC2B2B879B0545A1D3889DA
:103B6000002802D1F87A471EB841D7B2F055344840
:103B7000009A824200D30246100A9F1DFFB2F05500
:103B8000D81DC0B23254019A100C1F460837FFB23C
:103B9000F055100A1F460937FFB2F05518460A3093
:103BA000C0B2325418460B30C0B2029A3254039A53
:103BB000100E1F460C37FFB2F055100C1F460D3784
:103BC000FFB2F055100A1F460E37FFB2F0551846E7
:103BD0000F30C0B232543820049A105C1F461037A0
:103BE000FFB2F05518461130C0B227783754A0788C
:103BF0003F2707406078800138181F461237FFB210
:103C0000F05513338E48435420460830A778BD4200
:103C100012D247780F223A40071F3F783F01D2194E
:103C2000DFB2F2555A1CD2B20778B7549B1C844AB3
:103C30005354801D6D1CE9E705B0F0BDC8020010AB
:103C4000FFFF0000F8B500F00BFA009000F018F943
:103C5000054600F0ABF902462321794C635C484FDE
:103C6000F878666DF054581CC0B27C883454981CA7
:103C7000C0B23C68240A3454D81CC0B23C683454E6
:103C8000181DC0B23F4FFC783454581DC0B27C8818
:103C90003454981DC0B23C68240A3454D81DC0B2B4
:103CA0003C68345418460830C0B2FC793454184685
:103CB0000930C0B2FC88345418460A30C0B27C685F
:103CC000240A345418460B30C0B27C683454184669
:103CD0000C30C0B2FC7A345418460D30C0B27C8926
:103CE000345418460E30C0B2BC68240A3454184606
:103CF0000F30C0B2BC68345418461030C0B2FC7BE0
:103D0000345418461130C0B2FC893454184612306D
:103D1000C0B2FC68240A345418461330C0B2FC68A0
:103D2000345418461730C0B2174CE7783754184649
:103D30001630C0B2A778375418461530C0B267782D
:103D4000375418461430C0B224783454184618300A
:103D5000C0B20E4C2468345418461930C0B23554E1
:103D600018461A30C0B2009C2478345418461B30D0
:103D7000C0B232541C3332484354F8BDD003001053
:103D8000B402001094030010E06C0000F80500106D
:103D9000F8B52B4CA07924256055207A2826A0550B
:103DA00000F0FCF82C216054A05D002808D0FFF73B
:103DB0006FFC30216054FF2807D12046283001E0F5
:103DC00020461F30007830216054A07C322160549E
:103DD000207D34216054207E38216054207F3C2196
:103DE0006054A07F3E2160544020205A44216052FC
:103DF000655D002D01D00D2000E0072023210091FA
:103E00006054626D1318A3650E26F643002D00D191
:103E1000B61D257875190026F7B2BD420CD95F1C76
:103E2000A7652146C4B21B7813550C46401C009967
:103E30006054761C3B46EFE7002001F037FDF8BDEB
:103E4000D003001080B5FFF735FA80BD0849097B23
:103E5000084AD37B834208D1937B08A0002B05D06E
:103E60005278002A02D12020704703A0405C70479E
:103E700028010010CA010010A5CD00007EC7000077
:103E800080B5482001F0F2FBFF218143080980BD85
:103E90008B4870470048704708000010B0B50024F8
:103EA000204601F089FC0546FFF7F2FF2F21405C18
:103EB000002804D1102000F015F9012803D028466D
:103EC000FFF720FB04462046B0BD00000001014979
:103ED00008187047580500102F48801C7047C046CE
:103EE000F8B50120FEF72AFC4020134CA0470746F6
:103EF00000904220A047064605023D434420A047CB
:103F0000074604042C4346200B49884705062543F1
:103F1000310EF21712025118009AD2170A43390CC7
:103F20001143040A0C4348200349884704430F21E6
:103F300021402846F8BDC0466D560000F8B50C4635
:103F400006468F003846FCF787F9054631463A4663
:103F5000FCF734F90120204061084018401E82B26D
:103F60002846214601F014F804462846FCF7C8F913
:103F70002046F8BD004870477C05001080688178B5
:103F8000427812025118044A5180017AC079000225
:103F9000401810817047C046A002001080B54A202A
:103FA00001F064FBFF218143084680BD80B500F02D
:103FB0005DF8C10705D1810705D4400705D502206A
:103FC00080BD042080BD012080BD032080BD000095
:103FD00080B5FFF7EBFF401EC0B2032803D8800076
:103FE00003A1085880BD014880BDC046326E000064
:103FF0002D6E00001C6E0000236E0000326E00006B
:1040000010B50446D048C07B884210D10020FFF78D
:10401000F7F9002803D0204600F062FC07E00320F7
:10402000FFF7EEF9002802D02046FFF7DFFA002064
:10403000205E10BD004870472801001080B5074978
:10404000CA680020002A06D04968002903D06420ED
:104050005043FCF779FBC0B280BDC046F0010010B0
:104060000148401C7047C046C20100100F4800685C
:10407000800A022181430E480268D20700D1091D3F
:10408000002904D00B4A11700023537008E009493D
:104090004A78312A03D8521C4A70097800E000217E
:1040A00000684007C00F08437047C046FC3F0250FD
:1040B000FC3F0350C80100102F200149085C7047E5
:1040C000A004001080B5FFF7F7FF012801D003A07E
:1040D00080BD01A080BDC04672756E0073746F70A4
:1040E00000000000800037490818007A7047C04679
:1040F000F8B5FFF7CDFE0446478C9348C07B0428F3
:104100000FD13C2538462946FCF71EFB0646002009
:10411000FFF776F9002806D0B809E0280ED8761CFB
:104120000DE03D460DE00320FFF76AF9002806D0B8
:10413000701E86B2F02E02D3F02600E001267543F1
:104140006584A8B2F8BDC04610B5FFF7A1FE0446CD
:104150007D48C07B032808D10020FFF751F90128D2
:1041600005D0022807D10A2002E0218C1BE00120A3
:10417000218C081820840320FFF742F9218C0128A4
:1041800003D0022806D1094802E00920C0430930C3
:10419000091821847D2040018AB2824201D8080496
:1041A00001D10121218488B210BDC046F6FF000074
:1041B000014840887047C046080200100148083096
:1041C0007047C046C802001080B5D948817B0029DD
:1041D00003D00320FFF720FA80BD0278C17B491C81
:1041E000CBB2934200D90021C17380BD80B50220BB
:1041F000FFF712FACE48817B4A424A41827380BD62
:10420000F0B5A3B0FFF7D2FE012816D104ACA01C74
:104210007A21FCF794FA8049086D0390027893099B
:10422000237011D03F231A4004AB5A70142A11D9BD
:10423000202002220A54D4433AE02021764A5054E6
:104240000220C043841C33E0202002220A54D043C1
:10425000441C2DE0062151430398021D0292801C4C
:10426000019000242546A14219D004AE3619EFB2C0
:104270000198C55D280930712801FD1C039A525D23
:1042800013061B0FC018C0B23C234343F3800298AF
:10429000C05D1207120D10183081A41DE3E704A8B9
:1042A00001F082FD0024002802D1012001F012FC5F
:1042B000204623B0F0BDC046B0B5FFF777FE0546F7
:1042C000FFF7E6FD012D13D10446054631353A309E
:1042D0007C21FCF734FA0120687028704E48006D8C
:1042E0000178090442781202511880780818E061B8
:1042F000502001F0DBFA0020B0BDC046B0B5FFF79A
:10430000C7FD04462F25405D002801D0152000E0A0
:10431000062001F0CBFA605D002801D00020B0BD7E
:10432000FEF7E4FF80B58248817B002903D000209E
:10433000FFF772F980BD0178C27B521ED2B28A4269
:1043400000D30A46C27380BDCA01001070B532485E
:10435000066D02201821FBF769FF0446F07F8106F5
:10436000890F21700107C90F61702025715D4A080E
:104370004007800D8018A080C807800F2036717814
:10438000CA09801820764806C00F60768806800D1E
:10439000B17809094018A083204601F079F8204639
:1043A000FBF7AEFF284601F081FA002070BDC04641
:1043B00010B5FFF76FFD04461748016D0A788B1C96
:1043C0000365806C49788154062001F06FFAAA20B9
:1043D000207001F031FA002010BDC04610B50E4C1F
:1043E000E07F217B814209D0A07900F0BDFD00284B
:1043F00005D0207C00F0B8FD002800D010BDFFF7EC
:104400002FFE8178C2789142F8D84E22144BA352E5
:10441000C170A179017110BDD003001000010E49D7
:1044200008188189002901D0491E8181817B0029DA
:1044300000D070474168491C084A914200D3114698
:1044400041608268064BD2189142F2D901218173F2
:10445000044981607047C04658050010FFFFFF0007
:1044600030750000E02E000080B50020FFF7D6FF79
:104470000120FFF7D3FF80BD70B50F22D343164A4A
:10448000002B07D0D41828250026665538256655F8
:104490005B1CF5E70123D360516118431076FEF7EA
:1044A0002FF970BDB0B518240B4B282C03D0002574
:1044B0001D55641CF9E7541CDC6000245C6118760F
:1044C000E0B2904205D2C0180D784576641C491CB4
:1044D000F6E7FEF715F9B0BD5803001010B5044615
:1044E000FFF7D8FC1249022C0ED18A7B002A0BD090
:1044F0003F490A880281CA8842818A898281498A21
:10450000C18101F099F910BD032C09D0002C0ED106
:10451000C87B062141433648401800F0E1F910BD40
:10452000C87B0621414332484018FFF75FF810BDB1
:10453000CA010010F0B585B00446022937D0012920
:104540001CD0002950D1FFF7C7FC0646FFF740FDFD
:104550000546F07A002802D13089002846D021266D
:10456000FFF71CFD0746FFF78BFC2C4900970190D5
:1045700002912BA120462A46334633E000263046DE
:10458000FFF764FC04901A4F38463146FFF738FDB8
:10459000039002252846FFF759FC06460C3738469B
:1045A0002946FFF72DFD0096019017A117E001267F
:1045B0003046FFF74BFC04900D4FB81D3146FFF716
:1045C0001FFD039003252846FFF740FC06461237DF
:1045D00038462946FFF714FD0096019005A12046B4
:1045E000049A039BFBF7B2FE05B0F0BD2026B7E7A7
:1045F00028010010256350323A252D36642563507A
:10460000343A252D36640000256350313A252D3685
:1046100064256350333A252D36640000E06C0000B9
:10462000252D39732563253033642F252D326425DC
:104630003473000010B54400E0B2FEF7C7FF601C01
:10464000C0B2FEF7C3FF10BDF0B587B008263046F4
:10465000FBF702FE074604242046FBF7FDFD03ADF1
:1046600003212971012129700191C17000218170FC
:10467000029141708021017098490C700C460590A0
:1046800028463946324601F0FBF93846314601F0FA
:10469000F1F83846FBF734FE0598FBF731FE01F0E0
:1046A0006BF8284600F098FF002803D00298C0431A
:1046B000019909E0059881784278120251186181C8
:1046C000FBF71EFE02980146617307B0F0BDC046BD
:1046D000F0B587B008263046FBF7BEFD0746042438
:1046E0002046FBF7B9FD03AD0321297101222A7091
:1046F000C4700021029181700192427010210170FA
:1047000076490C700C46059028463946324601F031
:10471000B7F93846314601F0ADF83846FBF7F0FD01
:104720000598FBF7EDFD01F027F8284600F054FF4F
:10473000002803D00298C043019907E003A8FFF7BF
:104740001DFC0598FBF7DCFD02980146617307B07C
:10475000F0BDC046F0B587B008252846FBF77CFDC4
:10476000064604273846FBF777FD03AC0621217186
:10477000012102912170C17000218170019141706D
:104780002021017055490F700F4605902046314693
:104790002A4601F075F93046294601F06BF830469B
:1047A000FBF7AEFD0598FBF7ABFD00F0E5FF2046FB
:1047B00000F012FF04460298002C07D103A800F075
:1047C00045FF04460598FBF79BFD0198787320464A
:1047D00007B0F0BDF0B587B0074608200190FBF7A1
:1047E0003BFD064604252846FBF736FD03AC0621B3
:1047F0002171012102912170C770390A817000274F
:1048000047701021017035490D70059020463146E2
:10481000019D2A4601F034F93046294601F02AF874
:104820003046FBF76DFD0598FBF76AFD00F0A4FF2D
:10483000204600F0D1FE04460298002C07D103A8C0
:1048400000F004FF04460598FBF75AFD384623495B
:104850004873204607B0F0BDF0B587B0082528465C
:10486000FBF7FAFC064604273846FBF7F5FC03ACD9
:1048700006212171012201922270C17000218170F4
:10488000029141702021017014490F700F4605906C
:10489000204631462A4601F0F3F83046294600F01A
:1048A000E9FF3046FBF72CFD0598FBF729FD00F0EA
:1048B00063FF204600F090FE002803D00298C44316
:1048C000019807E003A800F0C1FE04460598FBF735
:1048D00017FD02987873204607B0F0BDA0020010C3
:1048E0000188491C01800222825E09B2914201DDE9
:1048F000818801807047000010B54720C0430749F8
:1049000000280AD00A185023D35C012B03D052236D
:10491000D45A641CD452001DF2E710BDC802001026
:104920005E48016880220A430260016801220A434E
:1049300002609B48016808220A4302607047C04633
:1049400010B5FDF707FE0024204600F0EBFE00281E
:104950000BD0FCF706FC0022074BFCF75BF9074A7B
:10496000074BFCF757F9044600E00249054804608C
:10497000416010BD0000F03F007EA340D7A3703D12
:104980000AD7D33F9804001010B585480168042267
:10499000914301600121CA02404B1C6894431C6092
:1049A00002688A43026010BD012081023B4A1368FD
:1049B0000B431360054A13688B43136004490222BA
:1049C0008A8048801E2008707047C046FC3F025015
:1049D000A801001080B54B20000200F053FA80BD02
:1049E00010B5064CB8212046FBF7ABFE04487C21ED
:1049F000FBF7A7FE0020C043E06110BDA00400103B
:104A00007C05001010B500F0E3FE0120C4032078FF
:104A1000AA2801D000F010FF0920420102482146D7
:104A2000FBF7CCFB10BDC04608000010C948016868
:104A300040220A4302607047B0B501252902174899
:104A400002688A4302600168154A114001605E49AC
:104A50000B6813400B6013490A6811239A430A60DC
:104A60000321090242688A43426082680A438260E5
:104A700002690A43026168073F4908600A4C202125
:104A80002046FBF75EFE00200849202804D02218AB
:104A9000957391601030F8E7B0BDC04600800250B9
:104AA000FFFDFFFF2440044058050010E02E0000E9
:104AB000FEB5FFF7EFF902902D480168012201923F
:104AC000114301600822D3432A480168194001605C
:104AD0000427FC433C490D6825400D600D681D40CE
:104AE0000D6010250095EE430D6835400D6045685A
:104AF0001D4045608260C5681D40C560056915435D
:104B000005614868204048608F60C8682040C860E0
:104B10000869384308614868184048608A60C86876
:104B20001840C86008691043086148683040486010
:104B3000009A8A60C8683040C860086910430861FC
:104B4000019AD007EA490860900708600B480021E5
:104B50000174C173C180FEF71FFD029B18890849CB
:104B6000088058899A89DB894B828A81C880FEBD7A
:104B7000904004400080005000E100E0CA010010B5
:104B8000280100100648016802221143016005480F
:104B90000168914301600448C82141807047C046C4
:104BA00000800350FC3F0350B201001080B501208B
:104BB0008002CA490A6802430A6004490A6802433B
:104BC0000A60FFF707FF80BD00800150FC3F0150E5
:104BD00080B5FFF7A5FE00202822014600F0FEFE6A
:104BE00080BD000010B50120FDF7A8FD4020064C57
:104BF000A0474220A0474420A0474620A047482085
:104C0000A0474A20A04710BD6D560000F0B589B0FE
:104C10007D20C60034461834FFF73CF90890B148AF
:104C2000016821430160924800684B49FBF78CFD05
:104C30004A4FB860381FFF25056004203861484C92
:104C40002078002805D10120207046490978C9073D
:104C500070D100F0ABF801F0ABFE0220A07025711E
:104C600008994978002900D101206070FEF758FCAE
:104C70003D4801680025284688472820FEF720F88F
:104C80002D2851D10595049503950295182006907D
:104C90000190364A00923448C06907900E21344B87
:104CA0002846079CA0474020069900910195029054
:104CB0000395049505952C4884692E4B28462C496C
:104CC0002A4AA0470D201F21FEF70FFA08984078C6
:104CD000002808D04B242046FDF7F2FF10210143A5
:104CE0002046FEF702FAFFF7CBF802243C607E6113
:104CF0000121089139603968C907FCD11E4E46432D
:104D0000FEF73BF91D4830181749C9688847042049
:104D1000FEF7A8F83C606920800078610898386048
:104D20003868C007FCD102E06570A570ED432846E5
:104D300009B0F0BD6921890000221E318A4288D065
:104D400002233B607E6138603B68DB07FCD1521C6C
:104D5000F4E7C0468080044040420F0004800140D8
:104D6000C2010010F8050010986D000050C300004B
:104D700060610200B030010090D00300C0CA8936E3
:104D800080B52420FEF722FC80BD000010B5FFF79F
:104D900081F80446FFF774F87C49034A20348C6498
:104DA000CA6400F0A7FC10BDB80B000070B51F4826
:104DB00001680123194301601D490A46F932C46F95
:104DC0001443C4671B4A022010601F22D4431A4AAE
:104DD00055692540556155691D435561556918262A
:104DE0002E43566195692540956194691C439461F1
:104DF000936908241C439461536E0324A3435366B0
:104E0000536E0343536613680724A3431360136868
:104E100003431360094A116010610021072902D879
:104E20009368491CFAE7506070BDC0460480044096
:104E300007070000948004404C40044000000440F8
:104E400080B50B4800680B49FBF77EFC401E010E45
:104E50000DD10949094A5060094803680B400321F4
:104E6000890759180160002090600720106080BDFC
:104E700004000010DE260000FFFFFF0010E000E04D
:104E800020ED00E0B0B501461448026880231343CA
:104E90000360026840239A430260114802680124BB
:104EA0002243026042682243426020030D4A136895
:104EB000034313600C4D8320E8600C48FBF744FC6F
:104EC000010AC9B26960C0B228600320E8606C6062
:104ED0000620A860600506490860B0BD008001504A
:104EE000A44004408080044000800040C0C62D00E3
:104EF00000E100E00120C1030F4AD36D0B43D365ED
:104F0000602111600D490A6840239A430A600C4AE7
:104F10000021116050605368DB07FCD090600948A5
:104F2000016009480949416003210160AA218160AB
:104F3000552181607047C046248004403882044077
:104F4000D08004400006001000400040FFFF3F00FA
:104F500010B5425C43185B781B029C18FEF7B8FA48
:104F6000604080B210BD000010B50446FFF716F88F
:104F700001460648826C00200346FF2B04D0145DD6
:104F80005B1C8C42F9D1012010BDC046D00300103B
:104F9000F0B590B093000E90C01801904D1EEB1725
:104FA00000210C460092019800680C90481B204696
:104FB000984163D203950995029305910F46049495
:104FC00026460F933B4635460E982C461E46002734
:104FD0005B1C7D41B10042580C9882420E98F4D37C
:104FE000069208930A960B94411807910C9A099B14
:104FF0000D970F9F0F971E465B1E0D998F41B400B2
:1050000001598A42F6D30A98301A0F980B9A9041A8
:105010000AD30E980019079C2160069901601E466C
:105020000F9708980A900B9509960A9FF01B0F9B03
:1050300018460B9EB041C4D20124009AD01B0D9893
:10504000B041214600D30D9900291D46099800D191
:10505000029B0C930029034600D1039B801A0D98F4
:10506000854100D30446002C00D1049E002C00D1C1
:10507000059F394634461D460C9B94E70C9810B0AA
:10508000F0BD0000F8B50446042101434E2000F0B5
:10509000FDFA0B4D02272F6001266E612E602868F5
:1050A000C007FCD1FB2004404E20214600F0EEFA60
:1050B0002F600A2068612E602868C007FCD1F8BD07
:1050C00004800140F8B50C46411E8841DC4909784E
:1050D0004A1E9141C9000F18F02020403D184E266D
:1050E0003046294600F0D2FA2846FFF7CBFF2001D0
:1050F0003818C4B23046214600F0C8FA2046FFF7FF
:10510000C1FFF8BDFFF792FCFFF762FD164801688A
:10511000164A11601F210160FFF748FDFFF7EAFE04
:10512000FFF72EFEFFF730FCFFF72CFDFFF73CFCEE
:10513000FFF758FDFFF766FCFFF77EFCFFF766FD03
:10514000FFF724FEFFF77CFEFFF7B2FCFFF748FCF9
:1051500000F0A4FA00F09EFF01F0DEF901F010FB70
:1051600000F06EFFF4E7C04630800440F805001000
:10517000F0B59FB00546FEF78BFE044687482146F2
:105180003631022D1AD1827B002A17D0027C012AE7
:1051900024D1C07B002821D16846012545704A787A
:1051A00002703E4A1278827009780171618CC18068
:1051B000218C018100F0F8FD284610E0C27B042A12
:1051C0000FD8C0467A4412795200974402341B2605
:1051D0000C00017C01224A40027402E0002000F031
:1051E00079FC1FB0F0BD678C3C2638463146FBF792
:1051F000ABFA032D2AD0002D4CD1B909E02948D8AB
:10520000401C47E0032D27D0002DEAD10878401C30
:10521000C2B20F2A26D9002024E0032D24D0002D6D
:10522000DFD17D204101208C401C82B28A4200D90E
:1052300001202084D5E7032D20D0002DD1D148783E
:10524000401CC2B2022A22D9012020E0401E80B2B6
:10525000F0281FD3F0201DE00878401EC0B20F28B0
:1052600000D30F200870BCE77D204001218C491E2F
:1052700089B2814200D301462184B2E74878401EBA
:105280004870020602D0C0B20328AAD30220487098
:10529000A7E7012046436684A3E7C0462801001023
:1052A000F0B58BB00E460746FEF7F2FD054638A076
:1052B00008A91CC81CC12C46022E4AD03635012E26
:1052C00023D0002E60D10797FEF706FE0746FEF7B3
:1052D0007FFE0690F87A002802D13889002855D040
:1052E00021270120FEF7B2FD06466C780320FEF769
:1052F000ADFD0546FEF728FF009601940295039048
:1053000034A10798069A3B463CE0FEF7F1FE0020E8
:10531000294EB04706902148007C05900220B047F6
:1053200007970746287804900420B0470546608C0C
:105330003C21FBF709FA009704990191029503902B
:1053400006200599484308A90B181CA10798069A3E
:1053500018E0FEF7A3FD0797074625693C26284677
:105360003146FBF7F1F904463846FCF721F80246CE
:105370000B460A4880896643A91B0090019402915C
:1053800007A10798FAF7E2FF0BB0F0BD2027A8E7C6
:1053900073746F700000737461727400CA0100103E
:1053A00025342E31664C2F6D696E2534644C2533BF
:1053B000753A2530327500004D3E00002563252DDD
:1053C0003673256343252D32642563543A253364AF
:1053D0006D696E00252D36732563256353252D32A7
:1053E000642563563A2535644C00000010B5114819
:1053F000018D002901D0002419E0332100244454F8
:105400003521425C521C42543B23C35CD2B29A42C7
:1054100007D23821415C002906D0312101224254B3
:1054200005E04454E44302E0012000F053FB204631
:1054300010BDC046A0040010014908707047C04666
:105440007805001010B54400E0B200F033FC601C99
:10545000C0B2FEF7BBF810BD8068C178807800024A
:10546000401881B20020062906D001290BD1074936
:105470000A7B0121114303E00449097B0122914386
:10548000024A11737047C0437047C046A002001023
:10549000F0B58FB005467D200190C0000990FEF761
:1054A000F9FC06904B4881680C91C26812212423B4
:1054B00001270295312F00D18AE0EC19601E067891
:1054C000032E00D180E00D920B9108461238E95D61
:1054D000404A0A97D5192022A9540321675A23214B
:1054E0006F520895EE770121059181400698426838
:1054F0008A430492426009988742039703D9E01CCB
:10550000099901800F460797032000210E931A4640
:10551000FAF7D3FE0D9D8D430C9B1F4687432D4A02
:105520009760D560022E35D0012E1BD0002E0E9B29
:105530002BD10798002828D00021059C20461A4628
:10554000FAF7BBFE0E9B0D43074322488760C560F8
:105550000B998C40049A2243069842600C972A4685
:10556000029D30E021200899085C00280E9A02D1A3
:105570002720039B0B5002200021FAF79EFE0E9B72
:105580000D43074313488760C5600C972A46029D68
:105590000B9918E00F22A25A1D462F23089EF252A3
:1055A0001123E35A31243353019BDB005343272259
:1055B000B35005430D9A0A4306480C958560C260B6
:1055C000029D0B990E9B0A9F18379B1C491C71E783
:1055D0000FB0F0BD50020010FEB50546194807781F
:1055E0000220C043042F01D2401CFEBD0190164C86
:1055F000207828700120205602902871381FC6B2EA
:105600003046FAF729FEA8600298002815D4002039
:10561000864205D021188978AA681154401CF7E702
:10562000B81EC1B20848FFF793FC002807D0A8684D
:10563000FAF766FE0198801CFEBD0198FEBD0020B1
:10564000FEBDC046080200100C02001080B5816843
:105650004A7809780902891801225203914202D13D
:10566000FFF7FAFE80BD002080BD000080B501215B
:10567000FEF702FFC0B20C2802D10348007880BDBB
:105680000020C04380BDC04680030010E0B501ABE0
:10569000197001221946FEF705FF8CBD80B504483C
:1056A000017881600021017001F082F980BDC0465F
:1056B000B0020010B0B50C4600280BD03C2805D035
:1056C000282805D0142814D1C02104E0D42102E0F8
:1056D000942100E080210020FFF7F4FC651C207875
:1056E000C1B20120FFF7EEFC691C287800280D46A6
:1056F000F6D1B0BD80B5B848406B804780BDC0468C
:1057000080B5024608461146FDF70AFA80BD000042
:1057100080B5FDF710FB0249C870C0B280BDC0461D
:10572000C2010010B0B598B004460025602D06D027
:105730002046FCF743FF694648512D1DF6E76846B1
:105740001821FEF7FBFB002C0BD081B2002908D0FA
:105750000846FBF706FD064B0CCBFBF75BFAFBF7A5
:105760007DFC80B20349884200D3084618B0B0BD22
:1057700098040010FF030000B0B501208502494CD9
:105780002068A843206001F0E7F8FEF711FD00282B
:10579000FBD12068284320600020B0BD00010B49E8
:1057A00008587047B04801680068000A02220240A9
:1057B000C805C00F10187047000104490818416857
:1057C0008068814200D3481E7047C04658050010CB
:1057D00010B50A4C3A2060612046143021462C3125
:1057E000074A9047E06A002801D0012010BD2346F7
:1057F00030330FCB241D0FC4002010BD90030010C8
:10580000F11FFF1F70B504460025DF4E102D0CD090
:10581000AC4208D0F069E840C00704D0E8B2FDF718
:105820009FFE012801D16D1CF0E70F2D01D800204B
:1058300070BD012070BDC04610B5FDF733F800BF44
:1058400000BF00BF00BF00BF72B60120C4032046E6
:10585000FCF712FF00BF06492046FDF72FF962B69C
:10586000FDF734FD00BF00BF00BF00BF00BF10BD8B
:1058700008000010F8B50C460546012087020949CA
:10588000086838430860084E200606D0287831465C
:10589000FAF7BEFE6D1C641EF6E702490868B843BD
:1058A0000860F8BDFC3F015090040010FEB50646AC
:1058B000FEF7D6FB0746FEF7E3FA0290FEF76EFB13
:1058C0000546002E3FD0FFF73BF82C20414C2554D5
:1058D0002820002121542420255432202654E07F02
:1058E0003021605438216054B87834216054F878FD
:1058F0003C21605438793E2160540720FFF712FFA5
:105900004421605223200D212154616D0A460D323D
:10591000A265012E15D0062E05D0502E0ED0202EB9
:1059200009D0152E0FD1A27C4A732022A25C8A7363
:105930000F21215407E0FEF749F804E0FEF7DEF8F6
:1059400001E0FEF77FF92A462320224C0190275CD4
:10595000BD1C666D3570207970702420205CB0709D
:105960002820205CF0702C20205C30713020205CDE
:1059700070713220205CB071207AA179002901D1A8
:10598000904201D0002810D13420205CF0713820E2
:10599000205C30723C20205C70723E20205CB07233
:1059A0004420205A3073000AF07230463946FDF721
:1059B00079FDF055000A791CC9B27054019825543C
:1059C000E9B20548826A304690470298FFF792FE96
:1059D000FEBDC046D0030010986D0000FEB5144611
:1059E00002910190204F386801210091884338606E
:1059F00000BF00BF00BF00BF00BF00BF00BF00BFAF
:105A00001A4D3868012C2BDB8026B0433860641EA9
:105A1000019802992246FAF760FCC007000F00BF08
:105A200000BF00BF00BF00BF00BF00BF00BF2968AC
:105A3000082291430818286000BF00BF00BF00BFC4
:105A400000BF00BF00BF00BF38683043386000BFF0
:105A500000BF00BF00BF00BF00BF00BF00BFD0E756
:105A6000009908433860FEBDFC3F0250FC3F0350E4
:105A7000024B9A80598018707047C046A8010010E8
:105A8000F8B515460C46064600780870307948701F
:105A9000101FC0B20021884205D0B268525C631862
:105AA0009A70491CF7E7A81EC7B220463946FDF791
:105AB0000FFDB081E055707B691EC9B26054034888
:105AC00001210170024900200870F8BDFC0500109A
:105AD00008020010F8B5002851D002282AD0012869
