:020000040000FA
:10000000480C0010C1010000C9010000CB01000034
:1000100000000000000000000000000000000000E0
:10002000000000000000000000000000CD01000002
:100030000000000000000000CF0100008513000058
:10004000D3010000D3010000D3010000D301000060
:10005000D3010000D3010000D3010000D301000050
:10006000D3010000D3010000D3010000D301000040
:10007000D3010000D3010000D3010000650D000092
:10008000D3010000D3010000D3010000D301000020
:10009000D3010000D3010000D3010000D301000010
:1000A000210C0000D3010000D3010000D3010000A7
:1000B000550F0000E90E0000AD0E0000410E0000DB
:1000C00000F002F800F050F812A030C808382418E8
:1000D0002D18AC4201D100F047F80FCCA246AB4638
:1000E0000CA730CF2D1B083F3F197C427F1E544484
:1000F0002D090426F441641EAC4201D300F034F80B
:100100000126334200D0FB1A3343984754465D46DC
:10011000DFE70000284E0000484E00007047000056
:100120000023002400250026103A01D378C1FBD813
:10013000520700D330C100D50B60704710B5642959
:1001400002D100F065F910BD632902D100F090FCE6
:1001500010BD732902D100F093FC10BD002010BD2A
:100160001FB51FBD10B510BD00F0A2FC1146FFF772
:10017000F7FF03F08DF900F0BAFC03B4FFF7F2FFCC
:1001800003BC00F0C1FC000070B505460C461646E5
:1001900002E00FCC0FC5103E102EFAD2082E02D36B
:1001A00003CC03C5083E042E07D301CC01C5361F7E
:1001B00003E021782970641C6D1C761EF9D270BD95
:1001C0000748804707480047FEE7FEE7FEE7FEE7EF
:1001D000FEE7FEE704480549054A064B7047000064
:1001E00065140000C100000048050010480C001014
:1001F00048060010480600104343514330B55C18D0
:10020000010C130C0D4692B25D4380B251432C1980
:10021000054655430A0C09044D1962415843010C27
:1002200000044019514130BD0FB41CB5074B06AA5C
:100230007B4469460090059800F0F7FB0020694672
:1002400000F006FC1CBC08BC04B018471D080000E8
:1002500070B5044685690068C10601D5302600E006
:100260002026C00707D070BD62683046A16890475D
:10027000206A401C20626D1EF6D570BD70B5044624
:1002800085690078C00707D170BD6268A168202029
:100290009047206A401C20626D1EF6D570BD70B577
:1002A0000C460546012A05D02878800600D5EA6963
:1002B000002302E0012305E05B1C934202D2E05CD4
:1002C0000028F9D1A869E618C01AA861286AC018E0
:1002D00028622846FFF7BCFF04E06A682078A96816
:1002E000641C9047B442F8D32846FFF7C7FF70BD9F
:1002F000704770477047704700000000FFFFFFFF26
:10030000FEB5044610460D46184373D0A6468C46EB
:100310000020A41A01469D4167D3664600270124A8
:100320003D46B61A9D4102D313463A4621246546FE
:1003300076462F04360C3E432D0CB61A9D4104D34D
:10034000150C1B042B4312041034654676462F0609
:10035000360A3E432D0AB61A9D4104D3150E1B02E0
:100360002B4312020834654676462F0736093E4372
:100370002D09B61A9D4104D3150F1B012B43120101
:10038000241D65467646AF07B6083E43AD08B61A4B
:100390009D4104D3950F9B002B439200A41C6546FE
:1003A0007646EF0776083E436D08B61A9D411AD38C
:1003B00092185B41641C16E0001876466546494178
:1003C000B71A9D410191009009D36046B11A984136
:1003D0008E468446009801990025401C6941DD073E
:1003E00052082A435B08641EE6D57246634603B092
:1003F000F0BDFFE72046284307D00020C043014658
:10040000C046C04622462B46F1E700200146F7E7EA
:10041000F7B5002575291068009914A611D0C046BB
:10042000C046002802DA404211A608E00099096897
:100430008A0701D50FA602E0490704D50EA60125BB
:1004400001E0C046C046009F0024243704E000F0CD
:100450001BFB30313955641C0028F8D12B4632463D
:100460002146009800F084FAFEBD00000000000064
:100470002D0000002B00000020000000F3B5044612
:10048000002081B020622046E168884700287DD0A6
:10049000252802D06268A16883E0454F00257F448B
:1004A0002046E16888472028064608DB312E06D220
:1004B000B81920380078002801D00543F0E7A807D4
:1004C00001D5042085430020E0610746A0612A2E63
:1004D0000AD0304604F042FA002827D0B8000019AC
:1004E000303E0090866119E00298BA00121902C8E5
:1004F000916102902046E1688847012F064617D196
:10050000E06900281FDA202085431CE000980A21BA
:100510008069484300998019303888612046E16835
:100520008847064604F01AFA0028EFD1012F0AD0B6
:100530002E2E08D12046E168884706462020054334
:100540007F1C022FC3DBA069002803DA4042A061B0
:1005500001200543E80701D010208543002E24D058
:1005600030464138192803D80120C00205432036FF
:10057000204625603146029A1546FFF7DFFD002828
:100580000CD0012807D0ED1DE80800E00DE0C00008
:100590000830029077E72D1D029574E762683046B7
:1005A000A1689047206A401C6CE7206AFEBD0000ED
:1005B000C8440000034670B502460B439B070FD1A9
:1005C0000E4CE60100E008C208C91D1B9D433542E0
:1005D000F9D0D9B21170521C00290DD01B0AF8E7CE
:1005E0000B78491C1370521C002B05D00B78491C4A
:1005F0001370521C002BF3D170BD000001010101EA
:10060000002ACBB205D001788B4203D0401C521E89
:10061000F9D10020704700000346F0B50B439B075B
:100620002DD1244DEF01042A29D308C810C95E1B1F
:100630009E43121F3E4017D0D8B2E1B2401A310695
:10064000014310D198B2A1B2401A310401430AD13A
:1006500018022102000A090A401A3102014302D19C
:10066000180E210E401AF0BDA342DCD018BA21BAF0
:10067000884201D90120F0BD0020C043F0BD002A0E
:1006800001D10020F0BD03780C78401C491C002BE0
:100690000DD0A3420BD1521E09D003780C78401C18
:1006A000491C002B03D0A34201D1521EEBD1181BD1
:1006B000F0BD000001010101F8B5042A2CD3830725
:1006C00012D00B78491C0370401C521E83070BD0BC
:1006D0000B78491C0370401C521E830704D00B7812
:1006E000491C0370401C521E8B079B0F05D0C91A72
:1006F000DF002023DE1B08C90AE0FFF745FDF8BD37
:100700001D4608C9FD401C46B4402C4310C0121FB2
:10071000042AF5D2F308C91A521EF0D40B78491CEA
:100720000370401C521EEAD40B78491C0370401C15
:10073000012AE4D409780170F8BD01E004C0091F62
:100740000429FBD28B0701D50280801CC90700D089
:100750000270704700290BD0C30702D00270401C02
:10076000491E022904D3830702D50280801C891EFA
:10077000E3E70022EEE70022DFE70000024670B563
:100780000A4392072AD11E4DEE0104C808C9541B22
:100790009443344017D0D0B2D9B2401A2106014355
:1007A00010D190B299B2401A210401430AD110022B
:1007B0001902000A090A401A2102014302D1100E4F
:1007C000190E401A70BD9A42DFD010BA19BA884289
:1007D00001D9012070BD0020C04370BD02780B78A4
:1007E000401C491C002A09D09A4207D102780B7894
:1007F000401C491C002A01D09A42EFD0D01A70BD8B
:1008000001010101002203098B422CD3030A8B4210
:1008100011D300239C464EE003460B433CD40022F8
:1008200043088B4231D303098B421CD3030A8B420A
:1008300001D394463FE0C3098B4201D3CB01C01AD8
:10084000524183098B4201D38B01C01A52414309A3
:100850008B4201D34B01C01A524103098B4201D391
:100860000B01C01A5241C3088B4201D3CB00C01AFE
:10087000524183088B4201D38B00C01A5241430876
:100880008B4201D34B00C01A5241411A00D201469B
:100890005241104670475DE0CA0F00D04942031034
:1008A00000D3404253409C46002203098B422DD383
:1008B000030A8B4212D38901FC2212BA030A8B422B
:1008C0000CD3890192118B4208D3890192118B427A
:1008D00004D389013AD0921100E08909C3098B42FF
:1008E00001D3CB01C01A524183098B4201D38B0142
:1008F000C01A524143098B4201D34B01C01A5241E5
:1009000003098B4201D30B01C01A5241C3088B4229
:1009100001D3CB00C01A524183088B4201D38B0014
:10092000C01A5241D9D243088B4201D34B00C01A9E
:100930005241411A00D201465241104663465B10B3
:1009400001D34042002B00D54942704763465B10FB
:1009500000D3404201B50549002802DC491C08408B
:1009600000E00846C046C04602BD00BFFFFFFF7F53
:10097000FFB504460D4681B02430009021688806FA
:1009800004D51022E0699143216000E00120A842D3
:1009900001DD471B00E000270498A1697A191018AF
:1009A000081AA0612078C00602D42046FFF750FC48
:1009B000002608E003986268A168805D9047206A7D
:1009C000401C761C206204988642F3DB2078C00627
:1009D0000AD52046FFF73CFC06E06268A16830209B
:1009E0009047206A401C206238467F1E0028F4DCB5
:1009F00007E000986268A168405D9047206A401C4B
:100A0000206228466D1E0028F3DC2046FFF736FCE6
:100A10002078000602D5022005B0F0BD0120FBE7DA
:100A200001694A1C02610878704700B58FB00291D5
:100A300000210591054901937944039111460490E1
:100A40006846FFF71BFD0FB000BD0000E5FFFFFF8C
:100A50000A681070521C0A60704710B54369002B79
:100A600002D0C046C04601E0FFF719FC012010BDCE
:100A70001278014624310A7000224A700122ECE704
:100A800011680022D243E8E701468008081A0209EB
:100A90001018020A1018020C1018C0088200121850
:100AA0005200891A01E0401C0A390A29FBD270471A
:100AB000754600F025F8AE46050069465346C00865
:100AC000C000854618B020B5FFF784FB60BCB64671
:100AD00000260027C0C5C0C5C0C5C0C5C0C5C0C5AB
:100AE000C0C5C0C5403D490849008D46704710B596
:100AF0000446C046C0462046FFF73FFB10BD00003D
:100B0000004870477801001001491820ABBEFEE78D
:100B10002600020070B58C180578401C6B075B0F2F
:100B200001D10378401C2A1106D10278401C03E051
:100B30000678401C0E70491C5B1EF9D12B0705D4AA
:100B40000023521E0DD40B70491CFAE70378401C99
:100B5000CB1A921C03E01D780D70491C5B1C521EC1
:100B6000F9D5A142D8D3002070BD000070B504466D
:100B70001648016810229143016001204203144984
:100B80008B6813438B600022424B202A04D09D18AF
:100B90000026AE60121DF8E70E4A02239360D36070
:100BA00013615361536290621060D0620A4800681A
:100BB0000968FFF727FE2146FFF724FE0002FF2108
:100BC000C94340183249086070BDC04638820440AD
:100BD000788004406C4004405400001010B52C494B
:100BE0000A68FF239A430A60072800D900200122DF
:100BF000130682400C6814431C430C6082000B46B1
:100C00001033D0580028FCD5072212060B689343F6
:100C10000B60410001D5002010BD0004800D10BD07
:100C2000B0B51B48016B0A04120E12D0194A536862
:100C30005B1C5360024610320023082B1ED0090AA9
:100C4000D940C90701D0116800E00021121D5B1CCA
:100C5000F3E7CA031AD50F4A0832034610330024BB
:100C6000082C0BD00D46E540ED0703D01D682D0480
:100C7000AD0D1560121D1B1D641CF1E7072109064F
:100C800002688A430260034801210160B0BDC0468A
:100C900000C001402C020010F8B5664C0020A06096
:100CA00060600120850720262E6006202061084F05
:100CB0002069062809D12068401C2060B84202D271
:100CC00003F0EEFDF4E70B202061AE612069F8BD72
:100CD000FF0F000010B515490A68022313430B608B
:100CE000CA6F20231343CB673F21CB43104A1168BF
:100CF00019401160146801210C43146054681C40B1
:100D0000546053680B4353608A076C239361D2236A
:100D100053611361022801D1A020D060C803054BA4
:100D2000186040201060084610BDC0460480044092
:100D30003040044000E100E070B50124A507102018
:100D400028600820A861064E2868C00606D5002E37
:100D500003D003F0A5FD761EF6E70024204670BD03
:100D6000FE0F000010B5334900220A600120800701
:100D70004368DBB2083B0324E3410A2B22D8C04678
:100D80007B441B795B009F4412140720230E1D0532
:100D900005382E00042144E0CA68012A1CD1102223
:100DA000026007220FE01022026009220BE04A6075
:100DB00000E08A604A68531C4B602049895C81606E
:100DC000282130E00A220A612CE0FFF7B5FF10BDB0
:100DD0004A68CB689A4220D24A68531C4B60174934
:100DE000895C81601EE082688B685C1C8C60124CA0
:100DF000E2540C220A61102113E082688B685C1CAB
:100E00008C600D4CE2548A6849698A42014601D3DC
:100E10000146183104220A6004E04A69002A04D01D
:100E2000202101600821816110BD102202600C2286
:100E3000C9E7C046540200105C030010DC02001039
:100E4000B0B555480568164C2068000606D515480B
:100E50000121017003F064FB00BF00BF124801686C
:100E6000691A332919D3056021687D20C000024624
:100E70001832114206D02321494A0123535490616C
:100E800033490B702168890507D52321444A012382
:100E9000535490612E480221017020686060B0BDFB
:100EA000188000503C050010DC0300100C49086855
:100EB000394A1268131A0B48332B0DD30A600168A4
:100EC000890509D52321364A012353542049052396
:100ED0000B707D21C9009161016841607047C04677
:100EE000E00300101880015010B5174908682A4A1D
:100EF0001268131A1548332B22D30A607D21C900CA
:100F00000268120507D52322254B01249C549961C0
:100F10000F4A032313700A4618320368134207D09E
:100F200023221F4B01249C549961094A0423137006
:100F30000268920604D52322194B01249C5499611E
:100F40000168416010BDC046E403001018800250E3
:100F50004405001010B50F4908680F4A1268131AAB
:100F60000E48332B13D30A60016889060FD523215D
:100F70000B4A012353540B494B719377002494601F
:100F8000CC78CB7008490C707D21C9009161016853
:100F9000416010BDE8030010DC0100101880035010
:100FA000E00100107402001024050010B0B501F03B
:100FB00085FFC00005490C180025082D04D0605D90
:100FC00000F0C8F86D1CF8E7B0BDC046354C000015
:100FD000F8B50D460446104601F070FF0646E800DD
:100FE000C5B22046294600F0BDF9300122490E184D
:100FF0000027082F04D0F05D00F0ACF87F1CF8E764
:10100000601CC0B2294600F0ADF908360024082C57
:1010100004D0305D00F09EF8641CF8E7F8BDC046CF
:10102000F8B50D460446104601F048FF0646E800B4
:10103000C5B22046294600F095F930010E490E1838
:101040000027082F06D0F15DFF20484000F082F80D
:101050007F1CF6E7601CC0B2294600F083F9083611
:101060000024082C06D0315DFF20484000F072F8C3
:10107000641CF6E7F8BDC046A5490000B0B5C00045
:1010800005490C180025082D04D0605D00F062F8B9
:101090006D1CF8E7B0BDC046054E0000F8B51C4613
:1010A0001746C900CEB20090314600F05BF9380116
:1010B00022490F180025082D05D0785D604000F00A
:1010C00049F86D1CF7E70098401CC0B2314600F0AB
:1010D00049F908370025082D05D0785D604000F0FB
:1010E00039F86D1CF7E7F8BDF8B51C461746C9007E
:1010F000CEB20090314600F035F938010F490F1893
:101100000025082D07D0795D6140FF20484000F0A0
:1011100021F86D1CF5E70098401CC0B2314600F084
:1011200021F908370025082D07D0795D6140FF209F
:10113000484000F00FF86D1CF5E7F8BDC54D000004
:10114000E0B501A94870002008707820022201F063
:10115000C3FE8CBDE0B501A94870602008707820FE
:10116000022201F0B9FE8CBDF0B585B0039315469F
:101170000291019000220B98002801D0104600E057
:10118000D0430A9CC7B2D0B20399884213D20298C6
:1011900004921018C0B2019900F0E4F80026AE42A3
:1011A00006D220787840FFF7D5FF761C641CF6E75E
:1011B000049A521CE7E705B0F0BDB0B5A2B00446F2
:1011C0000025E8B2072813D8002100F0CBF801A8C9
:1011D000602101700120812803D001A90C54401C1A
:1011E000F9E7782001A9812201F076FE6D1CE8E77D
:1011F00022B0B0BD70B5AE20614EB047A820B04758
:101200003F20B047D320B04700242046B0474020BD
:10121000B047A120B047C820B047DA20B04712201D
:10122000B0478120B047FF20B047A420B047A62098
:10123000B047D520B0478020B047D920B0472520FF
:10124000B047DB20B04720252846B0472220B047D2
:101250002046B0470720B047B020B0471020B04725
:101260002046B0472846B0470220B0478D20B047FF
:101270001420B047AF20B0472046FFF79EFF70BD57
:1012800070B514460D4606462278002A06D0E9B20B
:101290003046FFF79DFE641C6D1CF5E770BD70B510
:1012A00014460D4606462278002A06D0E9B230469A
:1012B000FFF7B6FE641C6D1CF5E770BDF8B514466B
:1012C0000D4600901027002F0ED02678002E3246B3
:1012D00000D12022E9B20098FFF7A2FE002E00D034
:1012E000641C7F1E6D1CEEE7F8BDF8B514460D4674
:1012F00000901027002F0ED02678002E324600D105
:101300002022E9B20098FFF763FE002E00D0641C93
:101310007F1E6D1CEEE7F8BD10B51446C906090E18
:1013200000F020F82078002803D0FFF73FFE641C6F
:10133000F8E710BDB0B51C461546C906090E00F009
:1013400011F8200604D02846FFF798FE641EF8E73F
:10135000B0BD10B504468120FFF7F2FE2046FFF72E
:10136000EFFE10BDB0B50C46B0210843044DA847B0
:1013700020091030A8470F202040A847B0BDC04624
:101380004111000070B5324D2C888A492046FFF784
:1013900039FA002934D1A869022801D3401EA86176
:1013A0002E69002E0ED02B4840680A21FFF72AFA3A
:1013B0002A494969884203D227484079002801D048
:1013C000701E28612420285C002810D0A8682946B7
:1013D00008314A7F002801D0012A06D0E868002899
:1013E00005D0022A03D129460C31401E08602B206B
:1013F000012129542D20295C022901D3491E295499
:1014000017492046FFF7FEF9002902D12C200121BF
:1014100029540A212046FFF7F5F9002902D168680E
:10142000401C6860286A00280ED001204102F14863
:1014300002680A4302602A6A012A03D102688A43C9
:1014400002602A6A501E2862601C288070BDC04657
:10145000D80100101402001074020010FC030010E8
:10146000B80B0000B0B51248002282630121C163AD
:10147000C263C163C36BDB07FCD0232303600D4B46
:101480001C688025AC431C604368DB07FCD0032349
:101490008366C166C266C166C26ED207FCD00167B0
:1014A000054A826705480160054813210160B0BD07
:1014B00008800440388204405F00010098800440A6
:1014C00050810440FEB506AF6E4670603160480042
:1014D000B060C01D0721884369460C1AA546002547
:1014E000B068A84205D07068FFF778FB6053AD1C68
:1014F000F6E72046316802F009F8FE1F053EB546C2
:10150000F0BD0000F8B52A48FFF730FB294800F08D
:10151000C5F801F0F5FE23204401274FB86C201ACE
:1015200080B20B2670432146FFF76CF92349085C13
:101530003D46283528733875386D201A80B27043BF
:101540002146FFF75FF91D490818007B687378751D
:10155000B86D201A80B270432146FFF753F9174D3A
:101560002818007E38633861B86E201A80B2704344
:101570002146FFF747F9800011490858F863F861E0
:10158000386E201A80B270432146FFF73BF9800085
:101590002818406A2421924A01235354B863B86141
:1015A000FB647B65FB657B66FB6641439160F8BD30
:1015B000C0270900102700006C0200100000001076
:1015C000FC0000109C480178002901D00021017026
:1015D0007047C046F0B587B021212F4A525C04A95C
:1015E00000240C8105940494303AD1B20091234632
:1015F000039000998C424CD0E10027484618756A48
:10160000D9B2002D08D42B22039842545F1C002D20
:1016100028D00196029406E0019602942D220398A8
:1016200042545F1C6D420824002D0DD00A26284626
:101630003146FFF7F1F84643A91B3031641EE2B290
:1016400004AB99540546EFE70398019EE2B204A962
:101650008A5C002A04D0F9B242547F1C641CF5E76E
:10166000029C03E0F9B2302242549F1C24363179A7
:1016700000290BD0FAB22E21815433797F1C190630
:1016800004D0F9B2302242545B1EF7E73B46641C9B
:10169000AFE707B0F0BDC0462C010010064902229A
:1016A0000A600122012800D8104648610A600868D3
:1016B000C007FCD17047C0460480014070B55E4D44
:1016C0002878002806D020208F49085C2521444A2C
:1016D000505402E025204249085C01280AD1252106
:1016E0003F4A002050543F490A7808703E494A70EA
:1016F000FFF763FD3D4801793D4A11713D49096895
:1017000020220A40514251410171354E3069012871
:101710000AD100242046FFF750FD334800782146C7
:10172000224602F099FD34612E4C2078401E142888
:101730002AD8C04678440079400087440A2F1C3ECE
:1017400041251F3235474412221510383B4D4A0DB2
:10175000190000F0A1FF41E000F0CEFD3EE00220C4
:1017600003E001F0A3F939E0012001F075F935E05B
:1017700001F09CFA32E000F0DBFC2FE000F07AFE92
:101780002CE001F03DF929E02878002826D0164801
:10179000407800210A4602F05FFD1FE001F0A6FA42
:1017A0001CE000F0FBFF19E000F026F816E001F065
:1017B00031FA13E001F00CFA10E000F0BFFB0DE08D
:1017C00000F024FC0AE000F0BBF807E000F0E0F8CD
:1017D00004E000F053F801E001F044FA207870BD15
:1017E000E0010010700100100802001074020010E7
:1017F00094020010FC3F0250B0B50F480078042856
:1018000006D100200A21012202F026FDFFF7DAFEB0
:1018100000240AA220462146FFF750FD02200AA21A
:101820000C4D2146A84704200BA22146A8470620BC
:101830000DA22146A847B0BD440500104F42533ABF
:101840002046494C54524F004D5549544F20535552
:101850004A4F0000811200004445534142494C491F
:1018600054414E444F0000005245542E20504F52D8
:10187000205052455353C34F00000000F0B59FB0B5
:101880001BA802901BA11EA21E4CA0471E4F3A6926
:1018900017AE1EA13046A047FA6813AF1DA1384607
:1018A000A04703AC1E4D20460299A8471030314690
:1018B000A847204620303946A8472046303019A195
:1018C0002CC92CC0098801801A4800901AA0042154
:1018D0000123224600F066FAFF2804D0042807D12D
:1018E000002002F007FC0B2000210A4602F0B4FCA5
:1018F0001FB0F0BD46575F5645523A2573000000B1
:101900003330340029020000FC030010534E3A2506
:1019100064000000414444524553533A256300009B
:10192000B50500005245534554415220464C4153A1
:1019300048000000EC030010494E464F2000000014
:10194000E0B50B4800900BA006210E4A012300F0E1
:1019500029FA401CC0B2072809D8FD21C140C90797
:1019600005D009A1085C00210A4602F075FC8CBD77
:10197000ED0300104D454E55202020202020202032
:1019800020200000990000100A0C0C0D10111213F9
:10199000F0B585B0CD480078401E042814D8C04664
:1019A00078440079400087440202080D04001420A6
:1019B00004E000200721012202E00B2000210A465A
:1019C00002F04AFCFFF7FEFDC14EF078717801434A
:1019D0000AD035790024BF4A20462146FFF750FC43
:1019E000002D1DD0BEA21CE00024BA4A204621468C
:1019F000FFF746FC0220DFA22146FFF741FC04204E
:101A0000E0A22146FFF75AFC0620E2A22146FFF79A
:101A100055FCE120000131694143B548816053E143
:101A2000ADA209212046FFF73AFCF578681E8541F2
:101A3000AD4840680A21FEF7E5FEAC4F796988425F
:101A400000D30124254072792A4367D0A8488468CE
:101A5000049403260021304601960A460B46FFF700
:101A60001DFBE12001012046FEF7CCFE0290C2B230
:101A7000A04CA149A14B204698470227A04D3846CB
:101A800039462246A847042103919EA29E4B304628
:101A9000984705219D4A3846A8473C250498294681
:101AA000FEF7B0FE0090C42202994A43884E1118F6
:101AB000CAB220469049914B9847062138462246A3
:101AC0008F4B98470821924A019C20468E4B98479D
:101AD000092138468D4A8A4B984700984543049817
:101AE000421B844D28468449844B98470A21384636
:101AF000854F2A46824B98470C21864A2046B84794
:101B00000121854A0398B84730694B2835D03228DF
:101B100030D0192837D1774884A130E032692423A6
:101B20005343734A9360884253D2022400250C2207
:101B3000102320462946FFF7FDFB032080A2724BAD
:101B400029469847042683A2304629466E4B98477B
:101B50007969684F38462A46234601F025F90A215B
:101B600030463A46684CA0470D217D4A3046584ED3
:101B7000A0472EE05F486BA101E05E4867A1052207
:101B8000FEF79AFD0DE06421FEF73CFE0146594840
:101B90000022022301F008F904200E2165A2FFF7BC
:101BA000BBFB04240C21534A2046B84703250121DE
:101BB000614A2846B8470D21604A2846B84731692E
:101BC000242048434A498968411A0222234600F0EA
:101BD0002DFD7078002866D00625012700212846B3
:101BE0003A460B46FFF75AFA3F480169414C2046F6
:101BF0003A463B4601F0D8F805263046394622469B
:101C0000FFF73EFB4D4A404C30463146A047544A10
:101C100028463146A047092752A230463946A047F8
:101C200051A228463946304FA04738784F4D0028FA
:101C30002A4607D07968012202232E4C204601F063
:101C4000B3F8224605200C21FFF766FB78780028C0
:101C50001F4E06D0B968274D01220223284601F005
:101C6000A3F806200C2421462A46FFF755FB70698D
:101C700064252946FEF7C6FD01461E4801220226BC
:101C8000334601F091F8072738462146194AFFF7F5
:101C900043FB1548016969430D48406932463B469C
:101CA00000F0C4FC10E0F07800280DD0B0780028D7
:101CB0000AD0062400212E4A2046FFF7E1FA0C2123
:101CC0002A4A2046FFF7EBFA05B0F0BD44050010A4
:101CD000740200108A4E0000204C4F43414C2000FB
:101CE0002052454D4F544F0014020010FC030010C9
:101CF000E0010010EE030010064F00002902000072
:101D0000811200004800000019130000BE4E0000C0
:101D1000D84E0000184F0000954E0000303A343580
:101D200000000000303A333000000000303A313516
:101D30000000000048520000924E0000814E00005A
:101D400054454D504F204F4646202D20534E533181
:101D5000000000004D454E4F5220515545200000D7
:101D6000FD4E000053312D0053322D00F04E000087
:101D7000F54E00004445534142494C4954414441C9
:101D8000000000004D4F444F2054454D504F202D32
:101D90004F4646004D4F444F2050524553532E2D31
:101DA0004F464600F0B587B00F4603460C9C257899
:101DB000681EC0B2884200D301255C480078401EEE
:101DC00003281AD87844007940008744010F080B93
:101DD0000492EEB2012E059313D06E1E11E0FFF7B0
:101DE000F1FB9FE0FFF7EEFBFF259BE00492E8B2DA
:101DF000B842059304D12E4603E004922E4603E038
:101E00006E1CFFF7DFFB059B78080290267000250B
:101E1000474C284629461A46A0470397F1B2059138
:101E200006AC012620462A46334600F0BDFF0D21B0
:101E3000284622463E4FB8470E213EA22846B847C4
:101E4000204603992A463346059E00F0ADFF0F2138
:101E500028462246B847711E88B2C00B0391081865
:101E60004410022E06D8022000210B221023FFF777
:101E700061FA15E00194022400210C220092072748
:101E800020463B462C4EB0470922012320463946C6
:101E9000294FB84708212046019C009A0B46B847B5
:101EA000601CC0B20299814206D1072000210B229A
:101EB0001023FFF73FFA14E000210C2202920726BC
:101EC0001D4C30463346A047082701233046314693
:101ED0003A46194CA04730463946029A3B46164CC2
:101EE000A047049C059EF0070FD130012218203A2C
:101EF000032000252946FFF7F8F90398000122186E
:101F000005202946FFF7DAF90CE0039800012218B2
:101F100003202946FFF7D2F930012218052029466F
:101F2000FFF7E3F9E8B207B0F0BDC0464405001082
:101F3000811200002D00000035130000F0B585B0BF
:101F40002B480078042806D100200A21012202F043
:101F500083F9FFF737FB0024264A20462146FFF786
:101F6000ADF90220244A2146FFF78AF9042603210D
:101F700003910127304600963A462346FFF78EF834
:101F8000072502951DA21E4B284621461C46984750
:101F90000D2101911BA22846A04708255E4A304624
:101FA0002946A04723460524174A20462946984734
:101FB0009748406964252946FEF724FC014604AE93
:101FC00030463A463B4600F0EFFE00982146324646
:101FD000FFF765F98E4840692946FEF713FC014674
:101FE0000198039A029B00F021FB05B0F0BDC046AA
:101FF00044050010C84E0000F54E0000302E32009F
:1020000019130000312E3300FD4E0000F0B585B0ED
:102010003D480078042806D100200A21012202F060
:102020001BF9FFF7CFFA0020384A0146FFF746F9BF
:10203000374840783749072504220028019211D0FB
:1020400003200921354AFFF71BF905200C21012245
:1020500000230390FFF722F82F48049030480290A5
:10206000062203E02C4802900395049106270824D9
:102070000126384621463346FFF75CF928462146BB
:10208000039A3346FFF756F9092438462146029A47
:10209000FFF742F928462146049AFFF73DF91C480C
:1020A000C078002811D0032000241FA22146FFF78A
:1020B000E7F805200221039022462346FEF7EEFFB3
:1020C00015480490164C3A4604E016A411480490B2
:1020D0000395019A062707250126384629463346E7
:1020E000FFF728F928462946039A3346FFF722F9D5
:1020F000052138462246FFF70FF904212846049AA5
:10210000FFF70AF905B0F0BD44050010C84E000005
:1021100074020010C44E0000814E0000F54E000015
:10212000DE4E00002020000054454D504F000000BE
:10213000F0B585B02E480078042806D100200A2189
:10214000012202F089F8FFF73DFA0027294A3846B4
:102150003946FFF7B3F8022027A23946FFF790F877
:1021600004200321019003913A463B46FEF796FF77
:102170000724244A244D20463946A8470E2123A28D
:1021800002942046A847224804690620604380B292
:102190000A21FEF737FB0546642620463146FEF746
:1021A00031FB0146632C00D8294604AD28463A4647
:1021B000039F3B4600F0F8FD632C01D8164A00E06F
:1021C00014A20524092120460F4B98470198214667
:1021D0002A46FFF764F80E4800693146FEF712FB05
:1021E000014630203A46029B00F020FA05B0F0BDCF
:1021F00044050010C84E0000504F522054454D5029
:102200004F000000C44E00001913000034380000D5
:102210007402001048525300DA4E0000F0B585B049
:10222000154606460C68F0480078401E032817D86B
:10223000784400794000874401070A0FFC202040C1
:10224000642804D2641C02E0200600D0FF3401930D
:102250000291FFF7B7F905E0FFF7B4F9FF2647E071
:1022600001930291E4B2002C0095039409D006205A
:10227000072108220123FFF75DF8642C0AD30C2202
:1022800009E03446062007210C220123FFF752F80B
:10229000092201E009223446032707210123384699
:1022A000FFF748F80026E04B304631462246984773
:1022B00002240B22102320463146FFF73BF804ADE1
:1022C0002846039932463B4600F06EFD0427384607
:1022D0002146009AD44CA047062138462A46FEF7EC
:1022E000DEFF0A213846019AA0470298039901604F
:1022F000304605B0F0BDC046F0B5B5B0374D2A7BCD
:102300006B7B31A8039036A1394CA047AA682DA851
:10231000049038A1A0472E69642730463946FEF75D
:1023200071FA04464743F01B0621414388B20A2153
:10233000FEF768FA034629A8029032A122462C4EE5
:10234000B0477D20C4006F6938462146FEF75AFA2F
:10235000024644433B1B25AC2FA12046B04732A088
:1023600005AF39460CC80CC10078087038461030EB
:10237000304D0399A847384620302FA14CC94CC096
:10238000384630300499A847384640302DA10CC952
:102390000CC00A88028089788170384650300299D2
:1023A000A847384660302AA14CC94CC00978017052
:1023B000384670302146A8472948009029A00821B6
:1023C00001233A46FFF7EEFCFF2804D10A20002142
:1023D0000A4601F041FF35B0F0BDC046740200105E
:1023E000253032644D494E3A25303264534543001E
:1023F0002902000046494C54524F533A2564534534
:102400004300000025303264485253203A202530E2
:1024100032644D494E000000253031642E253031A4
:10242000644241520000000044555241C7C34F3A34
:1024300000000000B505000054454D504F20454EAA
:10244000545245004D4F444F2054454D504F0000CD
:102450004D4F444F205052455353C34F000000008E
:10246000F3030010505245534554533A2020202086
:1024700020200000F8B55C480078411E032915D3E0
:10248000052807D0042813D100200A21012201F0D9
:10249000E3FE0BE0554841688068081A5449C8615A
:1024A0006F2000020122120202F002FAFFF78AF8FE
:1024B000002403254FA220462946FEF72DFF0120C8
:1024C0004FA22146FEF7DCFE4EA228462146FEF72B
:1024D000D7FE464E3078032811D84B4A784400790D
:1024E000400087440108050701200221494A16E0FF
:1024F000474A00E0454A01200221FEF7C1FE71680B
:10250000454D012402232846224600F04DFC0921B6
:1025100020462A46FEF7B4FE0D21404A2046FEF72B
:10252000AFFE7078032812D8374AC0467844007945
:10253000400087440108050703200221354A16E0C0
:10254000334A00E0314A03200221FEF799FEB168C8
:10255000314C01220223204600F026FC03250921EC
:1025600028462246FEF78CFE0D212C4A2846FEF70F
:1025700087FE05270021009129A22B4B384698475A
:1025800031690A267143244D0224284622462346F7
:1025900000F00AFC384639462A46234B98471F4A22
:1025A00038463146204B9847704F78693146FEF7E0
:1025B00029F9014601232846224600F0F5FB0726AB
:1025C000714A30460099FEF7A7FE0C2130462A4694
:1025D000FEF7A2FE0548006964214143786922465E
:1025E000334600F023F8F8BD440500101402001033
:1025F000FC0300102D53454E534F5245532D000000
:10260000312D0000322D0000B04E0000A84E000019
:10261000B84E0000E14E0000F4030010FD4E000033
:102620004449462E3A00000081120000F8B500939C
:1026300015460A460146824200D30A460A246243EE
:102640001046FEF7DFF80646C7B203220098294677
:102650003B46FEF76FFE092F1DD8002F06D07019DC
:10266000C1B2A01BC3B20222009C0AE000220123D7
:10267000009C20462946FEF75DFE681CC1B202227E
:1026800009232046FEF756FE0935E9B2012220460D
:102690001346FEF74FFEF8BDF0B587B0324800781C
:1026A000042806D100200A21012201F0D5FDFEF701
:1026B00089FF2E48417B0591047B00252CA22846EA
:1026C0002946FEF7FBFD02202BA204902946FEF7C7
:1026D000D7FD07262C4A2D4F30462946B8470E21F4
:1026E0002BA203963046B8470427012138462A46D4
:1026F0002B46FEF7D3FC05983C2800D1641CE1B2C0
:1027000006AE304602912A46049B00F04DFB0321A1
:10271000384601913246FEF7C2FD05241D4A204687
:1027200021461A4B98470821B24A3846FEF7A8FDC1
:1027300005983C28294600D0014630462A46049B8D
:1027400000F032FB092138463246FEF7A8FD0B2186
:10275000114A20460D4B984710200299019A039B7D
:10276000FFF764FF07B0F0BD4405001074020010CD
:1027700044555241C7C34F00444120524554524F23
:102780004C41564147454D00944E0000191300003E
:1027900031360000DA4E0000C04E0000F0B587B0C0
:1027A000022000257B4A2946FEF7B6FD7B4E2C46CB
:1027B000082C6BD078480068E040C107641C307B6F
:1027C000002914D0844224D13168002921D0E9B2F3
:1027D00003270222002638463346FEF75FFC01221B
:1027E00028461043C1B2384633466C4E26E0844238
:1027F0004AD2E9B20220032600233246FEF74EFCFD
:1028000001202843C1B23046644E68A2FEF738FD6D
:102810003AE001272F43844213D17168002910D078
:10282000E9B203260020039030463246039BFEF7B0
:1028300035FCF9B201223046584E039BFEF72EFCC0
:1028400022E08442E9B210D203263046544AFEF711
:1028500017FDFFB23046394652A2FEF75DFD042057
:10286000394651A2FEF758FD0DE0032600200390E3
:1028700030463246039BFEF711FCF9B23046039A0C
:102880001346FEF70BFC454EAD1C91E7707F012807
:1028900019D002282ED1002045A20146FEF7F0FCF7
:1028A000484885683C2428462146FDF7ABFF024690
:1028B00044432B1B766805A84349FDF7B5FC0195F9
:1028C000A81B00901DE0002040A20146FEF7D8FCA6
:1028D0003C48027B3C215143437BC8183668811B2E
:1028E0003C2B0190009108D1521C05A83BA1FDF79B
:1028F0009BFC06E00024039411E005A83249FDF793
:1029000093FC07200B2105AAFEF706FD3C24304668
:102910002146FDF777FF4443311B0391C4B20525DF
:1029200003210022029228461346FEF7B7FB04AFAC
:102930002C4938462246FDF777FC2B4B2846294682
:102940003A46984706260724284A30462146284B0F
:1029500098470821274A2846234B9847384621495B
:10296000039AFDF761FC092128463A461E4B984719
:102970000B21214A30461E4DA847204A2046029985
:10298000A8470122019800992346FFF74FFE07B0A0
:10299000F0BDC046974E0000FC030010E00100109F
:1029A000924E00004F0000004B0000002E0000007F
:1029B000494E54455256414C4F3A20202020202069
:1029C0000000000074020010014F000052455452F4
:1029D0004F4C4156414E444F3A000000253032647E
:1029E0003A303000064F000081120000D84E00003F
:1029F00019130000BE4E0000184F0000954E000055
:102A0000BCB51048009010A00221124A01242346B0
:102A1000FFF7C8F9012807D0FF2803D002280FD1FB
:102A20000F2502E00B2506E00E256F200002220292
:102A3000984901F05DF9002128460A4601F00CFC96
:102A4000BCBDC046F803001053454E534F5245538A
:102A5000000000005800001080B5022805D00128B1
:102A60000CD10D48011D10A002E00B4908310BA04C
:102A70000B4A0C4BFFF7D2FBFF280BD16F20000253
:102A800001210A02044901F013FF0D2000210A462A
:102A900001F0E2FB80BDC046FC030010414E320055
:102AA000854E0000FD4E0000414E3100FEB500276E
:102AB00041A238463946FEF7E3FB02200B221023E1
:102AC000019039460092FEF735FC03203E4A029001
:102AD0003946FEF7D5FBA8480078401E03282FD8BA
:102AE0007844007940008744012007133748017873
:102AF000491E0A061ED121E034480078411E0120FB
:102B0000884064490A68104216D08243104614E097
:102B10006F20000201210A025E4901F0C9FE0B206C
:102B200000210A4601F098FB08E0284801780829AE
:102B300004D0491C017001E010430860FEF742FD1B
:102B40003C46082C37D001203D4605430246A240B2
:102B50005049096811401D4A1278521E944208D10A
:102B6000002912D0E9B2052001220023FEF7BCFAA9
:102B700011E00029029A00D00246E9B205200023A4
:102B8000FEF78CFA0C26029A07E0E9B20520032230
:102B90000023FEF783FA019A009EF9B20520002374
:102BA000FEF77CFAE9B2072001233246FEF7C2FBAA
:102BB000BF1C641CC5E7FEBD46494C54524F532010
:102BC000484142494C495400974E0000980000107B
:102BD00080B50B4918310BA0334A724BFFF71EFB2F
:102BE000FF2800D080BD6F20000201210A020449A5
:102BF00001F05EFE0B2000210A4601F02DFB80BD96
:102C0000FC03001054454D504F20502E2041544994
:102C10005641520080B50B4914310BA00EA2104B47
:102C2000FFF7FCFAFF2800D080BD6F2000020121D1
:102C30000A02044901F03CFE0B2000210A4601F083
:102C40000BFB80BDFC0300105052455353C34F2073
:102C50004D494E2E00000000534E5331000000003D
:102C6000FD4E000080B50B4920310BA00E4A4D4BA4
:102C7000FFF7D4FAFF2800D080BD6F2000020121A9
:102C80000A02044901F014FE0B2000210A4601F05B
:102C9000E3FA80BDFC03001054454D504F204445DD
:102CA0002054454C41000000804E0000E0B500205B
:102CB0000190094800901E20012118220323FEF7ED
:102CC00053FA0220082105A2FEF7DAFA05200421B2
:102CD00003A2FEF7D5FA8CBD7D4D000033563300BC
:102CE000524946204657303034000000FEB5224895
:102CF0000078042806D100200A21012201F0ACFA54
:102D0000FEF760FC1D48007A019000261CA23046A8
:102D10003146FEF7D3FA02201DA23146FEF7B0FA83
:102D2000072400941CA21D4D20463146A8470D21C2
:102D30001BA22046A84704240327204639463246D2
:102D40003346FEF7ABF902AD2846019932463B46C1
:102D500000F02AF80526204631462A46FEF79FFA5B
:102D60000821104A30460D4B9847782001993A4681
:102D7000009BFFF75BFCFEBD4405001074020010D1
:102D8000494E54455256414C4F20454E54524500F1
:102D900046494C54524F5300303030001913000054
:102DA00031323000C04E0000F0B58BB015460E46F3
:102DB0000446002903D52D2020707642641C04931C
:102DC000042D284600D304200290800036A10F581D
:102DD00030463946FDF716FD0597B742039004D9F2
:102DE00008A830210170012714E000960195002702
:102DF000054601280CDB0A2628463146FDF702FD70
:102E00004643A91B30220A4308A9CA557F1CEFE795
:102E1000019D009E05980399484305900498B84287
:102E200007D9C01B012804DB30212170641C401E1F
:102E3000F8E70598361A012F05DB7F1E08A8385CD5
:102E40002070641CF7E7002D29D02E202070002E62
:102E500010D00027012E11DB0A2530462946FDF748
:102E6000D1FC4543711B30220A4306A9CA557F1C79
:102E70000646EFE706A8302101700127641C02987E
:102E8000C01B002809DD30212170641C401EF8E7BA
:102E90007F1E06A8385C2070641C012FF8DA002021
:102EA00020700BB0F0BDC046010000000A00000019
:102EB00064000000E80300001027000010B5014680
:102EC000044C2A222046FDF79BFB002800D0001B63
:102ED00010BDC0467B490000B0B500240C4B802CCF
:102EE00003D000251D55641CF9E7541C094DEC6006
:102EF00000246C611870E0B2904205D2C0180D78C1
:102F00004570641C491CF6E7FDF7C6FEB0BDC0461F
:102F1000DC0200105402001010B500F0F1FE04466F
:102F200001F016FC204303D07D208000A149886178
:102F300010BDC04610B59F48417F022907D0012926
:102F400008D10168002906D001F066FC10BD416877
:102F500000290DD010BD0221417791498A680B7B71
:102F60003C245C43497B611806C001F02FFC10BD76
:102F700001214177017B491C017310BDB0B50120CF
:102F8000FDF7A8FEFEF736F9FF20FEF7E2F9002470
:102F90002046FEF712F90A2528462146224601F06E
:102FA0005BF91148006A2521824A505415200522F8
:102FB000294601F051F9B0BD10B56F200002012182
:102FC0000A02094C214600F093FE6068401C05D0BF
:102FD000A068401C02D02068401C02D1012001F0F2
:102FE00089F801F01FF810BDFC030010F0B588B09F
:102FF000894D2868102101432960614E30684021C5
:1030000004910843306001214A020792814F3868D9
:10301000104338600B020C46039106937F4A1068F8
:10302000984310603068042105918843306010682F
:103030005449084010603068534B18403060306885
:1030400008403060E0023C6884433C6038681840C7
:1030500038602020C1432B680B402B603B680B403D
:103060003B6003235D02019574682C4374605468CF
:10307000079D2C4354609B0200937C681C437C603A
:10308000654D6C680443034602906C60B4683F4829
:103090000440B46094683B4804409460BC683C4879
:1030A0000440BC60AC680C40AC60F4683748044035
:1030B000F460D46833480440D460FC683448044069
:1030C000FC60EC680C40EC603069019908433061A9
:1030D00010690799084310613869009908433861FD
:1030E000286918432861FF2318062A4A1468844374
:1030F00003998807241814601C041568A5438C05DF
:103100002C1914601B0214689C438B03E318136092
:103110001368049C2343BF24A3431360CA071E4BB8
:103120001A60186048071860080718601B48006894
:10313000059908404142414119484170194A1268B5
:10314000069B1A4055425541C570354A1468164AC7
:10315000D66808231E43D660144E00273770144EDD
:10316000F5707170E549CF844771877002990C4002
:1031700061426141017110681843106008B0F0BDF0
:1031800000800050FFFDFFFFFFFBFFFFFFF9FFFF87
:10319000FFF3FFFF1CE400E000E100E0FC3F005013
:1031A00074020010FC3F0150204004404405001010
:1031B00094020010E001001070B516480268012169
:1031C0000A4302600268402313430360124A1468F2
:1031D00008231C431460114C256820262E432660CA
:1031E000146804252543156004681C4304601368B3
:1031F00002241C43146013680B4313600C02016823
:103200002143016001F0E2FA05480168A143016031
:1032100070BDC04600800250008003500080015005
:10322000FC3F0250B0B50D4C20680D4D2840206089
:10323000194800680B49FDF7E5FA401E010E0BD155
:1032400009494860206828400322920780182060BE
:103250000020886007200860B0BDC04620ED00E077
:10326000FFFFFF00DE26000010E000E080B5012037
:10327000800208490A6802430A6007480068074953
:10328000FDF7C0FA0649C860FF20086004204861C5
:1032900080BDC046808004405400001040420F00B2
:1032A000008001400120C1030F4AD36D0B43D36559
:1032B0003F2111600D490A6840239A430A600C4A75
:1032C0000021116050605368DB07FCD09060094812
:1032D000016009480949416003210160AA21816018
:1032E000552181607047C0462480044038820440E4
:1032F000D08004404005001000400040FEFFFF0069
:10330000F0B589B00020052108915D4C0790A047D9
:1033100025465C4C6060022004273946A8472E46AB
:1033200061684843642148430D465749FDF76AFAEE
:10333000A06403203946B0476168484368432E467D
:103340005149FDF75FFA20650120009039464C4D48
:10335000A8476168484370434B49FDF753FAA0659D
:1033600008983946A847616848437043354646493E
:10337000FDF748FA206638463946414A90474349A6
:103380000F682246A66C0E608B680193246D8C60DA
:103390000B690393936D02930B618B690593136E15
:1033A00004938B615168484368433749FDF72AFA13
:1033B00006903449886665210A467A432B46009D6B
:1033C00008935E4396422B4600D8079B63225743DF
:1033D000BE422E46079F00D33E461E43294BDE6465
:1033E0000B46019E7343089844439C422B4600D8E9
:1033F0003B465643B4422C46049E00D33C461C43F5
:10340000204B5C6501910B46039C63433946029F48
:103410000898474338469F420F462B4600D83B4604
:103420005443A0422C4600D33C461C43154BDC655C
:1034300001990B46059C6343089846439E422B46E0
:1034400000D83B465443A6422C4600D33C461C437E
:103450000C4B5C660D4C236A069E26625943089805
:10346000704304468842284600D838465A4394425E
:1034700000D33D4605430348C56609B0F0BDC046CC
:10348000C51400006C020010262E0100FC04001080
:10349000FFF792FDFFF7EAFEFFF7A8FDFFF7C2FE78
:1034A000FEF730F8FFF788FE00F0CAFFFFF766FD71
:1034B000FFF7F8FE0F4801680F4A11600F4C002516
:1034C00025770F494D608D600E490D700E490D70C6
:1034D00005602326A05D002803D0FEF7EFF8A55570
:1034E00005E000F05FFAFFF717FD00F02FFE01F096
:1034F000D7F9EEE73080044028050010E001001005
:10350000140200102C0500103405001010B50246FE
:1035100000200B46002B04D014880019921C5B1E5F
:10352000F8E7FDF76FF980B210BD024601200346AF
:103530008B4202DC50435B1CFAE770477FB5417950
:10354000212912D100793138082800D9E8E1C04694
:103550007844007940008744047C70765A848779E7
:103560008C000D480369C27876E05F2900D089E0BD
:1035700001793139082900D9D2E149007944898893
:1035800049008F440B003701B800EF008100720141
:103590008B011B01A601C04674020010017A5F294D
:1035A00000D0BDE1417B212900D0B9E1417A303919
:1035B000092900D9B4E1817A3039092900D9AFE16C
:1035C000D94900234B62C4798B62313C624262412B
:1035D0004A627D24E400457A6543E24C2C198C62F2
:1035E000847A64266643AC19DF4D64198C62C57A0F
:1035F0000A266E433419CD4D64198C62007BD14D7F
:103600002B610319303B8B6201A8DCA12AE101A8E0
:103610002B210170C448006801221146092A2ED0CE
:10362000531E0446DC40E40705D030242243CCB2CC
:1036300001AD2A55491C9A1CF0E7D448437B027B14
:1036400001A8D3A10AE0D148826814E0B6484269D3
:103650000CE0CE484369427801A8D149FCF7E4FD6B
:103660000DE0B148426801E0AF48826801A8B14965
:1036700003E0AD48826901A8AD49FCF7D5FD01A87A
:1036800000F0FCFF01204CE1417A21291CD1817915
:103690000A46303A092A17D8C2791346303B092B1B
:1036A00012D8007A0346303B092B0DD80A23534326
:1036B00064224A43D11808189F49401880B2FF2855
:1036C00000D92DE19849086001A82B210170964886
:1036D000006801221146092A00D116E1531E044652
:1036E000DC40E40705D030242243CCB201AD2A559A
:1036F000491C9A1CEFE7017A5F2900D010E1C17ADA
:10370000212900D00CE1417A3039092900D907E19B
:10371000817A3039092900D902E1817930390929C2
:1037200000D9FDE0C1793039092900D9F8E07E4996
:1037300000234B638B6382790A2462437B4D5219C9
:103740004A63C679B218303A4A63467A66437419B6
:103750008C63807A7B4DAB810319303B8B6301A86E
:103760007CA17FE0417A212900D0D9E081793039EC
:10377000092900D9D4E0C1793039092900D9CFE02D
:10378000017A3039092900D9CAE067490022CA63A1
:10379000837964245C43694BE318CB63C3790A25BE
:1037A0005D436319664C1B19CB63007A654CA260BC
:1037B000C218303ACA6301A863A1A4E0017A2129A2
:1037C00000D0ADE081793039092900D9A8E0C1796C
:1037D0003039092900D9A3E0534900224A6182798E
:1037E0000A235343514A9A184A61C0798218303AE1
:1037F0004A616BE0017A5F2900D091E0417B212989
:1038000000D08DE0417A3039092900D988E0817AE9
:103810003039092900D983E043490023CB62C479B8
:103820000B63313C62426241CA627D24E400457A06
:1038300065434C4C2C190C63847A64266643AC199E
:10384000494D64190C63C57A0A266E433419374D05
:1038500064190C63007B3B4D6B610319303B0B63B8
:1038600001A842A1FCF7E0FC4FE0017A212957D1E1
:1038700081793039092953D8C179303909294FD88C
:10388000294900224A6082790A235343274A9A1819
:103890004A60C0798218303A4A6017E0017A2129DB
:1038A0003ED18179303909293AD8C179303909298D
:1038B00036D81D4900228A6082790A2353431B4A65
:1038C0009A188A60C0798218303A8A6001A819492A
:1038D00019E0017A212923D18179303909291FD8AA
:1038E000C179303909291BD80F4900228A618279B0
:1038F0000A2353430D4A9A188A61C0798218303AD4
:103900008A6101A80A49FCF78FFC01A800F0B6FE05
:103910006F20000201210A02034900F0C9FFB1E64D
:10392000002004B070BDC046FC03001020FEFFFF65
:10393000244F0000324F000030EB000040EDFFFF4D
:1039400060EBFFFF940200102B2530336473656336
:10395000000000002B253032646D2B25303264735B
:10396000000000008044FFFFC031FFFF2B253032F4
:10397000642B2530326468686D6D00002B25642B44
:103980002530346468686866000000007402001026
:103990002B25646D696E2B25647365630000000040
:1039A0002B4F00007CB5464D2878032819D00228FB
:1039B00004D0012827D100F067FB55E0288A410890
:1039C000EC2922D83F4E0096721C331D002403219F
:1039D000204600F0C3F87078002850D02871706835
:1039E0003AE0688A4108EC2920D8384C0094621CDF
:1039F000231D0220072100F0B1F8607800284ED086
:103A0000687160682FE0012030E0ED2149009E31AF
:103A100088421CD90A2141432B4809184E48406866
:103A200048434F214901FCF7EDFE13E0ED21490029
:103A30009E31884212D90A21414323480918464839
:103A4000806848434F214901FCF7DCFE09E01D492D
:103A50000020487003212971A86005E01949002061
:103A6000487003216971E8602878401C28703A4842
:103A7000C069A968EA681018081A68617CBD3348F3
:103A80004078002803D07D20C000324988617470DE
:103A90002C718A4801780029E6D10470E4E72B48AC
:103AA0004078002803D07D20C0002A49886100208A
:103AB0006070687181490A78002AD5D10870D3E70F
:103AC000100200102C05001050E7FFFF3405001015
:103AD0001D480169012921DB64224A431B494B69C6
:103AE0009A421BD30278002A18D04278002A15D0B7
:103AF0004268002A12D0806800280FD00120487147
:103B000013490A78002A04D101220A70114A9268E6
:103B10004A801049897F00290ED070470C490878E7
:103B20000028FAD0094A002050710870D278002A83
:103B300006D04988002001E0FB498969F94A916073
:103B4000F84988777047C0461402001074020010CC
:103B50000A020010E0010010FC030010F0B58BB069
:103B60000E4607460020109C202804D003A90025FB
:103B70000D54401CF8E72078002849D0012832D0A5
:103B800002285ED1019302924C48002505704CA09A
:103B90003946324600F0FAFC03A84B4B3946324610
:103BA00000F0CCF94549087800282FD12E4603A80B
:103BB000017831294BD140782B2848D103A80179CD
:103BC000C378019A15688778427941480D2A41D116
:103BD00064227A433D4FED19AA1882180A255D43E5
:103BE0005319153348E03548002505703EA0394685
:103BF000324600F0CBFC03A8334B3946324600F086
:103C00009DF92E490878002853D025700D7053E097
:103C1000029236A03946324600F0B8FC03AD2A4B7A
:103C200028463946324600F089F9287B502840D191
:103C3000687B44283DD103A8C07B412803D00220E3
:103C400002E0002037E001200299087031E002987C
:103C500006702EE0642058437D23DB007B43EB1885
:103C60001A4D5B1918180A234B431949C9184018F3
:103C70001849431816481146C9183039019D296062
:103C80000818154A90420AD802980078012808D1ED
:103C900019204843134940187D21C90006E02E60D1
:103CA00007E04B2048430D4940180D49FCF7AAFD99
:103CB00028602078401C20700BB0F0BD3C0500103F
:103CC0003F44302100000000C0D4010040EDFFFF60
:103CD0000BFEFFFF9544FFFF9E0F0000846DFFFF6A
:103CE000102700002CCFFFFF3F4D21003F4921004E
:103CF0009208002A03D008C808C1521EF9E770478D
:103D0000FEB52425874F785D002803D0FFF7F8FA29
:103D100000207855387F0024002800D0FFE001956E
:103D2000F24E307B002818D001207070D448416AD0
:103D30000291054628352CCD2746446B3146866BCB
:103D4000C06B0C753C46774F4E750E4608618A6114
:103D5000CD614B720298C87299E0232045017078BA
:103D6000012808D10120F0667066F0657065F06486
:103D70000020707002E0F06C00280AD0B06C281AA5
:103D800081B20B2048432946FCF73CFD6749085C9B
:103D90003075706D00280BD0306D281A81B20B2061
:103DA00048432946FCF72EFD60490818007B7075D2
:103DB000F06D00280BD0B06D281A81B20B2048435B
:103DC0002946FCF71FFD59490818007E3061706EC6
:103DD00000280CD0306E281A81B20B2048432946A7
:103DE000FCF710FD800051490818406AB061F06E80
:103DF00000280BD0B06E281A81B20B204843294608
:103E0000FCF700FD80004A490858F061B17A494842
:103E100000290AD029220021B1547172783DBD6178
:103E20000068400716D5B17214E000680422024011
:103E30005042504170722921735C92085A40012A05
:103E400001D1705406E00020705405200A210A4672
:103E500000F002FA707B002819D1012000023649D7
:103E60000A68024050425041F0722B21735C120AE2
:103E70005A40012A01D1705409E00020B063B07AA1
:103E8000002804D105200A210A4600F0E5F92C207B
:103E9000305C317B884215D13420325C317D9142D7
:103EA00013D13520325C717D914216D13069316B6E
:103EB000884219D1B069B16B88421CD1F069F16BAD
:103EC000884222D10120307029E031543078012419
:103ED000002824D00A2120461EE0315430780224E4
:103EE00000281CD0012016E030633078032400281D
:103EF00015D002200FE0B06301994143B9603078DA
:103F0000042400280BD0032005E0F063307805245A
:103F1000002804D004200A210A4600F09DF920461A
:103F2000FEBDC046E0010010FC03001000000010C0
:103F3000FC000010FC3F0050FC3F0150F0B597B072
:103F40001F46054601231E469640880031490C58FD
:103F50000493D80321580696B143215007A8402165
:103F6000FCF709FC2C4823180020402804D007A99E
:103F700000220A54401CF8E700262848069A3C46CE
:103F80001968114202D1641EFAD133E0002C31D0FD
:103F9000019703950593FDF781FB059B069A07A8FA
:103FA0000296855D0027082F10D01E681C48FDF77B
:103FB00075FB069A164201D0002001E00498B84033
:103FC00005437F2005407F1C059BECE707A8029E68
:103FD00085550020039D019F1968114203D0401CA4
:103FE0008442F9D105E0761C412E0C48C7D1412608
:103FF00000E0761C07A80078002808D007A8002E4B
:1040000005D001782970401C6D1C761EF7E7002052
:1040100017B0F0BD704E0000FC3F0000D10400005E
:1040200041030000FEB500241B20122827D0ED4DCF
:104030002F69611C01910A2602903046114A90476F
:1040400001463846FCF7DEFB0F462D693046214617
:104050000C4A904701462846FCF7D4FB7D1A3046AF
:104060002146084A904701462846FCF7CBFB3030F2
:104070000299EC4A50540298401E019CD5E7FEBDBF
:10408000FC0300102B350000F8B500240525164E62
:1040900020462946B047154F786006202946B0478C
:1040A0007A6821462346FCF7A7F80A2632462346BB
:1040B000FCF7A2F80E4A2346FCF722F9D84988817A
:1040C00007202946084A90477A6821462346FCF78C
:1040D00093F832462346FCF78FF8054A2346FCF74F
:1040E0000FF9CF49C881F8BDC51400006C0200105B
:1040F000BF090000B0B54021BA4A002903D000230F
:1041000008C2491EF9E7B74931240A22FF230B6090
:104110004A608A60CC60002800D00B6105204A63A9
:104120008863C8630123782000247D252D014B611D
:104130008A61CC6108624B628A62CA620D636F2039
:1041400000021A0200F0B4FBB0BDC046F8B5B64894
:10415000017F00291CD0F14B196A25228154017B73
:10416000384A08292CD80125290214680C43146008
:10417000017B1A68CBB25B1E1446DC40E30733D1E7
:1041800000244460491C0173CBB2082BF2D956E0DD
:10419000A94C6078002801D0FFF79AFCE07861799B
:1041A000014301D000F0EEFA294801684022914312
:1041B00001602848016810220A43026001243EE0A1
:1041C000002181779C4E7171017301771E4B19702C
:1041D000336924245C43016041608460C38C1B4CC0
:1041E000A34205D30B4604E0FEF7A4FE2C4626E0CE
:1041F0005B1CC384012420021368834313600A25D7
:1042000028460A4600F028F8854800696427474395
:104210007169092048432946FCF7F4FA87420CD318
:104220007078002809D0002070700124B4700A2032
:104230000921022200F010F801E00020B0702046B1
:10424000F8BDC046FC3F02500A020010E8FD000025
:10425000FC3F0050FC3F0350F8B514460546AF48FC
:10426000006A2522704EB054074F3878082800D1D4
:104270000146064A1170A84203D00020FCF79DFFBA
:104280003D703461F8BDC046700100100802001096
:1042900010B54178212901D1002413E030219F4A33
:1042A0003A2905D04378994200D1D160491CF7E7FB
:1042B0006F20000201242202984900F0F9FA5F48B9
:1042C00000F0DCF9204610BDF8B516460D46454F06
:1042D00001243F2802D0F968814256D142A12846E4
:1042E000FCF74CFA002824D040A12846FCF746FAF7
:1042F000002820D03EA12846FCF740FA002823D011
:104300003CA12846FCF73AFA002822D03AA12846D8
:10431000FCF734FA00283AD038A12846FCF72EFAE8
:10432000002837D02878412839D12846FFF7B0FF38
:1043300055E0424827E03B483E49C1613E49097982
:10434000002903D0522102E038A01CE04C218173E7
:1043500019E034480146243100220A710A730A75B3
:104360000A773149C98CC1632D494A688B68642535
:104370006A4342626B43C3620969694341633046E1
:10438000FDF728F9304600F079F9E0B2F8BD24488D
:10439000006900E00020F86100F0F0F8F5E719A1ED
:1043A00007222846FCF738F900280ED017A1284626
:1043B000FCF7E4F900280CD017A104222846FCF7EA
:1043C0002BF9002808D00024DFE7284600F07EF80B
:1043D00005E000F07FF9D8E72846FFF7AFF804467C
:1043E000D3E7C046FC030010210000004921000073
:1043F0004D210000443021005843210058524321F0
:104400000000000058534E535F534E00585253540F
:104410005F535453210000005850524100000000E7
:10442000140200102C010010E00100103030303375
:1044300000000000414D303174020010384F000080
:1044400070B51C4801681C4A0A4302601B480021E1
:1044500001600168072291430160016818229143BD
:104460000160016808220A4302608024E643144D7B
:104470002868304028607D20C000FDF70FF968688B
:1044800030406860A8683040A860E8682043E86071
:10449000286920432861EC61FF20000609490A6869
:1044A000824301208307D2180A60C00706490860CA
:1044B00070BDC04680800440400001005040044070
:1044C000008000501CE400E000E100E0F8B5044684
:1044D000007C212812D1BB4D002028610726102E18
:1044E0000ED0A75D303F0F2171400A20FFF71DF865
:1044F0007843296940182861761CF0E700240AE017
:104500006F20000201242202AE4900F0D1F9FFF72A
:1045100089FD00F033F82046F8BDC046FC030010CA
:1045200010B59AB012AC1E212046FCF724F909A858
:104530002421FCF720F9002107220D4B2046FFF72C
:10454000FDFC207801211E2907D012AA525C01AB84
:104550005B185B1E1A70491CF5E701A909AAFFF751
:10456000B3FE002802D103A000F088F81AB010BDF5
:10457000AC0D00004552524F5200000080B502A021
:1045800000F07CF880BDC0464F4B2100F0B585B0EF
:1045900000900127FD0397408800324B1E58705948
:1045A00003973843705130483718002901D1072A42
:1045B00006D038680399084338602C48FDF76EF838
:1045C000701901903868039DA84338602848FDF7AA
:1045D00065F8ED4327480290009C049538680399DC
:1045E000084338602448FDF759F800252E46072D6A
:1045F00011D02078E840C007386803D004990840FB
:10460000386003E0039908433860761C1A48FDF7C8
:1046100045F86D1CEBE73868F10703D003990843B0
:10462000049D01E0049D28403860134E3046FDF79C
:1046300035F83868284038603046FDF72FF8607844
:10464000002805D0641C0299481E00290290C5D19B
:10465000386828403860019908682840086005B02B
:10466000F0BDC046704E0000FC3F0000E02E000090
:104670008A200000C0D401004103000070B588B05A
:104680005049C9686A461170421C0078104B0021DD
:104690004C1CE5B26E4670551078002806D0521CAE
:1046A0005D1E190421462B46F2D11021C81CC2B24E
:1046B00068460A2383548A1CD2B20D238354091DF1
:1046C000CAB2002181540722FFF760FF08B070BD15
:1046D0001027000080B588B068462021FCF74BF811
:1046E00015480068C10704D0694600220A711349C1
:1046F0000091810704D5694600220A711049009192
:10470000410704D5694600220A710E49009101074C
:1047100004D5694600220A710B490091C00604D5F0
:10472000684600210171094800906846FFF7A6FF1E
:10473000012008B080BDC046280500102B504F5204
:104740002B4558542B5744542B424F442B53595309
:1047500080B51D494A780A484378934205D1C97803
:10476000C2788A4203D1002080BD427000E0C1704F
:104770000A2105200246FFF76FFD012080BDC046DB
:104780009402001010B541488168002900D010BD86
:104790000C49096A252281540121017300214160DD
:1047A0007D2292008261FF2202328283064A137BBD
:1047B0003C245C43527BA218026008200A46FFF7A3
:1047C0004BFD10BDFC0300107402001070B50120F9
:1047D000C04331490A6802400A600A6840239A438C
:1047E0000A600822D3432B4A14681C4014602B4CE7
:1047F00025682026B543256014680425AC43146061
:104800000C681C400C601168022399431160116808
:104810000140116070BDC04670B51C4E30681C4D23
:104820001C4C002810D0FFF7D1FF307B421E072A16
:1048300022D819497A441279520097441A030F1169
:104840000D161814402014E0286840218843286081
:1048500021681020084316E0042009E0082007E042
:1048600020200E4905E0012002E0082001E002209E
:1048700021460A6802430A602868402101432960F2
:10488000206810218843206070BDC046E001001000
:10489000FC3F0050FC3F0350FC3F0250FC3F0150E6
:1048A0000248AA210160552101607047084000407C
:1048B000F0B58DB015460291064672B6000B039016
:1048C000099032240894B018401E070B0A9708A8D4
:1048D00004A9204A90470320C0430499002902D02C
:1048E00062B6C01C34E0019000941B4C0B940A97F4
:1048F000039809903420089008A804A9154A904705
:104900000498002803D062B60198801C20E00A9722
:10491000039809900098089008A804A90D4A9047A8
:104920000498002803D062B60198401C10E00C9453
:104930000B9502980A9009963320089008A804A9BC
:10494000044A904704990029019800D1084662B6AC
:104950000DB0F0BDF11FFF1F80BB000030380A28EA
:1049600001D20120704700207047040000080000B9
:104970000000000000020001000010202E2D3D3A32
:104980003031323334353637383941424344454685
:104990004748494A4B4C4D4E4F505152535455562F
:1049A0005759C7C3000000000000000000000000CD
:1049B0000000000000000000000000000000303097
:1049C00000000000000000000000000000000101E5
:1049D0000101010101404040404040400004040406
:1049E0000404040400000000C0C000000000000037
:1049F000303000000000E010080810E000000F1048
:104A00002020100F00001010F800000000002020EF
:104A10003F2020000000700808088870000030283F
:104A200024222130000030088888483000001820F7
:104A30002020110E000000C02010F8000000070424
:104A400024243F240000F808888808080000192161
:104A50002020110E0000E0108888180000000F11BF
:104A60002020110E0000380808C838080000000097
:104A70003F000000000070880808887000001C22B9
:104A80002121221C0000E010080810E00000003185
:104A90002222110F000000C038E0000000203C235B
:104AA000020227382008F8888888700000203F20FC
:104AB0002020110E00C03008080808380007182010
:104AC000202010080008F808080810E000203F2007
:104AD0002020100F0008F88888E8081000203F20E8
:104AE000202320180008F88888E8081000203F20BC
:104AF0000003000000C03008080838000007182034
:104B000020221E020008F808000008F808203F21B3
:104B10000101213F20000808F808080000002020BB
:104B20003F2020000000000808F8080800C080802E
:104B3000807F00000008F888C028180800203F2067
:104B4000012638200008F8080000000000203F205F
:104B5000202020300008F8F800F8F80800203F0076
:104B60003F003F200008F830C00008F808203F2030
:104B70000007183F00E01008080810E0000F1020A0
:104B80002020100F0008F808080808F000203F2136
:104B90000101010000E01008080810E0000F1824CF
:104BA0002438504F0008F8888888887000203F20FB
:104BB00000030C30200070880808083800003820F6
:104BC0002121221C00180808F808081800000020FD
:104BD0003F2000000008F808000008F808001F2027
:104BE0002020201F000878880000C838080000072F
:104BF000380E010000F80800F80008F800033C0730
:104C000000073C03000838C800C83808000000202E
:104C10003F20000000C030080808083800875820EE
:104C200020201008000006C139E2020404203C23C1
:104C30000202273820000000000000000000606031
:104C40000000000000000808080808000000141414
:104C500014141400000000363600000000003E511D
:104C600049453E00000000427F40000000006251C4
:104C70004949460000002241494936000000181405
:104C8000127F1000000027454545390000003C4ACE
:104C90004949300000000171090503000000364950
:104CA000494936000000064949291E0000007E09D6
:104CB00009097E0000007F494949360000003E4155
:104CC0004141220000007F4141221C0000007F4939
:104CD0004949410000007F090909010000003E41E7
:104CE0004151720000007F0808087F000000417FEA
:104CF0004100000000002040413F010000007F080B
:104D00001422410000007F404040400000007F022C
:104D10000C027F0000007F0408107F0000003E416D
:104D200041413E0000007F090909060000003E41A4
:104D300051215E0000007F09192946000000264924
:104D400049493200000001017F01010000003F409D
:104D500040403F0000001F2040201F0000000000D6
:104D60000000000000000000000000000000020140
:104D700051090600000002015109060000FFFFFF73
:104D8000FFFFFFFFC000073FFFFF7F0F0080FFFF17
:104D9000FFFFFFFFFF1F0F0F878787878F8F0E088B
:104DA000F0F0080C8F8F878787870F0F1FFEFEFF9D
:104DB0001F1F0F07C3E0F8FEFFFFFCF0C0C3070F83
:104DC0001F1FFFFEFEE03018C8081838E0070C1857
:104DD0001111190C077CC683191183C67CFC78312C
:104DE0003F3F3178FC000000E0C08000000001017E
:104DF0000F07030100000000000000000000000099
:104E000000000000007E4242424242424242424290
:104E1000424242427E42424242424242427E7E7E82
:104E20007E7E7E7E7EFF010101010101FFFF808009
:104E300080808080FFFF013D3D3D3D01FFFF80BC44
:104E4000BCBCBC80FF0010307E7E30100000080C1F
:104E50007E7E0C0800001818187E3C180008080810
:104E6000080808080800000000000000000000001A
:104E700000000050000001500000025000000350EC
:104E8000202020200030202D2000524554524F4C2D
:104E90004156200030300020312032203320342091
:104EA0003520362037203800342D32304D413A003D
:104EB0005350442D41503A005350442D42503A0033
:104EC000534543004F4646004D4F444F20524554F2
:104ED000524F4C41564147454D004D494E004F4EB3
:104EE00000534E532E204445534C494741444F00F4
:104EF0004552524F005052455353C34F0042415206
:104F000000253032643A25303264002B424F440091
:104F10002B504F52002B535953002B574454002B06
:104F2000455854002B2564736563002B25642B259D
:104F300064002B256462617200000000604F000075
:104F40000000001078010000140B00002850000041
:104F500078010010D00A00002001000000000000CD
:104F600011100C0102030405060708090A0F100CB2
:104F7000020406080A0F141E28323C5B02050A349C
:104F80005A78193232324B326432C8232C011A90CB
:104F90000423580223200323B00423600933C012E2
:104FA000500F6CDC0253454E534F5220414E20317E
:104FB0008910294A012258110146494C54524F5335
:104FC00020484142494C495441100A455320342D50
:104FD00032304D41600B4D4F444F2054454D504FA2
:104FE00039101A50213B53C312391B1C204445244D
:104FF000334C415C494E462A91A9C85AF4CC5ABC5C
:10500000D01A84041AE8041A4CD829DC2314052F7A
:10501000313333563320011C52494606E4333034D1
:08502000D90F0114720A00000F
:04000005000000C136
:00000001FF
